:0A0000000C9455000C9400000C94C1
:10000A0000000C9400000C9400000C9400000C9466
:10001A0000000C9400000C9400000C9400000C9456
:10002A0000000C9400000C9400000C9400000C9446
:10003A0000000C9400000C9400000C9400000C9436
:10004A0000000C9400000C9400000C9400000C9426
:10005A0000000C9400000C9400000C9400000C9416
:10006A0000000C9400000C9400000C9400000C9406
:10007A0000000C9400000C9400000C9400000C94F6
:10008A0000000C9400000C9400000C94000010274F
:10009A00E80364000A0001000010000110000100DA
:1000AA00F894EE27EFBBF1E0F5BFE5BF8DE0A2E0E3
:1000BA00BB27ED938A95E9F780E090E2A0E0B1E0F2
:1000CA00ED930197E9F78BBFE0E0EEBBEFEFEDBFF1
:1000DA00E0E2EEBFC0E0D9E00C94A200BA93AA9382
:1000EA001A934298419810E0103180F4EA81E0783E
:1000FA0011F4409801C0409A429A4298E981FA81E3
:10010A00EE0FFF1FE983FA831F5FEECF419A4198F2
:10011A00188123960895E7E0E7B9A0E0B9E0DEDFA9
:10012A00A8E0BAE0DBDFA7E0BBE0D8DFA1E0BCE0F3
:10013A00D5DFA0E0BFE0D2DF0895279AE0E0E093A0
:10014A00C800E0E1E093C900E6E0E093CA00E0E01D
:10015A00E093CD00E3E3E093CC00DDDFE1E03E2E67
:10016A0013D04E2EE32DF0E00E94D000DF01E42DE3
:10017A00F0E0EA2BFB2BDF01B1DF3394E7E0E31574
:10018A0008F43324EDCFFFCFE091C800E078E1F323
:10019A00E091CE000895EE0FFF1FEE0FFF1F0895A6
:00000001FF
