:0E0000000C94F4000C9400000C9400000C947E
:10000E0000000C9400000C9400000C9400000C9462
:10001E0000000C9400000C9400000C9400000C9452
:10002E0000000C9400000C9400000C9400000C9442
:10003E0000000C9400000C9439020C9400000C94F7
:10004E0000000C9400000C9400000C9400000C9422
:10005E0000000C9400000C9400000C9400000C9412
:10006E0000000C9400000C9400000C9400000C9402
:10007E0000000C9400000C9400000C9400000C94F2
:10008E0000000C9400000C940000C7BBBBBBBBBBB4
:10009E00BBBBC700EF8FEFEFEFEFEFEF830088DD15
:1000AE00DDDDC1DDDDDD8800FFFFFF81BBF7EFDDAC
:1000BE00810020222A2B2C5B3D5D7C7F00000004FA
:1000CE000002000180004000200010000800040023
:1000DE0002000000008000400020001000080040D8
:1000EE00002000100008000400021027E80364003E
:1000FE000A000100001000011000010003030302BA
:10010E00020C000800010006303A494D3030302E06
:10011E00424D50004472697665206E6F206465749E
:10012E0065637461646F00447269766520636572FD
:10013E007261646F002E2E2E0057656C636F6D65B5
:10014E00005374617274696E672020202020003085
:10015E003A424153452E424D50004C6973746F2004
:10016E0020202020200046696C65206572726F7217
:10017E0000626173652E626D70206572726F72001F
:10018E0001000400EBFE904D53444F53352E3000CA
:10019E004E4F204E414D45202020204641543332B3
:1001AE00202020004E4F204E414D4520202020463D
:1001BE0041542020202020000B000F0A16010000C1
:1001CE000B0000095D0100000100EB0E8E01000026
:1001DE000100EF0E900100000000F894EE27EFBB37
:1001EE00F1E0F5BFE5BF8DE0A2E0BB27ED938A9568
:1001FE00E9F780E090E2A0E0B1E0ED930197E9F736
:10020E00E6ECF1E0D0E0DBBF87919791009781F0AB
:10021E00A791B79107901790C791D791BF01DBB700
:10022E00F001CBBF07900D920197E1F7FB01EBCFE9
:10023E00E0E0EEBBEFEFEDBFE0E2EEBFC0E0D9E0F5
:10024E000C9479022C978CE0A0E0B0E0EAE0F1E0AB
:10025E0060E00E94571D1A93849A859A809A819A1B
:10026E00829A839AA2E3B0E00E94D21A10E01C3068
:10027E0068F40E940D17E12FF0E0DE011196AE0F2B
:10028E00BF1FAC910E9411171F5FF1CFECE04E2EF5
:10029E00A42D21D018812D9608958C9A8C980895AE
:1002AE00AA93E881E87011F08B9A01C08B98E881CF
:1002BE00E47011F08A9A01C08A98E881E27011F018
:1002CE00899A01C08998E881E17011F0889A01C07D
:1002DE0088980C94C005AA931A938D980E940D17B6
:1002EE000E9415170E941C17D8DF188141C0AA93CF
:1002FE001A938D9A0E940D170E9415170E941C17B3
:10030E00CCDF188135C00E94231D1A9310E0E12F17
:10031E001F5F0E9423176BBFA691E9DFE12F0E949A
:10032E0023176BBFE691E03091F71881259608955B
:10033E00A1E0D1DF0895AA93E881F0E0309719F497
:10034E00A981A05814C0E130A0E0FA0719F4A981E0
:10035E00A0540DC0E230A0E0FA0719F4A981AC5602
:10036E0006C0E330A0E0FA0719F4A981AC52B3DF5E
:10037E0022960895AA93E881E06CE0937C0085E3D1
:10038E008A95F1F7E0917A00E064E0937A00E091CB
:10039E007A00E071E1F3E0917A00E061E0937A0097
:1003AE00E0917800F09179000C94C0050E944B1DED
:1003BE0010E000910F09312F11E0103868F50E94FE
:1003CE002D17EA17FB07E1F4A12FBB27E32FF0E06F
:1003DE000E942E1DEA1BFB0B0E94611C0E94421BF9
:1003EE00AEEEB3E983E298E30E94701BA0E0B0E0AA
:1003FE0080E89FE30E94BE1B0E94091B2E2F312F07
:10040E000E942D17AE17BF072CF4E12F0E943A174A
:10041E000C91312F1F5FD1CFE22FF0E00E94521DC1
:10042E00249608951A930A9300E010E00038E0E055
:10043E001E07ACF4F801AFE0B9E0EE0FFF1FEA0FB4
:10044E00FB1FFF93EF93A7E095DFAF91BF91ED9365
:10045E00FC9380ED8A95F1F70F5F1F4FE7CF09915F
:10046E00199108950A921A92FA926A937A938A933C
:10047E009A93AA93BA93EA93FA93EBB7EA93EFB7E8
:10048E00EA930E942E08E991EFBFE991EBBFF99133
:10049E00E991B991A9919991899179916991F9907F
:1004AE00199009901895E0E0EA93ABE1BAE00E944A
:1004BE00BE11E03039F00E944217A2E2B1E080E0B6
:1004CE0090E021DF0895E0E0EA93A0E0B0E00E9422
:1004DE00BE110E944217A5E3B1E080E090E00E94B9
:1004EE00491708950E942901E0E8E0937E00E0ECB0
:1004FE00E0937C00E4E8E0937A00E0E8E0937B0090
:10050E005F9AE0936100E0E0E0936100EAE0E0933F
:10051E008100EEE4E0938900EFE1E0938800E2E0F1
:10052E00E0936F00A3E4B1E080E090E0ECDE78941D
:10053E00A0E048D2A8ECB0E00E94D21AE0E0EA9324
:10054E00A0E0F9DEA7E4B1E080E090E0DCDE4F99B8
:10055E00DBC0EEDEAFE4B1E080E090E0D4DE62DF3F
:10056E0025DF5E2E6F2E9FDF0E944F17E0E0F9E031
:10057E00FA93EA93A1E00E94EE11E03009F0BAC0BE
:10058E000E944F17EDE6FEE00E9454170E942413BE
:10059E00ADE4BCE00E94C1160E944F17EFE0FAE0F6
:1005AE00FA93EA93AAE00E94EE11E03009F096C0A9
:1005BE000E944F17EDE6FEE0FA93EA93EEE3F0E0C9
:1005CE00FA93EA93A7E0B0E00E9490149924AA242B
:1005DE00E0E0F1E09E16AF060CF075C03324E0E4C7
:1005EE003E1640F4E32DF0E0E555F14FAFEFA0835A
:1005FE003394F5CF3324E0E83E1608F057C0E32DD0
:10060E000E943A170E94F11CFE2FE0E0DF01E0E0AD
:10061E00F4E00E94AB1C9E16AF06A9F4E32DF0E0A9
:10062E003196DF01E2E0F0E00E94D51CE130A0E05F
:10063E00FA0721F40E945D17EF7003C00E945D1748
:10064E00E07FDB01EC93A92DBA2DEAE0F0E00E94E9
:10065E006C1C0E2EE2E1F0E00E94661CE02121F1FE
:10066E000E946817E856FF4F6F4F6BBF06900092BF
:10067E00AC0E0E946817EE55FF4F6F4F6BBF069082
:10068E000092AD0E0E946817E455FF4F6F4F6BBF7F
:10069E0006900092AE0E0E946817EA54FF4F6F4FFD
:1006AE006BBF06900092AF0E3394A5CF0E944F17EA
:1006BE00EBEAFEE00E9454170E949014E1E0F0E095
:1006CE009E0EAF1E85CF34DEA8E6B1E080E090E04E
:1006DE001ADEADE4BCE00E94C11607C00E944217AC
:1006EE00A4E7B1E080E090E00EDEA8EEB3E00E9459
:1006FE00D21A08C00E944217AFE7B1E080E090E046
:10070E000E944917E0DE14DE19CFFFCFAA930E9494
:10071E004B1D20E00C81AD81BE813D91AD83BE832A
:10072E0018E0220FE22FE327E07811F0E9E02E2700
:10073E00330F1150B1F7015071F7E22FEE0FE16058
:10074E000E94521D39C51A93E2E3E093ED0EEFEFCE
:10075E00EEBDEDB5E7FFFDCFEFEFEEBDEDB5E7FF7B
:10076E00FDCF1EB51F3F21F0E091ED0EE03009F4F4
:10077E0001C0F2CFE12F9FC4289AEFEFEEBDEDB589
:10078E00E7FFFDCF0895BA93AA930E944B1DE4E1B3
:10079E00E093EC0EEFEFEEBDEDB5E7FFFDCF1EB52E
:1007AE001F3F21F4E091EC0EE03009F401C0F2CFCE
:1007BE001E3F21F0E0E00E94521DB6C22E813F8105
:1007CE00EFEFEEBDEDB5E7FFFDCF3F932F932F5F1C
:1007DE003F4FEEB5AF91BF91EC93EFEFEEBDEDB5A0
:1007EE00E7FFFDCF3F932F932F5F3F4FEEB5AF91B6
:1007FE00BF91EC93EFEFEEBDEDB5E7FFFDCF3F936D
:10080E002F932F5F3F4FEEB5AF91BF91EC93EFEF6C
:10081E00EEBDEDB5E7FFFDCF3F932F932F5F3F4F1B
:10082E00EEB5AF91BF91EC93EC81FD813497EC83E3
:10083E00FD8331F6EFEFEEBDEDB5E7FFFDCFEFEF48
:10084E00EEBDEDB5E7FFFDCFE1E00E94521D6CC29B
:10085E00AA930E944B1D77DFEF3F21F0E0E00E944C
:10086E00521DAAC4EC81EEBDEDB5E7FFFDCFAC8104
:10087E00AD3F69F100E02D813E81D9012F5F3F4FE1
:10088E00EC91EEBDEDB5E7FFFDCFD9012F5F3F4FE8
:10089E00EC91EEBDEDB5E7FFFDCF015071F7EFEF37
:1008AE00EEBDEDB5E7FFFDCFEFEFEEBDEDB5E7FF2A
:1008BE00FDCFEFEFEEBDEDB5E7FFFDCF1EB5E12F9E
:1008CE00EF71E53021F0E0E00E94521D75C4E1E0C9
:1008DE000E94521D71C40E94231D1A930A93EE8129
:1008EE00E07881F0EE81EF77EE83E7E7EA93A0E020
:1008FE00B0E080E090E0EFDF0E2F023018F01981AB
:10090E0008815AC4AE81AC3449F036DF28981BDF1B
:10091E00EF3F21F0EFEF198108814EC4EE81EEBD5D
:10092E00EDB5E7FFFDCFED81EEBDEDB5E7FFFDCFF8
:10093E00EC81EEBDEDB5E7FFFDCFEB81EEBDEDB584
:10094E00E7FFFDCFEA81EEBDEDB5E7FFFDCF11E08C
:10095E00AE81A03411F415E904C0AE81A83409F4B7
:10096E0017E81EBDEDB5E7FFFDCFAE81AC3429F41F
:10097E00EFEFEEBDEDB5E7FFFDCF1FEFEFEFEEBDF5
:10098E00EDB5E7FFFDCF0EB507FF02C0115009F41C
:10099E0001C0F4CFE02F198108810EC4BA93AA9337
:1009AE001A9314E0EFEFEEBDEDB5E7FFFDCFA98191
:1009BE00BA811196A983BA831197EEB5EC931150B3
:1009CE0089F7ECC4AA9324970E944B1DE885E0306A
:1009DE0011F0E1E0C2C024982598EAE0E093EC0E15
:1009EE00E091EC0EE030E1F7E091EB0EE27009F0F1
:1009FE00B2C0209A289AE5B1E97FE5B92B9A2398DF
:100A0E00E4B1E760E4B9E3E5ECBDE0E0EDBD3FEF56
:100A1E001AE0EFEFEEBDEDB5E7FFFDCF1150C9F7D0
:100A2E00E0E4EA93A0E0B0E080E090E054DF0E2F27
:100A3E003150013011F0303009F401C0E9CF30E00F
:100A4E00013009F068C0E4E6E093EC0EE8E4EA93C6
:100A5E00AAEAB1E080E090E03EDFE13091F5DE0100
:100A6E0014969CDFAE81A13019F4AF81AA3A09F039
:100A7E0027C0E091EC0EE03049F0E9EEEA93A0E0F9
:100A8E00B0E080E090E427DFE03009F401C0F1CF60
:100A9E00E091EC0EE03049F0EAE7EA93A0E0B0E036
:100AAE0080E090E018DFE03009F00AC0DE01149615
:100ABE0075DFEC81E07411F0ECE001C0E4E03E2F54
:100ACE002AC0E9EEEA93A0E0B0E080E090E003DF18
:100ADE00E23018F432E009EE02C031E001E4E091B8
:100AEE00EC0EE03041F00A93A0E0B0E080E090E040
:100AFE00F2DEE03009F401C0F2CFE091EC0EE0300E
:100B0E0049F0E0E5EA93A0E0B2E080E090E0E3DEB9
:100B1E00E03009F030E03093EE0E2EDE303051F042
:100B2E00E091EB0EEE7FE093EB0EE0E5ECBDE1E045
:100B3E00EDBD11C0289807DE1FDEE0E0ECBDE4B18C
:100B4E00E07FE4B9E5B1E07FE5B92098E091EB0EE6
:100B5E00E160E093EB0EE091EB0E0E94521D2996A0
:100B6E000895AA93E881E03011F0E1E002C0E0912F
:100B7E00EB0E21960895AA93EF81E03019F4E881E7
:100B8E00E03011F4E4E0D0C0E091EB0EE17011F032
:100B9E00E3E0CAC0E091EE0EE87071F4E981FA81EB
:100BAE006B817C81A0E0B2E080E090E00E94721C3C
:100BBE00E983FA836B837C83A881A130A9F4E1E5F4
:100BCE00EA93AA81BB818C819D8185DEE03059F448
:100BDE00ED81FE81FA93EA93A0E0B2E0D4DDE0303D
:100BEE0011F0E0E0E88323C0E2E5EA93AA81BB813D
:100BFE008C819D8170DEE030D1F4ED81FE81FA931F
:100C0E00EA93A0E0B2E0BFDDE03051F0ED81FE816D
:100C1E00E050FE4FED83FE83E881E150E88369F7F3
:100C2E00ECE4EA93A0E0B0E080E090E054DEA4DDD6
:100C3E00E881E03011F0E1E001C0E0E075C0AA9378
:100C4E00EF81E03019F4E881E03011F4E4E06CC09B
:100C5E00E091EB0EE17011F0E3E066C0E091EB0E77
:100C6E00E47011F0E2E060C0E091EE0EE87071F415
:100C7E00E981FA816B817C81A0E0B2E080E090E0B6
:100C8E000E94721CE983FA836B837C83A881A13056
:100C9E00A1F4E8E5EA93AA81BB818C819D811BDEDC
:100CAE00E03051F4ED81FE81FA93EA93AEEFD0DDA0
:100CBE00E03011F0E0E0E88330C0E091EE0EE67037
:100CCE0039F0E7EDEA93A981BB278827992703DE40
:100CDE00E9E5EA93AA81BB818C819D81FCDDE03040
:100CEE00E1F4ED81FE81FA93EA93ACEFB1DDE030F1
:100CFE0051F0ED81FE81E050FE4FED83FE83E881E1
:100D0E00E150E88371F7E0E0F0E0FA93EA93ADEF9B
:100D1E009FDDE03011F4E1E0E8832EDDE881E03084
:100D2E0011F0E1E001C0E0E028960895BA93AA938D
:100D3E0060970E944B1DEF89E03011F0E4E083C113
:100D4E00E091EB0EE17011F0E3E07DC111E0EE8970
:100D5E00E03031F42898F7DCEF3F09F410E071C170
:100D6E00E13009F05BC0E9E4EA93A0E0B0E080E096
:100D7E0090E0B1DDE03049F4FE013496FA93EA9347
:100D8E00A0E1B0E000DDE03009F447C0EC81E2956F
:100D9E00EF70E695E695E13069F4E0E0FC85AD850F
:100DAE00B0E0EA0FFB1F31969F01D90188279927E2
:100DBE00EAE02CC0E985EF70AE2FEE85E078EE1FED
:100DCE00E0E0EE1FAE0FED85E370EE0FEA0FEE5F83
:100DDE000E2FEC85E295EF70E695E695AE2FEB853E
:100DEE00F0E00E94441CB0E0AE0FBF1FEA85E37036
:100DFE00F0E00E94441CFE2FE0E0EA0FFB1F31964C
:100E0E009F01D90188279927E02FE9500E94281CBD
:100E1E00AC89BD890E94001D10E013C1E23041F47F
:100E2E00AC89BD89E0E0F2E0ED93FC9310E009C1DE
:100E3E00E33009F0ABC0E091EE0EE47081F1EDEC21
:100E4E00EA93A0E0B0E080E090E045DDE03031F5DF
:100E5E00EFEFEEBDEDB5E7FFFDCFFE013496FA9351
:100E6E00EA93A0E1B0E08FDCE030C1F000E30030A7
:100E7E0039F0EFEFEEBDEDB5E7FFFDCF0150F7CF47
:100E8E00EE85E295EF70A0E1B0E080E090E00E9488
:100E9E00281CAC89BD890E94001D10E076C0E9E4D3
:100EAE00EA93A0E0B0E080E090E015DDE03009F0DC
:100EBE006CC0FE013496FA93EA93A0E1B0E063DCD5
:100ECE00E03009F462C0E091EE0EE27051F1EE8571
:100EDE00EF73FF27662777270E94521C7F936F932D
:100EEE00FF93EF93EF85E078FF2766277727DF01E3
:100EFE00CB01E7E00E94341CAF91BF918F919F917F
:100F0E000E94031CEF5FFF4F6F4F7F4FDF01CB013E
:100F1E00E989E295EF70E695E695E1500E94281C6E
:100F2E002FC0EE85EC77E695E695FF2766277727A7
:100F3E00EF5FFF4F6F4F7F4F7F936F93FF93EF9353
:100F4E00EF85E370FF2766277727DF01CB01E3E00C
:100F5E000E94281CDF01CB01EF85E07EE295EF7049
:100F6E00E695FF27662777270E94031CEF5FFF4F4A
:100F7E006F4F7F4FAF91BF918F919F910E94721CC7
:100F8E00AC89BD890E94001D10E05BC0EA3039F4C7
:100F9E00E091EE0EAC89BD89EC9310E052C0EB30BF
:100FAE0011F409E403C0EC3001F50AE40A93A0E061
:100FBE00B0E080E090E08FDCE030B1F4EC89FD89A8
:100FCE00FA93EA93A0E1B0E0DEDBE03069F0EC8961
:100FDE00FD89FA93EA93AFE099DBAE2FEC89FD8998
:100FEE00E785EA1709F410E02CC0ED3071F4EAE75A
:100FFE00EA93A0E0B0E080E090E06DDCE03021F418
:10100E00AC89BD89CBDC10E01CC0EE30C9F4EDEC30
:10101E00EA93A0E0B0E080E090E05DDCE03079F4AF
:10102E00EFEFEEBDEDB5E7FFFDCFEC89FD89FA934D
:10103E00EA93A0E4B0E0A7DBE03009F010E001C0D5
:10104E0014E09ADBE12F0E94521D689608951A93C0
:10105E001091EC0E103019F011501093EC0E1091FF
:10106E00ED0E103019F011501093ED0E1091EF0E91
:10107E00E0E0E093EF0E1C9903C0E1E0E093EF0E89
:10108E001D9B05C0E091EF0EE260E093EF0EE09144
:10109E00EF0EE11781F41091EB0EE17011F01D7F50
:1010AE0001C01360E091EF0EE27011F0146001C008
:1010BE001B7F1093EB0E199108952797A0910B09A2
:1010CE00B0910C09109731F0A0910D09B0910E0955
:1010DE00109729F4E0E0F0E061E27AE36DC0FE01E2
:1010EE003696FA93EA93FE013796FA93EA93DE0167
:1010FE001896E0910B09F0910C090995FE013396B3
:10110E00FA93EA93FE013496FA93EA93DE0114966B
:10111E00E0910D09F0910E090995E881F981EC5BDA
:10112E00F74066277727DF01CB01E9E10E94281CF3
:10113E007F936F93FF93EF93EA810E946F17E5E120
:10114E000E94281CAF91BF918F919F910E94171CF6
:10115E00DF01CB01EB81F0E00E94611C0E945C1C60
:10116E000E94171C7F936F93FF93EF93EE810E9463
:10117E006F17EBE00E94281CAF91BF918F919F914A
:10118E000E94171C7F936F93FF93EF93ED810E9444
:10119E006F17E5E00E94281CAF91BF918F919F9130
:1011AE000E94171CDF01CB01EC81F0E0F595E7956D
:1011BE000E94611C0E94171C27960895AA931A93E9
:1011CE000E9475176BBFE6911E2FE03019F0E98172
:1011DE00E11709F40FC0DE0112960E94FB1CEF5FAF
:1011EE00FF4F6F4F7F4F0E94051DE150F040604052
:1011FE007040E6CFE12FF0E01881269608950E9408
:10120E00231D24971A93A985BA859E960E94F51CD4
:10121E000E947A170E947F170E9484170E943F1D1A
:10122E0009F452C0E985FA85E481E03079F10E9433
:10123E008917E030F1F5A985BA851496E0E0EC93B4
:10124E00E985FA850E949B170D01A985BA855A96E4
:10125E000E94F51CD0010E94031C0E9484170E945C
:10126E00441DA0F4E985FA851381123078F0A98522
:10127E00BA855A960E94F51C0E9484170E94031C80
:10128E000E947A170E9489171150EFCF0E947F1784
:10129E000E94351DC9F0E985FA85A181AA93EA85D8
:1012AE00FB85F296FA93EA930E94A0170E94A51767
:1012BE0021F0E1E018812B9608950E947F17A985F1
:1012CE00BA859E960E94001DE0E0188161C4BA9313
:1012DE00AA931A93E981FA810E94AC171E2F10303F
:1012EE0009F05BC0A981BA81AC91A33029F4E981E0
:1012FE00FA81E581E03009F444C0A981BA810E94E7
:10130E00B417E981FA810E94BC17E981FA81F2963D
:10131E00E250FE4FA5E5BAEAA083B183E981FA81D6
:10132E00F296A2E5B2E581E691E40E94C517EC5172
:10133E00FE4FA2E7B2E781E491E60E94C517E8519D
:10134E00FE4F0F01A981BA811E960E94CB17F2960D
:10135E00E451FE4F0F01A981BA811A960E94CB1754
:10136E00A181AA93EA81FB81F296FA93EA93EC812A
:10137E00FD810E94D31763DCA981BA811596E0E046
:10138E00EC93E981FA81A181AA93E0E0EA93A0E0CF
:10139E00B0E0CCDCE03009F011E0E12F18812396AB
:1013AE0008950E94231D24970E944B1D0E94DB1757
:1013BE000E94E01750F0AC85BD855E960E94F51C2C
:1013CE000E94DB170E94441D18F00E94E81760C0AF
:1013DE00AC85BD8592960E94ED17AC85BD85EC91CE
:1013EE00F0E0E130A0E0FA0739F528853985F901FA
:1013FE00F695E7952E0F3F1F0E94F41709F046C091
:10140E000E9409180C9111272F5F3F4F0E94F4176D
:10141E00E9F50E940918EC91FE2FE0E00E2B1F2B30
:10142E00E885E17021F0F8010E94491C02C0F80124
:10143E00FF70662777272CC0E230A0E0FA0779F418
:10144E000E9411180E941A180E942118F9F4A885FA
:10145E00B985E2E00E942B180E94341819C0E330BF
:10146E00A0E0FA0799F40E9411180E9439180E9400
:10147E00211861F4A885B985E4E00E942B180E941A
:10148E00F51CEF7FFF7F6F7F7F7002C00E944018B8
:10149E000E94521D2E9608950E94231D24970E948D
:1014AE00491D0E9445180E94E01750F0AA89BB8979
:1014BE005E960E94F51C0E9445180E94441D10F075
:1014CE0052E085C0AA89BB8992960E94F51CEE83D4
:1014DE00FF8368877987AA89BB89EC91F0E0E130B8
:1014EE00A0E0FA0709F043C00E851F85F801F695B6
:1014FE00E7950E0F1F1F0E944A1809F063C00E9445
:10150E005D1851F0D901EC91EF70AE2FEA85F0E045
:10151E000E94401CEA2B01C0EA85D901EC930F5FB3
:10152E001F4FAA89BB891496E1E0EC930E944A18DA
:10153E0009F048C00E945D1849F00E946818E4E066
:10154E000E94341CFF27662777270EC0D901EC9125
:10155E00E07F1E2E0E946818E8E00E94341CFF27D0
:10156E0066277727EF70E129D901EC932BC0E23083
:10157E00A0E0FA0789F40E946D180E941A180E94C2
:10158E00761801F5AE85BF85E2E00E947E18AA8529
:10159E00BB85A083B18316C0E330A0E0FA0789F4BF
:1015AE000E946D180E9439180E94761859F4AE8563
:1015BE00BF85E4E00E947E180E9468180E94191DE3
:1015CE0001C052E0AA89BB891496E1E0EC93E52FA5
:1015DE000E94501D649608950E94231D24971A930D
:1015EE000E9487180E94E01718F00E948C1810F0C5
:1015FE0012E048C010E00E948C1808F043C0E98544
:10160E00FA85FA93EA93AF81B88589859A85C9DE02
:10161E000E947A17E981FA816B817C810E94351DC7
:10162E0089F10E9484170E94951811F412E02AC0C5
:10163E000E9484170E949D1811F411E023C0E985C1
:10164E00FA85FA93EA93EF81F88569857A850E9487
:10165E001E1D0E94A51820DF1E2F103099F4E9855B
:10166E00FA850E94AA1829F00E94AF181596E1E09B
:10167E00EC93E981FA816B817C81ED83FE836F832C
:10168E007887B9CFE12F188183C20E94231D6097FE
:10169E00AC89BD895E960E94F51C0E94BD180E9401
:1016AE00C0180E94351DB1F4AC89BD891A960E94EE
:1016BE00ED170E94C5180E94391D39F00E94CA18F4
:1016CE000E94C5180E94441D20F00E94E8170E9437
:1016DE00CD181CC00E94D2180E94D7180E94DC1888
:1016EE000E94E3180E94E01718F40E94E8178CC0BD
:1016FE000E94CA180E94E3180E94441D18F40E940A
:10170E00E81882C00E94C0180E94CD180E94ED18E1
:10171E000E94F2180E94A017EF5FFF4F6F4F7F4F8E
:10172E000E94F2180E94CA180E94DB170E94441DE4
:10173E0060F0E2E0F0E060E070E00E94F2180E94DB
:10174E00F71818F40E94FC185FC00E94D2180E946D
:10175E0068180E94DC180E940119A1F00E94E3187B
:10176E000E949D1829F00E94E3180E94951819F402
:10177E000E94E81849C00E94F71819F40E94FC183C
:10178E0043C0C8CF0E94D218EA85FB856C857D8543
:10179E000E941E1DAFEFBFEF8FEF9FE07DDEE030AA
:1017AE0019F00E94401830C00E94C0180E94351DCA
:1017BE0071F00E94D2180E9405190E941E1D0E94EF
:1017CE0045186ADEE03019F00E9440181DC00E94D4
:1017DE00A017AC89BD891A960E94001DEC89FD895F
:1017EE000E94AA1879F0AC89BD891E960E94FB1C36
:1017FE003197604070400E94051DAC89BD891596D9
:10180E00E1E0EC930E94A017669608950E94231DB6
:10181E000E94CA18E250F040604070400E94BD180D
:10182E00EC81FD81A68DB78D80A191A1E2E0F0E063
:10183E0060E070E00E940A190E940F1D0E94441D74
:10184E0018F00E94FC187CC3EC81FD81E281F0E06F
:10185E000E940F1D0E94611C0E94721C7F936F9349
:10186E00FF93EF93AC81BD819A960E94F51CAF91C8
:10187E00BF918F919F910E94031C62C3BA93AA934A
:10188E0024971A930A93EE81FF81A885B985149641
:10189E00ED93FC93A885B98516960E940F190E94A8
:1018AE0016190E94951829F00E941B190E942019E2
:1018BE0010F0E2E07CC00E9475170E94351D29F4DD
:1018CE000E941B19A081A33009F006C00E941B19AB
:1018DE00B696DF010E940F190E9475170E94351DE2
:1018EE00A1F40E9428193896DF010E94F11CAE81E6
:1018FE00BF81AE17BF0710F0E2E059C00E941B195E
:10190E00B696DF010E94F51C37C00E941B19E281BA
:10191E00A0E1EA9F8001AE81BF81A017B10728F137
:10192E000E941B19FA93EA930E94C5183ADDEA83C6
:10193E00FB836C837D830E9416190E949D1811F4FF
:10194E00E1E035C00E9416190E94E01728F00E94AF
:10195E001B190E94201910F0E2E029C0EE81FF81D0
:10196E00E01BF10BEE83FF83D6CF0E942819FA936A
:10197E00EA930E94C5184ADFDF01CB01EE81FF8199
:10198E000E94491C0E942F19A885B9851E960E9497
:10199E00001D0E941B19F296DF01EE81FF810E944D
:1019AE003419A885B9855296ED93FC93E0E0198120
:1019BE0008812A960895AA9324970E944B1DA98503
:1019CE00BA8514960E94F11C31968F01002E012AC1
:1019DE0031F0A985BA851E960E943C1911F4E4E0F7
:1019EE00D5C0F801EF7009F0BEC00E94AF181A966C
:1019FE000E943C1961F40E9441193896DF010E9441
:101A0E00F11C0E171F0710F0E4E0C0C0ACC0F801C7
:101A1E000E94491C0F010E944119E281F0E03197AA
:101A2E00E021F121309709F09EC00E9441190E94D9
:101A3E004619B7DC0E94CD180E94C5180E94E01707
:101A4E0010F4E2E0A3C00E94C5180E949D1811F484
:101A5E00E1E09CC00E9441197E96DF010E94F51CB8
:101A6E000E94C5180E94441D08F46DC0E885E03040
:101A7E0011F4E4E08BC00E9441190E94461905DE64
:101A8E000E944F190E94351D11F4E7E07FC00E949D
:101A9E00C5180E94951811F4E2E078C00E94C5188E
:101AAE000E949D1811F4E1E071C00E9441190E943C
:101ABE00AC17E03011F0E1E069C00E9441190E94BC
:101ACE00BC170E944119DF01BE96FF93EF93FD01F3
:101ADE000E945119AF91BF910E94001D30E00E94EB
:101AEE004119E2813E17D8F40E9441193496A1E0C3
:101AFE00A0830E9441190E94AC17E03011F0E1E082
:101B0E0045C00E944119BE96DF010E94FB1CEF5F8B
:101B1E00FF4F6F4F7F4F0E94051D3F5FE0CF0E942A
:101B2E004119BE96FF93EF93DF010E94F51CDF0172
:101B3E00CB01E32FF0E00E94611C0E940A19AF91C5
:101B4E00BF910E94001D0E94ED18A985BA851A96B4
:101B5E000E94001D0E9441190E945119A985BA8543
:101B6E001E960E94001DF801A985BA851496ED9364
:101B7E00FC930E944119F296DF01F8010E9434197C
:101B8E00A985BA855296ED93FC93E0E00E94521D12
:101B9E002B9608950E94591921F0E12F0E94521D93
:101BAE00CFC10E94681901F5AC81BD8152962D916D
:101BBE003C91D9010C91003011F414E015C0F901DB
:101BCE00E385E87031F40E9479190E94D216E03054
:101BDE0009F001C009C0EC81FD81FA93EA93A0E0FF
:101BEE00EADE1E2F1030E9F2E12F0E94521DA8C12D
:101BFE000E945919B1F40E94681999F4EC81FD8183
:101C0E00A289B3890C91053E11F0003009F409C088
:101C1E00EC81FD81FA93EA93A1E0CDDE1E2F103008
:101C2E0051F3103029F50E94681911F5AC81BD8170
:101C3E0052962D913C913A932A93E0E0EA93A0E2DA
:101C4E00B0E00E94FD160E9479190E94EB16AC813D
:101C5E00BD8154960E94F11CE385E871D9011C9652
:101C6E00EC93AC81BD810E94F11C3496A1E0A0835F
:101C7E00E12F0E94521D64C1BA93AA9325970E9428
:101C8E00491DAD85BE8554964D915C915A934A93EC
:101C9E00E0E2EA93ABE0B0E00E94FD16E0E0E887F8
:101CAE00E9871E2F2E2FE8E0EA87AB85BC850E94C0
:101CBE00F11CEE83FF830E948419AE0FBF1FAC91FF
:101CCE00AE3209F50E9489190E3221F4A885B98524
:101CDE0013970CF003C00E949519F4CF0F3221F028
:101CEE000C3511F0013208F402C0E6E06FC00E941C
:101CFE0084190E949C1910F4E4E201C0E0E2DA01BA
:101D0E001B96EC9362C00E948919013220F00F32AB
:101D1E0011F00C3509F434C00E3219F0EA852E1785
:101D2E0068F0AA85A83011F40E3211F0E6E04EC02C
:101D3E0028E0EBE0EA87110F110F21C0003818F0F0
:101D4E001360E6E043C0E0ECF0E060E070E00E947B
:101D5E001E1DA02F33DA309711F0E6E037C00134A4
:101D6E0010F00B3508F002C0126007C0013610F0FB
:101D7E000B3708F002C0116000520E949519C3CFB4
:101D8E000E9484190E949C1910F4E4E001C0E0E066
:101D9E000E2F203011F4E6E019C0DA01AC91A53E09
:101DAE0019F4DA01E5E0EC93AA85A83011F4110FCD
:101DBE00110FE12FE370E13009F40061E12FEC70B7
:101DCE00E43009F40860FA010387E0E00E94501D38
:101DDE002F960895BA93AA930E944B1DE1E0E0302E
:101DEE0029F0AC81BD81AC91A03209F006C0EC8126
:101DFE00FD813196EC83FD83F1CFAC81BD81AC9139
:101E0E00AF3229F0AC81BD81AC91AC3559F4EC8187
:101E1E00FD813196EC83FD83AE81BF8116960E94C3
:101E2E00A4190AC0AE81BF810E94F11C7696DF0113
:101E3E000E94F51C0E94A819AC81BD81AC91BB27F4
:101E4E00909760F40E94AE19A0E0B0E017DD1E2F4F
:101E5E00AE81BF8152960E94B3193DC00E94AE1949
:101E6E00DE01169609DF1E2F1030A9F5AE81BF8157
:101E7E0091DE1E2FAE81BF8154960E94F11CE38528
:101E8E00E4700E2F103039F0143011F4003009F0D8
:101E9E0001C015E020C00030F1F4AE81BF81529632
:101EAE002D913C91F901E385E07111F415E013C019
:101EBE000E94B8190E945C1C7F936F93FF93EF935F
:101ECE000E94BB19AF91BF918F919F910E94C01933
:101EDE000E94A819C3CFE12F0E94521D2896089583
:101EEE000E94231DEC81FD81A181AA93ED81FE81CB
:101EFE00F296FA93EA93EB81FC816D817E810E94CA
:101F0E00A51711F0E3E01CC0EC81FD810E94C519FC
:101F1E0011F0E2E015C0AC81BD81A859BF4F0E94FF
:101F2E00CF1911F4E0E00CC0EC81FD81F296EE5A6F
:101F3E00FF4FDF010E94CF1911F4E0E001C0E1E094
:101F4E0026960895AA9364970E94491DAD8DBE8D65
:101F5E000E94F11CE887F987A885B985EC91E053BA
:101F6E000E2F0A3020F41196AC91AA3309F00AC054
:101F7E00E885F9853296E887F987AD8DBE8DED93AC
:101F8E00FC9302C00091F40E013010F0EBE0C9C1D9
:101F9E00E02F0E94DD190E94F11CEE83FF83AB8DB2
:101FAE00BC8DED93FC93309711F4ECE0BAC1AE8189
:101FBE00BF81EC91E03089F0EE81FF81A1810E941A
:101FCE00B8055E2F50FD09C0EA8DE03011F052FDCC
:101FDE0001C002C0EAE0A5C1A3C1AE81BF81E0E0AD
:101FEE00EC93E02FAE81BF811196EC93EE81FF81D1
:101FFE00A1810E94E9045E2F50FF02C0E3E091C16F
:10200E00EA8DE03011F052FD01C002C0EAE089C154
:10201E000E94AE190E94FC18E88FF98F6A8F7B8F91
:10202E00DF01CB015DDF1E2F1130C9F4EE81FF8180
:10203E00F296E254FE4F9F01E481E03081F0D90127
:10204E0018960E94F51CEE8BFF8B688F798F0E947D
:10205E00AE19A88DB98D8A8D9B8D42DF1E2F133040
:10206E0011F4E1E05EC1103049F4AE81BF81DD961E
:10207E000E94F11CE030A2E0FA0711F0EDE051C130
:10208E00AE81BF81A85BBF4F0E9434180E94E51934
:10209E000E9405190E94351D41F4AE81BF81AA5AD6
:1020AE00BF4F0E94F51C0E94E5190E940519AE81D2
:1020BE00BF815A960E94001DEE81FF81EE5BFF4F9D
:1020CE00E081AE81BF811396EC93EE81FF81E381B7
:1020DE00F0E00E94D7180E94611C0E94721C0E94A0
:1020EE00E5190E94EA190E94F119AE81BF819296FC
:1020FE000E94001DEE81FF81E7ADAE81BF81129679
:10210E00EC93AE81BF81AD5BBF4F0E94F11CAE81DF
:10211E00BF811896ED93FC93AE81BF81AB5BBF4F31
:10212E000E943418EE87FF87688B798B0E94351DCD
:10213E0051F4AE81BF81AE5ABF4F0E94F51CEE879F
:10214E00FF87688B798B0E94EA190E9445186627D3
:10215E0077270E940A190E94D7180E940D1C7F93A0
:10216E006F93FF93EF930E94F619AF91BF918F91EA
:10217E009F91662777270E94121CEE81FF81E281D4
:10218E00F0E00E94611C0E94B01CEE5FFF4F6F4F8B
:10219E007F4FEA87FB876C877D87AE81BF815E9616
:1021AE000E94001D11E00E946818A73FEFE0BE07D5
:1021BE00E0E08E07E0E09E0708F012E00E9468184B
:1021CE00A73FEFEFBE07E0E08E07E0E09E0708F0C6
:1021DE0013E0133039F4AE81BF81A25ABF4F0E9473
:1021EE00F51C02C00E94FE19AE81BF8196960E9418
:1021FE00001D0E94FE197F936F93FF93EF930E9431
:10220E00F619AF91BF918F919F910E942F19AE81B8
:10221E00BF819A960E94001DAE81BF811E960E94BC
:10222E0040180E94001DAE81BF811496E0E0EC9331
:10223E00133009F05FC0AE81BF811596EC93AE816D
:10224E00BF81AE59BF4F0E94F11C0E94F119AE81A1
:10225E00BF8152960E94001DEE81FF81A181AA933B
:10226E00EF81F885F296FA93EA93E985FA850E9452
:10227E00D3170E94C205E03011F5EE81FF810E9456
:10228E00C519E9F4AE81BF81D2960E94F51CE235E4
:10229E00A2E5FA07A1E66A07A1E47A0781F4EE81C6
:1022AE00FF81F296EC51FE4FDF010E94F51CE237E2
:1022BE00A2E7FA07A1E46A07A1E67A0709F01AC0B5
:1022CE00EE81FF81F296E451FE4FDF010E94F51C74
:1022DE00AE81BF811A960E94001DEE81FF81F2969B
:1022EE00E851FE4FDF010E94F51CAE81BF811E96A4
:1022FE000E94001DAE81BF811C930E94B417AE8157
:10230E00BF8156960E94A419A2EFBEE0ED91FD91F9
:10231E003196FE93EE93AE81BF811696ED93FC93AC
:10232E00E0E00E94501D6F960895BA93AA93EA8139
:10233E00FB81309771F0AA81BB81EC91E03049F0BE
:10234E00EA81FB81A681B781E881F981EA17FB0753
:10235E0011F0E9E00AC0EA81FB81A1810E94B80573
:10236E00E17011F0E3E001C0E0E024960895BA9325
:10237E00AA931A930A93AC81A13028F0EBE019814D
:10238E00088125960895EC810E94DD190D911C910E
:10239E00002E012A19F0D801E0E0EC93EA81FB81CE
:1023AE00309721F0AA81BB81E0E0EC93EC81A0EFA5
:1023BE00BEE0F0E0EE0FFF1FEA0FFB1FAA81BB810C
:1023CE00A083B183E0E0198108810C940B17AA93C6
:1023DE00A2970E944B1DA9A5BAA50E94B319EEA102
:1023EE00EF71EEA3FE01B796FA93EA93FE01729691
:1023FE00FA93EA93EAA5EE71AE2FA4DD1E2F1030EC
:10240E0009F017C1FE013496ECA3FDA3FE017096F0
:10241E00FA93EA93A9A5BAA5DDDC1E2FEEA1EC7105
:10242E0009F49AC02897103089F0143021F4DE0197
:10243E005896DEDB1E2F103019F0E12F2896F9C0CA
:10244E00EEA5E860EEA72AA53BA56DC0EEA5E4704B
:10245E0019F0E8E02896EDC02AA53BA5022E032A26
:10246E0021F0F901E385E17119F0E7E02896E1C06A
:10247E00EEA5E87009F457C00E94B8190E945C1CC2
:10248E007F936F93FF93EF930E94BB19AF91BF9110
:10249E008F919F910E94C0190E94BD18F9017496E8
:1024AE00A0E0B0E0A083B183F9017A96A083B18356
:1024BE00F9017C960E94A5180E94191DA88DB98D50
:1024CE001496E1E0EC93A88DB98D9E960E94ED17BF
:1024DE000E94CA180E94351DB9F0E88DF98DFA9345
:1024EE00EA930E94161978D81E2F103011F02896F4
:1024FE00A0C00E94CA18E150F04060407040A88D04
:10250E00B98D1A960E94001DE88DF98DFA93EA9303
:10251E00AE81BF81888599850E9406091E2F1030D5
:10252E0011F0289686C0EEA5E870A1F0F9013B9651
:10253E00A0E0A0830E9464080E944F19D9011E9644
:10254E000E94001DA88DB98D1496E1E0EC93EEA5C6
:10255E00E062EEA7289619C0103011F0E12F69C085
:10256E002AA13BA1022E032A21F0F901E385E07195
:10257E0011F0E4E05EC0EEA1E27021F0F901E38516
:10258E00E17009F402C0E7E054C0A889B9899E96AB
:10259E000E94F51CA9A5BAA55A960E94001DEAA193
:1025AE00FBA1A9A5BAA55E96ED93FC93EEA1A9A5F4
:1025BE00BAA51496EC930E94B8190E945C1C7F93E6
:1025CE006F93FF93EF930E94BB19AF91BF918F91C1
:1025DE009F910E94C019A9A5BAA51E960E94001D22
:1025EE00D9015C960E94F51CA9A5BAA51A960E945F
:1025FE00001DA9A5BAA516960E94A419A9A5BAA54B
:10260E001596EFEFEC93A9A5BAA556960E94A419BC
:10261E00E889F989A9A5BAA5ED93FC93A889B9898A
:10262E0016960E94F11CA9A5BAA51296ED93FC93DD
:10263E00E0E00E94521DAB960895BA93AA932E978E
:10264E000E94491DE88DF98DEE83FF83AC89BD890B
:10265E000E94B3190E94051A0E940A1A0E940F1AAC
:10266E0011F0E12F52C1EA8DFB8DA481A07811F0FB
:10267E00E2E04BC1EA8DFB8DA481A17011F4E7E07D
:10268E0044C1EA8DFB8DA285B385848595859F9384
:10269E008F93BF93AF930E94161AEF91FF916F9194
:1026AE007F910E940D1C0E94F2180E94A017AE8905
:1026BE00BF89882799270E943F1D20F4E885F98558
:1026CE00EE8BFF8BEE89FF89309709F41DC10E94B6
:1026DE00161AFD01BC01F170309709F0E1C0EA8DC8
:1026EE00FB8D05800E94051AE2810E16C8F10E942C
:1026FE00161A0E94391D31F4AA8DBB8D1E960E94AA
:10270E00F51C08C00E94051A0E940A1A0E941D1A82
:10271E000E94D809E88BF98B6A8B7B8BA889B989C3
:10272E008A899B890E94E01720F40E94221AE2E017
:10273E00ECC0A889B9898A899B890E949D1821F4C9
:10274E000E94221AE1E0E1C00E94C018AA8DBB8D42
:10275E0052960E94001DAA8DBB8D1596E0E0EC935B
:10276E000E94051A0E940A1A0E941D1A4FD80E9432
:10277E00291A0E94011921F40E94221AE2E0C5C012
:10278E000E942E1A0E94E3180E94611C0E94031CD4
:10279E000E94291AAE89BF890E94331A09F449C0D2
:1027AE000E942E1AE40FF51F0F010E94051AE281F6
:1027BE00D001F0E0EA17FB0750F40E94051AE281FF
:1027CE00F0E0DF010E942E1AAE1BBF0BAD010E947E
:1027DE00051A0E943B1AEF85F88969897A890E9449
:1027EE001E1DA42F0E94C205E03021F00E94221A65
:1027FE00E1E08BC0EA8DFB8DA481A07429F00E94CC
:10280E00421A0E94491A08F00FC00E94421A0E94F2
:10281E00511AAE81BF8188279927EA0FFB1F0E94AC
:10282E000A1AB0960E945A1AAA8DBB8D0E94601A7F
:10283E0057C0EA8DFB8DA481A07489F00E94051A01
:10284E000E946B1AED8DFE8D0E94731A21F00E946C
:10285E00221AE1E05AC0AA8DBB8D0E947E1A0E94F8
:10286E00421A0E943F1D79F00E94051A0E946B1AAF
:10287E00EF85F88969897A890E94A51721F00E944F
:10288E00221AE1E042C00E94E818AA8DBB8D56962E
:10289E000E94001DAA8DBB8D1596EC91EF5FEC93F7
:1028AE00AA8DBB8D0E94831AA0E0B2E0AE1BBF0BB7
:1028BE009D01EE89FF89E217F30710F42E893F89F7
:1028CE000E94AE19AC8DBD8D0E94831AAC8DBD8D4C
:1028DE009096EA0FFB1FFA93EA93D9010E94EB162A
:1028EE000E94881AEA8DFB8D0E94901AD0010E94D8
:1028FE00001DAC89BD890E94991AEE89FF89E21BE1
:10290E00F30BEE8BFF8BDECEE0E00E94501D6C963B
:10291E000895BA93AA932A970E94491DEC89FD89BE
:10292E00EE83FF83A889B9890E94B3190E94A01A69
:10293E000E94A51A0E940F1A11F0E12F93C1EE8981
:10294E00FF89A481A07811F0E2E08CC1EE89FF89A5
:10295E00A481A27011F4E7E085C1EE89FF89A285FA
:10296E00B38584859585EA89FB890E942F197F930B
:10297E006F93FF93EF930E94AA1AAF91BF918F911D
:10298E009F910E94441D18F4E0E0EA8BEB8BEA89DC
:10299E00FB89309709F44CC10E94B01AFD01BC01AD
:1029AE00F170309709F008C1EE89FF8905800E9409
:1029BE00A01AE2810E1608F44CC0AE89BF89169695
:1029CE000E943C19D1F4AE89BF891E960E94F51C57
:1029DE000E94291A0E94011979F40E94A01AFA93F2
:1029EE00EA930E94A5180E944C0B0E94291AAE89E8
:1029FE00BF891E960E94001D0AC00E94A01A0E9446
:102A0E00A51A0E941D1A0E944C0B0E94291A0E94A0
:102A1E00011909F40DC10E94E3180E94951821F4C2
:102A2E000E94B71AE2E01EC10E94E3180E949D1890
:102A3E0021F40E94B71AE1E015C10E94E818AE8990
:102A4E00BF8952960E94001DAE89BF891596E0E09F
:102A5E00EC93EE89FF89A481A07489F00E94A01ADC
:102A6E000E94BE1AE98DFA8D0E94731A21F00E94FF
:102A7E00B71AE1E0F7C0AE89BF890E947E1A0E94A4
:102A8E00A01A0E94A51A0E941D1A0E940D0C0E94E7
:102A9E00F2180E94A0170E94351D21F40E94B71A49
:102AAE00E2E0E0C00E94C61A0E94DB170E94611C81
:102ABE000E94031C0E94F218AA89BB890E94331A35
:102ACE0009F44FC00E94C61AE40FF51F0F010E94B1
:102ADE00A01AE281D001F0E0EA17FB0750F40E9441
:102AEE00A01AE281F0E0DF010E94C61AAE1BBF0BF6
:102AFE00AD010E94A01A0E943B1AEB85FC856D85E4
:102B0E007E850E941E1DA42F0E942606E03021F015
:102B1E000E94B71AE1E0A6C00E94CB1A0E94491A81
:102B2E00D8F4EE89FF89B0960E94A51AA689B789B6
:102B3E00808D918DEA85FB856C857D850E94511A6D
:102B4E00A885B98588279927EA0FFB1F0E945A1A74
:102B5E00AE89BF890E947E1AAE89BF890E94601A13
:102B6E0053C00E94CB1A0E943F1DC9F00E94B01A9A
:102B7E000D010E94AA1AD0010E94441D58F40E9411
:102B8E00A01A0E94BE1AEB85FC856D857E850E947B
:102B9E00A51709F404C00E94B71AE1E063C00E94B1
:102BAE00A017AE89BF8956960E94001DAE89BF89B7
:102BBE001596EC91EF5FEC93AE89BF890E94831A54
:102BCE00A0E0B2E0AE1BBF0B9D01EA89FB89E217C4
:102BDE00F30710F42A893B89AE89BF890E94831AB4
:102BEE00AE89BF899096EA0FFB1FFA93EA93E885A8
:102BFE00F985FA93EA93D9010E94EB16AE89BF8943
:102C0E001496EC91E064EC930E94881AEE89FF8989
:102C1E000E94901AD0010E94001DA889B9890E94B5
:102C2E00991AEA89FB89E21BF30BEA8BFB8BAFCE79
:102C3E000E94B01A0D010E94AA1AD0010E943F1DD7
:102C4E0050F4AE89BF8916960E94F51CAE89BF89D5
:102C5E001A960E94001DAE89BF891496EC91E0620F
:102C6E00EC93E0E00E94501D68960895BA93AA93E3
:102C7E0024970E944B1D0E941B19FA93EA93EA8532
:102C8E00FB850E940F1A09F070C0E885F985A481B2
:102C9E00A07209F46AC0A481A074A1F00E941B194D
:102CAE00E181EA93E985FA85B096FA93EA93EB858A
:102CBE00FC850E94731A11F0E1E058C0A885B98511
:102CCE000E947E1A0E941B19FA93EA93EA85FB85ED
:102CDE00A28DB38D848D958D0E9406091E2F103006
:102CEE0009F043C0A885B9855E962D913C91D90116
:102CFE001B96EC91E062EC93A885B9851A960E941A
:102D0E00F51CD9015C960E94001DA885B9851E96FA
:102D1E000E94F11CD9015A96ED93FC93E885F98532
:102D2E00A685B78580899189FD01BC010E94571C3B
:102D3E00D9015496ED93FC930E9464080E944F199A
:102D4E00D90156960E94001DA885B9851496EC915E
:102D5E00EF7DEC930E941B193496A1E0A0830E9494
:102D6E001B19DF010E946E091E2FE12F0E94521DBA
:102D7E002A960895BA93AA931A93A981BA8176DFF7
:102D8E001E2F103021F4A981BA810E94B319E12FB0
:102D9E00188123960895BA93AA9366277727899167
:102DAE009991E991F991A991B991009629F001971C
:102DBE006D9171916717C9F3671B10F4EFEF0895CA
:102DCE00E0E009F0E3950895BA93AA93998188817A
:102DDE00009641F0BD81AC81FB81EA8161916D93DA
:102DEE000197E1F7FD81EC8126960895BA93AA9397
:102DFE00B981A881109631F0FC81EB816A816193D3
:102E0E001197E9F7EB81FC8125960895A2E0B0E0D9
:102E1E000C94D21A0E9457010C945401E981E07F60
:102E2E001E2F12951F70A12FF5CFE981EF701E2F67
:102E3E00A12F0E945701EACFA981BA818B819C8173
:102E4E00FF27662777270E94031C0895E12FAFE026
:102E5E00B9E0F0E0EE0FFF1FAE0FBF1F0E94F11C96
:102E6E00A02FB0E00895AFE0B9E0F0E0EE0FFF1F45
:102E7E00AE0FBF1F08950E949F01E0E0EA93A0E00D
:102E8E000C94A2010E948A01A8EEB3E00C94D21A0F
:102E9E00EDE4FCE0FA93EA930895FA93EA93E0E402
:102EAE00F0E0FA93EA93A7E0B0E00895A32DB0E026
:102EBE00E2E0F0E00E94AB1CE555F14FBF01E0816E
:102ECE000895E2E1F0E0E919FA09662777270895F7
:102EDE00F0E00E94611CDF01CB010895EA81FB81C5
:102EEE006C817D810895E983FA836B837C830895D9
:102EFE00ED81FE816F8178850895A981BA818B81DC
:102F0E009C810895E985FA85A181AA93EA85FB85BE
:102F1E00F296FA93EA93EC81FD816E817F810E9495
:102F2E001E1DA1E00C942606A2A1B3A184A195A119
:102F3E000895E885F9856A857B8508950E941E1D92
:102F4E00A1E00E94C205E0300895FA93EA93A0E052
:102F5E00B0E080E090E00C9406099E96E0E0F0E090
:102F6E0060E070E00E94001D0895F296FA93EA93D5
:102F7E00E0E0EA93A0E0B2E00C94FD160E94191D69
:102F8E00E981FA81F29608950E94F51CD0010E9403
:102F9E00001DE981FA810895A289B38984899589F2
:102FAE000E94231DA1E00895A885B9858A859B8579
:102FBE000895A230E0E0BE07E0E08E07E0E09E0755
:102FCE000895E1E0F0E060E070E008950E94F51CE5
:102FDE00EC83FD836E837F830895EC85FD85FA93E4
:102FEE00EA93D901E0E0F2E00E94981CAE81BF8125
:102FFE0088859985662777270E94081C0E940609F6
:10300E00E0300895AC85BD85D296F901F170AE0F12
:10301E00BF1F0895EC85FD85FA93EA93AA85BB85BB
:10302E008C859D850895E0E0F1E060E070E00E94FF
:10303E00B01C0895AE81BF81888599850E94081CB9
:10304E000E940609E03008950E94921CF170AC8532
:10305E00BD85D296AE0FBF1F08950E94F11C662744
:10306E0077270895E0E8F0E060E070E00E94B01C81
:10307E000895EFEFFFEF6FEF7FEF0895AE85BF85F9
:10308E00888999890895EA89FB89FA93EA93D80188
:10309E00E0E0F2E00E94981C87DF662777270E9407
:1030AE00081C0E9406095E2F50300895AA89BB891C
:1030BE00D296F801F170EA0FFB1F9F01EE85E170C9
:1030CE000895AA85BB858C859D850895EA89FB891F
:1030DE00FA93EA93A889B9898A899B89089564DF4E
:1030EE000E94081C0E9406095E2F503008950E940F
:1030FE00921CF170AA89BB89D296EA0FFB1F089524
:10310E00AD81BE818F8198850895A985BA855E9619
:10311E000E94F51CF5DF0E94441D0895A130E0E0E9
:10312E00BE07E0E08E07E0E09E070895AF3FEFEFA9
:10313E00BE07EFEF8E07EFEF9E070895A0E0B0E019
:10314E0080E090E00895A685B78580899189EECFBD
:10315E00A985BA851E960E94FB1CEF5FFF4F6F4F2D
:10316E007F4F0E94051DA985BA8508950E94141DE2
:10317E000895E889F9896A897B890895AC81BD81B2
:10318E008E819F8108950E940A1D0895EC83FD8310
:10319E006E837F830895EC89FD89FA93EA930895EF
:1031AE00AA89BB898C899D8908950E94D809EC87CC
:1031BE00FD876E877F870895AC85BD858E859F853B
:1031CE000895EC85FD856E857F850895EC81FD81E2
:1031DE006E817F810895E887F9876A877B870895D6
:1031EE00F5DFE2DE0E943F1D0895E0E0F0E060E0D2
:1031FE0070E00895E6DF0E94351D0895EA89FB8987
:10320E006C897D8908950E94281D0E940D1C0895C9
:10321E000E94F51CEA83FB836C837D830895AA814B
:10322E00BB818C819D810895A885B9850E94F11C72
:10323E0008957E96DF010E94F51CF1DF0E94441D69
:10324E0008954CDEA885B9851A960E94001DECCF14
:10325E00662777270E94031C0895EF70F070EE0F1B
:10326E000E94401CEA0FFB1F08950E94F51C0E944D
:10327E00351D0895A985BA850E94F11C0895FA930B
:10328E00EA93EB85FC85A285B385848595850895A3
:10329E007DDF9CCFFA93EA93AE81BF8188859985B5
:1032AE000C940D0CBA93AA930E944B1DEC81FD81D8
:1032BE00FA93EA93A0E0B0E00E94450C1E2F103066
:1032CE000895AC81BD810E94F11CFA93EA93EE81C0
:1032DE00FF81A685B785808991890E9406091E2FD8
:1032EE00103008953A932A93EE81FF81A489B5890F
:1032FE00BA93AA93ABE0B0E00895E885F985AE8164
:10330E00BF810895E885F9853196E887F987319769
:10331E00AE81BF81AE0FBF1F0C910895E22F2F5FBC
:10332E00F0E0E40FF51F00830895EA0FFB1FAB8555
:10333E00BC85ED93FC930132089557DF0E94001D6A
:10334E000895AE81BF8116960E94001D0895EE81EC
:10335E00FF81FA93EA930895E0E0F0E0ED93FC9399
:10336E000895D901549679CED9015A960E94F11C2E
:10337E000895662777270E94171C0895F296E2504B
:10338E00FE4FDF010E94F11CE535AAEAFA07089507
:10339E000E94F51CEF7FFF7F6F7F7070E634A1E413
:1033AE00FA07A4E56A07A0E07A070895A0EFBEE049
:1033BE00F0E0EE0FFF1FAE0FBF1F0895EA8BFB8BE1
:1033CE006C8B7D8B0895AE81BF81A05CBF4F0E9438
:1033DE00F11C0895AE89BF89888D998D39CFEE8104
:1033EE00FF81A085B185FD010E94491C0895EE81E3
:1033FE00FF819ADD03DF0E94031C0895AA8DBB8D09
:10340E000E94F11C0895FA93EA93EC8DFD8D0895B8
:10341E00A281B3810E949C111E2F10300895EA8D57
:10342E00FB8DA681B781808591850895A289B38988
:10343E00848995890895AA8DBB8D1496EC91E068C8
:10344E00EC930895EC87FD876E877F870895EA8D4C
:10345E00FB8DE581F0E00895E0E0F2E00E94981C1B
:10346E00AF01042E052A0895E181EA93EF81F885D4
:10347E00FA93EA930895EA8DFB8DA689B789808D1C
:10348E00918D9FCE0E94121CFA01662777270E940B
:10349E00441D08950E94121CE0E0F2E060E070E02E
:1034AE000E94721C0895FA93EA93A0E0B2E00C9485
:1034BE00EB161596EC91E40FEC93FA01EE0FFF1F4D
:1034CE00FE2FE0E09F010895E181EA93EB8DFC8DE4
:1034DE00B096FA93EA930895A689B789808D918D57
:1034EE000E94231DA1E00E942606E0300895149646
:1034FE00EC91EF7BEC93089516960E94F11CF170FF
:10350E000895F901AE81BF81EA0FFB1FEE83FF83A1
:10351E00089536960F01DF010E94F51CDF01CB01E5
:10352E00F90196CEED91FD91E20FF31FFE93EE930E
:10353E000895AE89BF890E94F11C0895FA93EA930B
:10354E00E88DF98D0895AE89BF891A960E94F51CF3
:10355E000895EE89FF89A681B781808591850895AA
:10356E00AE89BF891496EC91E068EC930895E181E1
:10357E00EA93EF89F88DB096FA93EA930895EE895F
:10358E00FF89E581F0E00895EE89FF89A689B78964
:10359E00808D918DCECC109639F080EA9FE0019708
:1035AE00F1F7A8951197C9F70895552342F45038AD
:1035BE0011F4E0FF04C03196691F791F6BF050E8DB
:1035CE00572711F45F9373C05F3F31F0660F000C05
:1035DE0057956795752F08955F9300200AF073C075
:1035EE006CC050E8192E1522880F991F9527550F7C
:1035FE00879550E8072E0522660F771F7527550F02
:10360E0067950895689401C0E8945F93F2DF70386F
:10361E0018F07F3F08F44BC056E1571BAAF45195A2
:10362E0058300EF4593030F0EFEFFFEF6FEF7FE7C9
:10363E0077F91AC077275523B9F0EE0FFF1F661FD3
:10364E00771F5A95D1F710C07727583028F0EF2FF3
:10365E00F62F672F5850F9CF552331F07695679591
:10366E00F795E7955A95D1F700200AF4E2D05F91CD
:10367E000895689401C0E894309760407040B1F0AE
:10368E00002426F0772312F40094D3D0172E7EE177
:10369E00112032F07A95EE0FFF1F661F111CF9CF25
:1036AE00EF2FF62F612D5F938ADF5F910895EE273E
:1036BE00FF27662777275F910895EFEFFFEF6FE7FC
:1036CE007FEF5F910895EFEFFFEF6FE77FE75F9179
:1036DE0008955F9386DF703851F3903841F30124DB
:1036EE000894791F23F41CF300203AF3ECCF0F92C9
:1036FE001F932F933F934F93112722279927689F4C
:10370E00A0018F9F302D410D591F6B9F300D411D14
:10371E00591F8E9F27D0BF9F25D06A9F23D0BE9F53
:10372E001DD0AF9F1BD0AE9F110D291F391F491FF2
:10373E00591FE32FF42F652F522F4F913F912F9149
:10374E001F910F9066232AF0550FEE1FFF1F661F65
:10375E0002C073954BF229DF5F910895100D211D64
:10376E00391F02C0200D311D491F591F08955F9347
:10377E0038DF703821F411200AF49FCFA4CF90388F
:10378E0009F495CF01240894970B1BF4D4F3002071
:10379E00F3CF792F1F932F933F934F93112411271C
:1037AE00222733274427552790E2AE17BF078607F7
:1037BE00410730F0AE1BBF0B860B410B089401C0C6
:1037CE008894551F221F331F111CAA1FBB1F881F51
:1037DE00441F9A9551F7F901612D4F913F912F9109
:1037EE001F91662332F0550FEE1FFF1F661F7A954D
:1037FE0043F2DBDE5F910895EA0FFB1F681F791F0E
:10380E000895AE0FBF1F861F971F0895EA1BFB0B6F
:10381E00680B790B0895AE1BBF0B860B970B0895A3
:10382E00EA2BFB2B682B792B0895F195E195F0404F
:10383E000895F09560957095E195FF4F6F4F7F4F0E
:10384E000895EE230E2EFD01BC0131F0EE0FFF1F89
:10385E00661F771F0A94D1F70895EE230E2EFD01F1
:10386E00BC0131F076956795F795E7950A94D1F7F7
:10387E000895EE0FFF1FEE0FFF1FEE0FFF1FEE0F4F
:10388E00FF1F0895F695E795F695E795F695E7955A
:10389E00F695E7950895EE0FFF1F661F771F0895A3
:1038AE00E62FF72F60E070E008956E2F7F2FE0E097
:1038BE00F0E008956F2F660F660B762F0895EA17C6
:1038CE00FB07E1E00CF4EE270895AE17BF07E1E029
:1038DE000CF4EE2708957A9F702D6B9F700DF89F54
:1038EE00700DE99F700D6A9F602D710DFB9F600D2D
:1038FE00711DE89F600D711D8827FA9FF02D610DD7
:10390E00781FEB9FF00D611D781FEA9FE02DF10DE2
:10391E00681F781F08956E2F6A9FF0016B9FF00D40
:10392E0008950024112490E1AA0FBB1F001C111C46
:10393E000E1A1F0A18F40E0E1F1E01C0A1609A95D2
:10394E0099F7FD01D001089537D0EBDF0EF46DDF4E
:10395E0008953F934F935F930024112444275527D6
:10396E0030E2AA0FBB1F881F991F001C111C441F99
:10397E00551F0E1A1F0A460B570B28F40E0E1F1E4C
:10398E00461F571F01C0A1603A9559F7FD01BC01B2
:10399E00D001CA015F914F913F910895E894B7FF0E
:1039AE0004C0A095B09511966894F7FD3EDFB9DF7F
:1039BE00FD010EF43ADF0895E894F7FF02C035DFFB
:1039CE006894B7FF06C0A095B095119600F80394C1
:1039DE0000FA0895ED91FC9111970895ED91FD91E6
:1039EE006D917C9113970895ED91FD916D917D915F
:1039FE000895ED93FD936D937C9308957E936E934E
:103A0E00FE93EE930895E881F9816A817B81089592
:103A1E00A881B9818A819B810895E883F9836A839D
:103A2E007B830895A083B1838283938308957A93D1
:103A3E006A93FA93EA9308959A938A93BA93AA9300
:103A4E000895182E862F612D192E972F712D1B2E4E
:103A5E00BF2FF12D1A2EAE2FE12D08953097604015
:103A6E007040089500240A160B06080609060895EC
:103A7E00EA17FB07680779070895AE17BF07860791
:103A8E00970708955A934A933A932A931A930A934F
:103A9E0008955D814C813B812A81198108810895A9
:103AAE00AC0FBD1F6BBF07900D928A95E1F708957D
:00000001FF
