:0A0000000C941C010C9400000C94F9
:10000A0000000C9400000C9400000C9400000C9466
:10001A0000000C9400000C9400000C9400000C9456
:10002A0000000C9400000C9400000C9400000C9446
:10003A0000000C9400000C9400000C944F020C94E5
:10004A0000000C9400000C9400000C9400000C9426
:10005A0000000C9400000C9400000C9400000C9416
:10006A0000000C9400000C9400000C9400000C9406
:10007A0000000C9400000C9400000C9400000C94F6
:10008A0000000C9400000C9400000C940000C7BB04
:10009A00BBBBBBBBBBBBC700EF8FEFEFEFEFEFEF15
:1000AA008300C7BBFBFBF7EFDFBF8300C7BBFBFBCC
:1000BA00E7FBFBBBC700F7E7E7D7D7B783F7E30050
:1000CA0083BFBFBF87FBFBBBC700E7DFBFBF87BBE1
:1000DA00BBBBC70083BBFBF7F7EFEFDFDF00C7BB94
:1000EA00BBBBC7BBBBBBC700C7BBBBBBC3FBFBF729
:1000FA00CF0088DDDDDDC1DDDDDD8800FFFFFF81AA
:10010A00BBF7EFDD810020222A2B2C5B3D5D7C7F33
:10011A0000000004000200018000400020001000DE
:10012A0008000400020000000080004000200010C7
:10013A0000080040002000100008000400021027F8
:10014A00E80364000A000100001000011000010029
:10015A0003030302020C000800010006303A494D6D
:10016A003030302E424D50004472697665206E6FF1
:10017A002064657465637461646F004472697665AE
:10018A00206365727261646F002E2E2E0057656CB3
:10019A00636F6D65005374617274696E6720202005
:1001AA00202000303A424153452E424D50004C69BE
:1001BA0073746F2020202020200046696C6520651A
:1001CA0072726F7200626173652E626D7020657261
:1001DA00726F720001000400EBFE904D53444F53BE
:1001EA00352E30004E4F204E414D452020202046CE
:1001FA0041543332202020004E4F204E414D45209D
:10020A002020204641542020202020000B000F0AE5
:10021A00660100000B000009AD0100000100F40EA8
:10022A00DE0100000100F80EE00100000000F89471
:10023A00EE27EFBBF1E0F5BFE5BF8DE0A2E0BB27FB
:10024A00ED938A95E9F780E090E2A0E0B1E0ED93C2
:10025A000197E9F7E6E1F2E0D0E0DBBF87919791F9
:10026A00009781F0A791B79107901790C791D791FE
:10027A00BF01DBB7F001CBBF07900D920197E1F701
:10028A00FB01EBCFE0E0EEBBEFEFEDBFE0E2EEBF4C
:10029A00C0E0D9E00C94A5032C978CE0A0E0B0E074
:1002AA00EAE5F1E060E00E94A51D1A93849A859A16
:1002BA00809A819A829A839AA2E3B0E00E94421CB1
:1002CA0010E01C3068F40E945918E12FF0E0DE01BA
:1002DA001196AE0FBF1FAC910E945D181F5FF1CF40
:1002EA00ECE04E2EA42D21D018812D9608958C9ADB
:1002FA008C980895AA93E881E87011F08B9A01C04E
:10030A008B98E881E47011F08A9A01C08A98E88192
:10031A00E27011F0899A01C08998E881E17011F0C0
:10032A00889A01C088980C940C07AA931A938D98FE
:10033A000E9459180E9461180E946818D8DF188113
:10034A0041C0AA931A938D9A0E9459180E94611863
:10035A000E946818CCDF188135C00E94711D1A935B
:10036A0010E0E12F1F5F0E946F186BBFA691E9DFB3
:10037A00E12F0E946F186BBFE691E03091F7188168
:10038A0025960895A1E0D1DF0895AA93E881F0E0C7
:10039A00309719F4A981A05814C0E130A0E0FA07F7
:1003AA0019F4A981A0540DC0E230A0E0FA0719F4AB
:1003BA00A981AC5606C0E330A0E0FA0719F4A98176
:1003CA00AC52B3DF22960895AA93E881E066E093DF
:1003DA007C00E0917A00E064E0937A00E0917A0090
:1003EA00E071E1F3E0917A00E061E0937A00E09154
:1003FA0079000C940C07E0E0E0939000E7E0E093CA
:10040A009100E0E0E0939500E0939400A6EEB3E05B
:10041A000E94421C88E99DE00197F1F7E09194005F
:10042A00F0E0DF01E0919500FE2FE0E0EA0FFB1F0C
:10043A005E2E6F2E0895F89477248824E0E8F0E081
:10044A007E168F062CF5E72DF82DAFE0B9E0EE0FFA
:10045A00FF1FEA0FFB1FFF93EF93A7E0B5DFAF91F2
:10046A00BF91F0E0ED93FC9380E78A95F1F70000E5
:10047A000000000000000000000000000000000072
:10048A00000000000000E1E0F0E07E0E8F1ED6CFF3
:10049A00789408950A921A92FA926A937A938A93AE
:1004AA009A93AA93BA93EA93FA93EBB7EA93EFB7BC
:1004BA00EA930E947A09E991EFBFE991EBBFF991BA
:1004CA00E991B991A9919991899179916991F99053
:1004DA00199009901895E0E0EA93ABE1BAE00E941E
:1004EA000A13E03039F00E947918A2E7B1E080E0FF
:1004FA0090E033DF0895E0E0EA93A0E0B0E00E94E4
:10050A000A130E947918A5E8B1E080E090E00E9401
:10051A0080180895BA93AA931A93E981FA813097B9
:10052A0051F410E0193030F40E9486180E948F1896
:10053A001F5FF8CFCFC0E130A0E0FA0771F410E0F6
:10054A00193050F40E948618EE55FF4F6F4F6BBF5B
:10055A00E691EC931F5FF4CFBDC0E230A0E0FA074A
:10056A0071F410E0193050F40E948618E455FF4FD8
:10057A006F4F6BBFE691EC931F5FF4CFABC0E330D4
:10058A00A0E0FA0771F410E0193050F40E948618BE
:10059A00EA54FF4F6F4F6BBFE691EC931F5FF4CFA6
:1005AA0099C0E430A0E0FA0771F410E0193050F471
:1005BA000E948618E054FF4F6F4F6BBFE691EC9391
:1005CA001F5FF4CF87C0E530A0E0FA0771F410E0AE
:1005DA00193050F40E948618E653FF4F6F4F6BBFD5
:1005EA00E691EC931F5FF4CF75C0E630A0E0FA07FE
:1005FA0071F410E0193050F40E948618EC52FF4F43
:10060A006F4F6BBFE691EC931F5FF4CF63C0E73087
:10061A00A0E0FA0771F410E0193050F40E9486182D
:10062A00E252FF4F6F4F6BBFE691EC931F5FF4CF1F
:10063A0051C0E830A0E0FA0771F410E0193050F424
:10064A000E948618E851FF4F6F4F6BBFE691EC93FB
:10065A001F5FF4CF3FC0E930A0E0FA0771F410E061
:10066A00193050F40E948618EE50FF4F6F4F6BBF3F
:10067A00E691EC931F5FF4CF2DC0EA30A0E0FA07B1
:10068A0071F410E0193050F40E948618E450FF4FBC
:10069A006F4F6BBFE691EC931F5FF4CF1BC0EB303B
:1006AA00A0E0FA0771F410E0193050F40E9486189D
:1006BA00EA5FFE4F6F4F6BBFE691EC931F5FF4CF7B
:1006CA0009C010E0193030F40E9486180E948F1871
:1006DA001F5FF8CF188123960895BA93AA931A93A5
:1006EA000A930A811B81D801E8EEF3E00E94F91C03
:1006FA00CE2EAC2DB0E0E8EEF3E00E94E11CAA8118
:10070A00BB81AE1BBF0B8D01E4E6F0E00E94F91C31
:10071A00BE2EAB2DE4E6EA9FF0010E1B1F0BD8019B
:10072A00EAE0F0E00E94F91CEE2EAE2DEAE0EA9F24
:10073A00F0010E1B1F0BD02E1981088124960895F3
:10074A000E945101E0E8E0937E00E0E6E0937C003D
:10075A00E4E8E0937A00E0E8E0937B005F9AE093B4
:10076A006100E0E0E0936100EAE0E0938100EEE4FA
:10077A00E0938900EFE1E0938800E2E0E0936F0004
:10078A00A3E9B1E080E090E0E8DD7894A0E068D2E7
:10079A00A8ECB0E00E94421CE0E0EA93A0E0F5DD9C
:1007AA00A7E9B1E080E090E0D8DD4F99FBC0EADD2F
:1007BA00AFE9B1E080E090E00E94B2011CDE3BDECE
:1007CA008ADE0E949618E0E0F9E0FA93EA93A1E043
:1007DA000E943A13E03009F0DAC00E949618EDE65A
:1007EA00FEE00E949B180E947014ADE4BCE00E94D7
:1007FA000D180E949618EFE0FAE0FA93EA93AAE03D
:10080A000E943A13E03009F0B5C00E949618EDE64E
:10081A00FEE0FA93EA93EEE3F0E0FA93EA93A9E0B2
:10082A00B0E00E94DC1577248824E0E0F1E07E162F
:10083A008F060CF092C03324E0E43E1640F4E32D18
:10084A00F0E0E555F14FAFEFA0833394F5CF3324B1
:10085A00E0E83E1608F074C00E94A4180F017E1644
:10086A008F062CF40E94AF18E715F80554F0F00132
:10087A00E715F8052CF40E94AF187E168F060CF0C7
:10088A000CC00E94B81821F40E94C418EF7E03C05D
:10089A000E94C418EE7FDB01EC930E94A4187E1616
:1008AA008F0661F40E94B81821F40E94C418EF70F0
:1008BA0003C00E94C418E07FDB01EC93A72DB82D7A
:1008CA00EAE0F0E00E94AD1C0E2EE2E1F0E00E94A8
:1008DA00A71CE02199F1A52DB62DFFDEAC2D0E94B3
:1008EA00CF1821F00E94D418E093AC0EAB2D0E94D1
:1008FA00CF1811F4BB2021F00E94D418E093AD0E5A
:10090A00AE2D0E94CF1821F4BB2011F4EE2021F065
:10091A000E94D418E093AE0EAD2DBB270E94DC18BE
:10092A00E093AF0EAAE0B0E00E94DC18E093B00EAC
:10093A00ABE0B0E00E94DC18E093B10E339488CFAC
:10094A000E949618EBEAFEE00E949B180E94DC15B2
:10095A00E1E0F0E07E0E8F1E68CF0E94C701A8EB8F
:10096A00B1E080E090E00E94B201ADE4BCE00E94F8
:10097A000D1808C00E947918A4ECB1E080E090E05C
:10098A000E94B201A8EEB3E00E94421C08C00E9475
:10099A007918AFECB1E080E090E00E948018ABDDFE
:1009AA000E94C701F9CEFFCFAA930E94991D20E0A9
:1009BA000C81AD81BE813D91AD83BE8318E0220FCB
:1009CA00E22FE327E07811F0E9E02E27330F1150E8
:1009DA00B1F7015071F7E22FEE0FE1600E94A01DFE
:1009EA0039C51A93E2E3E093F60EEFEFEEBDEDB5EB
:1009FA00E7FFFDCFEFEFEEBDEDB5E7FFFDCF1EB58B
:100A0A001F3F21F0E091F60EE03009F401C0F2CF69
:100A1A00E12F9FC4289AEFEFEEBDEDB5E7FFFDCFBA
:100A2A000895BA93AA930E94991DE4E1E093F50E02
:100A3A00EFEFEEBDEDB5E7FFFDCF1EB51F3F21F489
:100A4A00E091F50EE03009F401C0F2CF1E3F21F02B
:100A5A00E0E00E94A01DB6C22E813F81EFEFEEBDFD
:100A6A00EDB5E7FFFDCF3F932F932F5F3F4FEEB5D5
:100A7A00AF91BF91EC93EFEFEEBDEDB5E7FFFDCF80
:100A8A003F932F932F5F3F4FEEB5AF91BF91EC93FA
:100A9A00EFEFEEBDEDB5E7FFFDCF3F932F932F5F4D
:100AAA003F4FEEB5AF91BF91EC93EFEFEEBDEDB5D1
:100ABA00E7FFFDCF3F932F932F5F3F4FEEB5AF91E7
:100ACA00BF91EC93EC81FD813497EC83FD8331F681
:100ADA00EFEFEEBDEDB5E7FFFDCFEFEFEEBDEDB504
:100AEA00E7FFFDCFE1E00E94A01D6CC2AA930E941D
:100AFA00991D77DFEF3F21F0E0E00E94A01DAAC414
:100B0A00EC81EEBDEDB5E7FFFDCFAC81AD3F69F1FC
:100B1A0000E02D813E81D9012F5F3F4FEC91EEBD60
:100B2A00EDB5E7FFFDCFD9012F5F3F4FEC91EEBD49
:100B3A00EDB5E7FFFDCF015071F7EFEFEEBDEDB573
:100B4A00E7FFFDCFEFEFEEBDEDB5E7FFFDCFEFEF2E
:100B5A00EEBDEDB5E7FFFDCF1EB5E12FEF71E53034
:100B6A0021F0E0E00E94A01D75C4E1E00E94A01DF2
:100B7A0071C40E94711D1A930A93EE81E07881F084
:100B8A00EE81EF77EE83E7E7EA93A0E0B0E080E05A
:100B9A0090E0EFDF0E2F023018F0198108815AC455
:100BAA00AE81AC3449F036DF28981BDFEF3F21F0E5
:100BBA00EFEF198108814EC4EE81EEBDEDB5E7FF76
:100BCA00FDCFED81EEBDEDB5E7FFFDCFEC81EEBDCA
:100BDA00EDB5E7FFFDCFEB81EEBDEDB5E7FFFDCF4C
:100BEA00EA81EEBDEDB5E7FFFDCF11E0AE81A0349D
:100BFA0011F415E904C0AE81A83409F417E81EBD42
:100C0A00EDB5E7FFFDCFAE81AC3429F4EFEFEEBDD1
:100C1A00EDB5E7FFFDCF1FEFEFEFEEBDEDB5E7FF57
:100C2A00FDCF0EB507FF02C0115009F401C0F4CF81
:100C3A00E02F198108810EC4BA93AA931A9314E07B
:100C4A00EFEFEEBDEDB5E7FFFDCFA981BA811196B1
:100C5A00A983BA831197EEB5EC93115089F7ECC4C6
:100C6A00AA9324970E94991DE885E03011F0E1E0EB
:100C7A00C2C024982598EAE0E093F50EE091F50EBB
:100C8A00E030E1F7E091F40EE27009F0B2C0209A88
:100C9A00289AE5B1E97FE5B92B9A2398E4B1E76090
:100CAA00E4B9E3E5ECBDE0E0EDBD3FEF1AE0EFEFBC
:100CBA00EEBDEDB5E7FFFDCF1150C9F7E0E4EA93C9
:100CCA00A0E0B0E080E090E054DF0E2F3150013018
:100CDA0011F0303009F401C0E9CF30E0013009F0F9
:100CEA0068C0E4E6E093F50EE8E4EA93AAEAB1E024
:100CFA0080E090E03EDFE13091F5DE0114969CDF62
:100D0A00AE81A13019F4AF81AA3A09F027C0E09167
:100D1A00F50EE03049F0E9EEEA93A0E0B0E080E0B9
:100D2A0090E427DFE03009F401C0F1CFE091F50E3D
:100D3A00E03049F0EAE7EA93A0E0B0E080E090E032
:100D4A0018DFE03009F00AC0DE01149675DFEC8185
:100D5A00E07411F0ECE001C0E4E03E2F2AC0E9EEB5
:100D6A00EA93A0E0B0E080E090E003DFE23018F41C
:100D7A0032E009EE02C031E001E4E091F50EE03024
:100D8A0041F00A93A0E0B0E080E090E0F2DEE030CB
:100D9A0009F401C0F2CFE091F50EE03049F0E0E548
:100DAA00EA93A0E0B2E080E090E0E3DEE03009F010
:100DBA0030E03093F70E2EDE303051F0E091F40E31
:100DCA00EE7FE093F40EE0E5ECBDE1E0EDBD11C08D
:100DDA00289807DE1FDEE0E0ECBDE4B1E07FE4B96D
:100DEA00E5B1E07FE5B92098E091F40EE160E09387
:100DFA00F40EE091F40E0E94A01D29960895AA937C
:100E0A00E881E03011F0E1E002C0E091F40E2196B1
:100E1A000895AA93EF81E03019F4E881E03011F4E3
:100E2A00E4E0D0C0E091F40EE17011F0E3E0CAC052
:100E3A00E091F70EE87071F4E981FA816B817C81A7
:100E4A00A0E0B2E080E090E00E94BB1CE983FA8354
:100E5A006B837C83A881A130A9F4E1E5EA93AA8196
:100E6A00BB818C819D8185DEE03059F4ED81FE8164
:100E7A00FA93EA93A0E0B2E0D4DDE03011F0E0E0CA
:100E8A00E88323C0E2E5EA93AA81BB818C819D8134
:100E9A0070DEE030D1F4ED81FE81FA93EA93A0E0AE
:100EAA00B2E0BFDDE03051F0ED81FE81E050FE4F4F
:100EBA00ED83FE83E881E150E88369F7ECE4EA9385
:100ECA00A0E0B0E080E090E054DEA4DDE881E0300C
:100EDA0011F0E1E001C0E0E075C0AA93EF81E030D3
:100EEA0019F4E881E03011F4E4E06CC0E091F40E0A
:100EFA00E17011F0E3E066C0E091F40EE47011F0E5
:100F0A00E2E060C0E091F70EE87071F4E981FA81DD
:100F1A006B817C81A0E0B2E080E090E00E94BB1C83
:100F2A00E983FA836B837C83A881A130A1F4E8E585
:100F3A00EA93AA81BB818C819D811BDEE03051F44A
:100F4A00ED81FE81FA93EA93AEEFD0DDE03011F045
:100F5A00E0E0E88330C0E091F70EE67039F0E7EDA3
:100F6A00EA93A981BB278827992703DEE9E5EA9353
:100F7A00AA81BB818C819D81FCDDE030E1F4ED81A9
:100F8A00FE81FA93EA93ACEFB1DDE03051F0ED81E6
:100F9A00FE81E050FE4FED83FE83E881E150E88355
:100FAA0071F7E0E0F0E0FA93EA93ADEF9FDDE0300D
:100FBA0011F4E1E0E8832EDDE881E03011F0E1E0B0
:100FCA0001C0E0E028960895BA93AA9360970E9418
:100FDA00991DEF89E03011F0E4E083C1E091F40E4D
:100FEA00E17011F0E3E07DC111E0EE89E03031F407
:100FFA002898F7DCEF3F09F410E071C1E13009F0FD
:10100A005BC0E9E4EA93A0E0B0E080E090E0B1DD03
:10101A00E03049F4FE013496FA93EA93A0E1B0E095
:10102A0000DDE03009F447C0EC81E295EF70E69507
:10103A00E695E13069F4E0E0FC85AD85B0E0EA0FC1
:10104A00FB1F31969F01D90188279927EAE02CC016
:10105A00E985EF70AE2FEE85E078EE1FE0E0EE1F37
:10106A00AE0FED85E370EE0FEA0FEE5F0E2FEC8503
:10107A00E295EF70E695E695AE2FEB85F0E00E94DB
:10108A00851CB0E0AE0FBF1FEA85E370F0E00E9456
:10109A00851CFE2FE0E0EA0FFB1F31969F01D90164
:1010AA0088279927E02FE9500E94691CAC89BD89DD
:1010BA000E944E1D10E013C1E23041F4AC89BD8993
:1010CA00E0E0F2E0ED93FC9310E009C1E33009F0AF
:1010DA00ABC0E091F70EE47081F1EDECEA93A0E089
:1010EA00B0E080E090E045DDE03031F5EFEFEEBDB5
:1010FA00EDB5E7FFFDCFFE013496FA93EA93A0E13E
:10110A00B0E08FDCE030C1F000E3003039F0EFEFFF
:10111A00EEBDEDB5E7FFFDCF0150F7CFEE85E295C5
:10112A00EF70A0E1B0E080E090E00E94691CAC8919
:10113A00BD890E944E1D10E076C0E9E4EA93A0E062
:10114A00B0E080E090E015DDE03009F06CC0FE010F
:10115A003496FA93EA93A0E1B0E063DCE03009F454
:10116A0062C0E091F70EE27051F1EE85EF73FF274E
:10117A00662777270E94931C7F936F93FF93EF93C1
:10118A00EF85E078FF2766277727DF01CB01E7E0C5
:10119A000E94751CAF91BF918F919F910E944C1C28
:1011AA00EF5FFF4F6F4F7F4FDF01CB01E989E29578
:1011BA00EF70E695E695E1500E94691C2FC0EE8516
:1011CA00EC77E695E695FF2766277727EF5FFF4FCF
:1011DA006F4F7F4F7F936F93FF93EF93EF85E3708A
:1011EA00FF2766277727DF01CB01E3E00E94691C0E
:1011FA00DF01CB01EF85E07EE295EF70E695FF27F0
:10120A00662777270E944C1CEF5FFF4F6F4F7F4F77
:10121A00AF91BF918F919F910E94BB1CAC89BD89F0
:10122A000E944E1D10E05BC0EA3039F4E091F70EDF
:10123A00AC89BD89EC9310E052C0EB3011F409E49B
:10124A0003C0EC3001F50AE40A93A0E0B0E080E0C4
:10125A0090E08FDCE030B1F4EC89FD89FA93EA93EF
:10126A00A0E1B0E0DEDBE03069F0EC89FD89FA93B9
:10127A00EA93AFE099DBAE2FEC89FD89E785EA179F
:10128A0009F410E02CC0ED3071F4EAE7EA93A0E02B
:10129A00B0E080E090E06DDCE03021F4AC89BD89FB
:1012AA00CBDC10E01CC0EE30C9F4EDECEA93A0E010
:1012BA00B0E080E090E05DDCE03079F4EFEFEEBD85
:1012CA00EDB5E7FFFDCFEC89FD89FA93EA93A0E437
:1012DA00B0E0A7DBE03009F010E001C014E09ADBCF
:1012EA00E12F0E94A01D689608951A931091F50E99
:1012FA00103019F011501093F50E1091F60E1030AF
:10130A0019F011501093F60E1091F80EE0E0E093E8
:10131A00F80E1C9903C0E1E0E093F80E1D9B05C08E
:10132A00E091F80EE260E093F80EE091F80EE11712
:10133A0081F41091F40EE17011F01D7F01C0136069
:10134A00E091F80EE27011F0146001C01B7F109357
:10135A00F40E199108952797A0910B09B0910C09E1
:10136A00109731F0A0910D09B0910E09109729F448
:10137A00E0E0F0E061E27AE36DC0FE013696FA93AE
:10138A00EA93FE013796FA93EA93DE011896E09102
:10139A000B09F0910C090995FE013396FA93EA9329
:1013AA00FE013496FA93EA93DE011496E0910D0950
:1013BA00F0910E090995E881F981EC5BF7406627FF
:1013CA007727DF01CB01E9E10E94691C7F936F93C4
:1013DA00FF93EF93EA810E94DF18E5E10E94691CFE
:1013EA00AF91BF918F919F910E94601CDF01CB0149
:1013FA00EB81F0E00E94A21C0E949D1C0E94601CCE
:10140A007F936F93FF93EF93EE810E94DF18EBE0D7
:10141A000E94691CAF91BF918F919F910E94601C9D
:10142A007F936F93FF93EF93ED810E94DF18E5E0BE
:10143A000E94691CAF91BF918F919F910E94601C7D
:10144A00DF01CB01EC81F0E0F595E7950E94A21C43
:10145A000E94601C27960895AA931A930E94E51881
:10146A006BBFE6911E2FE03019F0E981E11709F40C
:10147A000FC0DE0112960E94491DEF5FFF4F6F4FAA
:10148A007F4F0E94531DE150F04060407040E6CF0C
:10149A00E12FF0E01881269608950E94711D249785
:1014AA001A93A985BA859E960E94431D0E94EA183E
:1014BA000E94EF180E94F4180E948D1D09F452C070
:1014CA00E985FA85E481E03079F10E94F918E03083
:1014DA00F1F5A985BA851496E0E0EC93E985FA85D9
:1014EA000E940B190D01A985BA855A960E94431DBF
:1014FA00D0010E944C1C0E94F4180E94921DA0F474
:10150A00E985FA851381123078F0A985BA855A9649
:10151A000E94431D0E94F4180E944C1C0E94EA1863
:10152A000E94F9181150EFCF0E94EF180E94831DF4
:10153A00C9F0E985FA85A181AA93EA85FB85F29625
:10154A00FA93EA930E9410190E94151921F0E1E01A
:10155A0018812B9608950E94EF18A985BA859E9640
:10156A000E944E1DE0E0188161C4BA93AA931A93AF
:10157A00E981FA810E941C191E2F103009F05BC004
:10158A00A981BA81AC91A33029F4E981FA81E58174
:10159A00E03009F444C0A981BA810E942419E98182
:1015AA00FA810E942C19E981FA81F296E250FE4FE3
:1015BA00A5E5BAEAA083B183E981FA81F296A2E5A8
:1015CA00B2E581E691E40E943519EC51FE4FA2E79B
:1015DA00B2E781E491E60E943519E851FE4F0F0106
:1015EA00A981BA811E960E943B19F296E451FE4FD8
:1015FA000F01A981BA811A960E943B19A181AA9367
:10160A00EA81FB81F296FA93EA93EC81FD810E94CA
:10161A00431963DCA981BA811596E0E0EC93E9816C
:10162A00FA81A181AA93E0E0EA93A0E0B0E0CCDCE1
:10163A00E03009F011E0E12F1881239608950E9405
:10164A00711D24970E94991D0E944B190E945019DE
:10165A0050F0AC85BD855E960E94431D0E944B19D1
:10166A000E94921D18F00E94581960C0AC85BD8571
:10167A0092960E945D19AC85BD85EC91F0E0E1304F
:10168A00A0E0FA0739F528853985F901F695E79535
:10169A002E0F3F1F0E94641909F046C00E94791953
:1016AA000C9111272F5F3F4F0E946419E9F50E94A0
:1016BA007919EC91FE2FE0E00E2B1F2BE885E170E3
:1016CA0021F0F8010E948A1C02C0F801FF70662707
:1016DA0077272CC0E230A0E0FA0779F40E9481193A
:1016EA000E948A190E949119F9F4A885B985E2E045
:1016FA000E949B190E94A41919C0E330A0E0FA07BE
:10170A0099F40E9481190E94A9190E94911961F401
:10171A00A885B985E4E00E949B190E94431DEF7FCA
:10172A00FF7F6F7F7F7002C00E94B0190E94A01DC8
:10173A002E9608950E94711D24970E94971D0E945B
:10174A00B5190E94501950F0AA89BB895E960E9469
:10175A00431D0E94B5190E94921D10F052E085C0E7
:10176A00AA89BB8992960E94431DEE83FF836887EC
:10177A007987AA89BB89EC91F0E0E130A0E0FA0709
:10178A0009F043C00E851F85F801F695E7950E0FFF
:10179A001F1F0E94BA1909F063C00E94CD1951F0A7
:1017AA00D901EC91EF70AE2FEA85F0E00E94811C1E
:1017BA00EA2B01C0EA85D901EC930F5F1F4FAA8972
:1017CA00BB891496E1E0EC930E94BA1909F048C06B
:1017DA000E94CD1949F00E94D819E4E00E94751CB4
:1017EA00FF27662777270EC0D901EC91E07F1E2ECE
:1017FA000E94D819E8E00E94751CFF276627772700
:10180A00EF70E129D901EC932BC0E230A0E0FA078E
:10181A0089F40E94DD190E948A190E94E61901F5CD
:10182A00AE85BF85E2E00E94EE19AA85BB85A0833A
:10183A00B18316C0E330A0E0FA0789F40E94DD19EB
:10184A000E94A9190E94E61959F4AE85BF85E4E001
:10185A000E94EE190E94D8190E94671D01C052E029
:10186A00AA89BB891496E1E0EC93E52F0E949E1D9C
:10187A00649608950E94711D24971A930E94F7197D
:10188A000E94501918F00E94FC1910F012E048C08A
:10189A0010E00E94FC1908F043C0E985FA85FA9322
:1018AA00EA93AF81B88589859A85C9DE0E94EA18CC
:1018BA00E981FA816B817C810E94831D89F10E94F2
:1018CA00F4180E94051A11F412E02AC00E94F418B2
:1018DA000E940D1A11F411E023C0E985FA85FA93E2
:1018EA00EA93EF81F88569857A850E946C1D0E94CA
:1018FA00151A20DF1E2F103099F4E985FA850E9407
:10190A001A1A29F00E941F1A1596E1E0EC93E98150
:10191A00FA816B817C81ED83FE836F837887B9CFEF
:10192A00E12F188183C20E94711D6097AC89BD891D
:10193A005E960E94431D0E942D1A0E94301A0E9430
:10194A00831DB1F4AC89BD891A960E945D190E9463
:10195A00351A0E94871D39F00E943A1A0E94351AD8
:10196A000E94921D20F00E9458190E943D1A1CC024
:10197A000E94421A0E94471A0E944C1A0E94531A45
:10198A000E94501918F40E9458198CC00E943A1AE1
:10199A000E94531A0E94921D18F40E94581A82C07B
:1019AA000E94301A0E943D1A0E945D1A0E94621A11
:1019BA000E941019EF5FFF4F6F4F7F4F0E94621A0C
:1019CA000E943A1A0E944B190E94921D60F0E2E0AE
:1019DA00F0E060E070E00E94621A0E94671A18F450
:1019EA000E946C1A5FC00E94421A0E94D8190E9473
:1019FA004C1A0E94711AA1F00E94531A0E940D1AE1
:101A0A0029F00E94531A0E94051A19F40E94581AC2
:101A1A0049C00E94671A19F40E946C1A43C0C8CFC1
:101A2A000E94421AEA85FB856C857D850E946C1DA1
:101A3A00AFEFBFEF8FEF9FE07DDEE03019F00E943D
:101A4A00B01930C00E94301A0E94831D71F00E94A2
:101A5A00421A0E94751A0E946C1D0E94B5196ADE0C
:101A6A00E03019F00E94B0191DC00E941019AC890B
:101A7A00BD891A960E944E1DEC89FD890E941A1A88
:101A8A0079F0AC89BD891E960E94491D3197604044
:101A9A0070400E94531DAC89BD891596E1E0EC9314
:101AAA000E941019669608950E94711D0E943A1AA2
:101ABA00E250F040604070400E942D1AEC81FD8196
:101ACA00A68DB78D80A191A1E2E0F0E060E070E020
:101ADA000E947A1A0E945D1D0E94921D18F00E94AF
:101AEA006C1A7CC3EC81FD81E281F0E00E945D1DED
:101AFA000E94A21C0E94BB1C7F936F93FF93EF93DB
:101B0A00AC81BD819A960E94431DAF91BF918F917E
:101B1A009F910E944C1C62C3BA93AA9324971A936A
:101B2A000A93EE81FF81A885B9851496ED93FC93FB
:101B3A00A885B98516960E947F1A0E94861A0E9465
:101B4A00051A29F00E948B1A0E94901A10F0E2E0FE
:101B5A007CC00E94E5180E94831D29F40E948B1AFA
:101B6A00A081A33009F006C00E948B1AB696DF0145
:101B7A000E947F1A0E94E5180E94831DA1F40E9408
:101B8A00981A3896DF010E943F1DAE81BF81AE17B9
:101B9A00BF0710F0E2E059C00E948B1AB696DF0127
:101BAA000E94431D37C00E948B1AE281A0E1EA9F7E
:101BBA008001AE81BF81A017B10728F10E948B1A5C
:101BCA00FA93EA930E94351A3ADDEA83FB836C831F
:101BDA007D830E94861A0E940D1A11F4E1E035C035
:101BEA000E94861A0E94501928F00E948B1A0E949D
:101BFA00901A10F0E2E029C0EE81FF81E01BF10BA0
:101C0A00EE83FF83D6CF0E94981AFA93EA930E9432
:101C1A00351A4ADFDF01CB01EE81FF810E948A1C5F
:101C2A000E949F1AA885B9851E960E944E1D0E9481
:101C3A008B1AF296DF01EE81FF810E94A41AA88511
:101C4A00B9855296ED93FC93E0E0198108812A96B2
:101C5A000895AA9324970E94991DA985BA85149676
:101C6A000E943F1D31968F01002E012A31F0A9856D
:101C7A00BA851E960E94AC1A11F4E4E0D5C0F801A8
:101C8A00EF7009F0BEC00E941F1A1A960E94AC1A81
:101C9A0061F40E94B11A3896DF010E943F1D0E17A7
:101CAA001F0710F0E4E0C0C0ACC0F8010E948A1C13
:101CBA000F010E94B11AE281F0E03197E021F1218F
:101CCA00309709F09EC00E94B11A0E94B61AB7DC7A
:101CDA000E943D1A0E94351A0E94501910F4E2E03F
:101CEA00A3C00E94351A0E940D1A11F4E1E09CC0AB
:101CFA000E94B11A7E96DF010E94431D0E94351A86
:101D0A000E94921D08F46DC0E885E03011F4E4E009
:101D1A008BC00E94B11A0E94B61A05DE0E94BF1A31
:101D2A000E94831D11F4E7E07FC00E94351A0E94C9
:101D3A00051A11F4E2E078C00E94351A0E940D1AC1
:101D4A0011F4E1E071C00E94B11A0E941C19E0303E
:101D5A0011F0E1E069C00E94B11A0E942C190E9498
:101D6A00B11ADF01BE96FF93EF93FD010E94C11ADB
:101D7A00AF91BF910E944E1D30E00E94B11AE281DC
:101D8A003E17D8F40E94B11A3496A1E0A0830E94AB
:101D9A00B11A0E941C19E03011F0E1E045C00E941E
:101DAA00B11ABE96DF010E94491DEF5FFF4F6F4FC8
:101DBA007F4F0E94531D3F5FE0CF0E94B11ABE962B
:101DCA00FF93EF93DF010E94431DDF01CB01E32F55
:101DDA00F0E00E94A21C0E947A1AAF91BF910E9461
:101DEA004E1D0E945D1AA985BA851A960E944E1D3B
:101DFA000E94B11A0E94C11AA985BA851E960E942C
:101E0A004E1DF801A985BA851496ED93FC930E949C
:101E1A00B11AF296DF01F8010E94A41AA985BA85BF
:101E2A005296ED93FC93E0E00E94A01D2B96089534
:101E3A000E94C91A21F0E12F0E94A01DCFC10E9461
:101E4A00D81A01F5AC81BD8152962D913C91D901E8
:101E5A000C91003011F414E015C0F901E385E87023
:101E6A0031F40E94E91A0E941E18E03009F001C0FC
:101E7A0009C0EC81FD81FA93EA93A0E0EADE1E2F05
:101E8A001030E9F2E12F0E94A01DA8C10E94C91AD0
:101E9A00B1F40E94D81A99F4EC81FD81A289B38920
:101EAA000C91053E11F0003009F409C0EC81FD8166
:101EBA00FA93EA93A1E0CDDE1E2F103051F31030D1
:101ECA0029F50E94D81A11F5AC81BD8152962D913F
:101EDA003C913A932A93E0E0EA93A0E2B0E00E94B0
:101EEA0049180E94E91A0E943718AC81BD8154969C
:101EFA000E943F1DE385E871D9011C96EC93AC81E1
:101F0A00BD810E943F1D3496A1E0A083E12F0E946B
:101F1A00A01D64C1BA93AA9325970E94971DAD8507
:101F2A00BE8554964D915C915A934A93E0E2EA93A6
:101F3A00ABE0B0E00E944918E0E0E887E9871E2F8D
:101F4A002E2FE8E0EA87AB85BC850E943F1DEE8311
:101F5A00FF830E94F41AAE0FBF1FAC91AE3209F58F
:101F6A000E94F91A0E3221F4A885B98513970CF04C
:101F7A0003C00E94051BF4CF0F3221F00C3511F07B
:101F8A00013208F402C0E6E06FC00E94F41A0E940F
:101F9A000C1B10F4E4E201C0E0E2DA011B96EC93B8
:101FAA0062C00E94F91A013220F00F3211F00C358A
:101FBA0009F434C00E3219F0EA852E1768F0AA85A2
:101FCA00A83011F40E3211F0E6E04EC028E0EBE042
:101FDA00EA87110F110F21C0003818F01360E6E0EC
:101FEA0043C0E0E1F1E060E070E00E946C1DA02FC8
:101FFA0033DA309711F0E6E037C0013410F00B35D0
:10200A0008F002C0126007C0013610F00B3708F062
:10201A0002C0116000520E94051BC3CF0E94F41A2D
:10202A000E940C1B10F4E4E001C0E0E00E2F203007
:10203A0011F4E6E019C0DA01AC91A53E19F4DA010F
:10204A00E5E0EC93AA85A83011F4110F110FE12FE6
:10205A00E370E13009F40061E12FEC70E43009F437
:10206A000860FA010387E0E00E949E1D2F960895FA
:10207A00BA93AA930E94991DE1E0E03029F0AC815D
:10208A00BD81AC91A03209F006C0EC81FD81319688
:10209A00EC83FD83F1CFAC81BD81AC91AF3229F0E5
:1020AA00AC81BD81AC91AC3559F4EC81FD8131969E
:1020BA00EC83FD83AE81BF8116960E94141B0AC071
:1020CA00AE81BF810E943F1D7696DF010E94431DAB
:1020DA000E94181BAC81BD81AC91BB27909760F41C
:1020EA000E941E1BA0E0B0E017DD1E2FAE81BF814B
:1020FA0052960E94231B3DC00E941E1BDE011696AB
:10210A0009DF1E2F1030A9F5AE81BF8191DE1E2F87
:10211A00AE81BF8154960E943F1DE385E4700E2F65
:10212A00103039F0143011F4003009F001C015E014
:10213A0020C00030F1F4AE81BF8152962D913C91BE
:10214A00F901E385E07111F415E013C00E94281B20
:10215A000E949D1C7F936F93FF93EF930E942B1B0A
:10216A00AF91BF918F919F910E94301B0E94181BC3
:10217A00C3CFE12F0E94A01D289608950E94711DC9
:10218A00EC81FD81A181AA93ED81FE81F296FA93F9
:10219A00EA93EB81FC816D817E810E94151911F011
:1021AA00E3E01CC0EC81FD810E94351B11F0E2E0E6
:1021BA0015C0AC81BD81A859BF4F0E943F1B11F4C5
:1021CA00E0E00CC0EC81FD81F296EE5AFF4FDF0190
:1021DA000E943F1B11F4E0E001C0E1E02696089559
:1021EA00AA9364970E94971DAD8DBE8D0E943F1DD4
:1021FA00E887F987A885B985EC91E0530E2F0A3054
:10220A0020F41196AC91AA3309F00AC0E885F98541
:10221A003296E887F987AD8DBE8DED93FC9302C0A7
:10222A000091FD0E013010F0EBE0C9C1E02F0E94D1
:10223A004D1B0E943F1DEE83FF83AB8DBC8DED933A
:10224A00FC93309711F4ECE0BAC1AE81BF81EC91F6
:10225A00E03089F0EE81FF81A1810E9404075E2FA0
:10226A0050FD09C0EA8DE03011F052FD01C002C0F4
:10227A00EAE0A5C1A3C1AE81BF81E0E0EC93E02F03
:10228A00AE81BF811196EC93EE81FF81A1810E94FC
:10229A0035065E2F50FF02C0E3E091C1EA8DE030BF
:1022AA0011F052FD01C002C0EAE089C10E941E1B62
:1022BA000E946C1AE88FF98F6A8F7B8FDF01CB013E
:1022CA005DDF1E2F1130C9F4EE81FF81F296E254D0
:1022DA00FE4F9F01E481E03081F0D90118960E94F7
:1022EA00431DEE8BFF8B688F798F0E941E1BA88D72
:1022FA00B98D8A8D9B8D42DF1E2F133011F4E1E0D8
:10230A005EC1103049F4AE81BF81DD960E943F1D47
:10231A00E030A2E0FA0711F0EDE051C1AE81BF81D1
:10232A00A85BBF4F0E94A4190E94551B0E94751AF0
:10233A000E94831D41F4AE81BF81AA5ABF4F0E94F9
:10234A00431D0E94551B0E94751AAE81BF815A9681
:10235A000E944E1DEE81FF81EE5BFF4FE081AE8150
:10236A00BF811396EC93EE81FF81E381F0E00E9436
:10237A00471A0E94A21C0E94BB1C0E94551B0E9465
:10238A005A1B0E94611BAE81BF8192960E944E1D0C
:10239A00EE81FF81E7ADAE81BF811296EC93AE81EB
:1023AA00BF81AD5BBF4F0E943F1DAE81BF811896B2
:1023BA00ED93FC93AE81BF81AB5BBF4F0E94A41922
:1023CA00EE87FF87688B798B0E94831D51F4AE815B
:1023DA00BF81AE5ABF4F0E94431DEE87FF87688BAD
:1023EA00798B0E945A1B0E94B519662777270E948B
:1023FA007A1A0E94471A0E94561C7F936F93FF9382
:10240A00EF930E94661BAF91BF918F919F916627B0
:10241A0077270E945B1CEE81FF81E281F0E00E9437
:10242A00A21C0E94FE1CEE5FFF4F6F4F7F4FEA8790
:10243A00FB876C877D87AE81BF815E960E944E1DA9
:10244A0011E00E94D819A73FEFE0BE07E0E08E072F
:10245A00E0E09E0708F012E00E94D819A73FEFEFCC
:10246A00BE07E0E08E07E0E09E0708F013E01330B5
:10247A0039F4AE81BF81A25ABF4F0E94431D02C0E8
:10248A000E946E1BAE81BF8196960E944E1D0E94CD
:10249A006E1B7F936F93FF93EF930E94661BAF911E
:1024AA00BF918F919F910E949F1AAE81BF819A9688
:1024BA000E944E1DAE81BF811E960E94B0190E94D5
:1024CA004E1DAE81BF811496E0E0EC93133009F003
:1024DA005FC0AE81BF811596EC93AE81BF81AE59C4
:1024EA00BF4F0E943F1D0E94611BAE81BF81529661
:1024FA000E944E1DEE81FF81A181AA93EF81F8858A
:10250A00F296FA93EA93E985FA850E9443190E94A2
:10251A000E07E03011F5EE81FF810E94351BE9F4C8
:10252A00AE81BF81D2960E94431DE235A2E5FA0729
:10253A00A1E66A07A1E47A0781F4EE81FF81F296A7
:10254A00EC51FE4FDF010E94431DE237A2E7FA0772
:10255A00A1E46A07A1E67A0709F01AC0EE81FF81B1
:10256A00F296E451FE4FDF010E94431DAE81BF8106
:10257A001A960E944E1DEE81FF81F296E851FE4F97
:10258A00DF010E94431DAE81BF811E960E944E1D2F
:10259A00AE81BF811C930E942419AE81BF815696D9
:1025AA000E94141BABEFBEE0ED91FD913196FE93B4
:1025BA00EE93AE81BF811696ED93FC93E0E00E9404
:1025CA009E1D6F960895BA93AA93EA81FB8130976C
:1025DA0071F0AA81BB81EC91E03049F0EA81FB817C
:1025EA00A681B781E881F981EA17FB0711F0E9E0D2
:1025FA000AC0EA81FB81A1810E940407E17011F0FF
:10260A00E3E001C0E0E024960895BA93AA931A93EE
:10261A000A93AC81A13028F0EBE019810881259654
:10262A000895EC810E944D1B0D911C91002E012AE8
:10263A0019F0D801E0E0EC93EA81FB81309721F0B0
:10264A00AA81BB81E0E0EC93EC81A9EFBEE0F0E067
:10265A00EE0FFF1FEA0FFB1FAA81BB81A083B18384
:10266A00E0E0198108810C945718AA93A2970E9456
:10267A00991DA9A5BAA50E94231BEEA1EF71EEA38D
:10268A00FE01B796FA93EA93FE017296FA93EA93D9
:10269A00EAA5EE71AE2FA4DD1E2F103009F017C186
:1026AA00FE013496ECA3FDA3FE017096FA93EA9319
:1026BA00A9A5BAA5DDDC1E2FEEA1EC7109F49AC01A
:1026CA002897103089F0143021F4DE015896DEDBA9
:1026DA001E2F103019F0E12F2896F9C0EEA5E860F8
:1026EA00EEA72AA53BA56DC0EEA5E47019F0E8E0B7
:1026FA002896EDC02AA53BA5022E032A21F0F9014E
:10270A00E385E17119F0E7E02896E1C0EEA5E870EB
:10271A0009F457C00E94281B0E949D1C7F936F9347
:10272A00FF93EF930E942B1BAF91BF918F919F91C3
:10273A000E94301B0E942D1AF9017496A0E0B0E0A5
:10274A00A083B183F9017A96A083B183F9017C96BB
:10275A000E94151A0E94671DA88DB98D1496E1E092
:10276A00EC93A88DB98D9E960E945D190E943A1A23
:10277A000E94831DB9F0E88DF98DFA93EA930E94BD
:10278A00861A78D81E2F103011F02896A0C00E9401
:10279A003A1AE150F04060407040A88DB98D1A96FF
:1027AA000E944E1DE88DF98DFA93EA93AE81BF819E
:1027BA00888599850E94520A1E2F103011F028969A
:1027CA0086C0EEA5E870A1F0F9013B96A0E0A083CF
:1027DA000E94B0090E94BF1AD9011E960E944E1D7E
:1027EA00A88DB98D1496E1E0EC93EEA5E062EEA710
:1027FA00289619C0103011F0E12F69C02AA13BA117
:10280A00022E032A21F0F901E385E07111F0E4E0D8
:10281A005EC0EEA1E27021F0F901E385E17009F4EE
:10282A0002C0E7E054C0A889B9899E960E94431D58
:10283A00A9A5BAA55A960E944E1DEAA1FBA1A9A56F
:10284A00BAA55E96ED93FC93EEA1A9A5BAA5149636
:10285A00EC930E94281B0E949D1C7F936F93FF9309
:10286A00EF930E942B1BAF91BF918F919F910E9472
:10287A00301BA9A5BAA51E960E944E1DD9015C96C9
:10288A000E94431DA9A5BAA51A960E944E1DA9A584
:10289A00BAA516960E94141BA9A5BAA51596EFEF1C
:1028AA00EC93A9A5BAA556960E94141BE889F98942
:1028BA00A9A5BAA5ED93FC93A889B98916960E9491
:1028CA003F1DA9A5BAA51296ED93FC93E0E00E94DC
:1028DA00A01DAB960895BA93AA932E970E94971DAE
:1028EA00E88DF98DEE83FF83AC89BD890E94231B95
:1028FA000E94751B0E947A1B0E947F1B11F0E12F18
:10290A0052C1EA8DFB8DA481A07811F0E2E04BC19F
:10291A00EA8DFB8DA481A17011F4E7E044C1EA8D30
:10292A00FB8DA285B385848595859F938F93BF93ED
:10293A00AF930E94861BEF91FF916F917F910E9446
:10294A00561C0E94621A0E941019AE89BF898827F4
:10295A0099270E948D1D20F4E885F985EE8BFF8B5F
:10296A00EE89FF89309709F41DC10E94861BFD017B
:10297A00BC01F170309709F0E1C0EA8DFB8D05804A
:10298A000E94751BE2810E16C8F10E94861B0E94E6
:10299A00871D31F4AA8DBB8D1E960E94431D08C067
:1029AA000E94751B0E947A1B0E948D1B0E94240B99
:1029BA00E88BF98B6A8B7B8BA889B9898A899B8971
:1029CA000E94501920F40E94921BE2E0ECC0A889F0
:1029DA00B9898A899B890E940D1A21F40E94921B47
:1029EA00E1E0E1C00E94301AAA8DBB8D52960E9486
:1029FA004E1DAA8DBB8D1596E0E0EC930E94751BC7
:102A0A000E947A1B0E948D1B4FD80E94991B0E941C
:102A1A00711A21F40E94921BE2E0C5C00E949E1B1B
:102A2A000E94531A0E94A21C0E944C1C0E94991BCD
:102A3A00AE89BF890E94A31B09F449C00E949E1B4C
:102A4A00E40FF51F0F010E94751BE281D001F0E02F
:102A5A00EA17FB0750F40E94751BE281F0E0DF01E0
:102A6A000E949E1BAE1BBF0BAD010E94751B0E94EC
:102A7A00AB1BEF85F88969897A890E946C1DA42F9E
:102A8A000E940E07E03021F00E94921BE1E08BC009
:102A9A00EA8DFB8DA481A07429F00E94B21B0E94CA
:102AAA00B91B08F00FC00E94B21B0E94C11BAE8165
:102ABA00BF8188279927EA0FFB1F0E947A1BB096CD
:102ACA000E94CA1BAA8DBB8D0E94D01B57C0EA8DDB
:102ADA00FB8DA481A07489F00E94751B0E94DB1BE8
:102AEA00ED8DFE8D0E94E31B21F00E94921BE1E016
:102AFA005AC0AA8DBB8D0E94EE1B0E94B21B0E9477
:102B0A008D1D79F00E94751B0E94DB1BEF85F889E9
:102B1A0069897A890E94151921F00E94921BE1E0C5
:102B2A0042C00E94581AAA8DBB8D56960E944E1D0D
:102B3A00AA8DBB8D1596EC91EF5FEC93AA8DBB8D98
:102B4A000E94F31BA0E0B2E0AE1BBF0B9D01EE8911
:102B5A00FF89E217F30710F42E893F890E941E1B92
:102B6A00AC8DBD8D0E94F31BAC8DBD8D9096EA0F86
:102B7A00FB1FFA93EA93D9010E9437180E94F81BA7
:102B8A00EA8DFB8D0E94001CD0010E944E1DAC896B
:102B9A00BD890E94091CEE89FF89E21BF30BEE8BAB
:102BAA00FF8BDECEE0E00E949E1D6C960895BA93DC
:102BBA00AA932A970E94971DEC89FD89EE83FF83C9
:102BCA00A889B9890E94231B0E94101C0E94151C07
:102BDA000E947F1B11F0E12F93C1EE89FF89A48126
:102BEA00A07811F0E2E08CC1EE89FF89A481A2707D
:102BFA0011F4E7E085C1EE89FF89A285B385848552
:102C0A009585EA89FB890E949F1A7F936F93FF93A8
:102C1A00EF930E941A1CAF91BF918F919F910E94CE
:102C2A00921D18F4E0E0EA8BEB8BEA89FB89309776
:102C3A0009F44CC10E94201CFD01BC01F1703097BF
:102C4A0009F008C1EE89FF8905800E94101CE28103
:102C5A000E1608F44CC0AE89BF8916960E94AC1AAB
:102C6A00D1F4AE89BF891E960E94431D0E94991B0A
:102C7A000E94711A79F40E94101CFA93EA930E9436
:102C8A00151A0E94980C0E94991BAE89BF891E963C
:102C9A000E944E1D0AC00E94101C0E94151C0E9410
:102CAA008D1B0E94980C0E94991B0E94711A09F4AC
:102CBA000DC10E94531A0E94051A21F40E94271C72
:102CCA00E2E01EC10E94531A0E940D1A21F40E94CA
:102CDA00271CE1E015C10E94581AAE89BF89529695
:102CEA000E944E1DAE89BF891596E0E0EC93EE89ED
:102CFA00FF89A481A07489F00E94101C0E942E1CD6
:102D0A00E98DFA8D0E94E31B21F00E94271CE1E065
:102D1A00F7C0AE89BF890E94EE1B0E94101C0E9458
:102D2A00151C0E948D1B0E94590D0E94621A0E9456
:102D3A0010190E94831D21F40E94271CE2E0E0C0C2
:102D4A000E94361C0E944B190E94A21C0E944C1C15
:102D5A000E94621AAA89BB890E94A31B09F44FC068
:102D6A000E94361CE40FF51F0F010E94101CE2811D
:102D7A00D001F0E0EA17FB0750F40E94101CE28130
:102D8A00F0E0DF010E94361CAE1BBF0BAD010E94B2
:102D9A00101C0E94AB1BEB85FC856D857E850E940D
:102DAA006C1DA42F0E947207E03021F00E94271C9C
:102DBA00E1E0A6C00E943B1C0E94B91BD8F4EE8930
:102DCA00FF89B0960E94151CA689B789808D918DBE
:102DDA00EA85FB856C857D850E94C11BA885B9851E
:102DEA0088279927EA0FFB1F0E94CA1BAE89BF8951
:102DFA000E94EE1BAE89BF890E94D01B53C00E945D
:102E0A003B1C0E948D1DC9F00E94201C0D010E94CE
:102E1A001A1CD0010E94921D58F40E94101C0E9494
:102E2A002E1CEB85FC856D857E850E94151909F49B
:102E3A0004C00E94271CE1E063C00E941019AE89F9
:102E4A00BF8956960E944E1DAE89BF891596EC9190
:102E5A00EF5FEC93AE89BF890E94F31BA0E0B2E05A
:102E6A00AE1BBF0B9D01EA89FB89E217F30710F439
:102E7A002A893B89AE89BF890E94F31BAE89BF8923
:102E8A009096EA0FFB1FFA93EA93E885F985FA937D
:102E9A00EA93D9010E943718AE89BF891496EC913A
:102EAA00E064EC930E94F81BEE89FF890E94001CE3
:102EBA00D0010E944E1DA889B9890E94091CEA897D
:102ECA00FB89E21BF30BEA8BFB8BAFCE0E94201C23
:102EDA000D010E941A1CD0010E948D1D50F4AE896A
:102EEA00BF8916960E94431DAE89BF891A960E9411
:102EFA004E1DAE89BF891496EC91E062EC93E0E036
:102F0A000E949E1D68960895BA93AA9324970E94D8
:102F1A00991D0E948B1AFA93EA93EA85FB850E940F
:102F2A007F1B09F070C0E885F985A481A07209F4B5
:102F3A006AC0A481A074A1F00E948B1AE181EA936D
:102F4A00E985FA85B096FA93EA93EB85FC850E94A7
:102F5A00E31B11F0E1E058C0A885B9850E94EE1B79
:102F6A000E948B1AFA93EA93EA85FB85A28DB38DA8
:102F7A00848D958D0E94520A1E2F103009F043C08D
:102F8A00A885B9855E962D913C91D9011B96EC9145
:102F9A00E062EC93A885B9851A960E94431DD9016F
:102FAA005C960E944E1DA885B9851E960E943F1DFB
:102FBA00D9015A96ED93FC93E885F985A685B785DC
:102FCA0080899189FD01BC010E94981CD9015496FF
:102FDA00ED93FC930E94B0090E94BF1AD90156963C
:102FEA000E944E1DA885B9851496EC91EF7DEC934D
:102FFA000E948B1A3496A1E0A0830E948B1ADF01EB
:10300A000E94BA0A1E2FE12F0E94A01D2A96089537
:10301A00BA93AA931A93A981BA8176DF1E2F103028
:10302A0021F4A981BA810E94231BE12F18812396DA
:10303A000895BA93AA936627772789919991E99176
:10304A00F991A991B991009629F001976D91719121
:10305A006717C9F3671B10F4EFEF0895E0E009F072
:10306A00E3950895BA93AA9399818881009641F0CD
:10307A00BD81AC81FB81EA8161916D930197E1F792
:10308A00FD81EC8126960895BA93AA93B981A88105
:10309A00109631F0FC81EB816A8161931197E9F70F
:1030AA00EB81FC8125960895A2E0B0E00C94421CC5
:1030BA000E947F010C947C01E981E07F1E2F12950A
:1030CA001F70A12FF5CFE981EF701E2FA12F0E944B
:1030DA007F01EACFA981BA818B819C81FF2766276C
:1030EA0077270E944C1C08950E94C701E0E0EA93EA
:1030FA00A0E00C94CA010E94B201A8EEB3E00C94BD
:10310A00421CA12FB0E0A551B14FE12FFF2766273E
:10311A0077270895E856FF4F6F4F6BBFE691EC9300
:10312A000895EDE4FCE0FA93EA930895FA93EA939A
:10313A00E0E4F0E0FA93EA93A9E0B0E00895E32D21
:10314A00AFE0B9E0F0E0EE0FFF1FAE0FBF1F0E9425
:10315A003F1D0895A32DBB27AA0FBB1FAF5EB64F15
:10316A000E943F1D0895E32DF0E03196DF01E2E071
:10317A00F0E00E94231DE130A0E0FA070895A32D94
:10318A00B0E0E2E0F0E00E94F91CE555F14FBF0122
:10319A00E0810895BB270E948F02CC200895E2E1C6
:1031AA00F0E0E719F809E551F14FE08108950E942E
:1031BA008F02F5CFF0E00E94A21CDF01CB01089537
:1031CA00EA81FB816C817D810895E983FA836B83AF
:1031DA007C830895ED81FE816F8178850895A981A8
:1031EA00BA818B819C810895E985FA85A181AA9388
:1031FA00EA85FB85F296FA93EA93EC81FD816E816A
:10320A007F810E946C1DA1E00C947207A2A1B3A158
:10321A0084A195A10895E885F9856A857B85089535
:10322A000E946C1DA1E00E940E07E0300895FA93F7
:10323A00EA93A0E0B0E080E090E00C94520A9E96F7
:10324A00E0E0F0E060E070E00E944E1D0895F29622
:10325A00FA93EA93E0E0EA93A0E0B2E00C9449180A
:10326A000E94671DE981FA81F29608950E94431D22
:10327A00D0010E944E1DE981FA810895A289B3897D
:10328A00848995890E94711DA1E00895A885B98550
:10329A008A859B850895A230E0E0BE07E0E08E07AC
:1032AA00E0E09E070895E1E0F0E060E070E0089554
:1032BA000E94431DEC83FD836E837F830895EC8512
:1032CA00FD85FA93EA93D901E0E0F2E00E94E61C58
:1032DA00AE81BF8188859985662777270E94511C10
:1032EA000E94520AE0300895AC85BD85D296F90154
:1032FA00F170AE0FBF1F0895EC85FD85FA93EA932E
:10330A00AA85BB858C859D850895E0E0F1E060E0A3
:10331A0070E00E94FE1C0895AE81BF818885998560
:10332A000E94511C0E94520AE03008950E94DB1C40
:10333A00F170AC85BD85D296AE0FBF1F08950E946D
:10334A003F1D662777270895E0E8F0E060E070E027
:10335A000E94FE1C0895EFEFFFEF6FEF7FEF0895D5
:10336A00AE85BF85888999890895EA89FB89FA9388
:10337A00EA93D801E0E0F2E00E94E61C87DF6627C4
:10338A0077270E94511C0E94520A5E2F50300895DE
:10339A00AA89BB89D296F801F170EA0FFB1F9F0137
:1033AA00EE85E1700895AA85BB858C859D85089573
:1033BA00EA89FB89FA93EA93A889B9898A899B8958
:1033CA00089564DF0E94511C0E94520A5E2F5030F9
:1033DA0008950E94DB1CF170AA89BB89D296EA0F74
:1033EA00FB1F0895AD81BE818F8198850895A985B7
:1033FA00BA855E960E94431DF5DF0E94921D0895CC
:10340A00A130E0E0BE07E0E08E07E0E09E07089505
:10341A00AF3FEFEFBE07EFEF8E07EFEF9E0708957E
:10342A00A0E0B0E080E090E00895A685B7858089A5
:10343A009189EECFA985BA851E960E94491DEF5F34
:10344A00FF4F6F4F7F4F0E94531DA985BA8508957C
:10345A000E94621D0895E889F9896A897B8908951D
:10346A00AC81BD818E819F8108950E94581D089567
:10347A00EC83FD836E837F830895EC89FD89FA933B
:10348A00EA930895AA89BB898C899D8908950E9427
:10349A00240BEC87FD876E877F870895AC85BD85F1
:1034AA008E859F850895EC85FD856E857F850895B7
:1034BA00EC81FD816E817F810895E887F9876A87AB
:1034CA007B870895F5DFE2DE0E948D1D0895E0E016
:1034DA00F0E060E070E00895E6DF0E94831D089541
:1034EA00EA89FB896C897D8908950E94761D0E946C
:1034FA00561C08950E94431DEA83FB836C837D83D7
:10350A000895AA81BB818C819D810895A885B9857A
:10351A000E943F1D08957E96DF010E94431DF1DF40
:10352A000E94921D08954CDEA885B9851A960E94BC
:10353A004E1DECCF662777270E944C1C0895EF702A
:10354A00F070EE0F0E94811CEA0FFB1F08950E9483
:10355A00431D0E94831D0895A985BA850E943F1DB7
:10356A000895FA93EA93EB85FC85A285B385848551
:10357A00958508957DDF9CCFFA93EA93AE81BF814A
:10358A00888599850C94590DBA93AA930E94991D1E
:10359A00EC81FD81FA93EA93A0E0B0E00E94910DDC
:1035AA001E2F10300895AC81BD810E943F1DFA93F1
:1035BA00EA93EE81FF81A685B785808991890E9469
:1035CA00520A1E2F103008953A932A93EE81FF81F2
:1035DA00A489B589BA93AA93ABE0B0E00895E885C7
:1035EA00F985AE81BF810895E885F9853196E88726
:1035FA00F9873197AE81BF81AE0FBF1F0C91089535
:10360A00E22F2F5FF0E0E40FF51F00830895EA0F21
:10361A00FB1FAB85BC85ED93FC930132089557DF00
:10362A000E944E1D0895AE81BF8116960E944E1DBE
:10363A000895EE81FF81FA93EA930895E0E0F0E0BD
:10364A00ED93FC930895D901549679CED9015A96EF
:10365A000E943F1D0895662777270E94601C0895DF
:10366A00F296E250FE4FDF010E943F1DE535AAEABD
:10367A00FA0708950E94431DEF7FFF7F6F7F7070E6
:10368A00E634A1E4FA07A4E56A07A0E07A070895F8
:10369A00A9EFBEE0F0E0EE0FFF1FAE0FBF1F0895C7
:1036AA00EA8BFB8B6C8B7D8B0895AE81BF81A05C0E
:1036BA00BF4F0E943F1D0895AE89BF89888D998D9D
:1036CA0039CFEE81FF81A085B185FD010E948A1C58
:1036DA000895EE81FF819ADD03DF0E944C1C089554
:1036EA00AA8DBB8D0E943F1D0895FA93EA93EC8D33
:1036FA00FD8D0895A281B3810E94E8121E2F103019
:10370A000895EA8DFB8DA681B781808591850895FC
:10371A00A289B389848995890895AA8DBB8D149647
:10372A00EC91E068EC930895EC87FD876E877F87BC
:10373A000895EA8DFB8DE581F0E00895E0E0F2E07E
:10374A000E94E61CAF01042E052A0895E181EA933E
:10375A00EF81F885FA93EA930895EA8DFB8DA6899D
:10376A00B789808D918D9FCE0E945B1CFA016627D6
:10377A0077270E94921D08950E945B1CE0E0F2E008
:10378A0060E070E00E94BB1C0895FA93EA93A0E0FF
:10379A00B2E00C9437181596EC91E40FEC93FA0109
:1037AA00EE0FFF1FFE2FE0E09F010895E181EA93EB
:1037BA00EB8DFC8DB096FA93EA930895A689B789A2
:1037CA00808D918D0E94711DA1E00E947207E030E8
:1037DA0008951496EC91EF7BEC93089516960E9447
:1037EA003F1DF1700895F901AE81BF81EA0FFB1FF9
:1037FA00EE83FF83089536960F01DF010E94431D71
:10380A00DF01CB01F90196CEED91FD91E20FF31F95
:10381A00FE93EE930895AE89BF890E943F1D0895D5
:10382A00FA93EA93E88DF98D0895AE89BF891A96BD
:10383A000E94431D0895EE89FF89A681B78180857C
:10384A0091850895AE89BF891496EC91E068EC934E
:10385A000895E181EA93EF89F88DB096FA93EA9395
:10386A000895EE89FF89E581F0E00895EE89FF89E0
:10387A00A689B789808D918DCECC109639F080EAD1
:10388A009FE00197F1F7A8951197C9F70895EA0FF4
:10389A00FB1F681F791F0895AE0FBF1F861F971F52
:1038AA000895EA1BFB0B680B790B0895AE1BBF0B3F
:1038BA00860B970B0895EA2BFB2B682B792B08951F
:1038CA00F195E195F0400895EE230E2EFD01BC011D
:1038DA0031F0EE0FFF1F661F771F0A94D1F7089584
:1038EA00EE230E2EFD01BC0131F076956795F79512
:1038FA00E7950A94D1F70895EE0FFF1FEE0FFF1F09
:10390A00EE0FFF1FEE0FFF1F0895F695E795F69548
:10391A00E795F695E795F695E7950895EE0FFF1F5B
:10392A00661F771F0895E62FF72F60E070E008956D
:10393A006E2F7F2FE0E0F0E008956F2F660F660B81
:10394A00762F0895EA17FB07E1E00CF4EE270895B5
:10395A00AE17BF07E1E00CF4EE270895FA9FF02DA9
:10396A00EB9FF00DEA9FE02DF10D08957A9F702DDF
:10397A006B9F700DF89F700DE99F700D6A9F602D07
:10398A00710DFB9F600D711DE89F600D711D8827E9
:10399A00FA9FF02D610D781FEB9FF00D611D781FC6
:1039AA00EA9FE02DF10D681F781F08956E2F6A9F18
:1039BA00F0016B9FF00D08954FD0D0DF0EF480DF39
:1039CA0008950024112490E1AA0FBB1F001C111CAA
:1039DA000E1A1F0A18F40E0E1F1E01C0A1609A9536
:1039EA0099F7FD01D001089537D0EBDF0EF468DFB7
:1039FA0008953F934F935F9300241124442755273A
:103A0A0030E2AA0FBB1F881F991F001C111C441FFC
:103A1A00551F0E1A1F0A460B570B28F40E0E1F1EAF
:103A2A00461F571F01C0A1603A9559F7FD01BC0115
:103A3A00D001CA015F914F913F910895E894B7FF71
:103A4A0004C0A095B09511966894F7FD39DFB9DFE7
:103A5A00FD010EF435DF0895E894F7FF02C030DF68
:103A6A006894B7FF06C0A095B095119600F8039424
:103A7A0000FA0895ED91FC9111970895ED91FD9149
:103A8A006D917C9113970895ED91FD916D917D91C2
:103A9A000895ED93FD936D937C9308957E936E93B1
:103AAA00FE93EE930895E881F9816A817B810895F6
:103ABA00A881B9818A819B810895E883F9836A8301
:103ACA007B830895A083B1838283938308957A9335
:103ADA006A93FA93EA9308959A938A93BA93AA9364
:103AEA000895182E862F612D192E972F712D1B2EB2
:103AFA00BF2FF12D1A2EAE2FE12D08953097604079
:103B0A007040089500240A160B060806090608954F
:103B1A00EA17FB07680779070895AE17BF078607F4
:103B2A00970708955A934A933A932A931A930A93B2
:103B3A0008955D814C813B812A811981088108950C
:103B4A00AC0FBD1F6BBF07900D928A95E1F70895E0
:00000001FF
