:080000000C941C010C9400009B
:100008000C9400000C9400000C9400000C94000068
:100018000C9400000C9400000C9400000C94000058
:100028000C9400000C9400000C9400000C94000048
:100038000C9400000C9400000C9400000C946A02CC
:100048000C9400000C9400000C9400000C94000028
:100058000C9400000C9400000C9400000C94000018
:100068000C9400000C9400000C9400000C94000008
:100078000C9400000C9400000C9400000C940000F8
:100088000C9400000C9400000C9400000C940000E8
:10009800C7BBBBBBBBBBBBBBC700EF8FEFEFEFEF73
:1000A800EFEF8300C7BBFBFBF7EFDFBF8300C7BBE6
:1000B800FBFBE7FBFBBBC700F7E7E7D7D7B783F73F
:1000C800E30083BFBFBF87FBFBBBC700E7DFBFBF42
:1000D80087BBBBBBC70083BBFBF7F7EFEFDFDF00D6
:1000E800C7BBBBBBC7BBBBBBC700C7BBBBBBC3FB9B
:1000F800FBF7CF0088DDDDDDC1DDDDDD8800FFFF3A
:10010800FF81BBF7EFDD810020222A2B2C5B3D5DB0
:100118007C7F0000000400020001800040002000F5
:1001280010000800040002000000008000400020C9
:100138000010000800400020001000080004000221
:100148001027E80364000A000100001000011000F5
:10015800010003030302020C000800010006303A04
:10016800494D3030302E424D50004472697665203A
:100178006E6F2064657465637461646F00447269AE
:100188007665206365727261646F002E2E2E0057AB
:10019800656C636F6D65005374617274696E672076
:1001A8002020202000303A424153452E424D500035
:1001B8004C6973746F2020202020200046696C65EC
:1001C800206572726F7200626173652E626D7020B5
:1001D8006572726F720001000400EBFE904D53448B
:1001E8004F53352E30004E4F204E414D4520202094
:1001F800204641543332202020004E4F204E414D9E
:1002080045202020204641542020202020000B009B
:100218000F0A660100000B000009AD010000010093
:10022800F40EDE0100000100F80EE00100000000FD
:10023800F894EE27EFBBF1E0F5BFE5BF8DE0A2E053
:10024800BB27ED938A95E9F780E090E2A0E0B1E062
:10025800ED930197E9F7E6E1F2E0D0E0DBBF8791A3
:100268009791009781F0A791B79107901790C79140
:10027800D791BF01DBB7F001CBBF07900D92019773
:10028800E1F7FB01EBCFE0E0EEBBEFEFEDBFE0E223
:10029800EEBFC0E0D9E00C94B0032C978CE0A0E04E
:1002A800B0E0EAE5F1E060E00E94A41E1A93849AA7
:1002B800859A809A819A829A839AA2E3B0E00E94F2
:1002C8001F1C10E01C3068F40E943B18E12FF0E07E
:1002D800DE011196AE0FBF1FAC910E943F181F5F41
:1002E800F1CFECE04E2EA42D21D018812D96089543
:1002F8008C9A8C980895AA93E881E87011F08B9AEB
:1003080001C08B98E881E47011F08A9A01C08A983C
:10031800E881E27011F0899A01C08998E881E1705A
:1003280011F0889A01C088980C94EE06AA931A9343
:100338008D980E943B180E9443180E944A18D8DFE3
:10034800188141C0AA931A938D9A0E943B180E9463
:1003580043180E944A18CCDF188135C00E94701ECD
:100368001A9310E0E12F1F5F0E9451186BBFA691EE
:10037800E9DFE12F0E9451186BBFE691E03091F759
:10038800188125960895A1E0D1DF0895AA93E88100
:10039800F0E0309719F4A981A05814C0E130A0E02A
:1003A800FA0719F4A981A0540DC0E230A0E0FA07B9
:1003B80019F4A981AC5606C0E330A0E0FA0719F495
:1003C800A981AC52B3DF22960895AA93E881E0662A
:1003D800E0937C00E0917A00E064E0937A00E09199
:1003E8007A00E071E1F3E0917A00E061E0937A004D
:1003F800E09179000C94EE060E94981E10E000919E
:100408000F09312F11E0103868F50E945B18EA17C0
:10041800FB07E1F4A12FBB27E32FF0E00E947B1E2E
:10042800EA1BFB0B0E94AE1D0E948F1CAEEEB3E9C7
:1004380083E298E30E94BD1CA0E0B0E080E89FE35F
:100448000E940B1D0E94561C2E2F312F0E945B18F4
:10045800AE17BF072CF4E12F0E9468180C91312FBA
:100468001F5FD1CFE22FF0E00E949F1E73C1F89466
:1004780055246624E0E8F0E05E166F062CF5E52DBD
:10048800F62DAFE0B9E0EE0FFF1FEA0FFB1FFF9359
:10049800EF93A7E09ADFAF91BF91F0E0ED93FC9363
:1004A80080E78A95F1F700000000000000000000D6
:1004B8000000000000000000000000000000E1E073
:1004C800F0E05E0E6F1ED6CF789408950A921A92C5
:1004D800FA926A937A938A939A93AA93BA93EA932D
:1004E800FA93EBB7EA93EFB7EA930E945C09E991B4
:1004F800EFBFE991EBBFF991E991B991A991999170
:10050800899179916991F990199009901895E0E08D
:10051800EA93ABE1BAE00E94EC12E03039F00E94B5
:100528007018A2E7B1E080E090E018DF0895E0E0FD
:10053800EA93A0E0B0E00E94EC120E947018A5E8CF
:10054800B1E080E090E00E9477180895BA93AA93EA
:100558001A93E981FA81309751F410E0193030F498
:100568000E947D180E9486181F5FF8CFCFC0E13027
:10057800A0E0FA0771F410E0193050F40E947D18D9
:10058800EE55FF4F6F4F6BBFE691EC931F5FF4CFB3
:10059800BDC0E230A0E0FA0771F410E0193050F461
:1005A8000E947D18E455FF4F6F4F6BBFE691EC93A7
:1005B8001F5FF4CFABC0E330A0E0FA0771F410E09E
:1005C800193050F40E947D18EA54FF4F6F4F6BBFEB
:1005D800E691EC931F5FF4CF99C0E430A0E0FA07EE
:1005E80071F410E0193050F40E947D18E054FF4F68
:1005F8006F4F6BBFE691EC931F5FF4CF87C0E53078
:10060800A0E0FA0771F410E0193050F40E947D1848
:10061800E653FF4F6F4F6BBFE691EC931F5FF4CF2C
:1006280075C0E630A0E0FA0771F410E0193050F414
:100638000E947D18EC52FF4F6F4F6BBFE691EC9311
:100648001F5FF4CF63C0E730A0E0FA0771F410E051
:10065800193050F40E947D18E252FF4F6F4F6BBF64
:10066800E691EC931F5FF4CF51C0E830A0E0FA07A1
:1006780071F410E0193050F40E947D18E851FF4FD2
:100688006F4F6BBFE691EC931F5FF4CF3FC0E9302B
:10069800A0E0FA0771F410E0193050F40E947D18B8
:1006A800EE50FF4F6F4F6BBFE691EC931F5FF4CF97
:1006B8002DC0EA30A0E0FA0771F410E0193050F4C8
:1006C8000E947D18E450FF4F6F4F6BBFE691EC938B
:1006D8001F5FF4CF1BC0EB30A0E0FA0771F410E005
:1006E800193050F40E947D18EA5FFE4F6F4F6BBFC0
:1006F800E691EC931F5FF4CF09C010E0193030F495
:100708000E947D180E9486181F5FF8CF18812396D3
:100718000895BA93AA931A930A930A811B81D80160
:10072800E4E6F0E00E94F81DCE2EAC2DE4E6EA9F48
:10073800F0010E1B1F0BD801EAE0F0E00E94F81D43
:10074800BE2EAC2DEAE0EA9FF0010E1B1F0BE02E37
:1007580019810881249608950E945101E0E8E093E8
:100768007E00E0E6E0937C00E4E8E0937A00E0E8CD
:10077800E0937B005F9AE0936100E0E0E093610022
:10078800EAE0E0938100EEE4E0938900EFE1E09392
:100798008800E2E0E0936F00A3E9B1E080E090E038
:1007A800DDDD7894A0E03FD2A8ECB0E00E941F1CE9
:1007B800E0E0EA93A0E0EADDA7E9B1E080E090E0BC
:1007C8000E94B2014F99D1C0DEDDAFE9B1E080E00F
:1007D80090E00E94B2014BDE0FDE7E2E8F2E97DE58
:1007E8000E948D18E0E0F9E0FA93EA93A1E00E94F4
:1007F8001C13E03009F0AEC00E948D18EDE6FEE053
:100808000E9492180E945214ADE4BCE00E94EF17B7
:100818000E948D18EFE0FAE0FA93EA93AAE00E94AA
:100828001C13E03009F089C00E948D18EDE6FEE047
:10083800FA93EA93EEE3F0E0FA93EA93A9E0B0E0E2
:100848000E94BE1555246624E0E0F1E05E166F06AE
:100858000CF066C03324E0E43E1640F4E32DF0E0EB
:10086800E555F14FAFEFA0833394F5CF3324E0E89B
:100878003E1608F048C0E32D0E9468180E943E1EEC
:100888005E166F06A9F4E32DF0E03196DF01E2E091
:10089800F0E00E94221EE130A0E0FA0721F40E9455
:1008A8009B18EF7703C00E949B18E77FDB01EC934E
:1008B800A52DB62DEAE0F0E00E94B91D0E2EE2E16A
:1008C800F0E00E94B31DE021E1F0A72DB82D21DF53
:1008D800AC2D0E94A618E093AC0EAB2D0E94A61872
:1008E800E093AD0EAE2D0E94A618E093AE0EAAE0DE
:1008F8000E94B118E093AF0EABE00E94B118E093EC
:10090800B00E3394B4CF0E948D18EBEAFEE00E943B
:1009180092180E94BE15E1E0F0E05E0E6F1E94CFC3
:100928000E94C701A8EBB1E080E090E00E94B2010C
:10093800ADE4BCE00E94EF1708C00E947018A4EC58
:10094800B1E080E090E00E94B201A8EEB3E00E941E
:100958001F1C08C00E947018AFECB1E080E090E066
:100968000E947718E4DD0E94C70122CFFFCFAA9327
:100978000E94981E20E00C81AD81BE813D91AD831F
:10098800BE8318E0220FE22FE327E07811F0E9E0B8
:100998002E27330F1150B1F7015071F7E22FEE0FE8
:1009A800E1600E949F1E39C51A93E2E3E093F60EB8
:1009B800EFEFEEBDEDB5E7FFFDCFEFEFEEBDEDB527
:1009C800E7FFFDCF1EB51F3F21F0E091F60EE030A6
:1009D80009F401C0F2CFE12F9FC4289AEFEFEEBDD2
:1009E800EDB5E7FFFDCF0895BA93AA930E94981E2C
:1009F800E4E1E093F50EEFEFEEBDEDB5E7FFFDCFD7
:100A08001EB51F3F21F4E091F50EE03009F401C056
:100A1800F2CF1E3F21F0E0E00E949F1EB6C22E8159
:100A28003F81EFEFEEBDEDB5E7FFFDCF3F932F938D
:100A38002F5F3F4FEEB5AF91BF91EC93EFEFEEBD57
:100A4800EDB5E7FFFDCF3F932F932F5F3F4FEEB5F7
:100A5800AF91BF91EC93EFEFEEBDEDB5E7FFFDCFA2
:100A68003F932F932F5F3F4FEEB5AF91BF91EC931C
:100A7800EFEFEEBDEDB5E7FFFDCF3F932F932F5F6F
:100A88003F4FEEB5AF91BF91EC93EC81FD81349768
:100A9800EC83FD8331F6EFEFEEBDEDB5E7FFFDCF5B
:100AA800EFEFEEBDEDB5E7FFFDCFE1E00E949F1E41
:100AB8006CC2AA930E94981E77DFEF3F21F0E0E016
:100AC8000E949F1EAAC4EC81EEBDEDB5E7FFFDCFE5
:100AD800AC81AD3F69F100E02D813E81D9012F5FE6
:100AE8003F4FEC91EEBDEDB5E7FFFDCFD9012F5F8C
:100AF8003F4FEC91EEBDEDB5E7FFFDCF015071F72B
:100B0800EFEFEEBDEDB5E7FFFDCFEFEFEEBDEDB5D5
:100B1800E7FFFDCFEFEFEEBDEDB5E7FFFDCF1EB56B
:100B2800E12FEF71E53021F0E0E00E949F1E75C4CF
:100B3800E1E00E949F1E71C40E94701E1A930A93DE
:100B4800EE81E07881F0EE81EF77EE83E7E7EA93D4
:100B5800A0E0B0E080E090E0EFDF0E2F023018F068
:100B6800198108815AC4AE81AC3449F036DF28981F
:100B78001BDFEF3F21F0EFEF198108814EC4EE81B2
:100B8800EEBDEDB5E7FFFDCFED81EEBDEDB5E7FFBD
:100B9800FDCFEC81EEBDEDB5E7FFFDCFEB81EEBDFE
:100BA800EDB5E7FFFDCFEA81EEBDEDB5E7FFFDCF7F
:100BB80011E0AE81A03411F415E904C0AE81A83467
:100BC80009F417E81EBDEDB5E7FFFDCFAE81AC34E3
:100BD80029F4EFEFEEBDEDB5E7FFFDCF1FEFEFEF27
:100BE800EEBDEDB5E7FFFDCF0EB507FF02C0115012
:100BF80009F401C0F4CFE02F198108810EC4BA931B
:100C0800AA931A9314E0EFEFEEBDEDB5E7FFFDCF21
:100C1800A981BA811196A983BA831197EEB5EC938D
:100C2800115089F7ECC4AA9324970E94981EE8856E
:100C3800E03011F0E1E0C2C024982598EAE0E093A2
:100C4800F50EE091F50EE030E1F7E091F40EE27078
:100C580009F0B2C0209A289AE5B1E97FE5B92B9A44
:100C68002398E4B1E760E4B9E3E5ECBDE0E0EDBD6D
:100C78003FEF1AE0EFEFEEBDEDB5E7FFFDCF115006
:100C8800C9F7E0E4EA93A0E0B0E080E090E054DF48
:100C98000E2F3150013011F0303009F401C0E9CF86
:100CA80030E0013009F068C0E4E6E093F50EE8E4CE
:100CB800EA93AAEAB1E080E090E03EDFE13091F506
:100CC800DE0114969CDFAE81A13019F4AF81AA3AF7
:100CD80009F027C0E091F50EE03049F0E9EEEA931B
:100CE800A0E0B0E080E090E427DFE03009F401C044
:100CF800F1CFE091F50EE03049F0EAE7EA93A0E0A1
:100D0800B0E080E090E018DFE03009F00AC0DE01D2
:100D1800149675DFEC81E07411F0ECE001C0E4E0BA
:100D28003E2F2AC0E9EEEA93A0E0B0E080E090E030
:100D380003DFE23018F432E009EE02C031E001E4EA
:100D4800E091F50EE03041F00A93A0E0B0E080E0D9
:100D580090E0F2DEE03009F401C0F2CFE091F50E48
:100D6800E03049F0E0E5EA93A0E0B2E080E090E00E
:100D7800E3DEE03009F030E03093F70E2EDE30305D
:100D880051F0E091F40EEE7FE093F40EE0E5ECBD57
:100D9800E1E0EDBD11C0289807DE1FDEE0E0ECBD04
:100DA800E4B1E07FE4B9E5B1E07FE5B92098E091EE
:100DB800F40EE160E093F40EE091F40E0E949F1EA1
:100DC80029960895AA93E881E03011F0E1E002C085
:100DD800E091F40E21960895AA93EF81E03019F47A
:100DE800E881E03011F4E4E0D0C0E091F40EE17065
:100DF80011F0E3E0CAC0E091F70EE87071F4E98100
:100E0800FA816B817C81A0E0B2E080E090E00E94F2
:100E1800BF1DE983FA836B837C83A881A130A9F481
:100E2800E1E5EA93AA81BB818C819D8185DEE03072
:100E380059F4ED81FE81FA93EA93A0E0B2E0D4DDA3
:100E4800E03011F0E0E0E88323C0E2E5EA93AA810C
:100E5800BB818C819D8170DEE030D1F4ED81FE8113
:100E6800FA93EA93A0E0B2E0BFDDE03051F0ED8103
:100E7800FE81E050FE4FED83FE83E881E150E88378
:100E880069F7ECE4EA93A0E0B0E080E090E054DE9B
:100E9800A4DDE881E03011F0E1E001C0E0E075C0D8
:100EA800AA93EF81E03019F4E881E03011F4E4E02E
:100EB8006CC0E091F40EE17011F0E3E066C0E091DF
:100EC800F40EE47011F0E2E060C0E091F70EE87013
:100ED80071F4E981FA816B817C81A0E0B2E080E065
:100EE80090E00E94BF1DE983FA836B837C83A8810D
:100EF800A130A1F4E8E5EA93AA81BB818C819D81A8
:100F08001BDEE03051F4ED81FE81FA93EA93AEEFF7
:100F1800D0DDE03011F0E0E0E88330C0E091F70E7A
:100F2800E67039F0E7EDEA93A981BB27882799276E
:100F380003DEE9E5EA93AA81BB818C819D81FCDD12
:100F4800E030E1F4ED81FE81FA93EA93ACEFB1DD94
:100F5800E03051F0ED81FE81E050FE4FED83FE83DD
:100F6800E881E150E88371F7E0E0F0E0FA93EA9372
:100F7800ADEF9FDDE03011F4E1E0E8832EDDE8819C
:100F8800E03011F0E1E001C0E0E028960895BA935E
:100F9800AA9360970E94981EEF89E03011F0E4E070
:100FA80083C1E091F40EE17011F0E3E07DC111E03E
:100FB800EE89E03031F42898F7DCEF3F09F410E0CF
:100FC80071C1E13009F05BC0E9E4EA93A0E0B0E068
:100FD80080E090E0B1DDE03049F4FE013496FA9308
:100FE800EA93A0E1B0E000DDE03009F447C0EC810D
:100FF800E295EF70E695E695E13069F4E0E0FC856E
:10100800AD85B0E0EA0FFB1F31969F01D901882713
:101018009927EAE02CC0E985EF70AE2FEE85E078DD
:10102800EE1FE0E0EE1FAE0FED85E370EE0FEA0F66
:10103800EE5F0E2FEC85E295EF70E695E695AE2F04
:10104800EB85F0E00E94911DB0E0AE0FBF1FEA856E
:10105800E370F0E00E94911DFE2FE0E0EA0FFB1F15
:1010680031969F01D90188279927E02FE9500E94DE
:10107800751DAC89BD890E944D1E10E013C1E23078
:1010880041F4AC89BD89E0E0F2E0ED93FC9310E017
:1010980009C1E33009F0ABC0E091F70EE47081F1CB
:1010A800EDECEA93A0E0B0E080E090E045DDE030D0
:1010B80031F5EFEFEEBDEDB5E7FFFDCFFE0134965C
:1010C800FA93EA93A0E1B0E08FDCE030C1F000E3EE
:1010D800003039F0EFEFEEBDEDB5E7FFFDCF015081
:1010E800F7CFEE85E295EF70A0E1B0E080E090E008
:1010F8000E94751DAC89BD890E944D1E10E076C006
:10110800E9E4EA93A0E0B0E080E090E015DDE030AB
:1011180009F06CC0FE013496FA93EA93A0E1B0E0BE
:1011280063DCE03009F462C0E091F70EE27051F13F
:10113800EE85EF73FF27662777270E949F1D7F9311
:101148006F93FF93EF93EF85E078FF276627772764
:10115800DF01CB01E7E00E94811DAF91BF918F9124
:101168009F910E94501DEF5FFF4F6F4F7F4FDF0130
:10117800CB01E989E295EF70E695E695E1500E948A
:10118800751D2FC0EE85EC77E695E695FF27662757
:101198007727EF5FFF4F6F4F7F4F7F936F93FF93DB
:1011A800EF93EF85E370FF2766277727DF01CB01F1
:1011B800E3E00E94751DDF01CB01EF85E07EE2953B
:1011C800EF70E695FF27662777270E94501DEF5F8F
:1011D800FF4F6F4F7F4FAF91BF918F919F910E94AB
:1011E800BF1DAC89BD890E944D1E10E05BC0EA306E
:1011F80039F4E091F70EAC89BD89EC9310E052C048
:10120800EB3011F409E403C0EC3001F50AE40A9369
:10121800A0E0B0E080E090E08FDCE030B1F4EC8951
:10122800FD89FA93EA93A0E1B0E0DEDBE03069F0F3
:10123800EC89FD89FA93EA93AFE099DBAE2FEC894C
:10124800FD89E785EA1709F410E02CC0ED3071F448
:10125800EAE7EA93A0E0B0E080E090E06DDCE030FF
:1012680021F4AC89BD89CBDC10E01CC0EE30C9F498
:10127800EDECEA93A0E0B0E080E090E05DDCE030E7
:1012880079F4EFEFEEBDEDB5E7FFFDCFEC89FD8911
:10129800FA93EA93A0E4B0E0A7DBE03009F010E0AD
:1012A80001C014E09ADBE12F0E949F1E6896089502
:1012B8001A931091F50E103019F011501093F50E85
:1012C8001091F60E103019F011501093F60E10917F
:1012D800F80EE0E0E093F80E1C9903C0E1E0E0931B
:1012E800F80E1D9B05C0E091F80EE260E093F80E41
:1012F800E091F80EE11781F41091F40EE17011F00D
:101308001D7F01C01360E091F80EE27011F01460C7
:1013180001C01B7F1093F40E199108952797A0918F
:101328000B09B0910C09109731F0A0910D09B091FB
:101338000E09109729F4E0E0F0E061E27AE36DC06D
:10134800FE013696FA93EA93FE013796FA93EA93EA
:10135800DE011896E0910B09F0910C090995FE0140
:101368003396FA93EA93FE013496FA93EA93DE01F0
:101378001496E0910D09F0910E090995E881F9811B
:10138800EC5BF74066277727DF01CB01E9E10E9494
:10139800751D7F936F93FF93EF93EA810E94BC18AA
:1013A800E5E10E94751DAF91BF918F919F910E94B9
:1013B800641DDF01CB01EB81F0E00E94AE1D0E94AD
:1013C800A91D0E94641D7F936F93FF93EF93EE8195
:1013D8000E94BC18EBE00E94751DAF91BF918F91E0
:1013E8009F910E94641D7F936F93FF93EF93ED810C
:1013F8000E94BC18E5E00E94751DAF91BF918F91C6
:101408009F910E94641DDF01CB01EC81F0E0F5950E
:10141800E7950E94AE1D0E94641D27960895AA9321
:101428001A930E94C2186BBFE6911E2FE03019F084
:10143800E981E11709F40FC0DE0112960E94481EE7
:10144800EF5FFF4F6F4F7F4F0E94521EE150F040F9
:1014580060407040E6CFE12FF0E0188126960895AD
:101468000E94701E24971A93A985BA859E960E9499
:10147800421E0E94C7180E94CC180E94D1180E94D0
:101488008C1E09F452C0E985FA85E481E03079F1CF
:101498000E94D618E030F1F5A985BA851496E0E0E7
:1014A800EC93E985FA850E94E8180D01A985BA85AB
:1014B8005A960E94421ED0010E94501D0E94D118C7
:1014C8000E94911EA0F4E985FA851381123078F004
:1014D800A985BA855A960E94421E0E94D1180E9478
:1014E800501D0E94C7180E94D6181150EFCF0E94B5
:1014F800CC180E94821EC9F0E985FA85A181AA93B9
:10150800EA85FB85F296FA93EA930E94ED180E9409
:10151800F21821F0E1E018812B9608950E94CC186A
:10152800A985BA859E960E944D1EE0E0188161C487
:10153800BA93AA931A93E981FA810E94F9181E2F87
:10154800103009F05BC0A981BA81AC91A33029F4AD
:10155800E981FA81E581E03009F444C0A981BA81C2
:101568000E940119E981FA810E940919E981FA8129
:10157800F296E250FE4FA5E5BAEAA083B183E9816D
:10158800FA81F296A2E5B2E581E691E40E94121989
:10159800EC51FE4FA2E7B2E781E491E60E941219EE
:1015A800E851FE4F0F01A981BA811E960E941819B1
:1015B800F296E451FE4F0F01A981BA811A960E9452
:1015C8001819A181AA93EA81FB81F296FA93EA930A
:1015D800EC81FD810E94201963DCA981BA811596EE
:1015E800E0E0EC93E981FA81A181AA93E0E0EA9333
:1015F800A0E0B0E0CCDCE03009F011E0E12F188188
:10160800239608950E94701E24970E94981E0E9497
:1016180028190E942D1950F0AC85BD855E960E9450
:10162800421E0E9428190E94911E18F00E94351926
:1016380060C0AC85BD8592960E943A19AC85BD857F
:10164800EC91F0E0E130A0E0FA0739F5288539851A
:10165800F901F695E7952E0F3F1F0E94411909F0F1
:1016680046C00E9456190C9111272F5F3F4F0E94C8
:101678004119E9F50E945619EC91FE2FE0E00E2B76
:101688001F2BE885E17021F0F8010E94961D02C029
:10169800F801FF70662777272CC0E230A0E0FA0730
:1016A80079F40E945E190E9467190E946E19F9F474
:1016B800A885B985E2E00E9478190E94811919C0AD
:1016C800E330A0E0FA0799F40E945E190E94861997
:1016D8000E946E1961F4A885B985E4E00E94781922
:1016E8000E94421EEF7FFF7F6F7F7F7002C00E94C3
:1016F8008D190E949F1E2E9608950E94701E249791
:101708000E94961E0E9492190E942D1950F0AA89D3
:10171800BB895E960E94421E0E9492190E94911EE9
:1017280010F052E085C0AA89BB8992960E94421E99
:10173800EE83FF8368877987AA89BB89EC91F0E0FB
:10174800E130A0E0FA0709F043C00E851F85F801D3
:10175800F695E7950E0F1F1F0E94971909F063C0B1
:101768000E94AA1951F0D901EC91EF70AE2FEA85C9
:10177800F0E00E948D1DEA2B01C0EA85D901EC93A7
:101788000F5F1F4FAA89BB891496E1E0EC930E9472
:10179800971909F048C00E94AA1949F00E94B51982
:1017A800E4E00E94811DFF27662777270EC0D90134
:1017B800EC91E07F1E2E0E94B519E8E00E94811D81
:1017C800FF2766277727EF70E129D901EC932BC013
:1017D800E230A0E0FA0789F40E94BA190E9467195A
:1017E8000E94C31901F5AE85BF85E2E00E94CB19BE
:1017F800AA85BB85A083B18316C0E330A0E0FA07B1
:1018080089F40E94BA190E9486190E94C31959F4D2
:10181800AE85BF85E4E00E94CB190E94B5190E94ED
:10182800661E01C052E0AA89BB891496E1E0EC93D8
:10183800E52F0E949D1E649608950E94701E2497AD
:101848001A930E94D4190E942D1918F00E94D919D0
:1018580010F012E048C010E00E94D91908F043C007
:10186800E985FA85FA93EA93AF81B88589859A85DF
:10187800C9DE0E94C718E981FA816B817C810E94C8
:10188800821E89F10E94D1180E94E21911F412E017
:101898002AC00E94D1180E94EA1911F411E023C04D
:1018A800E985FA85FA93EA93EF81F88569857A855F
:1018B8000E946B1E0E94F21920DF1E2F103099F42F
:1018C800E985FA850E94F71929F00E94FC191596F6
:1018D800E1E0EC93E981FA816B817C81ED83FE8301
:1018E8006F837887B9CFE12F188183C20E94701E59
:1018F8006097AC89BD895E960E94421E0E940A1AB2
:101908000E940D1A0E94821EB1F4AC89BD891A96F4
:101918000E943A190E94121A0E94861E39F00E94EB
:10192800171A0E94121A0E94911E20F00E9435195F
:101938000E941A1A1CC00E941F1A0E94241A0E9490
:10194800291A0E94301A0E942D1918F40E9435197C
:101958008CC00E94171A0E94301A0E94911E18F417
:101968000E94351A82C00E940D1A0E941A1A0E94FB
:101978003A1A0E943F1A0E94ED18EF5FFF4F6F4F0F
:101988007F4F0E943F1A0E94171A0E9428190E942E
:10199800911E60F0E2E0F0E060E070E00E943F1A23
:1019A8000E94441A18F40E94491A5FC00E941F1A24
:1019B8000E94B5190E94291A0E944E1AA1F00E948D
:1019C800301A0E94EA1929F00E94301A0E94E2197E
:1019D80019F40E94351A49C00E94441A19F40E9449
:1019E800491A43C0C8CF0E941F1AEA85FB856C8537
:1019F8007D850E946B1EAFEFBFEF8FEF9FE07DDE0E
:101A0800E03019F00E948D1930C00E940D1A0E9412
:101A1800821E71F00E941F1A0E94521A0E946B1EA9
:101A28000E9492196ADEE03019F00E948D191DC0DB
:101A38000E94ED18AC89BD891A960E944D1EEC894A
:101A4800FD890E94F71979F0AC89BD891E960E941C
:101A5800481E3197604070400E94521EAC89BD8973
:101A68001596E1E0EC930E94ED18669608950E94A1
:101A7800701E0E94171AE250F040604070400E94A9
:101A88000A1AEC81FD81A68DB78D80A191A1E2E0B3
:101A9800F0E060E070E00E94571A0E945C1E0E940D
:101AA800911E18F00E94491A7CC3EC81FD81E281E5
:101AB800F0E00E945C1E0E94AE1D0E94BF1D7F9335
:101AC8006F93FF93EF93AC81BD819A960E94421E5B
:101AD800AF91BF918F919F910E94501D62C3BA939D
:101AE800AA9324971A930A93EE81FF81A885B98552
:101AF8001496ED93FC93A885B98516960E945C1AF6
:101B08000E94631A0E94E21929F00E94681A0E9432
:101B18006D1A10F0E2E07CC00E94C2180E94821E7A
:101B280029F40E94681AA081A33009F006C00E9417
:101B3800681AB696DF010E945C1A0E94C2180E94B9
:101B4800821EA1F40E94751A3896DF010E943E1E7B
:101B5800AE81BF81AE17BF0710F0E2E059C00E9406
:101B6800681AB696DF010E94421E37C00E94681AA2
:101B7800E281A0E1EA9F8001AE81BF81A017B10791
:101B880028F10E94681AFA93EA930E94121A3ADD21
:101B9800EA83FB836C837D830E94631A0E94EA199F
:101BA80011F4E1E035C00E94631A0E942D1928F053
:101BB8000E94681A0E946D1A10F0E2E029C0EE81B6
:101BC800FF81E01BF10BEE83FF83D6CF0E94751ACD
:101BD800FA93EA930E94121A4ADFDF01CB01EE81E1
:101BE800FF810E94961D0E947C1AA885B9851E96C1
:101BF8000E944D1E0E94681AF296DF01EE81FF8155
:101C08000E94811AA885B9855296ED93FC93E0E06D
:101C1800198108812A960895AA9324970E94981EEC
:101C2800A985BA8514960E943E1E31968F01002E12
:101C3800012A31F0A985BA851E960E94891A11F4E5
:101C4800E4E0D5C0F801EF7009F0BEC00E94FC19AD
:101C58001A960E94891A61F40E948E1A3896DF013A
:101C68000E943E1E0E171F0710F0E4E0C0C0ACC073
:101C7800F8010E94961D0F010E948E1AE281F0E081
:101C88003197E021F121309709F09EC00E948E1A09
:101C98000E94931AB7DC0E941A1A0E94121A0E9414
:101CA8002D1910F4E2E0A3C00E94121A0E94EA194A
:101CB80011F4E1E09CC00E948E1A7E96DF010E941A
:101CC800421E0E94121A0E94911E08F46DC0E885F7
:101CD800E03011F4E4E08BC00E948E1A0E94931A3F
:101CE80005DE0E949C1A0E94821E11F4E7E07FC064
:101CF8000E94121A0E94E21911F4E2E078C00E94D0
:101D0800121A0E94EA1911F4E1E071C00E948E1AB9
:101D18000E94F918E03011F0E1E069C00E948E1AC3
:101D28000E9409190E948E1ADF01BE96FF93EF9355
:101D3800FD010E949E1AAF91BF910E944D1E30E096
:101D48000E948E1AE2813E17D8F40E948E1A3496A9
:101D5800A1E0A0830E948E1A0E94F918E03011F0C9
:101D6800E1E045C00E948E1ABE96DF010E94481E1F
:101D7800EF5FFF4F6F4F7F4F0E94521E3F5FE0CFD4
:101D88000E948E1ABE96FF93EF93DF010E94421EB7
:101D9800DF01CB01E32FF0E00E94AE1D0E94571A2D
:101DA800AF91BF910E944D1E0E943A1AA985BA852B
:101DB8001A960E944D1E0E948E1A0E949E1AA9858C
:101DC800BA851E960E944D1EF801A985BA851496FB
:101DD800ED93FC930E948E1AF296DF01F8010E949F
:101DE800811AA985BA855296ED93FC93E0E00E948A
:101DF8009F1E2B9608950E94A61A21F0E12F0E949B
:101E08009F1ECFC10E94B51A01F5AC81BD815296C3
:101E18002D913C91D9010C91003011F414E015C0BA
:101E2800F901E385E87031F40E94C61A0E9400188F
:101E3800E03009F001C009C0EC81FD81FA93EA9312
:101E4800A0E0EADE1E2F1030E9F2E12F0E949F1E6B
:101E5800A8C10E94A61AB1F40E94B51A99F4EC819F
:101E6800FD81A289B3890C91053E11F0003009F477
:101E780009C0EC81FD81FA93EA93A1E0CDDE1E2F23
:101E8800103051F3103029F50E94B51A11F5AC81C4
:101E9800BD8152962D913C913A932A93E0E0EA93C2
:101EA800A0E2B0E00E942B180E94C61A0E941918DE
:101EB800AC81BD8154960E943E1EE385E871D9012C
:101EC8001C96EC93AC81BD810E943E1E3496A1E025
:101ED800A083E12F0E949F1E64C1BA93AA932597FD
:101EE8000E94961EAD85BE8554964D915C915A937D
:101EF8004A93E0E2EA93ABE0B0E00E942B18E0E0FE
:101F0800E887E9871E2F2E2FE8E0EA87AB85BC8596
:101F18000E943E1EEE83FF830E94D11AAE0FBF1FA0
:101F2800AC91AE3209F50E94D61A0E3221F4A8857A
:101F3800B98513970CF003C00E94E21AF4CF0F3250
:101F480021F00C3511F0013208F402C0E6E06FC050
:101F58000E94D11A0E94E91A10F4E4E201C0E0E2FA
:101F6800DA011B96EC9362C00E94D61A013220F067
:101F78000F3211F00C3509F434C00E3219F0EA852D
:101F88002E1768F0AA85A83011F40E3211F0E6E099
:101F98004EC028E0EBE0EA87110F110F21C000388E
:101FA80018F01360E6E043C0E0E1F1E060E070E0C3
:101FB8000E946B1EA02F33DA309711F0E6E037C08D
:101FC800013410F00B3508F002C0126007C001366A
:101FD80010F00B3708F002C0116000520E94E21A9C
:101FE800C3CF0E94D11A0E94E91A10F4E4E001C09C
:101FF800E0E00E2F203011F4E6E019C0DA01AC91D0
:10200800A53E19F4DA01E5E0EC93AA85A83011F4AD
:10201800110F110FE12FE370E13009F40061E12F96
:10202800EC70E43009F40860FA010387E0E00E94EC
:102038009D1E2F960895BA93AA930E94981EE1E0D8
:10204800E03029F0AC81BD81AC91A03209F006C026
:10205800EC81FD813196EC83FD83F1CFAC81BD81AC
:10206800AC91AF3229F0AC81BD81AC91AC3559F45B
:10207800EC81FD813196EC83FD83AE81BF8116969C
:102088000E94F11A0AC0AE81BF810E943E1E769658
:10209800DF010E94421E0E94F51AAC81BD81AC91FD
:1020A800BB27909760F40E94FB1AA0E0B0E017DD10
:1020B8001E2FAE81BF8152960E94001B3DC00E9418
:1020C800FB1ADE01169609DF1E2F1030A9F5AE8126
:1020D800BF8191DE1E2FAE81BF8154960E943E1EA5
:1020E800E385E4700E2F103039F0143011F400300D
:1020F80009F001C015E020C00030F1F4AE81BF81C5
:1021080052962D913C91F901E385E07111F415E0A7
:1021180013C00E94051B0E94A91D7F936F93FF9314
:10212800EF930E94081BAF91BF918F919F910E94DE
:102138000D1B0E94F51AC3CFE12F0E949F1E2896FF
:1021480008950E94701EEC81FD81A181AA93ED8102
:10215800FE81F296FA93EA93EB81FC816D817E8190
:102168000E94F21811F0E3E01CC0EC81FD810E948E
:10217800121B11F0E2E015C0AC81BD81A859BF4F18
:102188000E941C1B11F4E0E00CC0EC81FD81F2966A
:10219800EE5AFF4FDF010E941C1B11F4E0E001C062
:1021A800E1E026960895AA9364970E94961EAD8D45
:1021B800BE8D0E943E1EE887F987A885B985EC91F7
:1021C800E0530E2F0A3020F41196AC91AA3309F08F
:1021D8000AC0E885F9853296E887F987AD8DBE8D06
:1021E800ED93FC9302C00091FD0E013010F0EBE07E
:1021F800C9C1E02F0E942A1B0E943E1EEE83FF8366
:10220800AB8DBC8DED93FC93309711F4ECE0BAC123
:10221800AE81BF81EC91E03089F0EE81FF81A18130
:102228000E94E6065E2F50FD09C0EA8DE03011F0ED
:1022380052FD01C002C0EAE0A5C1A3C1AE81BF81C1
:10224800E0E0EC93E02FAE81BF811196EC93EE8134
:10225800FF81A1810E9417065E2F50FF02C0E3E0B4
:1022680091C1EA8DE03011F052FD01C002C0EAE0F0
:1022780089C10E94FB1A0E94491AE88FF98F6A8F58
:102288007B8FDF01CB015DDF1E2F1130C9F4EE819A
:10229800FF81F296E254FE4F9F01E481E03081F025
:1022A800D90118960E94421EEE8BFF8B688F798F9A
:1022B8000E94FB1AA88DB98D8A8D9B8D42DF1E2F37
:1022C800133011F4E1E05EC1103049F4AE81BF81F2
:1022D800DD960E943E1EE030A2E0FA0711F0EDE024
:1022E80051C1AE81BF81A85BBF4F0E9481190E9476
:1022F800321B0E94521A0E94821E41F4AE81BF8195
:10230800AA5ABF4F0E94421E0E94321B0E94521AB4
:10231800AE81BF815A960E944D1EEE81FF81EE5B11
:10232800FF4FE081AE81BF811396EC93EE81FF8170
:10233800E381F0E00E94241A0E94AE1D0E94BF1D96
:102348000E94321B0E94371B0E943E1BAE81BF8138
:1023580092960E944D1EEE81FF81E7ADAE81BF814E
:102368001296EC93AE81BF81AD5BBF4F0E943E1EBB
:10237800AE81BF811896ED93FC93AE81BF81AB5BB4
:10238800BF4F0E948119EE87FF87688B798B0E9467
:10239800821E51F4AE81BF81AE5ABF4F0E94421EC9
:1023A800EE87FF87688B798B0E94371B0E949219F2
:1023B800662777270E94571A0E94241A0E945A1DDE
:1023C8007F936F93FF93EF930E94431BAF91BF914D
:1023D8008F919F91662777270E945F1DEE81FF816D
:1023E800E281F0E00E94AE1D0E94FD1DEE5FFF4FEE
:1023F8006F4F7F4FEA87FB876C877D87AE81BF81F0
:102408005E960E944D1E11E00E94B519A73FEFE0AD
:10241800BE07E0E08E07E0E09E0708F012E00E94A9
:10242800B519A73FEFEFBE07E0E08E07E0E09E0793
:1024380008F013E0133039F4AE81BF81A25ABF4FC0
:102448000E94421E02C00E944B1BAE81BF8196961D
:102458000E944D1E0E944B1B7F936F93FF93EF9337
:102468000E94431BAF91BF918F919F910E947C1A4C
:10247800AE81BF819A960E944D1EAE81BF811E9685
:102488000E948D190E944D1EAE81BF811496E0E016
:10249800EC93133009F05FC0AE81BF811596EC93C1
:1024A800AE81BF81AE59BF4F0E943E1E0E943E1BA7
:1024B800AE81BF8152960E944D1EEE81FF81A1819F
:1024C800AA93EF81F885F296FA93EA93E985FA855B
:1024D8000E9420190E94F006E03011F5EE81FF817C
:1024E8000E94121BE9F4AE81BF81D2960E94421E5F
:1024F800E235A2E5FA07A1E66A07A1E47A0781F4C2
:10250800EE81FF81F296EC51FE4FDF010E94421EE0
:10251800E237A2E7FA07A1E46A07A1E67A0709F019
:102528001AC0EE81FF81F296E451FE4FDF010E944E
:10253800421EAE81BF811A960E944D1EEE81FF8118
:10254800F296E851FE4FDF010E94421EAE81BF8124
:102558001E960E944D1EAE81BF811C930E940119D8
:10256800AE81BF8156960E94F11AABEFBEE0ED91A5
:10257800FD913196FE93EE93AE81BF811696ED9351
:10258800FC93E0E00E949D1E6F960895BA93AA936B
:10259800EA81FB81309771F0AA81BB81EC91E03030
:1025A80049F0EA81FB81A681B781E881F981EA17C0
:1025B800FB0711F0E9E00AC0EA81FB81A1810E94D2
:1025C800E606E17011F0E3E001C0E0E0249608952A
:1025D800BA93AA931A930A93AC81A13028F0EBE03E
:1025E8001981088125960895EC810E942A1B0D9176
:1025F8001C91002E012A19F0D801E0E0EC93EA8141
:10260800FB81309721F0AA81BB81E0E0EC93EC815B
:10261800A9EFBEE0F0E0EE0FFF1FEA0FFB1FAA8153
:10262800BB81A083B183E0E0198108810C9439183B
:10263800AA93A2970E94981EA9A5BAA50E94001B5A
:10264800EEA1EF71EEA3FE01B796FA93EA93FE01AD
:102658007296FA93EA93EAA5EE71AE2FA4DD1E2FC7
:10266800103009F017C1FE013496ECA3FDA3FE015A
:102678007096FA93EA93A9A5BAA5DDDC1E2FEEA100
:10268800EC7109F49AC02897103089F0143021F4BD
:10269800DE015896DEDB1E2F103019F0E12F289648
:1026A800F9C0EEA5E860EEA72AA53BA56DC0EEA58A
:1026B800E47019F0E8E02896EDC02AA53BA5022EA3
:1026C800032A21F0F901E385E17119F0E7E0289682
:1026D800E1C0EEA5E87009F457C00E94051B0E94EE
:1026E800A91D7F936F93FF93EF930E94081BAF91EF
:1026F800BF918F919F910E940D1B0E940A1AF901A8
:102708007496A0E0B0E0A083B183F9017A96A08323
:10271800B183F9017C960E94F2190E94661EA88D69
:10272800B98D1496E1E0EC93A88DB98D9E960E9420
:102738003A190E94171A0E94821EB9F0E88DF98D85
:10274800FA93EA930E94631A78D81E2F103011F07A
:102758002896A0C00E94171AE150F04060407040CF
:10276800A88DB98D1A960E944D1EE88DF98DFA93A1
:10277800EA93AE81BF81888599850E94340A1E2F0D
:10278800103011F0289686C0EEA5E870A1F0F90186
:102798003B96A0E0A0830E9492090E949C1AD9014E
:1027A8001E960E944D1EA88DB98D1496E1E0EC93FB
:1027B800EEA5E062EEA7289619C0103011F0E12FBF
:1027C80069C02AA13BA1022E032A21F0F901E38561
:1027D800E07111F0E4E05EC0EEA1E27021F0F901D1
:1027E800E385E17009F402C0E7E054C0A889B9891B
:1027F8009E960E94421EA9A5BAA55A960E944D1EF1
:10280800EAA1FBA1A9A5BAA55E96ED93FC93EEA15A
:10281800A9A5BAA51496EC930E94051B0E94A91DB0
:102828007F936F93FF93EF930E94081BAF91BF9123
:102838008F919F910E940D1BA9A5BAA51E960E9473
:102848004D1ED9015C960E94421EA9A5BAA51A96EA
:102858000E944D1EA9A5BAA516960E94F11AA9A50F
:10286800BAA51596EFEFEC93A9A5BAA556960E94BE
:10287800F11AE889F989A9A5BAA5ED93FC93A88965
:10288800B98916960E943E1EA9A5BAA51296ED937F
:10289800FC93E0E00E949F1EAB960895BA93AA931A
:1028A8002E970E94961EE88DF98DEE83FF83AC89E2
:1028B800BD890E94001B0E94521B0E94571B0E9448
:1028C8005C1B11F0E12F52C1EA8DFB8DA481A07829
:1028D80011F0E2E04BC1EA8DFB8DA481A17011F4E7
:1028E800E7E044C1EA8DFB8DA285B3858485958593
:1028F8009F938F93BF93AF930E94631BEF91FF91B8
:102908006F917F910E945A1D0E943F1A0E94ED18F4
:10291800AE89BF89882799270E948C1E20F4E885F4
:10292800F985EE8BFF8BEE89FF89309709F41DC17D
:102938000E94631BFD01BC01F170309709F0E1C0F2
:10294800EA8DFB8D05800E94521BE2810E16C8F1AC
:102958000E94631B0E94861E31F4AA8DBB8D1E96B1
:102968000E94421E08C00E94521B0E94571B0E94D0
:102978006A1B0E94060BE88BF98B6A8B7B8BA889F4
:10298800B9898A899B890E942D1920F40E946F1B9E
:10299800E2E0ECC0A889B9898A899B890E94EA1972
:1029A80021F40E946F1BE1E0E1C00E940D1AAA8D7C
:1029B800BB8D52960E944D1EAA8DBB8D1596E0E0E8
:1029C800EC930E94521B0E94571B0E946A1B4FD80F
:1029D8000E94761B0E944E1A21F40E946F1BE2E0AF
:1029E800C5C00E947B1B0E94301A0E94AE1D0E9427
:1029F800501D0E94761BAE89BF890E94801B09F476
:102A080049C00E947B1BE40FF51F0F010E94521B57
:102A1800E281D001F0E0EA17FB0750F40E94521B54
:102A2800E281F0E0DF010E947B1BAE1BBF0BAD0112
:102A38000E94521B0E94881BEF85F88969897A8950
:102A48000E946B1EA42F0E94F006E03021F00E9425
:102A58006F1BE1E08BC0EA8DFB8DA481A07429F087
:102A68000E948F1B0E94961B08F00FC00E948F1BAC
:102A78000E949E1BAE81BF8188279927EA0FFB1F02
:102A88000E94571BB0960E94A71BAA8DBB8D0E945F
:102A9800AD1B57C0EA8DFB8DA481A07489F00E94FC
:102AA800521B0E94B81BED8DFE8D0E94C01B21F0A9
:102AB8000E946F1BE1E05AC0AA8DBB8D0E94CB1B00
:102AC8000E948F1B0E948C1E79F00E94521B0E944C
:102AD800B81BEF85F88969897A890E94F21821F074
:102AE8000E946F1BE1E042C00E94351AAA8DBB8D7F
:102AF80056960E944D1EAA8DBB8D1596EC91EF5FE0
:102B0800EC93AA8DBB8D0E94D01BA0E0B2E0AE1B57
:102B1800BF0B9D01EE89FF89E217F30710F42E8998
:102B28003F890E94FB1AAC8DBD8D0E94D01BAC8DD5
:102B3800BD8D9096EA0FFB1FFA93EA93D9010E9484
:102B480019180E94D51BEA8DFB8D0E94DD1BD00150
:102B58000E944D1EAC89BD890E94E61BEE89FF8943
:102B6800E21BF30BEE8BFF8BDECEE0E00E949D1E96
:102B78006C960895BA93AA932A970E94961EEC8998
:102B8800FD89EE83FF83A889B9890E94001B0E94F2
:102B9800ED1B0E94F21B0E945C1B11F0E12F93C1F8
:102BA800EE89FF89A481A07811F0E2E08CC1EE895A
:102BB800FF89A481A27011F4E7E085C1EE89FF893D
:102BC800A285B38584859585EA89FB890E947C1A4C
:102BD8007F936F93FF93EF930E94F71BAF91BF9181
:102BE8008F919F910E94911E18F4E0E0EA8BEB8B85
:102BF800EA89FB89309709F44CC10E94FD1BFD014D
:102C0800BC01F170309709F008C1EE89FF89058091
:102C18000E94ED1BE2810E1608F44CC0AE89BF89F4
:102C280016960E94891AD1F4AE89BF891E960E9411
:102C3800421E0E94761B0E944E1A79F40E94ED1BD8
:102C4800FA93EA930E94F2190E947A0C0E94761B6A
:102C5800AE89BF891E960E944D1E0AC00E94ED1BB8
:102C68000E94F21B0E946A1B0E947A0C0E94761B2B
:102C78000E944E1A09F40DC10E94301A0E94E219EE
:102C880021F40E94041CE2E01EC10E94301A0E9436
:102C9800EA1921F40E94041CE1E015C10E94351ACA
:102CA800AE89BF8952960E944D1EAE89BF8915967E
:102CB800E0E0EC93EE89FF89A481A07489F00E947A
:102CC800ED1B0E940B1CE98DFA8D0E94C01B21F0A0
:102CD8000E94041CE1E0F7C0AE89BF890E94CB1BAB
:102CE8000E94ED1B0E94F21B0E946A1B0E943B0D72
:102CF8000E943F1A0E94ED180E94821E21F40E9431
:102D0800041CE2E0E0C00E94131C0E9428190E94E3
:102D1800AE1D0E94501D0E943F1AAA89BB890E94BD
:102D2800801B09F44FC00E94131CE40FF51F0F010C
:102D38000E94ED1BE281D001F0E0EA17FB0750F496
:102D48000E94ED1BE281F0E0DF010E94131CAE1B24
:102D5800BF0BAD010E94ED1B0E94881BEB85FC8513
:102D68006D857E850E946B1EA42F0E945407E0305B
:102D780021F00E94041CE1E0A6C00E94181C0E94D9
:102D8800961BD8F4EE89FF89B0960E94F21BA6899B
:102D9800B789808D918DEA85FB856C857D850E943C
:102DA8009E1BA885B98588279927EA0FFB1F0E94D3
:102DB800A71BAE89BF890E94CB1BAE89BF890E9421
:102DC800AD1B53C00E94181C0E948C1EC9F00E94A3
:102DD800FD1B0D010E94F71BD0010E94911E58F4A3
:102DE8000E94ED1B0E940B1CEB85FC856D857E8582
:102DF8000E94F21809F404C00E94041CE1E063C0B8
:102E08000E94ED18AE89BF8956960E944D1EAE8964
:102E1800BF891596EC91EF5FEC93AE89BF890E944C
:102E2800D01BA0E0B2E0AE1BBF0B9D01EA89FB8975
:102E3800E217F30710F42A893B89AE89BF890E94FB
:102E4800D01BAE89BF899096EA0FFB1FFA93EA93CD
:102E5800E885F985FA93EA93D9010E941918AE8991
:102E6800BF891496EC91E064EC930E94D51BEE891F
:102E7800FF890E94DD1BD0010E944D1EA889B989D7
:102E88000E94E61BEA89FB89E21BF30BEA8BFB8BAA
:102E9800AFCE0E94FD1B0D010E94F71BD0010E94BE
:102EA8008C1E50F4AE89BF8916960E94421EAE89C8
:102EB800BF891A960E944D1EAE89BF891496EC915F
:102EC800E062EC93E0E00E949D1E68960895BA9334
:102ED800AA9324970E94981E0E94681AFA93EA936C
:102EE800EA85FB850E945C1B09F070C0E885F985BE
:102EF800A481A07209F46AC0A481A074A1F00E9400
:102F0800681AE181EA93E985FA85B096FA93EA931B
:102F1800EB85FC850E94C01B11F0E1E058C0A88534
:102F2800B9850E94CB1B0E94681AFA93EA93EA8536
:102F3800FB85A28DB38D848D958D0E94340A1E2F3A
:102F4800103009F043C0A885B9855E962D913C9153
:102F5800D9011B96EC91E062EC93A885B9851A9685
:102F68000E94421ED9015C960E944D1EA885B98513
:102F78001E960E943E1ED9015A96ED93FC93E88551
:102F8800F985A685B78580899189FD01BC010E94D4
:102F9800A41DD9015496ED93FC930E9492090E94B6
:102FA8009C1AD90156960E944D1EA885B98514967B
:102FB800EC91EF7DEC930E94681A3496A1E0A0830F
:102FC8000E94681ADF010E949C0A1E2FE12F0E94AE
:102FD8009F1E2A960895BA93AA931A93A981BA8133
:102FE80076DF1E2F103021F4A981BA810E94001BC0
:102FF800E12F188123960895BA93AA936627772715
:1030080089919991E991F991A991B991009629F03D
:1030180001976D9171916717C9F3671B10F4EFEF72
:103028000895E0E009F0E3950895BA93AA93998189
:103038008881009641F0BD81AC81FB81EA81619174
:103048006D930197E1F7FD81EC8126960895BA9377
:10305800AA93B981A881109631F0FC81EB816A812D
:1030680061931197E9F7EB81FC8125960895A2E019
:10307800B0E00C941F1C0E947F010C947C01E98134
:10308800E07F1E2F12951F70A12FF5CFE981EF70F9
:103098001E2FA12F0E947F01EACFA981BA818B81BF
:1030A8009C81FF27662777270E94501D0895E12FEE
:1030B800AFE0B9E0F0E0EE0FFF1FAE0FBF1F0E94B8
:1030C8003E1EA02FB0E00895AFE0B9E0F0E0EE0FAB
:1030D800FF1FAE0FBF1F08950E94C701E0E0EA93EB
:1030E800A0E00C94CA010E94B201A8EEB3E00C94CF
:1030F8001F1CA12FB0E0A551B14FE12FFF27662774
:1031080077270895E856FF4F6F4F6BBFE691EC9312
:103118000895EDE4FCE0FA93EA930895FA93EA93AC
:10312800E0E4F0E0FA93EA93A9E0B0E00895A32D73
:10313800B0E0E2E0F0E00E94F81DE555F14FBF0174
:10314800E0810895BB270E94AA02E2E1F0E0E519B8
:10315800F609E551F14FE0810895B0E00E94AA0216
:10316800E2E1F0E0E519F609E551F14FE081089553
:10317800F0E00E94AE1DDF01CB010895EA81FB81DA
:103188006C817D810895E983FA836B837C8308953C
:10319800ED81FE816F8178850895A981BA818B813F
:1031A8009C810895E985FA85A181AA93EA85FB8522
:1031B800F296FA93EA93EC81FD816E817F810E94F9
:1031C8006B1EA1E00C945407A2A1B3A184A195A100
:1031D8000895E885F9856A857B8508950E946B1EA8
:1031E800A1E00E94F006E0300895FA93EA93A0E087
:1031F800B0E080E090E00C94340A9E96E0E0F0E0C5
:1032080060E070E00E944D1E0895F296FA93EA93EA
:10321800E0E0EA93A0E0B2E00C942B180E94661E4E
:10322800E981FA81F29608950E94421ED0010E9417
:103238004D1EE981FA810895A289B3898489958907
:103248000E94701EA1E00895A885B9858A859B858E
:103258000895A230E0E0BE07E0E08E07E0E09E07B8
:103268000895E1E0F0E060E070E008950E94421EF9
:10327800EC83FD836E837F830895EC85FD85FA9347
:10328800EA93D901E0E0F2E00E94E51DAE81BF813A
:1032980088859985662777270E94551D0E94340ADC
:1032A800E0300895AC85BD85D296F901F170AE0F76
:1032B800BF1F0895EC85FD85FA93EA93AA85BB851F
:1032C8008C859D850895E0E0F1E060E070E00E9463
:1032D800FD1D0895AE81BF81888599850E94551D81
:1032E8000E94340AE03008950E94DF1DF170AC8519
:1032F800BD85D296AE0FBF1F08950E943E1E662759
:1033080077270895E0E8F0E060E070E00E94FD1D96
:103318000895EFEFFFEF6FEF7FEF0895AE85BF855C
:10332800888999890895EA89FB89FA93EA93D801EB
:10333800E0E0F2E00E94E51D87DF662777270E941C
:10334800551D0E94340A5E2F50300895AA89BB8902
:10335800D296F801F170EA0FFB1F9F01EE85E1702C
:103368000895AA85BB858C859D850895EA89FB8982
:10337800FA93EA93A889B9898A899B89089564DFB1
:103388000E94551D0E94340A5E2F503008950E94F5
:10339800DF1DF170AA89BB89D296EA0FFB1F089539
:1033A800AD81BE818F8198850895A985BA855E967D
:1033B8000E94421EF5DF0E94911E0895A130E0E0B0
:1033C800BE07E0E08E07E0E09E070895AF3FEFEF0D
:1033D800BE07EFEF8E07EFEF9E070895A0E0B0E07D
:1033E80080E090E00895A685B78580899189EECF21
:1033F800A985BA851E960E94481EEF5FFF4F6F4F42
:103408007F4F0E94521EA985BA8508950E94611EA9
:103418000895E889F9896A897B890895AC81BD8115
:103428008E819F8108950E94571E0895EC83FD8325
:103438006E837F830895EC89FD89FA93EA93089552
:10344800AA89BB898C899D8908950E94060BEC87FF
:10345800FD876E877F870895AC85BD858E859F859E
:103468000895EC85FD856E857F850895EC81FD8145
:103478006E817F810895E887F9876A877B87089539
:10348800F5DFE2DE0E948C1E0895E0E0F0E060E0E7
:1034980070E00895E6DF0E94821E0895EA89FB899C
:1034A8006C897D8908950E94751E0E945A1D089591
:1034B8000E94421EEA83FB836C837D830895AA8160
:1034C800BB818C819D810895A885B9850E943E1E87
:1034D80008957E96DF010E94421EF1DF0E94911E30
:1034E80008954CDEA885B9851A960E944D1EECCF2A
:1034F800662777270E94501D0895EF70F070EE0F31
:103508000E948D1DEA0FFB1F08950E94421E0E9413
:10351800821E0895A985BA850E943E1E0895FA93D1
:10352800EA93EB85FC85A285B38584859585089506
:103538007DDF9CCFFA93EA93AE81BF818885998518
:103548000C943B0DBA93AA930E94981EEC81FD81BE
:10355800FA93EA93A0E0B0E00E94730D1E2F10309A
:103568000895AC81BD810E943E1EFA93EA93EE81D4
:10357800FF81A685B785808991890E94340A1E2F0C
:10358800103008953A932A93EE81FF81A489B58972
:10359800BA93AA93ABE0B0E00895E885F985AE81C7
:1035A800BF810895E885F9853196E887F9873197CD
:1035B800AE81BF81AE0FBF1F0C910895E22F2F5F20
:1035C800F0E0E40FF51F00830895EA0FFB1FAB85B9
:1035D800BC85ED93FC930132089557DF0E944D1E80
:1035E8000895AE81BF8116960E944D1E0895EE8102
:1035F800FF81FA93EA930895E0E0F0E0ED93FC93FD
:103608000895D901549679CED9015A960E943E1E42
:103618000895662777270E94641D0895F296E25060
:10362800FE4FDF010E943E1EE535AAEAFA0708951B
:103638000E94421EEF7FFF7F6F7F7070E634A1E427
:10364800FA07A4E56A07A0E07A070895A9EFBEE0A3
:10365800F0E0EE0FFF1FAE0FBF1F0895EA8BFB8B44
:103668006C8B7D8B0895AE81BF81A05CBF4F0E949B
:103678003E1E0895AE89BF89888D998D39CFEE8118
:10368800FF81A085B185FD010E94961D0895EE81F8
:10369800FF819ADD03DF0E94501D0895AA8DBB8D1E
:1036A8000E943E1E0895FA93EA93EC8DFD8D0895CD
:1036B800A281B3810E94CA121E2F10300895EA8D8C
:1036C800FB8DA681B781808591850895A289B389EC
:1036D800848995890895AA8DBB8D1496EC91E0682C
:1036E800EC930895EC87FD876E877F870895EA8DB0
:1036F800FB8DE581F0E00895E0E0F2E00E94E51D31
:10370800AF01042E052A0895E181EA93EF81F88537
:10371800FA93EA930895EA8DFB8DA689B789808D7F
:10372800918D9FCE0E945F1DFA01662777270E9420
:10373800911E08950E945F1DE0E0F2E060E070E0F5
:103748000E94BF1D0895FA93EA93A0E0B2E00C949A
:1037580019181596EC91E40FEC93FA01EE0FFF1F80
:10376800FE2FE0E09F010895E181EA93EB8DFC8D47
:10377800B096FA93EA930895A689B789808D918DBA
:103788000E94701EA1E00E945407E030089514962C
:10379800EC91EF7BEC93089516960E943E1EF17013
:1037A8000895F901AE81BF81EA0FFB1FEE83FF8305
:1037B800089536960F01DF010E94421EDF01CB01FA
:1037C800F90196CEED91FD91E20FF31FFE93EE9372
:1037D8000895AE89BF890E943E1E0895FA93EA9320
:1037E800E88DF98D0895AE89BF891A960E94421E08
:1037F8000895EE89FF89A681B7818085918508950E
:10380800AE89BF891496EC91E068EC930895E18144
:10381800EA93EF89F88DB096FA93EA930895EE89C2
:10382800FF89E581F0E00895EE89FF89A689B789C7
:10383800808D918DCECC109639F080EA9FE001976B
:10384800F1F7A8951197C9F70895552342F4503810
:1038580011F4E0FF04C03196691F791F6BF050E83E
:10386800572711F45F9373C05F3F31F0660F000C68
:1038780057956795752F08955F9300200AF073C0D8
:103888006CC050E8192E1522880F991F9527550FDF
:10389800879550E8072E0522660F771F7527550F65
:1038A80067950895689401C0E8945F93F2DF7038D3
:1038B80018F07F3F08F44BC056E1571BAAF4519506
:1038C80058300EF4593030F0EFEFFFEF6FEF7FE72D
:1038D80077F91AC077275523B9F0EE0FFF1F661F37
:1038E800771F5A95D1F710C07727583028F0EF2F57
:1038F800F62F672F5850F9CF552331F076956795F5
:10390800F795E7955A95D1F700200AF4E2D05F9130
:103918000895689401C0E894309760407040B1F011
:10392800002426F0772312F40094D3D0172E7EE1DA
:10393800112032F07A95EE0FFF1F661F111CF9CF88
:10394800EF2FF62F612D5F938ADF5F910895EE27A1
:10395800FF27662777275F910895EFEFFFEF6FE75F
:103968007FEF5F910895EFEFFFEF6FE77FE75F91DC
:1039780008955F9386DF703851F3903841F301243E
:103988000894791F23F41CF300203AF3ECCF0F922C
:103998001F932F933F934F93112722279927689FAF
:1039A800A0018F9F302D410D591F6B9F300D411D78
:1039B800591F8E9F27D0BF9F25D06A9F23D0BE9FB7
:1039C8001DD0AF9F1BD0AE9F110D291F391F491F56
:1039D800591FE32FF42F652F522F4F913F912F91AD
:1039E8001F910F9066232AF0550FEE1FFF1F661FC9
:1039F80002C073954BF229DF5F910895100D211DC8
:103A0800391F02C0200D311D491F591F08955F93AA
:103A180038DF703821F411200AF49FCFA4CF9038F2
:103A280009F495CF01240894970B1BF4D4F30020D4
:103A3800F3CF792F1F932F933F934F93112411277F
:103A4800222733274427552790E2AE17BF0786075A
:103A5800410730F0AE1BBF0B860B410B089401C029
:103A68008894551F221F331F111CAA1FBB1F881FB4
:103A7800441F9A9551F7F901612D4F913F912F916C
:103A88001F91662332F0550FEE1FFF1F661F7A95B0
:103A980043F2DBDE5F910895EA0FFB1F681F791F71
:103AA8000895AE0FBF1F861F971F0895EA1BFB0BD3
:103AB800680B790B0895AE1BBF0B860B970B089507
:103AC800EA2BFB2B682B792B0895F195E195F040B3
:103AD8000895F09560957095E195FF4F6F4F7F4F72
:103AE8000895EE230E2EFD01BC0131F0EE0FFF1FED
:103AF800661F771F0A94D1F70895EE230E2EFD0155
:103B0800BC0131F076956795F795E7950A94D1F75A
:103B18000895EE0FFF1FEE0FFF1FEE0FFF1FEE0FB2
:103B2800FF1F0895F695E795F695E795F695E795BD
:103B3800F695E7950895EE0FFF1F661F771F089506
:103B4800E62FF72F60E070E008956E2F7F2FE0E0FA
:103B5800F0E008956F2F660F660B762F0895EA1729
:103B6800FB07E1E00CF4EE270895AE17BF07E1E08C
:103B78000CF4EE2708957A9F702D6B9F700DF89FB7
:103B8800700DE99F700D6A9F602D710DFB9F600D90
:103B9800711DE89F600D711D8827FA9FF02D610D3A
:103BA800781FEB9FF00D611D781FEA9FE02DF10D46
:103BB800681F781F08956E2F6A9FF0016B9FF00DA4
:103BC80008950024112490E1AA0FBB1F001C111CAA
:103BD8000E1A1F0A18F40E0E1F1E01C0A1609A9536
:103BE80099F7FD01D001089537D0EBDF0EF46DDFB2
:103BF80008953F934F935F9300241124442755273A
:103C080030E2AA0FBB1F881F991F001C111C441FFC
:103C1800551F0E1A1F0A460B570B28F40E0E1F1EAF
:103C2800461F571F01C0A1603A9559F7FD01BC0115
:103C3800D001CA015F914F913F910895E894B7FF71
:103C480004C0A095B09511966894F7FD3EDFB9DFE2
:103C5800FD010EF43ADF0895E894F7FF02C035DF5E
:103C68006894B7FF06C0A095B095119600F8039424
:103C780000FA0895ED91FC9111970895ED91FD9149
:103C88006D917C9113970895ED91FD916D917D91C2
:103C98000895ED93FD936D937C9308957E936E93B1
:103CA800FE93EE930895E881F9816A817B810895F6
:103CB800A881B9818A819B810895E883F9836A8301
:103CC8007B830895A083B1838283938308957A9335
:103CD8006A93FA93EA9308959A938A93BA93AA9364
:103CE8000895182E862F612D192E972F712D1B2EB2
:103CF800BF2FF12D1A2EAE2FE12D08953097604079
:103D08007040089500240A160B060806090608954F
:103D1800EA17FB07680779070895AE17BF078607F4
:103D2800970708955A934A933A932A931A930A93B2
:103D380008955D814C813B812A811981088108950C
:103D4800AC0FBD1F6BBF07900D928A95E1F70895E0
:00000001FF
