:0A0000000C942D010C9400000C94E8
:10000A0000000C9400000C9400000C9400000C9466
:10001A0000000C9400000C9400000C9400000C9456
:10002A0000000C9400000C9400000C9400000C9446
:10003A0000000C9400000C9400000C9479020C94BB
:10004A0000000C9400000C9400000C9400000C9426
:10005A0000000C9400000C9400000C9400000C9416
:10006A0000000C9400000C9400000C9400000C9406
:10007A0000000C9400000C9400000C9400000C94F6
:10008A0000000C9400000C9400000C940000C7BB04
:10009A00BBBBBBBBBBBBC700EF8FEFEFEFEFEFEF15
:1000AA008300C7BBFBFBF7EFDFBF8300C7BBFBFBCC
:1000BA00E7FBFBBBC700F7E7E7D7D7B783F7E30050
:1000CA0083BFBFBF87FBFBBBC700E7DFBFBF87BBE1
:1000DA00BBBBC70083BBFBF7F7EFEFDFDF00C7BB94
:1000EA00BBBBC7BBBBBBC700C7BBBBBBC3FBFBF729
:1000FA00CF0088DDDDDDC1DDDDDD8800FFFFFF81AA
:10010A00BBF7EFDD810020222A2B2C5B3D5D7C7F33
:10011A0000000004000200018000400020001000DE
:10012A0008000400020000000080004000200010C7
:10013A0000080040002000100008000400021027F8
:10014A00E80364000A000100001000011000010029
:10015A0003030302020C000800010006303A494D6D
:10016A003030302E424D50008000FF0044726976D4
:10017A0065206E6F2064657465637461646F004402
:10018A0072697665206365727261646F004F70658B
:10019A006E6E696E67206469736B2E2E2E0052652F
:1001AA00616479004C6F6164696E672E2E2E00308F
:1001BA003A424153452E424D5000303A494D25307E
:1001CA0033752E424D5000446F6E650046696C656A
:1001DA00206572726F7200626173652E626D7020A3
:1001EA006572726F720001000400EBFE904D534479
:1001FA004F53352E30004E4F204E414D4520202082
:10020A00204641543332202020004E4F204E414D8B
:10021A0045202020204641542020202020000B0089
:10022A00140A660100000100760E72010000010046
:10023A00770E740100000B000009B90100000100EB
:10024A00050FF00100000100090FF2010000000093
:10025A00F894EE27EFBBF1E0F5BFE5BF8DE0A2E031
:10026A00BB27ED938A95E9F780E090E2A0E0B1E040
:10027A00ED930197E9F7E8E2F2E0D0E0DBBF87917E
:10028A009791009781F0A791B79107901790C7911E
:10029A00D791BF01DBB7F001CBBF07900D92019751
:1002AA00E1F7FB01EBCFE0E0EEBBEFEFEDBFE0E201
:1002BA00EEBFC0E0D9E00C94D4032C978CE0A0E008
:1002CA00B0E0EAE5F1E060E00E9405210A93849A31
:1002DA00859A809A819A829A839AA2E3B0E00E94D0
:1002EA00991F00E00C3068F40E94001BE02FF0E038
:1002FA00DE011196AE0FBF1FAC910E94041B0F5F67
:10030A00F1CFECE0E0930B09A0910B0921D0088111
:10031A002D9608958C9A8C980895AA93E881E8708E
:10032A0011F08B9A01C08B98E881E47011F08A9AD7
:10033A0001C08A98E881E27011F0899A01C089980F
:10034A00E881E17011F0889A01C088982196089591
:10035A00AA930A938D980E94001B0E94081B0E9470
:10036A000F1BD8DF088157C0AA930A938D9A0E945F
:10037A00001B0E94081B0E940F1BCCDF08814BC088
:10038A000E94D1200A9300E0E02F0F5F0E94161B03
:10039A006BBFA691E9DFE02F0E94161B6BBFE691A7
:1003AA00E03091F7088125960895BA93AA930A93A3
:1003BA0000E0E02F0F5FA981BA81F0E0AE0FBF1F06
:1003CA00AC91D2DFA981BA81EE27A00FBE1FEC91B2
:1003DA00E03079F7A9C1A1E0BBDF0895AA93E881CB
:1003EA00F0E0309719F4A981A05814C0E130A0E0D8
:1003FA00FA0719F4A981A0540DC0E230A0E0FA0767
:10040A0019F4A981AC5606C0E330A0E0FA0719F442
:10041A00A981AC529DDF22960895AA93E881E066ED
:10042A00E0937C00E0917A00E064E0937A00E09146
:10043A007A00E071E1F3E0917A00E061E0937A00FA
:10044A00E09179000C94DC07E0E0E0939000E7E0AB
:10045A00E0939100E0E0E0939500E0939400A6EE2B
:10046A00B3E00E94991F88E99DE00197F1F7E091B6
:10047A009400F0E0DF01E0919500FE2FE0E0EA0F42
:10048A00FB1FE0931009F09311090895F8940E9454
:10049A00201B0E94261BA038E0E0BE071CF5E09155
:1004AA001209F09113090E942B1BEA0FFB1FFF93FD
:1004BA00EF93A7E0B2DFAF91BF91F0E0ED93FC9329
:1004CA0080E78A95F1F700000000000000000000B4
:1004DA0000000000000000000000000000000E9470
:1004EA00301BD7CF789408950A921A92FA926A9397
:1004FA007A938A939A93AA93BA93EA93FA93EBB765
:10050A00EA93EFB7EA930E944E0AE991EFBFE991A5
:10051A00EBBFF991E991B991A99199918991799151
:10052A006991F990199009901895E0E0EA93A2E28E
:10053A00BAE00E94D513E03039F00E94381BA6E7D2
:10054A00B1E080E090E01CDF0895E0E0EA93A0E0EB
:10055A00B0E00E94D5130E94381BA9E8B1E080E000
:10056A0090E00E943F1B0895BA93AA930A93E981E7
:10057A00FA81309751F400E0093030F40E94451BAB
:10058A000E944E1B0F5FF8CFCFC0E130A0E0FA0700
:10059A0071F400E0093050F40E94451BEE55FF4FFC
:1005AA006F4F6BBFE691EC930F5FF4CFBDC0E230A3
:1005BA00A0E0FA0771F400E0093050F40E94451BEC
:1005CA00E455FF4F6F4F6BBFE691EC930F5FF4CF8B
:1005DA00ABC0E330A0E0FA0771F400E0093050F450
:1005EA000E94451BEA54FF4F6F4F6BBFE691EC9395
:1005FA000F5FF4CF99C0E430A0E0FA0771F400E08D
:10060A00093050F40E94451BE054FF4F6F4F6BBFF7
:10061A00E691EC930F5FF4CF87C0E530A0E0FA07CC
:10062A0071F400E0093050F40E94451BE653FF4F75
:10063A006F4F6BBFE691EC930F5FF4CF75C0E63056
:10064A00A0E0FA0771F400E0093050F40E94451B5B
:10065A00EC52FF4F6F4F6BBFE691EC930F5FF4CFF5
:10066A0063C0E730A0E0FA0771F400E0093050F403
:10067A000E94451BE252FF4F6F4F6BBFE691EC930E
:10068A000F5FF4CF51C0E830A0E0FA0771F400E040
:10069A00093050F40E94451BE851FF4F6F4F6BBF62
:1006AA00E691EC930F5FF4CF3FC0E930A0E0FA0780
:1006BA0071F400E0093050F40E94451BEE50FF4FE0
:1006CA006F4F6BBFE691EC930F5FF4CF2DC0EA300A
:1006DA00A0E0FA0771F400E0093050F40E94451BCB
:1006EA00E450FF4F6F4F6BBFE691EC930F5FF4CF6F
:1006FA001BC0EB30A0E0FA0771F400E0093050F4B7
:10070A000E94451BEA5FFE4F6F4F6BBFE691EC9369
:10071A000F5FF4CF09C000E0093030F40E94451B96
:10072A000E944E1B0F5FF8CF0881239608950E94FE
:10073A00551B0A811B81D801E8EEF3E00E94542080
:10074A00E093FF0EA091FF0EB0E0E8EEF3E00E9406
:10075A003C20AA81BB81AE1BBF0B8D01E4E6F0E011
:10076A000E945420E093000FA091000FE4E6EA9F54
:10077A00F0010E1B1F0BD801EAE0F0E00E945420A2
:10078A00E093010FA091010FEAE0EA9FF0010E1B2E
:10079A001F0B0093020F19810881249608950E9465
:1007AA006201E0E8E0937E00E0E6E0937C00E4E8A2
:1007BA00E0937A00E0E8E0937B005F9AE0936100BF
:1007CA00E0E0E0936100EAE0E0938100EEE4E09388
:1007DA008900EFE1E0938800E2E0E0936F00A7E987
:1007EA00B1E080E090E0CCDD7894A0E004D3A8ECFE
:1007FA00B0E00E94991FEFDDE0E0EA93A0E0EEDDB1
:10080A00A8EAB1E080E090E00E94C5014F9995C145
:10081A00E2DDAEEAB1E080E090E00E94C50114DEBC
:10082A0035DE83DE0E945A1BE0E0F9E0FA93EA9390
:10083A00A1E00E940014E03009F074C10E945A1B22
:10084A00E8E7FEE00E945F1B0E943B150E94681BBE
:10085A000E94201B0E94681B0E946C1BE4ECF1E0C2
:10086A0060E070E00E94CC20E0911209F091130937
:10087A000E94FD1F0E94CC2084E00E946F1A2A96D3
:10088A000E94301B0E945A1B0E946C1BA0E00E940F
:10089A000014E030F9F20E94681BE0E0EA93A1E05C
:1008AA000E94F301A4E1BAE00E94DA010E945A1BF5
:1008BA000E946C1BAAE00E940014E03009F025C1D6
:1008CA000E945A1BE8E7FEE0FA93EA93EEE3F0E0AF
:1008DA00FA93EA93A0E2BAE00E94A6160E94201BAD
:1008EA000E94261BA030E1E0BE070CF003C1E0E045
:1008FA00E093740EE093750E0E94711BA030E2E043
:10090A00BE070CF090C00E94761B0E947A1BAE0FA5
:10091A00BF1FEC91EF930E94761B0E947E203196B6
:10092A00FF93EF930E94761B0E947D1B0E947A1B05
:10093A000E94871BAF91BF910E94901BAF91EA0F53
:10094A00E093030F0E94981B3196FE93EE930E9448
:10095A00761B0E947A1BAE0FBF1FEC91EF930E9489
:10096A00761B0E947E203196FF93EF930E94761B9E
:10097A000E947D1B0E947A1B0E94871BAF91BF9128
:10098A000E94901BAF91EA0FE093040F0E94981BFC
:10099A003197FE93EE93E091030F0E94261BF0E03D
:1009AA00EA17FB0744F0E091040F0E94261BF0E0CF
:1009BA00AE17BF078CF4E091030F0E94261BF0E0EC
:1009CA00AE17BF0744F0E091040F0E94261BF0E027
:1009DA00EA17FB070CF407C0A091760EE091770E98
:1009EA00EA1BE093770EE091760EE03089F40E94DC
:1009FA00711BE8E0F0E00E945420EA54F14FA09104
:100A0A00770EA083E0E8E093760EEFEFE093770E9F
:100A1A00E091760EE695E093760E0E94981B319649
:100A2A00FE93EE9369CF0E94261BEAE0F0E00E9453
:100A3A0008200E2E0E949D1B0E940220E02109F42C
:100A4A004EC0A0911009B091110971DEA091FF0E5C
:100A5A00BB278ADDE091FF0EE03031F00E949D1B3A
:100A6A000E94A11BE093B70EA091000F0E94A71B42
:100A7A0021F4A091000FA03031F00E949D1B0E942A
:100A8A00A11BE093B80EA091010F0E94A71B41F48D
:100A9A00A091000FA03021F4A091010FA03031F0F5
:100AAA000E949D1B0E94A11BE093B90EA091020F08
:100ABA00BB270E94AE1B0E94A11BE093BA0EAAE0BC
:100ACA00B0E00E94AE1B0E94A11BE093BB0EABE0FC
:100ADA00B0E00E94AE1B0E94A11BE093BC0E0E94D4
:100AEA005A1BE6EBFEE00E945F1B0E94A6160E94BC
:100AFA00301BF6CE0E94F001A1EDB1E080E090E05B
:100B0A000E94C5010E94681B08C00E94381BA6EDFE
:100B1A00B1E080E090E00E94C501A8EEB3E00E9437
:100B2A00991F08C00E94381BA1EEB1E080E090E056
:100B3A000E943F1B0ADD0E94F0015ECEFFCFAA93FE
:100B4A000E94F92030E01C81AD81BE812D91AD83D8
:100B5A00BE8308E0330FE32FE227E07811F0E9E0E3
:100B6A003E27220F0150B1F7115071F7E32FEE0F14
:100B7A00E1600E94002142C50A93E2E3E093070F75
:100B8A00EFEFEEBDEDB5E7FFFDCFEFEFEEBDEDB553
:100B9A00E7FFFDCF0EB50F3F21F0E091070FE030E0
:100BAA0009F401C0F2CFE02FA8C4289AEFEFEEBDF6
:100BBA00EDB5E7FFFDCF0895BA93AA930E94FA20F4
:100BCA00E4E1E093060FEFEFEEBDEDB5E7FFFDCFF1
:100BDA000EB50F3F21F4E091060FE03009F401C091
:100BEA00F2CF0E3F21F0E0E00E94012107C51D81EE
:100BFA002E81EFEFEEBDEDB5E7FFFDCF2F931F93EB
:100C0A001F5F2F4FEEB5AF91BF91EC93EFEFEEBDA3
:100C1A00EDB5E7FFFDCF2F931F931F5F2F4FEEB563
:100C2A00AF91BF91EC93EFEFEEBDEDB5E7FFFDCFCE
:100C3A002F931F931F5F2F4FEEB5AF91BF91EC9388
:100C4A00EFEFEEBDEDB5E7FFFDCF2F931F931F5FCB
:100C5A002F4FEEB5AF91BF91EC93EB81FC813497A6
:100C6A00EB83FC8331F6EFEFEEBDEDB5E7FFFDCF89
:100C7A00EFEFEEBDEDB5E7FFFDCFE1E00E94012108
:100C8A00BDC4AA930E94F92077DFEF3F21F0E0E08C
:100C9A000E940021B3C4EC81EEBDEDB5E7FFFDCFA4
:100CAA00AC81AD3F69F110E02D813E81D9012F5F02
:100CBA003F4FEC91EEBDEDB5E7FFFDCFD9012F5FB8
:100CCA003F4FEC91EEBDEDB5E7FFFDCF115071F747
:100CDA00EFEFEEBDEDB5E7FFFDCFEFEFEEBDEDB502
:100CEA00E7FFFDCFEFEFEEBDEDB5E7FFFDCF0EB5A8
:100CFA00E02FEF71E53021F0E0E00E9400217EC490
:100D0A00E1E00E9400217AC40E94D1201A930A933A
:100D1A00EE81E07881F0EE81EF77EE83E7E7EA9300
:100D2A00A0E0B0E080E090E0EFDF1E2F123018F074
:100D3A001981088163C4AE81AC3449F036DF289842
:100D4A001BDFEF3F21F0EFEF1981088157C4EE81D5
:100D5A00EEBDEDB5E7FFFDCFED81EEBDEDB5E7FFE9
:100D6A00FDCFEC81EEBDEDB5E7FFFDCFEB81EEBD2A
:100D7A00EDB5E7FFFDCFEA81EEBDEDB5E7FFFDCFAB
:100D8A0001E0AE81A03411F405E904C0AE81A834B3
:100D9A0009F407E80EBDEDB5E7FFFDCFAE81AC342F
:100DAA0029F4EFEFEEBDEDB5E7FFFDCF0FEFEFEF63
:100DBA00EEBDEDB5E7FFFDCF1EB517FF02C001502E
:100DCA0009F401C0F4CFE12F1981088117C4BA933D
:100DDA00AA930A9304E0EFEFEEBDEDB5E7FFFDCF6E
:100DEA00A981BA811196A983BA831197EEB5EC93BA
:100DFA00015089F7EAC4AA9324970E94FA20EF8146
:100E0A00E03021F0E1E00E940121ACC1249825984C
:100E1A00EAE0E093060FE091060FE030E1F7E09197
:100E2A00050FE27029F0E091050F0E9401219AC195
:100E3A00209A289AE5B1E97FE5B92B9A2398E4B17B
:100E4A00E760E4B9E3E5ECBDE0E0EDBD2FEF0AE0D1
:100E5A00EFEFEEBDEDB5E7FFFDCF0150C9F7E0E4D6
:100E6A00EA93A0E0B0E080E090E04EDF1E2F215030
:100E7A00113011F0203009F401C0E9CF20E011301F
:100E8A0009F068C0E4E6E093060FE8E4EA93AAEA08
:100E9A00B1E080E090E038DFE13091F5DE011396B1
:100EAA0096DFAD81A13019F4AE81AA3A09F027C0C4
:100EBA00E091060FE03049F0E9EEEA93A0E0B0E0F5
:100ECA0080E090E421DFE03009F401C0F1CFE09145
:100EDA00060FE03049F0EAE7EA93A0E0B0E080E0EC
:100EEA0090E012DFE03009F00AC0DE0113966FDFEE
:100EFA00EB81E07411F0ECE001C0E4E02E2F2AC08F
:100F0A00E9EEEA93A0E0B0E080E090E0FDDEE230B6
:100F1A0018F422E019EE02C021E011E4E091060F74
:100F2A00E03041F01A93A0E0B0E080E090E0ECDE1F
:100F3A00E03009F401C0F2CFE091060FE03049F049
:100F4A00E0E5EA93A0E0B2E080E090E0DDDEE030A8
:100F5A0009F020E02093080F28DE203051F0E091BC
:100F6A00050FEE7FE093050FE0E5ECBDE1E0EDBD96
:100F7A0011C0289801DE19DEE0E0ECBDE4B1E07FA3
:100F8A00E4B9E5B1E07FE5B92098E091050FE160A9
:100F9A00E093050FE091050F0E940121E3C0AA9397
:100FAA00E881E03011F0E1E002C0E091050F2196FE
:100FBA000895AA93EF81E03019F4E881E03011F442
:100FCA00E4E0D0C0E091050FE17011F0E3E0CAC09F
:100FDA00E091080FE87071F4E981FA816B817C81F4
:100FEA00A0E0B2E080E090E00E941620E983FA8354
:100FFA006B837C83A881A130A9F4E1E5EA93AA81F5
:10100A00BB818C819D8180DEE03059F4ED81FE81C7
:10101A00FA93EA93A0E0B2E0CFDDE03011F0E0E02D
:10102A00E88323C0E2E5EA93AA81BB818C819D8192
:10103A006BDEE030D1F4ED81FE81FA93EA93A0E011
:10104A00B2E0BADDE03051F0ED81FE81E050FE4FB2
:10105A00ED83FE83E881E150E88369F7ECE4EA93E3
:10106A00A0E0B0E080E090E04FDE9FDDE881E03074
:10107A0011F0E1E001C0E0E075C0AA93EF81E03031
:10108A0019F4E881E03011F4E4E06CC0E091050F56
:10109A00E17011F0E3E066C0E091050FE47011F031
:1010AA00E2E060C0E091080FE87071F4E981FA812A
:1010BA006B817C81A0E0B2E080E090E00E94162083
:1010CA00E983FA836B837C83A881A130A1F4E8E5E4
:1010DA00EA93AA81BB818C819D8116DEE03051F4AE
:1010EA00ED81FE81FA93EA93AEEFCBDDE03011F0A9
:1010FA00E0E0E88330C0E091080FE67039F0E7EDF0
:10110A00EA93A981BB2788279927FEDDE9E5EA93B7
:10111A00AA81BB818C819D81F7DDE030E1F4ED810C
:10112A00FE81FA93EA93ACEFACDDE03051F0ED8149
:10113A00FE81E050FE4FED83FE83E881E150E883B3
:10114A0071F7E0E0F0E0FA93EA93ADEF9ADDE03070
:10115A0011F4E1E0E88329DDE881E03011F0E1E013
:10116A0001C0E0E028960895BA93AA9360970E9476
:10117A00F920EF89E03011F0E4E087C1E091050F32
:10118A00E17011F0E3E081C101E0EE89E03031F471
:10119A002898F2DCEF3F09F400E075C1E13009F06C
:1011AA005FC0E9E4EA93A0E0B0E080E090E0ACDD63
:1011BA00E03049F4FE013496FA93EA93A0E1B0E0F4
:1011CA00FBDCE03009F44BC0EC81E295EF70E69568
:1011DA00E695E13079F4E0E0FC85AD85B0E0EA0F10
:1011EA00FB1F31961E2F2F2FA12FB22F8827992749
:1011FA00EAE02EC0E985EF70AE2FEE85E078EE1FAB
:10120A00E0E0EE1FAE0FED85E370EE0FEA0FEE5F42
:10121A003E2FEC85E295EF70E695E695AE2FEB85CD
:10122A00F0E00E94E01FB0E0AE0FBF1FEA85E37056
:10123A00F0E00E94E01FFE2FE0E0EA0FFB1F31966C
:10124A001E2F2F2FA12FB22F88279927E32FE9507E
:10125A000E94C41FAC89BD890E94A92000E013C165
:10126A00E23041F4AC89BD89E0E0F2E0ED93FC9311
:10127A0000E009C1E33009F0ABC0E091080FE47067
:10128A0081F1EDECEA93A0E0B0E080E090E03CDD93
:10129A00E03031F5EFEFEEBDEDB5E7FFFDCFFE0132
:1012AA003496FA93EA93A0E1B0E086DCE030C1F02C
:1012BA0030E3303039F0EFEFEEBDEDB5E7FFFDCFAB
:1012CA003150F7CFEE85E295EF70A0E1B0E080E013
:1012DA0090E00E94C41FAC89BD890E94A92000E049
:1012EA0076C0E9E4EA93A0E0B0E080E090E00CDDAB
:1012FA00E03009F06CC0FE013496FA93EA93A0E15B
:10130A00B0E05ADCE03009F462C0E091080FE27004
:10131A0051F1EE85EF73FF27662777270E94EE1FAC
:10132A007F936F93FF93EF93EF85E078FF2766270C
:10133A007727DF01CB01E7E00E94D01FAF91BF9171
:10134A008F919F910E94A71FEF5FFF4F6F4F7F4FB3
:10135A00DF01CB01E989E295EF70E695E695E15068
:10136A000E94C41F2FC0EE85EC77E695E695FF270D
:10137A0066277727EF5FFF4F6F4F7F4F7F936F93FC
:10138A00FF93EF93EF85E370FF2766277727DF0147
:10139A00CB01E3E00E94C41FDF01CB01EF85E07EB1
:1013AA00E295EF70E695FF27662777270E94A71F29
:1013BA00EF5FFF4F6F4F7F4FAF91BF918F919F911B
:1013CA000E941620AC89BD890E94A92000E05BC05A
:1013DA00EA3039F4E091080FAC89BD89EC9300E05A
:1013EA0052C0EB3011F439E403C0EC3001F53AE4B1
:1013FA003A93A0E0B0E080E090E086DCE030B1F41F
:10140A00EC89FD89FA93EA93A0E1B0E0D5DBE030FC
:10141A0069F0EC89FD89FA93EA93AFE090DBAE2F8D
:10142A00EC89FD89E785EA1709F400E02CC0ED3064
:10143A0071F4EAE7EA93A0E0B0E080E090E064DCCF
:10144A00E03021F4AC89BD89C2DC00E01CC0EE307A
:10145A00C9F4EDECEA93A0E0B0E080E090E054DC5F
:10146A00E03079F4EFEFEEBDEDB5E7FFFDCFEC89A3
:10147A00FD89FA93EA93A0E4B0E09EDBE03009F03C
:10148A0000E001C004E091DBE02F0E940021689691
:10149A0008950A930091060F003019F00150009345
:1014AA00060F0091070F003019F001500093070F43
:1014BA000091090FE0E0E093090F1C9903C0E1E0F5
:1014CA00E093090F1D9B05C0E091090FE260E093CC
:1014DA00090FE091090FE01781F40091050FE170FF
:1014EA0011F00D7F01C00360E091090FE27011F065
:1014FA00046001C00B7F0093050F09910895279797
:10150A00A0910C09B0910D09109731F0A0910E0924
:10151A00B0910F09109729F4E0E0F0E061E27AE374
:10152A006DC0FE013696FA93EA93FE013796FA9356
:10153A00EA93DE011896E0910C09F0910D090995DC
:10154A00FE013396FA93EA93FE013496FA93EA93EC
:10155A00DE011496E0910E09F0910F090995E881D0
:10156A00F981EC5BF74066277727DF01CB01E9E1D8
:10157A000E94C41F7F936F93FF93EF93EA810E94A7
:10158A00B11BE5E10E94C41FAF91BF918F919F915A
:10159A000E94BB1FDF01CB01EB81F0E00E94FD1F1F
:1015AA000E94F81F0E94BB1F7F936F93FF93EF93D4
:1015BA00EE810E94B11BEBE00E94C41FAF91BF9164
:1015CA008F919F910E94BB1F7F936F93FF93EF931D
:1015DA00ED810E94B11BE5E00E94C41FAF91BF914B
:1015EA008F919F910E94BB1FDF01CB01EC81F0E03C
:1015FA00F595E7950E94FD1F0E94BB1F2796089547
:10160A00AA930A930E94B71B6BBFE6910E2FE03094
:10161A0019F0E981E01709F405C0DE0112960E946B
:10162A00BC1BF0CFE02FF0E00881269608950E94B7
:10163A00D12024970A93A985BA859E960E949E2056
:10164A000E94C91B0E94CE1B0E94D31B0E94ED2040
:10165A0009F452C0E985FA85E481E03089F10E94F3
:10166A00D81BE03011F0E1E027C2A985BA851496AB
:10167A00E0E0EC93E985FA850E94EA1B0D01A98551
:10168A00BA855A960E949E20D0010E94A71F0E94E6
:10169A00D31B0E94F220A0F4E985FA850381023067
:1016AA0078F0A985BA855A960E949E200E94D31B7B
:1016BA000E94A71F0E94C91B0E94D81B0150EFCF8E
:1016CA000E94CE1B0E94E320B9F0E985FA85A18128
:1016DA00AA93EA85FB85F296FA93EA930E94EF1B96
:1016EA000E94F41B11F0E1E0E7C10E94CE1BA9851C
:1016FA00BA859E960E94A920E0E0DEC1BA93AA9319
:10170A000A93E981FA810E94FB1B0E2F003009F02F
:10171A005BC0A981BA81AC91A33029F4E981FA812D
:10172A00E581E03009F444C0A981BA810E94031C12
:10173A00E981FA810E940B1CE981FA81F296E25052
:10174A00FE4FA5E5BAEAA083B183E981FA81F29650
:10175A00A2E5B2E581E691E40E94141CEC51FE4F29
:10176A00A2E7B2E781E491E60E94141CE851FE4F19
:10177A000F01A981BA811E960E941A1CF296E451A1
:10178A00FE4F0F01A981BA811A960E941A1CA181E3
:10179A00AA93EA81FB81F296FA93EA93EC81FD819E
:1017AA000E94221C6ADCA981BA811596E0E0EC93BA
:1017BA00E981FA81A181AA93E0E0EA93A0E0B0E08E
:1017CA00D3DCE03009F001E0E02F08812396089588
:1017DA000E94D12024970E94F9200E942A1C0E946C
:1017EA002F1C50F0AC85BD855E960E949E200E94FB
:1017FA002A1C0E94F22018F00E94371C60C0AC8597
:10180A00BD8592960E943C1CAC85BD85EC91F0E0AA
:10181A00E130A0E0FA0739F528853985F901F6950E
:10182A00E7952E0F3F1F0E94431C09F046C00E94F5
:10183A00581C0C9111272F5F3F4F0E94431CE9F55A
:10184A000E94581CEC91FE2FE0E00E2B1F2BE8851E
:10185A00E17021F0F8010E94E51F02C0F801FF7053
:10186A00662777272CC0E230A0E0FA0779F40E94B5
:10187A00601C0E94691C0E94701CF9F4A885B98535
:10188A00E2E00E947A1C0E94831C19C0E330A0E0A7
:10189A00FA0799F40E94601C0E94881C0E94701C1E
:1018AA0061F4A885B985E4E00E947A1C0E949E2012
:1018BA00EF7FFF7F6F7F7F7002C00E948F1C0E94A4
:1018CA0000212E9608950E94D12024970E94F82084
:1018DA000E94941C0E942F1C50F0A989BA895E9616
:1018EA000E949E200E94941C0E94F22010F042E066
:1018FA0085C0A989BA8992960E949E20ED83FE83AB
:10190A006F837887A989BA89EC91F0E0E130A0E089
:10191A00FA0709F043C00D851E85F801F695E7958B
:10192A000E0F1F1F0E94991C09F063C00E94AF1C72
:10193A0051F0D901EC91EF70AE2FE985F0E00E94E9
:10194A00DC1FEA2B01C0E985D901EC930F5F1F4F19
:10195A00A989BA891496E1E0EC930E94991C09F0CE
:10196A0048C00E94AF1C49F00E94BA1CE4E00E94E1
:10197A00D01FFF27662777270EC0D901EC91E07F99
:10198A001E2E0E94BA1CE8E00E94D01FFF2766277D
:10199A007727EF70E129D901EC932BC0E230A0E060
:1019AA00FA0789F40E94BF1C0E94691C0E94C81C85
:1019BA0001F5AD85BE85E2E00E94D31CA985BA85F2
:1019CA00A083B18316C0E330A0E0FA0789F40E942D
:1019DA00BF1C0E94881C0E94C81C59F4AD85BE8594
:1019EA00E4E00E94D31C0E94BA1C0E94C72001C0D6
:1019FA0042E0A989BA891496E1E0EC93E42F0E94A7
:101A0A00FF20639608950E94D12024970A930E948A
:101A1A00DC1C0E942F1C18F00E94E11C10F002E04E
:101A2A004AC000E00E94E11C08F045C0E985FA8539
:101A3A00FA93EA93AF81B88589859A85C9DE0E94AF
:101A4A00C91BE981FA816B817C810E94E32099F1AB
:101A5A000E94D31B0E94EA1C11F402E02CC00E94CF
:101A6A00D31B0E94F21C11F401E025C0E985FA8516
:101A7A00FA93EA930E94FA1C0E94CC200E94FF1C4F
:101A8A0022DF0E2F0030B9F4E985FA850E94041D81
:101A9A0049F0A985BA850E94091DA985BA851596B6
:101AAA00E1E0EC93E981FA816B817C81ED83FE832D
:101ABA006F837887B7CFE02F08812B9608950E940D
:101ACA00D1206097AC89BD895E960E949E200E94B3
:101ADA00131D0E94161D0E94E320B1F4AC89BD8932
:101AEA001A960E943C1C0E941B1D0E94E72039F096
:101AFA000E94201D0E941B1D0E94F22020F00E94BD
:101B0A00371C0E94231D1EC00E94281DAA89BB895A
:101B1A008C899D890E942D1D0E94341D0E942F1CB4
:101B2A0018F40E94371C90C00E94201D0E94341D88
:101B3A000E94F22018F40E94391D86C00E94161DC8
:101B4A000E94231D0E943E1D0E94431D0E94EF1BFE
:101B5A00EF5FFF4F6F4F7F4F0E94431D0E94201D72
:101B6A000E942A1C0E94F22060F0E2E0F0E060E0AD
:101B7A0070E00E94431D0E94481D18F40E944D1DEA
:101B8A0063C00E94281DAA85BB858C859D850E94FD
:101B9A002D1D0E94391D0E94E320A1F00E94341DD0
:101BAA000E94F21C29F00E94341D0E94EA1C19F4BA
:101BBA000E94391D49C00E94481D19F40E944D1DFA
:101BCA0043C0C4CF0E94281D0E94521DAFEFBFEF31
:101BDA008FEF9FE078DEE03019F00E948F1C34C04E
:101BEA000E94161D0E94E32091F00E94281DEA8996
:101BFA00FB896C897D890E94CC20AE85BF85888946
:101C0A00998961DEE03019F00E948F1C1DC00E9484
:101C1A00EF1BAC89BD891A960E94A920EC89FD891F
:101C2A000E94041D79F0AC89BD891E960E94A420E9
:101C3A003197604070400E94AE20AC89BD891596EC
:101C4A00E1E0EC930E94EF1B669608950E94D12072
:101C5A000E94201DE250F040604070400E94131D17
:101C6A00EC81FD81A68DB78D80A191A1E2E0F0E023
:101C7A0060E070E00E94591D0E94BD200E94F2207F
:101C8A0018F00E944D1D72C3EC81FD81E281F0E0E3
:101C9A000E94BD200E94FD1F0E9416207F936F9311
:101CAA00FF93EF93AC81BD819A960E949E20AF91DB
:101CBA00BF918F919F910E94A71F58C3BA93AA936D
:101CCA0024971A930A93EE81FF810E945E1D16964D
:101CDA000E94661D0E946D1D0E94EA1C29F00E9446
:101CEA00721D0E94771D20F0E2E01981088163C10C
:101CFA000E94B71B0E94E32029F40E94721DA08152
:101D0A00A33009F006C00E94721DB696DF010E9438
:101D1A00661D0E94B71B0E94E320B1F40E947F1D3A
:101D2A003896DF010E949A20AE81BF81AE17BF07A5
:101D3A0020F0E2E0198108813EC10E94721DB69628
:101D4A00DF010E949E203BC00E94721DE281A0E139
:101D5A00EA9F8001AE81BF81A017B10748F10E94B6
:101D6A00721DFA93EA930E941B1D32DDEA83FB83FC
:101D7A006C837D830E946D1D0E94F21C21F4E1E0B8
:101D8A001981088118C10E946D1D0E942F1C28F01C
:101D9A000E94721D0E94771D20F0E2E019810881DD
:101DAA000AC1EE81FF81E01BF10BEE83FF83D2CFE4
:101DBA000E947F1DFA93EA930E941B1D47DFDF01F1
:101DCA00CB01EE81FF810E94E51F0E94861D0E94C1
:101DDA008B1D0E94721DF296DF01EE81FF810E9427
:101DEA00911D19810881E7C0AA9324970E94FA20BD
:101DFA00A885B98514960E949A2031968F01002EE3
:101E0A00012A31F0A885B9851E960E949F1D11F4FA
:101E1A00E4E0CFC0F801EF7009F0C1C0A885B98528
:101E2A000E94091DA885B9851A960E949F1D61F412
:101E3A000E94721D3896DF010E949A200E171F0712
:101E4A0010F0E4E0B6C0ABC0F8010E94E51F0F0134
:101E5A000E94721DE281F0E03197E021F121309772
:101E6A0009F09DC00E94721D0E94A41DB1DC0E944F
:101E7A00AD1D0E94B21D0E942F1C10F4E2E099C011
:101E8A000E94B21D0E94F21C11F4E1E092C00E946D
:101E9A00721D7E96DF010E949E200E94B21D0E9442
:101EAA00F22008F46DC0EF81E03011F4E4E081C063
:101EBA000E94721D0E94A41D02DE0E94B71D0E948C
:101ECA00E32011F4E7E075C00E94B21D0E94EA1CEB
:101EDA0011F4E2E06EC00E94B21D0E94F21C11F4DD
:101EEA00E1E067C00E94721D0E94FB1BE03011F006
:101EFA00E1E05FC00E94721D0E940B1C0E94721DCD
:101F0A00DF01BE96FF93EF93FD010E94BD1DAF91C5
:101F1A00BF910E94A92020E00E94721DE2812E1723
:101F2A00D8F40E94721D3496A1E0A0830E94721D0B
:101F3A000E94FB1BE03011F0E1E03BC00E94721DE1
:101F4A00BE96DF010E94A420EF5FFF4F6F4F7F4FC5
:101F5A000E94AE202F5FE0CF0E94721DBE96FF93B3
:101F6A00EF93DF010E949E20DF01CB01E22FF0E018
:101F7A000E94FD1F0E94591DAF91BF910E94A92086
:101F8A00EB81FC816D817E81A885B9851A960E94B4
:101F9A00A9200E94721D0E94BD1D0E948B1DF8017E
:101FAA000E945E1D0E949A20F296DF01F8010E94AB
:101FBA00911D0E9401212A9608950E94C21D21F0B6
:101FCA00E02F0E940021D2C10E94D11D01F5AC81EF
:101FDA00BD8152962D913C91D9011C91103011F47A
:101FEA0004E015C0F901E385E87031F40E94E21DAE
:101FFA000E94A91AE03009F001C009C0EC81FD81F4
:10200A00FA93EA93A0E0F0DE0E2F0030E9F2E02F17
:10201A000E940021ABC10E94C21DB1F40E94D11DD1
:10202A0099F4EC81FD81A289B3891C91153E11F0C6
:10203A00103009F409C0EC81FD81FA93EA93A1E01A
:10204A00D3DE0E2F003051F3003029F50E94D11D46
:10205A0011F5AC81BD8152962D913C913A932A9308
:10206A00E0E0EA93A0E2B0E00E94D41A0E94E21DE6
:10207A000E94C21AAC81BD8154960E949A20E385BF
:10208A00E871D9011C96EC93AC81BD810E949A201B
:10209A003496A1E0A083E02F0E94002167C1BA9381
:1020AA00AA9325970E94F720AD85BE8554963D9147
:1020BA004C914A933A93E0E2EA93ABE0B0E00E9493
:1020CA00D41AE0E0E887E9870E2F5E2FE8E0EA8776
:1020DA00AB85BC850E94ED1D0E94F21DAE0FBF1F8D
:1020EA00AC91AE3211F50E94F71D1E3221F4A8857B
:1020FA00B98513970CF003C00E94031EF4CF1F3258
:10210A0021F01C3511F0113208F402C0E6E073C068
:10211A000E94F21D0E940A1E10F4E4E201C0E0E2ED
:10212A00A32FB42F1B96EC9365C00E94F71D1132A2
:10213A0020F01F3211F01C3509F434C01E3219F098
:10214A00EA855E1768F0AA85A83011F41E3211F0EC
:10215A00E6E051C058E0EBE0EA87000F000F21C02B
:10216A00103818F00360E6E046C0E0E1F1E060E014
:10217A0070E00E94CC20A12F43DA309711F0E6E0FC
:10218A003AC0113410F01B3508F002C0026007C0D3
:10219A00113610F01B3708F002C0016010520E947D
:1021AA00031EC3CF0E94F21D0E940A1E10F4E4E02F
:1021BA0001C0E0E01E2F503011F4E6E01CC0A32F4E
:1021CA00B42FAC91A53E21F4A32FB42FE5E0EC93F4
:1021DA00AA85A83011F4000F000FE02FE370E13058
:1021EA0009F41061E02FEC70E43009F41860E32F71
:1021FA00F42F1387E0E00E94FE202F960895BA93E9
:10220A00AA930E94F920E1E0E03029F0AC81BD8177
:10221A00AC91A03209F006C0EC81FD813196EC83C5
:10222A00FD83F1CFAC81BD81AC91AF3229F0AC8195
:10223A00BD81AC91AC3559F4EC81FD813196EC83CA
:10224A00FD83AE81BF8116960E94121E0AC0AE811E
:10225A00BF810E949A207696DF010E949E200E94EA
:10226A00161EAC81BD81AC91BB27909760F40E9489
:10227A001C1EA0E0B0E022DD0E2FAE81BF81529677
:10228A000E94211E3EC00E941C1EDE01169607DF18
:10229A000E2F0030B1F5AE81BF818FDE0E2FAE81D9
:1022AA00BF8154960E949A20E385E4703E2F003045
:1022BA0039F0043011F4303009F001C005E021C0D2
:1022CA003030F9F4AE81BF8152961D912C91E12FE5
:1022DA00F22FE385E07111F405E013C00E94261E77
:1022EA000E94F81F7F936F93FF93EF930E942A1E19
:1022FA00AF91BF918F919F910E94301E0E94161E2E
:10230A00C2CFE02F0E940021289608950E94D12072
:10231A00EC81FD81A181AA93ED81FE81F296FA9367
:10232A00EA93EB81FC816D817E810E94F41B11F09E
:10233A00E3E01CC0EC81FD810E94351E11F0E2E051
:10234A0015C0AC81BD81A859BF4F0E943F1E11F430
:10235A00E0E00CC0EC81FD81F296EE5AFF4FDF01FE
:10236A000E943F1E11F4E0E001C0E1E026960895C4
:10237A00AA9364970E94F820AC8DBD8D0E949A2082
:10238A00EF83F887AF81B885EC91E0533E2F3A305E
:10239A0020F41196AC91AA3309F00AC0EF81F885AE
:1023AA003296EF83F887AC8DBD8DED93FC9302C016
:1023BA0030910E0F313010F0EBE0CCC1E32F0E94C8
:1023CA004D1E0E949A20ED83FE83AA8DBB8DED934C
:1023DA00FC93309711F4ECE0BDC1AD81BE81EC9164
:1023EA00E03089F0ED81FE81A1810E94D4074E2F51
:1023FA0040FD09C0E98DE03011F042FD01C002C084
:10240A00EAE0A8C1A6C1AD81BE81E0E0EC93E32F6A
:10241A00AD81BE811196EC93ED81FE81A1810E946E
:10242A0000074E2F40FF02C0E3E094C1E98DE0307F
:10243A0011F042FD01C002C0EAE08CC10E94551EA3
:10244A000E944D1DEF8BF88F698F7A8FDF01CB01C8
:10245A005DDF0E2F0130D9F4ED81FE81F296E25450
:10246A00FE4F1E2F2F2FE481E03089F0A12FB22FCB
:10247A0018960E949E20ED8BFE8B6F8B788F0E94A0
:10248A00551EAF89B88D898D9A8D40DF0E2F033086
:10249A0011F4E1E05FC1003049F4AD81BE81DD96FF
:1024AA000E949A20E030A2E0FA0711F0EDE052C152
:1024BA00AD81BE81A85BBF4F0E94831C0E945A1E39
:1024CA000E945F1E0E94E32041F4AD81BE81AA5A98
:1024DA00BF4F0E949E200E945A1E0E945F1EAD811D
:1024EA00BE815A960E94A920ED81FE81EE5BFF4FC4
:1024FA00E081AD81BE811396EC93ED81FE81E3818B
:10250A00F0E0A989BA898B899C890E94FD1F0E94E3
:10251A0016200E945A1E0E94641E0E946B1EAD81E4
:10252A00BE8192960E94A920ED81FE81E7ADAD8120
:10253A00BE811296EC93AD81BE81AD5BBF4F0E9406
:10254A009A20AD81BE811896ED93FC93AD81BE8130
:10255A00AB5BBF4F0E94831CED87FE876F87788B2A
:10256A000E94E32051F4AD81BE81AE5ABF4F0E9452
:10257A009E20ED87FE876F87788B0E94641E0E94DB
:10258A00941C662777270E94591DA989BA898B89C5
:10259A009C890E94B11F7F936F93FF93EF930E94D0
:1025AA00701EAF91BF918F919F91662777270E94E6
:1025BA00B61FED81FE81E281F0E00E94FD1F0E94BC
:1025CA005920EE5FFF4F6F4F7F4FE987FA876B877E
:1025DA007C87AD81BE815E960E94A92001E00E949F
:1025EA00BA1CA73FEFE0BE07E0E08E07E0E09E07D7
:1025FA0008F002E00E94BA1CA73FEFEFBE07E0E036
:10260A008E07E0E09E0708F003E0033039F4AD815D
:10261A00BE81A25ABF4F0E949E2002C00E94781E0D
:10262A00AD81BE8196960E94A9200E94781E7F9352
:10263A006F93FF93EF930E94701EAF91BF918F919A
:10264A009F910E94861DAD81BE819A960E94A92003
:10265A00AD81BE811E960E948F1C0E94A920AD8169
:10266A00BE811496E0E0EC93033009F05FC0AD81BF
:10267A00BE811596EC93AD81BE81AE59BF4F0E94C3
:10268A009A200E946B1EAD81BE8152960E94A9209B
:10269A00ED81FE81A181AA93EE81FF81F296FA93E0
:1026AA00EA93E885F9850E94221C0E94DE07E03041
:1026BA0011F5ED81FE810E94351EE9F4AD81BE81DE
:1026CA00D2960E949E20E235A2E5FA07A1E66A07A1
:1026DA00A1E47A0781F4ED81FE81F296EC51FE4F76
:1026EA00DF010E949E20E237A2E7FA07A1E46A0707
:1026FA00A1E67A0709F01AC0ED81FE81F296E4514B
:10270A00FE4FDF010E949E20AD81BE811A960E9473
:10271A00A920ED81FE81F296E851FE4FDF010E9469
:10272A009E20AD81BE811E960E94A920AD81BE81E8
:10273A000C930E94031CAD81BE8156960E94121E04
:10274A00ACE0BFE00E947F1EAD81BE811696ED937C
:10275A00FC93E0E00E94FF206E960895BA93AA9334
:10276A00EA81FB81309771F0AA81BB81EC91E0305C
:10277A0049F0EA81FB81A681B781E881F981EA17EC
:10278A00FB0711F0E9E00AC0EA81FB81A1810E94FE
:10279A00D407E17011F0E3E001C0E0E02496089567
:1027AA000E94551BAC81A13010F0EBE020C0EC81F7
:1027BA000E944D1E0D911C91002E012A19F0D8017C
:1027CA00E0E0EC93EA81FB81309721F0AA81BB819A
:1027DA00E0E0EC93EC81AAE0BFE0F0E0EE0FFF1F2F
:1027EA00EA0FFB1FAA81BB81A083B183E0E01981B4
:1027FA00088125960895AA93A2970E94FA20A8A56F
:10280A00B9A50E94211EEDA1EF71EDA3FE01B696B6
:10281A00FA93EA93FE017196FA93EA93E9A5EE71A7
:10282A00AE2FA6DD0E2F003009F01CC1FE01339633
:10283A00EBA3FCA3FE013F96FA93EA93A8A5B9A5D8
:10284A00DEDC0E2FEDA1EC7109F49CC02897003054
:10285A0089F0043021F4DE015796DDDB0E2F0030BB
:10286A0019F0E02F2896FEC0EDA5E860EDA719A59E
:10287A002AA56BC0EDA5E47019F0E8E02896F2C02D
:10288A0019A52AA5012E022A29F0E12FF22FE385A4
:10289A00E17119F0E7E02896E5C0EDA5E87009F4C2
:1028AA0054C00E94261E0E94F81F7F936F93FF93C5
:1028BA00EF930E942A1EAF91BF918F919F910E9420
:1028CA00301E0E94131DE12FF22F74960E94851E5E
:1028DA007A960E94851E7C960E94FF1C0E94C72041
:1028EA00AF89B88D1496E1E0EC93AF89B88D9E96C6
:1028FA000E943C1C0E94201D0E94E320B9F0EF892F
:10290A00F88DFA93EA930E946D1D7DD80E2F003040
:10291A0011F02896A7C00E94201DE150F0406040A7
:10292A007040AF89B88D1A960E94A920EF89F88D58
:10293A00FA93EA93AE81BF81888599850E941C0B20
:10294A000E2F003011F028968DC0EDA5E870C1F069
:10295A00E12FF22F3B96A0E0A0830E94840A0E94F6
:10296A00231D0E943E1DA12FB22F1E960E94A92050
:10297A00AF89B88D1496E1E0EC93EDA5E062EDA77E
:10298A0028961BC0003011F0E02F6CC019A12AA1B3
:10299A00012E022A29F0E12FF22FE385E07111F0CE
:1029AA00E4E060C0EDA1E27029F0E12FF22FE385A7
:1029BA00E17009F402C0E7E055C0AF85B8899E9678
:1029CA000E949E20A8A5B9A55A960E94A920E9A10D
:1029DA00FAA1A8A5B9A55E96ED93FC93EDA1A8A5C9
:1029EA00B9A51496EC930E94261E0E94F81F7F93A5
:1029FA006F93FF93EF930E942A1EAF91BF918F911D
:102A0A009F910E94301EA8A5B9A51E960E94A920D2
:102A1A00A12FB22F5C960E949E20A8A5B9A51A964E
:102A2A000E94A920A8A5B9A516960E94121EA8A5BB
:102A3A00B9A51596EFEFEC93A8A5B9A556960E94ED
:102A4A00121EEF85F889A8A5B9A5ED93FC93AF8569
:102A5A00B88916960E949A20A8A5B9A51296ED9350
:102A6A00FC93E0E00E940121AA960895BA93AA93E2
:102A7A002E970E94F820EF89F88DED83FE83AB89AB
:102A8A00BC890E94211E0E948C1E0E94911E0E94D7
:102A9A00961E11F0E02F51C1E98DFA8DA481A0781C
:102AAA0011F0E2E04AC1E98DFA8DA481A17011F416
:102ABA00E7E043C1E98DFA8DA285B38584859585C2
:102ACA009F938F93BF93AF930E949D1EEF91FF91A7
:102ADA006F917F910E94B11F0E94A41EAD89BE8989
:102AEA00882799270E94ED2020F4EF81F885ED8B45
:102AFA00FE8BED89FE89309709F41EC10E949D1E46
:102B0A00FD01BC01F170309709F0E8C0E98DFA8D3A
:102B1A0005800E948C1EE2810E16D8F10E949D1E2D
:102B2A000E94E72031F4A98DBA8D1E960E949E203C
:102B3A0008C00E948C1E0E94911E0E94A91E0E941B
:102B4A00ED0BEF87F88B698B7A8BAF85B88989890A
:102B5A009A890E942F1C20F40E94AE1EE2E0EDC06A
:102B6A00AF85B88989899A890E94F21C21F40E944A
:102B7A00AE1EE1E0E2C0EF85F88969897A89A98DFC
:102B8A00BA8D52960E94A920A98DBA8D1596E0E0B9
:102B9A00EC930E948C1E0E94911E0E94A91E56D878
:102BAA000E94B51E0E94BA1E0E94E32021F40E94D0
:102BBA00AE1EE2E0C2C00E94BF1E0E94C41E0E9456
:102BCA00FD1F0E94A71F0E94B51EAD89BE890E94E3
:102BDA00C91E09F44CC00E94BF1EE30FF41F0F0167
:102BEA000E948C1EE281D001F0E0EA17FB0758F43C
:102BFA000E948C1EE281F0E0DF010E94BF1EAE1B24
:102C0A00BF0B3A2F4B2F0E948C1EE181EA930E9440
:102C1A001C1EEE85FF85688979890E94CC20A32F26
:102C2A000E94DE07E03021F00E94AE1EE1E085C07E
:102C3A00E98DFA8DA481A07429F00E94D21E0E9407
:102C4A00D91E08F00FC00E94D21E0E94E21EAD815A
:102C5A00BE8188279927EA0FFB1F0E94911EB09612
:102C6A000E94EB1EA98DBA8D0E94F11E51C0E98DFA
:102C7A00FA8DA481A07489F00E948C1E0E94FE1E07
:102C8A00EC8DFD8D0E94061F21F00E94AE1EE1E030
:102C9A0054C0A98DBA8D0E94111F0E94D21E0E9493
:102CAA00ED2079F00E948C1E0E94FE1EEE85FF85A3
:102CBA00688979890E94F41B21F00E94AE1EE1E026
:102CCA003CC00E94BA1EA98DBA8D56960E94A920B0
:102CDA00A98DBA8D1596EC91EF5FEC93A98DBA8DFB
:102CEA000E94161F0E941B1FED89FE89E117F20739
:102CFA0010F41D892E890E94551EAB8DBC8D0E9431
:102D0A00161FAB8DBC8D9096EA0FFB1F0E94221FE7
:102D1A000E94281FE98DFA8D0E94311FD0010E945E
:102D2A00A920AB89BC890E943B1FED89FE89E11B62
:102D3A00F20BED8BFE8BDDCEE0E00E94FF206B965E
:102D4A000895BA93AA932A970E94F820EB89FC89DE
:102D5A00ED83FE83AF85B8890E94211E0E94421F1F
:102D6A000E94471F0E94961E11F0E02F92C1ED8922
:102D7A00FE89A481A07811F0E2E08BC1ED89FE8979
:102D8A00A481A27011F4E7E084C1ED89FE89A285CD
:102D9A00B38584859585E989FA890E94861D7F9382
:102DAA006F93FF93EF930E944C1FAF91BF918F9146
:102DBA009F910E94F22018F4E0E0E98BEA8BE989FE
:102DCA00FA89309709F44BC10E94521FFD01BC01D8
:102DDA00F170309709F00DC1ED89FE8905800E94D6
:102DEA00421FE2810E1608F450C0AD89BE891696BC
:102DFA000E949F1DE1F4AD89BE891E960E949E2005
:102E0A000E94B51E0E94BA1E0E94E32079F40E9415
:102E1A00421FFA93EA930E94FF1C0E94640D0E94CB
:102E2A00B51EAD89BE891E960E94A9200AC00E94BD
:102E3A00421F0E94471F0E94A91E0E94640D0E9401
:102E4A00B51E0E94BA1E0E94E32009F408C10E941E
:102E5A00C41E0E94EA1C21F40E94591FE2E019C113
:102E6A000E94C41E0E94F21C21F40E94591FE1E034
:102E7A0010C10E94BA1EAD89BE8952960E94A9202D
:102E8A00AD89BE891596E0E0EC93ED89FE89A481AF
:102E9A00A07489F00E94421F0E94601FE88DF98D7C
:102EAA000E94061F21F00E94591FE1E0F2C0AD897D
:102EBA00BE890E94111F0E94421F0E94471F0E9442
:102ECA00A91E0E942B0E0E94A41E0E94E32021F438
:102EDA000E94591FE2E0DDC00E94681FAF81B885D9
:102EEA0089859A850E94FD1F0E94A71FEF83F88794
:102EFA0069877A87A989BA890E94C91E09F44EC0CE
:102F0A000E94681FE30FF41F0F010E94421FE28113
:102F1A00D001F0E0EA17FB0758F40E94421FE28151
:102F2A00F0E0DF010E94681FAE1BBF0B3A2F4B2F48
:102F3A000E94421FE181EA930E941C1E0E94521DB8
:102F4A00A32F0E944208E03021F00E94591FE1E0BD
:102F5A00A0C00E946D1F0E94D91ED8F4ED89FE8977
:102F6A00B0960E94471FA689B789808D918DE98501
:102F7A00FA856B857C850E94E21EAF81B885882719
:102F8A009927EA0FFB1F0E94EB1EAD89BE890E949A
:102F9A00111FAD89BE890E94F11E4DC00E946D1F8E
:102FAA000E94ED20C9F00E94521F0D010E944C1F81
:102FBA00D0010E94F22058F40E94421F0E94601F12
:102FCA00EA85FB856C857D850E94F41B09F404C0A3
:102FDA000E94591FE1E05DC00E94FA1CAD89BE89BA
:102FEA0056960E94A920AD89BE891596EC91EF5F8D
:102FFA00EC93AD89BE890E94161F0E941B1FE989A6
:10300A00FA89E117F20710F419892A89AD89BE896C
:10301A000E94161FAD89BE899096EA0FFB1FFA938C
:10302A00EA93EF81F8850E94221FAD89BE89149622
:10303A00EC91E064EC930E94281FED89FE890E94BE
:10304A00311FD0010E94A920AF85B8890E943B1F79
:10305A00E989FA89E11BF20BE98BFA8BB0CE0E945F
:10306A00521F0D010E944C1FD0010E94ED2050F406
:10307A00AD89BE8916960E949E20AD89BE891A9690
:10308A000E94A920AD89BE891496EC91E062EC9366
:10309A00E0E00E94FF2067960895BA93AA932497C6
:1030AA000E94FA200E94741FFA93EA93E985FA852E
:1030BA000E94961E09F075C0EF81F885A481A0725E
:1030CA0009F46FC0A481A074A1F00E94741FE18169
:1030DA00EA93E885F985B096FA93EA93EA85FB853F
:1030EA000E94061F11F0E1E05DC0AF81B8850E9421
:1030FA00111F0E94741FFA93EA93E985FA85A28D3B
:10310A00B38D848D958D0E941C0B0E2F003009F013
:10311A0048C0AF81B8855E961D912C91A12FB22F20
:10312A001B96EC91E062EC93AF81B8851A960E94E7
:10313A009E20A12FB22F5C960E94A920AF81B8854C
:10314A001E960E949A20A12FB22F5A96ED93FC93B5
:10315A00EF81F885A685B78580899189FD01BC0133
:10316A000E94F31FA12FB22F5496ED93FC930E9455
:10317A00840A0E94B71DA12FB22F56960E94A92039
:10318A00AF81B8851496EC91EF7DEC930E94741F81
:10319A003496A1E0A0830E94741FDF010E94830B72
:1031AA000E2FE02F0E94012129960895BA93AA931F
:1031BA000A93A981BA8171DF0E2F003021F4A98107
:1031CA00BA810E94211EE02F0881239608950E9449
:1031DA00551BAA81BB8112960E949A20309729F129
:1031EA00AA81BB8114960E949A208F01309761F0C0
:1031FA000230E0E01E0780F0F80131978F01AA81C2
:10320A00BB811496ED93FC93AA81BB8112960E940E
:10321A007F1E3197AC81A083AA81BB810E949A202C
:10322A00FF2312F00E947F1E06C0AA81BB81EFEF26
:10323A00FFEFED93FC93198108810C94E21ABA937B
:10324A00AA9328970E94F72000E0AE85BF850E94C6
:10325A00211EDE0154960E94BC1B6BBFE6913E2FD5
:10326A00E03009F42FC1E02FE03039F4353211F49F
:10327A0001E002C00E94791F24C1E130A9F435326D
:10328A0019F40E94791F1CC102E050E010E03D329F
:10329A0011F411E016C13B3211F45BE212C1303273
:1032AA0011F450E20EC102C0E23039F440E003E00A
:1032BA00303311F4106805C103C0E33009F001C1CD
:1032CA00303310F03A3308F007C0AAE04A9F402D85
:1032DA00E32FE0534E0FF5C0E32FE33649F40E9483
:1032EA00801FEA89FB89A481AA930E94861FE8C0ED
:1032FA00E33769F40E94801FAA89BB8914960E9449
:10330A00ED1DAE81BF810E94E41A0E2F13C0E03773
:10331A00A9F40E94801FAA89BB8914960E949E2044
:10332A000E948C1FAE81BF81888599850E94F01A00
:10333A000E2F186012601F7720E038C0E43611F0B3
:10334A00E93611F4146002C0E53741F4E8E4F1E02B
:10335A0060E070E00E948C1F05E00EC0E83511F4B1
:10336A00186003C0E83709F0ABC0E2E5F1E060E0BD
:10337A0070E00E948C1F04E012FF14C00E94801F9C
:10338A000E94911FAD85AA233AF4EC85FD850E941F
:10339A00C01FEC87FD875DE2503011F00F5F01C05E
:1033AA001B7F04C00E94801F0E94911F10FD11C044
:1033BA00041778F417FF08C012FF04C01B7F352FCB
:1033CA00015001C030E301C030E20E94791F415030
:1033DA00EFCF202F11FF18C02030A9F013FF07C02C
:1033EA00DE0116960E94BC1B6BBF369105C0AE81EA
:1033FA00BF813D91AE83BF830E94791F403009F09F
:10340A0041502150E9CF52C030E3EE81FF816885F7
:10341A0079850E94B320EA87FB87EE81FF81688560
:10342A007985EE5FFF4F6F4F7F4F0E948C1FEA85B1
:10343A00FB85AC85BD85AE17BF0750F03F5FAA85F7
:10344A00BB85EC85FD85EA1BFB0BEC87FD87EFCF7F
:10345A003A3328F013FF02C0395F01C0395D14FD09
:10346A001AC0313320F4AA85BB85119709F409C023
:10347A00421710F010FF01C013C030E217FF0BC053
:10348A0030E3106112FF07C01B7F5A930E94861F08
:10349A00403009F041500E94791F403009F04150F4
:1034AA002150AA85BB85129708F0AECF10FF08C03D
:1034BA00403031F04150E0E2EA930E94861FF8CF93
:1034CA0000E0C7CEAE85BF850E949A200E94FE20EA
:1034DA0068960895FF92F82E26970E94F920DE0139
:1034EA001E960E94A31F0E949A20309719F4EFEFAC
:1034FA00FFEF25C0DE0116960E94A31F8D01DE0193
:10350A001E960E94A31F0E94ED1DE0E0E887E9874E
:10351A00DE011A960E94A31F0E949E200E94CC20C0
:10352A001A930A93ECEEF8E1FA93EA93DE011C96F9
:10353A0086DE9F01AE81BF81E0E0EC93F9010E9433
:10354A0000212A96FF900895BA93AA9366277727AF
:10355A0089919991E991F991A991B991009629F0E6
:10356A0001976D9171916717C9F3671B10F4EFEF1B
:10357A000895E0E009F0E3950895BA93AA93998132
:10358A008881009641F0BD81AC81FB81EA8161911D
:10359A006D930197E1F7FD81EC8126960895BA9320
:1035AA00AA93B981A881109631F0FC81EB816A81D6
:1035BA0061931197E9F7EB81FC8125960895BA93F7
:1035CA00AA93A991B991EE27FF276D91662311F06D
:1035DA003196FBCF08950E94D120AA27BB27E991F3
:1035EA00F991699179916BBF0790002011F01196BA
:1035FA00FBCFFD010895A2E0B0E00C94991F0E9450
:10360A0092010C948F01E981E07F0E2F02950F70D1
:10361A00A02FF5CFE981EF700E2FA02F0E94920103
:10362A00EACFA981BA818B819C81FF2766277727F8
:10363A000E94A71F0895E0E0E0931209E09313099E
:10364A000895A0911209B09113090895A4E1B9E06F
:10365A00EE0FFF1F0895A2E1B9E0ED91FD913196B9
:10366A00FE93EE9308950E94F001E0E0EA93A0E051
:10367A000C94F3010E94C501A8EEB3E00C94991FC3
:10368A00A02FB0E0AA50B14FE02FFF276627772777
:10369A000895E856FF4F6F4F6BBFE691EC9308957C
:1036AA00BA93AA931A930A930895E4E5FCE0FA936D
:1036BA00EA930895FA93EA93E0E4F0E0FA93EA933E
:1036CA00A0E2BAE00895A4E5BCE00C94DB18E4E1BA
:1036DA00FAE0FA93EA930895A091740EB091750EE8
:1036EA000895FADFE4E0F0E008950E945420AECF96
:1036FA000E945420DF01AA0FBB1FAA5EB64F6D912C
:10370A007C91EFCFAE0FBF1F0E949A20DF01FB0111
:10371A00EA1BFB0B08950E943C20DF01E4E0F0E085
:10372A000E9454200895A4E7BEE0ED91FD9108950A
:10373A0088DFE2E1F0E00895EA1BFB0BEA50F14F63
:10374A00E0810895BB270E94B902A091FF0EA03024
:10375A0008950E94B902ECCFF0E00E94FD1FDF013C
:10376A00CB010895EA81FB816C817D8108950E94D5
:10377A00A420EF5FFF4F6F4F7F4F0E94AE20E150B2
:10378A00F040604070400895E983FA836B837C833C
:10379A000895ED81FE816F8178850895A981BA81A6
:1037AA008B819C810895E985FA85A181AA93EA858E
:1037BA00FB85F296FA93EA93EC81FD816E817F8113
:1037CA000E94CC20A1E00C944208A2A1B3A184A13A
:1037DA0095A10895E885F9856A857B8508950E94F3
:1037EA00CC20A1E00E94DE07E0300895FA93EA9324
:1037FA00A0E0B0E080E090E00C941C0B9E96E0E024
:10380A00F0E060E070E00E94A9200895F296FA9331
:10381A00EA93E0E0EA93A0E0B2E00C94D41A0E94A2
:10382A00C720E981FA81F29608950E949E20D0016C
:10383A000E94A920E981FA810895A289B38984891D
:10384A0095890E94D120A1E00895A885B9858A8525
:10385A009B850895A230E0E0BE07E0E08E07E0E035
:10386A009E070895E1E0F0E060E070E008950E94AC
:10387A009E20EC83FD836E837F830895EC85FD850E
:10388A00FA93EA93D901E0E0F2E00E944120AE8186
:10389A00BF8188859985662777270E94AC1F0E9479
:1038AA001C0BE0300895AC85BD85D296F901F17004
:1038BA00AE0FBF1F0895EC85FD85FA93EA93AA859A
:1038CA00BB858C859D850895E0E0F1E060E070E0BD
:1038DA000E9459200895AE81BF81888599850E94EA
:1038EA00AC1F0E941C0BE03008950E943620F17034
:1038FA00AC85BD85D296AE0FBF1F08950E949A204F
:10390A00662777270895E0E8F0E060E070E00E941B
:10391A0059200895EFEFFFEF6FEF7FEF0895AD8520
:10392A00BE858F8598890895E989FA89FA93EA9379
:10393A00D801E0E0F2E00E944120AF81B885898594
:10394A009A85662777270E94AC1F0E941C0B4E2F70
:10395A0040300895A989BA89D296F801F170EA0F20
:10396A00FB1F9F01ED85E1700895A985BA858B85B6
:10397A009C850895E989FA89FA93EA93AF85B8890B
:10398A0089899A890895AF81B88589859A850E941F
:10399A00AC1F0E941C0B4E2F403008950E94362007
:1039AA00F170A989BA89D296EA0FFB1F0895AD81F1
:1039BA00BE818F8198850895A985BA855E960E94F1
:1039CA009E20F5DF0E94F2200895A130E0E0BE07B4
:1039DA00E0E08E07E0E09E070895AF3FEFEFBE07F5
:1039EA00EFEF8E07EFEF9E070895EF81F88569855F
:1039FA007A850895A0E0B0E080E090E00895A68579
:103A0A00B78580899189E9CF1E960E94A420EF5F2D
:103A1A00FF4F6F4F7F4F0E94AE2008950E94C22031
:103A2A000895E889F9896A897B890895AC81BD81FD
:103A3A008E819F8108950E94B8200895EC83FD83AA
:103A4A006E837F830895EC89FD89FA93EA9308953A
:103A5A000E94ED0BEC87FD876E877F870895AC8502
:103A6A00BD858E859F850895EC85FD856E857F854C
:103A7A000895EC81FD816E817F810895E887F98739
:103A8A006A877B870895F5DFE0DE0E94ED200895BE
:103A9A00E0E0F0E060E070E00895EA85FB856C857F
:103AAA007D850E94CC2008950E94D6200E94B11FD5
:103ABA000895A885B9851496ED93FC93A885B985D0
:103ACA0008950E949E20EA83FB836C837D83089578
:103ADA00AA81BB818C819D810895A885B9850E94A0
:103AEA009A2008957E96DF010E949E20F1DF0E94AF
:103AFA00F220089537DEA885B9851A960E94A92072
:103B0A00ECCF662777270E94A71F0895A885B98555
:103B1A001E960E94A9200895EF70F070EE0F0E9481
:103B2A00DC1FEA0FFB1FA885B9855296ED93FC931B
:103B3A00E0E008950E949E200E94E3200895FA93EF
:103B4A00EA93EA85FB85A285B385848595850895E0
:103B5A00EB83FC836D837E830895AB81BC818D8169
:103B6A009E810895F5DFEB81FC816D817E81089548
:103B7A00FA93EA931CDF0C942B0EBA93AA930E9431
:103B8A00F920EC81FD81FA93EA93A0E0B0E00E946B
:103B9A00630E0E2F00300895AC81BD810E949A20D9
:103BAA00FA93EA93EE81FF81A685B7858089918988
:103BBA000E941C0B0E2F003008953A932A93EE812F
:103BCA00FF81A489B589BA93AA93ABE0B0E00895BE
:103BDA000E949A20EE83FF830895E885F985AE81D5
:103BEA00BF810895E885F9853196E887F987319785
:103BFA00AE81BF81AE0FBF1F1C910895E52F5F5F95
:103C0A00F0E0E30FF41F10830895EA0FFB1FAB8562
:103C1A00BC85ED93FC93113208953ADF0E94A920E6
:103C2A000895AE81BF8116960E94A9200895EE815B
:103C3A00FF81FA93EA930895E0E0F0E0ED93FC93B4
:103C4A000895A12FB22F549659CEA12FB22F5A966A
:103C5A000E949A200895662777270E94BB1F08951D
:103C6A00F296E250FE4FDF010E949A20E535AAEA59
:103C7A00FA0708950E949E20EF7FFF7F6F7F707082
:103C8A00E634A1E4FA07A4E56A07A0E07A070895F2
:103C9A00AAE0BFE0F0E0EE0FFF1FAE0FBF1F0895CE
:103CAA00ED81FE81FA93EA930895E98BFA8B6B8B87
:103CBA007C8B0895E989FA896B897C890895AD819D
:103CCA00BE81A05CBF4F0E949A200895AD89BE892B
:103CDA008F89988D16CFED81FE81A085B185FD0172
:103CEA000E94E51F0895ED81FE816FDDE3DF0E94EA
:103CFA00A71F0895ED91FD913196FE93EE930895D5
:103D0A00A0E0B0E0A083B183E12FF22F0895A98D3E
:103D1A00BA8D0E949A200895FA93EA93EB8DFC8D4E
:103D2A000895A281B3810E94B3130E2F0030089523
:103D3A00E98DFA8DA681B781808591850895EF83F3
:103D4A00F88769877A8751CEA289B3898489958948
:103D5A000895A98DBA8D1496EC91E068EC930895B4
:103D6A00EB87FC876D877E870895EB85FC856D85DB
:103D7A007E850895E98DFA8DE581F0E00895AB8599
:103D8A00BC858D859E850895E0E0F2E00E94412081
:103D9A003E2F4F2F032E042A0895E98DFA8DA68906
:103DAA00B789808D918DE1CF0E94B61FE32FF42F42
:103DBA00662777270E94F22008950E94B61FE0E046
:103DCA00F2E060E070E00E9416200895FA93EA9308
:103DDA00A0E0B2E00C94C21A1596EC91E30FEC93B2
:103DEA00E32FF42FEE0FFF1FFE2FE0E01E2F2F2FE1
:103DFA000895E181EA93EA8DFB8DB096FA93EA93EE
:103E0A000895A689B789808D918D0E94D120A1E05D
:103E1A000E944208E03008951496EC91EF7BEC93EF
:103E2A00089516960E949A20F1700895A0E0B2E0D3
:103E3A00AE1BBF0B1A2F2B2F0895FA93EA93A12FCB
:103E4A00B22F0C94C21AE12FF22FAD81BE81EA0F74
:103E5A00FB1FED83FE83089536960F01DF010E9452
:103E6A009E20DF01CB01E12FF22F4BCEED91FD9188
:103E7A00E10FF21FFE93EE930895AD89BE890E9469
:103E8A009A200895FA93EA93EF89F88D0895AD89F7
:103E9A00BE891A960E949E200895ED89FE89A68100
:103EAA00B781808591850895AD89BE891496EC9174
:103EBA00E068EC930895E181EA93EE89FF89B09670
:103ECA00FA93EA930895ED89FE89E581F0E0089571
:103EDA00ED89FE89A689B789808D918D86CDAF81BE
:103EEA00B8850E949A2008953A93AF85B889E989DE
:103EFA00FA8909950895EA89FB893497EA8BFB8B3D
:103F0A000895AF85B889E989FA8909950895EE83F4
:103F1A00FF83688779870895AA89BB8914960E94C6
:103F2A009A20EC87FD870895109639F080EA9FE081
:103F3A000197F1F7A8951197C9F708950024AF0DD5
:103F4A00B01D0895EA0FFB1F681F791F0895AE0F71
:103F5A00BF1F861F971F0895EA1BFB0B680B790B7F
:103F6A000895AE1BBF0B860B970B0895EA2BFB2B0C
:103F7A00682B792B0895F195E195F0400895EE2389
:103F8A000E2EFD01BC0131F0EE0FFF1F661F771FD9
:103F9A000A94D1F70895EE230E2EFD01BC0131F0EB
:103FAA0076956795F795E7950A94D1F70895EE0FF8
:103FBA00FF1FEE0FFF1FEE0FFF1FEE0FFF1F0895EB
:103FCA00F695E795F695E795F695E795F695E795CB
:103FDA000895EE0FFF1F661F771F0895E62FF72F2C
:103FEA0060E070E008956E2F7F2FE0E0F0E0089522
:103FFA006F2F660F660B762F0895EA17FB07E1E02D
:10400A000CF4EE270895AE17BF07E1E00CF4EE2793
:10401A000895FA9FF02DEB9FF00DEA9FE02DF10D28
:10402A0008957A9F702D6B9F700DF89F700DE99F10
:10403A00700D6A9F602D710DFB9F600D711DE89FC9
:10404A00600D711D8827FA9FF02D610D781FEB9F77
:10405A00F00D611D781FEA9FE02DF10D681F781F92
:10406A0008956E2F6A9FF0016B9FF00D08954FD04F
:10407A00D0DF0EF480DF08950024112490E1AA0F06
:10408A00BB1F001C111C0E1A1F0A18F40E0E1F1E4D
:10409A0001C0A1609A9599F7FD01D001089537D022
:1040AA00EBDF0EF468DF08953F934F935F9300248C
:1040BA0011244427552730E2AA0FBB1F881F991FD6
:1040CA00001C111C441F551F0E1A1F0A460B570BC2
:1040DA0028F40E0E1F1E461F571F01C0A1603A95F5
:1040EA0059F7FD01BC01D001CA015F914F913F917F
:1040FA000895E894B7FF04C0A095B0951196689406
:10410A00F7FD39DFB9DFFD010EF435DF0895E894D4
:10411A00F7FF02C030DF6894B7FF06C0A095B095DC
:10412A00119600F8039400FA0895ED91FC91119705
:10413A000895ED91FD916D917C9113970895ED91FC
:10414A00FD916D917D910895ED93FD936D937C930F
:10415A0008957E936E93FE93EE9308956BBF079036
:10416A00F691E02D0895E881F9816A817B810895AD
:10417A00A881B9818A819B810895E883F9836A833A
:10418A007B830895A083B1838283938308957A936E
:10419A006A93FA93EA9308959A938A93BA93AA939D
:1041AA000895182E862F612D192E972F712D1B2EEB
:1041BA00BF2FF12D1A2EAE2FE12D089530976040B2
:1041CA007040089500240A160B0608060906089589
:1041DA00EA17FB07680779070895AE17BF0786072E
:1041EA00970708955A934A933A932A931A930A93EC
:1041FA0008955D814C813B812A8119810881089546
:10420A00AC0FBD1F6BBF07900D928A95E1F7089519
:00000001FF
