:0E0000000C942D010C9400000C9400000C9444
:10000E0000000C9400000C9400000C9400000C9462
:10001E0000000C9400000C9400000C9400000C9452
:10002E0000000C9400000C9400000C9400000C9442
:10003E0000000C9400000C9478020C9400000C94B8
:10004E0000000C9400000C9400000C9400000C9422
:10005E0000000C9400000C9400000C9400000C9412
:10006E0000000C9400000C9400000C9400000C9402
:10007E0000000C9400000C9400000C9400000C94F2
:10008E0000000C9400000C940000C7BBBBBBBBBBB4
:10009E00BBBBC700EF8FEFEFEFEFEFEF8300C7BBF8
:1000AE00FBFBF7EFDFBF8300C7BBFBFBE7FBFBBB35
:1000BE00C700F7E7E7D7D7B783F7E30083BFBFBF24
:1000CE0087FBFBBBC700E7DFBFBF87BBBBBBC70060
:1000DE0083BBFBF7F7EFEFDFDF00C7BBBBBBC7BBD5
:1000EE00BBBBC700C7BBBBBBC3FBFBF7CF0088DDE9
:1000FE00DDDDC1DDDDDD8800FFFFFF81BBF7EFDD5C
:10010E00810020222A2B2C5B3D5D7C7F00000004A9
:10011E0000020001800040002000100008000400D2
:10012E000200000000800040002000100008004087
:10013E00002000100008000400021027E8036400ED
:10014E000A00010000100001100001000303030269
:10015E00020C000800010006303A494D3030302EB6
:10016E00424D50008000FF004472697665206E6F2C
:10017E002064657465637461646F004472697665AA
:10018E00206365727261646F004F70656E6E696E8A
:10019E0067206469736B2E2E2E00526561647900A0
:1001AE004C6F6164696E672E2E2E00303A424153B9
:1001BE00452E424D5000303A494D253033752E4272
:1001CE004D5000446F6E650046696C652065727215
:1001DE006F7200626173652E626D70206572726F50
:1001EE00720001000400EBFE904D53444F53352E28
:1001FE0030004E4F204E414D452020202046415488
:10020E003332202020004E4F204E414D45202020DD
:10021E00204641542020202020000B00140A6601A5
:10022E0000000100760E720100000100780E7401CC
:10023E0000000B000009B90100000100060FF001DB
:10024E00000001000A0FF20100000000F894EE27F2
:10025E00EFBBF1E0F5BFE5BF8DE0A2E0BB27ED936C
:10026E008A95E9F780E090E2A0E0B1E0ED93019786
:10027E00E9F7E8E2F2E0D0E0DBBF879197910097D3
:10028E0081F0A791B79107901790C791D791BF01B1
:10029E00DBB7F001CBBF07900D920197E1F7FB01A1
:1002AE00EBCFE0E0EEBBEFEFEDBFE0E2EEBFC0E084
:1002BE00D9E00C94D3032C978CE0A0E0B0E0EAE5F3
:1002CE00F1E060E00E9417210A93849A859A809A41
:1002DE00819A829A839AA2E3B0E00E94AB1F00E05B
:1002EE000C3068F40E94121BE02FF0E0DE01119634
:1002FE00AE0FBF1FAC910E94161B0F5FF1CFECE04B
:10030E00E0930B09A0910B0920D008812D9608953A
:10031E008C9A8C980895AA93E881E87011F08B9AC4
:10032E0001C08B98E881E47011F08A9A01C08A9816
:10033E00E881E27011F0899A01C08998E881E17034
:10034E0011F0889A01C088987AC0AA930A938D9862
:10035E000E94121B0E941A1B0E94211BD9DF0881CA
:10036E0057C0AA930A938D9A0E94121B0E941A1BC1
:10037E000E94211BCDDF08814BC00E94E3200A930F
:10038E0000E0E02F0F5F0E94281B6BBFA691E9DFF4
:10039E00E02F0E94281B6BBFE691E03091F7088199
:1003AE0025960895BA93AA930A9300E0E02F0F5F63
:1003BE00A981BA81F0E0AE0FBF1FAC91D2DFA98147
:1003CE00BA81EE27A00FBE1FEC91E03079F7A9C1DC
:1003DE00A1E0BBDF0895AA93E881F0E0309719F40D
:1003EE00A981A05814C0E130A0E0FA0719F4A98140
:1003FE00A0540DC0E230A0E0FA0719F4A981AC5662
:10040E0006C0E330A0E0FA0719F4A981AC529DDFD3
:10041E0022960895AA93E881E066E0937C00E0912D
:10042E007A00E064E0937A00E0917A00E071E1F303
:10043E00E0917A00E061E0937A00E09179002196F4
:10044E000895E0E0E0939000E7E0E0939100E0E0B3
:10045E00E0939500E0939400A6EEB3E00E94AB1FEC
:10046E0088E99DE00197F1F7E0919400F0E0DF015B
:10047E00E0919500FE2FE0E0EA0FFB1FE0931009DC
:10048E00F09311090895F8940E94321B0E94381BB4
:10049E00A038E0E0BE071CF5E0911209F0911309B7
:1004AE000E943D1BEA0FFB1FFF93EF93A7E0B2DF05
:1004BE00AF91BF91F0E0ED93FC9380E78A95F1F751
:1004CE00000000000000000000000000000000001E
:1004DE0000000000000000000E94421BD7CF78945D
:1004EE0008950A921A92FA926A937A938A939A9339
:1004FE00AA93BA93EA93FA93EBB7EA93EFB7EA9318
:10050E000E94600AE991EFBFE991EBBFF991E99181
:10051E00B991A9919991899179916991F9901990CF
:10052E0009901895E0E0EA93A2E2BAE00E94E71380
:10053E00E03039F00E944A1BA6E7B1E080E090E07F
:10054E001CDF0895E0E0EA93A0E0B0E00E94E7131C
:10055E000E944A1BA9E8B1E080E090E00E94511B86
:10056E000895BA93AA930A93E981FA81309751F4C8
:10057E0000E0093030F40E94571B0E94601B0F5F91
:10058E00F8CFCFC0E130A0E0FA0771F400E00930F7
:10059E0050F40E94571BEE55FF4F6F4F6BBFE69105
:1005AE00EC930F5FF4CFBDC0E230A0E0FA0771F418
:1005BE0000E0093050F40E94571BE455FF4F6F4F77
:1005CE006BBFE691EC930F5FF4CFABC0E330A0E0CE
:1005DE00FA0771F400E0093050F40E94571BEA54F8
:1005EE00FF4F6F4F6BBFE691EC930F5FF4CF99C047
:1005FE00E430A0E0FA0771F400E0093050F40E94F4
:10060E00571BE054FF4F6F4F6BBFE691EC930F5F9C
:10061E00F4CF87C0E530A0E0FA0771F400E00930AE
:10062E0050F40E94571BE653FF4F6F4F6BBFE6917E
:10063E00EC930F5FF4CF75C0E630A0E0FA0771F4CB
:10064E0000E0093050F40E94571BEC52FF4F6F4FE1
:10065E006BBFE691EC930F5FF4CF63C0E730A0E081
:10066E00FA0771F400E0093050F40E94571BE25271
:10067E00FF4F6F4F6BBFE691EC930F5FF4CF51C0FE
:10068E00E830A0E0FA0771F400E0093050F40E945F
:10069E00571BE851FF4F6F4F6BBFE691EC930F5F07
:1006AE00F4CF3FC0E930A0E0FA0771F400E0093062
:1006BE0050F40E94571BEE50FF4F6F4F6BBFE691E9
:1006CE00EC930F5FF4CF2DC0EA30A0E0FA0771F47F
:1006DE0000E0093050F40E94571BE450FF4F6F4F5B
:1006EE006BBFE691EC930F5FF4CF1BC0EB30A0E035
:1006FE00FA0771F400E0093050F40E94571BEA5FCC
:10070E00FE4F6F4F6BBFE691EC930F5FF4CF09C0B6
:10071E0000E0093030F40E94571B0E94601B0F5FEF
:10072E00F8CF0881239608950E94671B0A811B81CA
:10073E00D801E8EEF3E00E946620E093000FA0914E
:10074E00000FB0E0E8EEF3E00E944E20AA81BB81DC
:10075E00AE1BBF0B8D01E4E6F0E00E946620E09335
:10076E00010FA091010FE4E6EA9FF0010E1B1F0B93
:10077E00D801EAE0F0E00E946620E093020FA0911B
:10078E00020FEAE0EA9FF0010E1B1F0B0093030F0E
:10079E0019810881249608950E946201E0E8E09391
:1007AE007E00E0E6E0937C00E4E8E0937A00E0E887
:1007BE00E0937B005F9AE0936100E0E0E0936100DC
:1007CE00EAE0E0938100EEE4E0938900EFE1E0934C
:1007DE008800E2E0E0936F00A7E9B1E080E090E0EE
:1007EE00CCDD7894A0E017D3A8ECB0E00E94AB1F4C
:1007FE00EFDDE0E0EA93A0E0EEDDA8EAB1E080E014
:10080E0090E00E94C4014F99A8C1E2DDAEEAB1E0CA
:10081E0080E090E00E94C40114DE35DE83DE0E948B
:10082E006C1BE0E0F9E0FA93EA93A1E00E94121447
:10083E00E03009F087C10E946C1BE9E7FEE00E94E0
:10084E00711B0E944D150E947A1B0E94321B0E9442
:10085E007A1B0E947E1BE4ECF1E060E070E00E94E7
:10086E00DE20E0911209F09113090E940F200E94E0
:10087E00DE2084E00E94811A2A960E94421B0E946A
:10088E006C1B0E947E1BA0E00E941214E030F9F255
:10089E000E947A1BE0E0EA93A1E00E94F201A4E13B
:1008AE00BAE00E94D9010E946C1B0E947E1BAAE036
:1008BE000E941214E03009F038C10E946C1BE9E767
:1008CE00FEE0FA93EA93EEE3F0E0FA93EA93A0E205
:1008DE00BAE00E94B8160E94321B0E94381BA0304C
:1008EE00E1E0BE070CF016C1E0E0E093740EE09379
:1008FE00750E0E94831BA030E2E0BE070CF0A3C071
:10090E000E94881B0E948C1BAE0FBF1FEC91EF93B1
:10091E000E94881B0E9490203196FF93EF930E94B5
:10092E00881B0E948F1B0E948C1B0E94991BAF91EB
:10093E00BF910E94A21BAF91EA0FE093040F0E9499
:10094E00AA1B3196FE93EE930E94831BAD3FE1E00E
:10095E00BE07F4F40E94881B0E948C1BAE0FBF1FB3
:10096E00EC91EF930E94881B0E9490203196FF938A
:10097E00EF930E94881B0E948F1B0E948C1B0E946B
:10098E00991BAF91BF910E94A21BAF91EA0F02C0BB
:10099E00E091040FE093050F0E94AA1B3197FE937E
:1009AE00EE93E091040F0E94381BF0E0EA17FB076C
:1009BE0044F0E091050F0E94381BF0E0AE17BF0720
:1009CE008CF4E091040F0E94381BF0E0AE17BF07C5
:1009DE0044F0E091050F0E94381BF0E0EA17FB0788
:1009EE000CF407C0A091760EE091780EEA1BE0930E
:1009FE00780EA091760EB091770E1197A1F40E9409
:100A0E00831BE8E0F0E00E946620E954F14FA091CC
:100A1E00780EA083E0E0F1E0E093760EF093770E8F
:100A2E00EFEFE093780EE091760EF091770EF5955C
:100A3E00E795E093760EF093770E0E94AA1B3196FF
:100A4E00FE93EE9356CF0E94381BEAE0F0E00E9430
:100A5E001A200E2E0E94AF1B0E941420E02109F4D2
:100A6E004EC0A0911009B09111095EDEA091000F49
:100A7E00BB2777DDE091000FE03031F00E94AF1B15
:100A8E000E94B31BE093B80EA091010F0E94B91BF8
:100A9E0021F4A091010FA03031F00E94AF1B0E94F3
:100AAE00B31BE093B90EA091020F0E94B91B41F443
:100ABE00A091010FA03021F4A091020FA03031F0CF
:100ACE000E94AF1B0E94B31BE093BA0EA091030FBE
:100ADE00BB270E94C01B0E94B31BE093BB0EAAE073
:100AEE00B0E00E94C01B0E94B31BE093BC0EABE0B3
:100AFE00B0E00E94C01B0E94B31BE093BD0E0E948B
:100B0E006C1BE7EBFEE00E94711B0E94B8160E9460
:100B1E00421BE3CE0E94EF01A1EDB1E080E090E038
:100B2E000E94C4010E947A1B08C00E944A1BA6EDB7
:100B3E00B1E080E090E00E94C401A8EEB3E00E9414
:100B4E00AB1F08C00E944A1BA1EEB1E080E090E00E
:100B5E000E94511BF7DC0E94EF014BCEFFCFAA93F0
:100B6E000E940B2130E01C81AD81BE812D91AD83A1
:100B7E00BE8308E0330FE32FE227E07811F0E9E0BF
:100B8E003E27220F0150B1F7115071F7E32FEE0FF0
:100B9E00E1600E94122142C50A93E2E3E093080F3E
:100BAE00EFEFEEBDEDB5E7FFFDCFEFEFEEBDEDB52F
:100BBE00E7FFFDCF0EB50F3F21F0E091080FE030BB
:100BCE0009F401C0F2CFE02FA8C4289AEFEFEEBDD2
:100BDE00EDB5E7FFFDCF0895BA93AA930E940C21BD
:100BEE00E4E1E093070FEFEFEEBDEDB5E7FFFDCFCC
:100BFE000EB50F3F21F4E091070FE03009F401C06C
:100C0E00F2CF0E3F21F0E0E00E94132107C51D81B7
:100C1E002E81EFEFEEBDEDB5E7FFFDCF2F931F93C6
:100C2E001F5F2F4FEEB5AF91BF91EC93EFEFEEBD7F
:100C3E00EDB5E7FFFDCF2F931F931F5F2F4FEEB53F
:100C4E00AF91BF91EC93EFEFEEBDEDB5E7FFFDCFAA
:100C5E002F931F931F5F2F4FEEB5AF91BF91EC9364
:100C6E00EFEFEEBDEDB5E7FFFDCF2F931F931F5FA7
:100C7E002F4FEEB5AF91BF91EC93EB81FC81349782
:100C8E00EB83FC8331F6EFEFEEBDEDB5E7FFFDCF65
:100C9E00EFEFEEBDEDB5E7FFFDCFE1E00E941321D2
:100CAE00BDC4AA930E940B2177DFEF3F21F0E0E055
:100CBE000E941221B3C4EC81EEBDEDB5E7FFFDCF6E
:100CCE00AC81AD3F69F110E02D813E81D9012F5FDE
:100CDE003F4FEC91EEBDEDB5E7FFFDCFD9012F5F94
:100CEE003F4FEC91EEBDEDB5E7FFFDCF115071F723
:100CFE00EFEFEEBDEDB5E7FFFDCFEFEFEEBDEDB5DE
:100D0E00E7FFFDCFEFEFEEBDEDB5E7FFFDCF0EB583
:100D1E00E02FEF71E53021F0E0E00E9412217EC459
:100D2E00E1E00E9412217AC40E94E3201A930A93F2
:100D3E00EE81E07881F0EE81EF77EE83E7E7EA93DC
:100D4E00A0E0B0E080E090E0EFDF1E2F123018F050
:100D5E001981088163C4AE81AC3449F036DF28981E
:100D6E001BDFEF3F21F0EFEF1981088157C4EE81B1
:100D7E00EEBDEDB5E7FFFDCFED81EEBDEDB5E7FFC5
:100D8E00FDCFEC81EEBDEDB5E7FFFDCFEB81EEBD06
:100D9E00EDB5E7FFFDCFEA81EEBDEDB5E7FFFDCF87
:100DAE0001E0AE81A03411F405E904C0AE81A8348F
:100DBE0009F407E80EBDEDB5E7FFFDCFAE81AC340B
:100DCE0029F4EFEFEEBDEDB5E7FFFDCF0FEFEFEF3F
:100DDE00EEBDEDB5E7FFFDCF1EB517FF02C001500A
:100DEE0009F401C0F4CFE12F1981088117C4BA9319
:100DFE00AA930A9304E0EFEFEEBDEDB5E7FFFDCF4A
:100E0E00A981BA811196A983BA831197EEB5EC9395
:100E1E00015089F7EAC4AA9324970E940C21EF810E
:100E2E00E03021F0E1E00E941321ACC12498259816
:100E3E00EAE0E093070FE091070FE030E1F7E09171
:100E4E00060FE27029F0E091060F0E9413219AC15D
:100E5E00209A289AE5B1E97FE5B92B9A2398E4B157
:100E6E00E760E4B9E3E5ECBDE0E0EDBD2FEF0AE0AD
:100E7E00EFEFEEBDEDB5E7FFFDCF0150C9F7E0E4B2
:100E8E00EA93A0E0B0E080E090E04EDF1E2F21500C
:100E9E00113011F0203009F401C0E9CF20E01130FB
:100EAE0009F068C0E4E6E093070FE8E4EA93AAEAE3
:100EBE00B1E080E090E038DFE13091F5DE0113968D
:100ECE0096DFAD81A13019F4AE81AA3A09F027C0A0
:100EDE00E091070FE03049F0E9EEEA93A0E0B0E0D0
:100EEE0080E090E421DFE03009F401C0F1CFE09121
:100EFE00070FE03049F0EAE7EA93A0E0B0E080E0C7
:100F0E0090E012DFE03009F00AC0DE0113966FDFC9
:100F1E00EB81E07411F0ECE001C0E4E02E2F2AC06A
:100F2E00E9EEEA93A0E0B0E080E090E0FDDEE23092
:100F3E0018F422E019EE02C021E011E4E091070F4F
:100F4E00E03041F01A93A0E0B0E080E090E0ECDEFB
:100F5E00E03009F401C0F2CFE091070FE03049F024
:100F6E00E0E5EA93A0E0B2E080E090E0DDDEE03084
:100F7E0009F020E02093090F28DE203051F0E09197
:100F8E00060FEE7FE093060FE0E5ECBDE1E0EDBD70
:100F9E0011C0289801DE19DEE0E0ECBDE4B1E07F7F
:100FAE00E4B9E5B1E07FE5B92098E091060FE16084
:100FBE00E093060FE091060F0E941321E3C0AA935F
:100FCE00E881E03011F0E1E002C0E091060F2196D9
:100FDE000895AA93EF81E03019F4E881E03011F41E
:100FEE00E4E0D0C0E091060FE17011F0E3E0CAC07A
:100FFE00E091090FE87071F4E981FA816B817C81CF
:10100E00A0E0B2E080E090E00E942820E983FA831D
:10101E006B837C83A881A130A9F4E1E5EA93AA81D0
:10102E00BB818C819D8180DEE03059F4ED81FE81A3
:10103E00FA93EA93A0E0B2E0CFDDE03011F0E0E009
:10104E00E88323C0E2E5EA93AA81BB818C819D816E
:10105E006BDEE030D1F4ED81FE81FA93EA93A0E0ED
:10106E00B2E0BADDE03051F0ED81FE81E050FE4F8E
:10107E00ED83FE83E881E150E88369F7ECE4EA93BF
:10108E00A0E0B0E080E090E04FDE9FDDE881E03050
:10109E0011F0E1E001C0E0E075C0AA93EF81E0300D
:1010AE0019F4E881E03011F4E4E06CC0E091060F31
:1010BE00E17011F0E3E066C0E091060FE47011F00C
:1010CE00E2E060C0E091090FE87071F4E981FA8105
:1010DE006B817C81A0E0B2E080E090E00E9428204D
:1010EE00E983FA836B837C83A881A130A1F4E8E5C0
:1010FE00EA93AA81BB818C819D8116DEE03051F48A
:10110E00ED81FE81FA93EA93AEEFCBDDE03011F084
:10111E00E0E0E88330C0E091090FE67039F0E7EDCA
:10112E00EA93A981BB2788279927FEDDE9E5EA9393
:10113E00AA81BB818C819D81F7DDE030E1F4ED81E8
:10114E00FE81FA93EA93ACEFACDDE03051F0ED8125
:10115E00FE81E050FE4FED83FE83E881E150E8838F
:10116E0071F7E0E0F0E0FA93EA93ADEF9ADDE0304C
:10117E0011F4E1E0E88329DDE881E03011F0E1E0EF
:10118E0001C0E0E028960895BA93AA9360970E9452
:10119E000B21EF89E03011F0E4E087C1E091060FFA
:1011AE00E17011F0E3E081C101E0EE89E03031F44D
:1011BE002898F2DCEF3F09F400E075C1E13009F048
:1011CE005FC0E9E4EA93A0E0B0E080E090E0ACDD3F
:1011DE00E03049F4FE013496FA93EA93A0E1B0E0D0
:1011EE00FBDCE03009F44BC0EC81E295EF70E69544
:1011FE00E695E13079F4E0E0FC85AD85B0E0EA0FEC
:10120E00FB1F31961E2F2F2FA12FB22F8827992724
:10121E00EAE02EC0E985EF70AE2FEE85E078EE1F86
:10122E00E0E0EE1FAE0FED85E370EE0FEA0FEE5F1E
:10123E003E2FEC85E295EF70E695E695AE2FEB85A9
:10124E00F0E00E94F21FB0E0AE0FBF1FEA85E37020
:10125E00F0E00E94F21FFE2FE0E0EA0FFB1F319636
:10126E001E2F2F2FA12FB22F88279927E32FE9505A
:10127E000E94D61FAC89BD890E94BB2000E013C11D
:10128E00E23041F4AC89BD89E0E0F2E0ED93FC93ED
:10129E0000E009C1E33009F0ABC0E091090FE47042
:1012AE0081F1EDECEA93A0E0B0E080E090E03CDD6F
:1012BE00E03031F5EFEFEEBDEDB5E7FFFDCFFE010E
:1012CE003496FA93EA93A0E1B0E086DCE030C1F008
:1012DE0030E3303039F0EFEFEEBDEDB5E7FFFDCF87
:1012EE003150F7CFEE85E295EF70A0E1B0E080E0EF
:1012FE0090E00E94D61FAC89BD890E94BB2000E001
:10130E0076C0E9E4EA93A0E0B0E080E090E00CDD86
:10131E00E03009F06CC0FE013496FA93EA93A0E136
:10132E00B0E05ADCE03009F462C0E091090FE270DF
:10133E0051F1EE85EF73FF27662777270E94002075
:10134E007F936F93FF93EF93EF85E078FF276627E8
:10135E007727DF01CB01E7E00E94E21FAF91BF913B
:10136E008F919F910E94B91FEF5FFF4F6F4F7F4F7D
:10137E00DF01CB01E989E295EF70E695E695E15044
:10138E000E94D61F2FC0EE85EC77E695E695FF27D7
:10139E0066277727EF5FFF4F6F4F7F4F7F936F93D8
:1013AE00FF93EF93EF85E370FF2766277727DF0123
:1013BE00CB01E3E00E94D61FDF01CB01EF85E07E7B
:1013CE00E295EF70E695FF27662777270E94B91FF3
:1013DE00EF5FFF4F6F4F7F4FAF91BF918F919F91F7
:1013EE000E942820AC89BD890E94BB2000E05BC012
:1013FE00EA3039F4E091090FAC89BD89EC9300E035
:10140E0052C0EB3011F439E403C0EC3001F53AE48C
:10141E003A93A0E0B0E080E090E086DCE030B1F4FA
:10142E00EC89FD89FA93EA93A0E1B0E0D5DBE030D8
:10143E0069F0EC89FD89FA93EA93AFE090DBAE2F69
:10144E00EC89FD89E785EA1709F400E02CC0ED3040
:10145E0071F4EAE7EA93A0E0B0E080E090E064DCAB
:10146E00E03021F4AC89BD89C2DC00E01CC0EE3056
:10147E00C9F4EDECEA93A0E0B0E080E090E054DC3B
:10148E00E03079F4EFEFEEBDEDB5E7FFFDCFEC897F
:10149E00FD89FA93EA93A0E4B0E09EDBE03009F018
:1014AE0000E001C004E091DBE02F0E94122168965B
:1014BE0008950A930091070F003019F00150009320
:1014CE00070F0091080F003019F001500093080F1C
:1014DE0000910A0FE0E0E0930A0F1C9903C0E1E0CF
:1014EE00E0930A0F1D9B05C0E0910A0FE260E093A6
:1014FE000A0FE0910A0FE01781F40091060FE170D8
:10150E0011F00D7F01C00360E0910A0FE27011F03F
:10151E00046001C00B7F0093060F09910895279771
:10152E00A0910C09B0910D09109731F0A0910E0900
:10153E00B0910F09109729F4E0E0F0E061E27AE350
:10154E006DC0FE013696FA93EA93FE013796FA9332
:10155E00EA93DE011896E0910C09F0910D090995B8
:10156E00FE013396FA93EA93FE013496FA93EA93C8
:10157E00DE011496E0910E09F0910F090995E881AC
:10158E00F981EC5BF74066277727DF01CB01E9E1B4
:10159E000E94D61F7F936F93FF93EF93EA810E9471
:1015AE00C31BE5E10E94D61FAF91BF918F919F9112
:1015BE000E94CD1FDF01CB01EB81F0E00E940F20D6
:1015CE000E940A200E94CD1F7F936F93FF93EF938B
:1015DE00EE810E94C31BEBE00E94D61FAF91BF911C
:1015EE008F919F910E94CD1F7F936F93FF93EF93E7
:1015FE00ED810E94C31BE5E00E94D61FAF91BF9103
:10160E008F919F910E94CD1FDF01CB01EC81F0E005
:10161E00F595E7950E940F200E94CD1F27960895FD
:10162E00AA930A930E94C91B6BBFE6910E2FE0305E
:10163E0019F0E981E01709F405C0DE0112960E9447
:10164E00CE1BF0CFE02FF0E00881269608950E9481
:10165E00E32024970A93A985BA859E960E94B0200E
:10166E000E94DB1B0E94E01B0E94E51B0E94FF20D4
:10167E0009F452C0E985FA85E481E03089F10E94CF
:10168E00EA1BE03011F0E1E027C2A985BA85149675
:10169E00E0E0EC93E985FA850E94FC1B0D01A9851B
:1016AE00BA855A960E94B020D0010E94B91F0E949E
:1016BE00E51B0E940421A0F4E985FA85038102301E
:1016CE0078F0A985BA855A960E94B0200E94E51B33
:1016DE000E94B91F0E94DB1B0E94EA1B0150EFCF34
:1016EE000E94E01B0E94F520B9F0E985FA85A181E0
:1016FE00AA93EA85FB85F296FA93EA930E94011C5F
:10170E000E94061C11F0E1E0E7C10E94E01BA985D2
:10171E00BA859E960E94BB20E0E0DEC1BA93AA93E2
:10172E000A93E981FA810E940D1C0E2F003009F0F8
:10173E005BC0A981BA81AC91A33029F4E981FA8109
:10174E00E581E03009F444C0A981BA810E94151CDC
:10175E00E981FA810E941D1CE981FA81F296E2501C
:10176E00FE4FA5E5BAEAA083B183E981FA81F2962C
:10177E00A2E5B2E581E691E40E94261CEC51FE4FF3
:10178E00A2E7B2E781E491E60E94261CE851FE4FE3
:10179E000F01A981BA811E960E942C1CF296E4516B
:1017AE00FE4F0F01A981BA811A960E942C1CA181AD
:1017BE00AA93EA81FB81F296FA93EA93EC81FD817A
:1017CE000E94341C6ADCA981BA811596E0E0EC9384
:1017DE00E981FA81A181AA93E0E0EA93A0E0B0E06A
:1017EE00D3DCE03009F001E0E02F08812396089564
:1017FE000E94E32024970E940B210E943C1C0E9411
:10180E00411C50F0AC85BD855E960E94B0200E94B2
:10181E003C1C0E94042118F00E94491C60C0AC853B
:10182E00BD8592960E944E1CAC85BD85EC91F0E074
:10183E00E130A0E0FA0739F528853985F901F695EA
:10184E00E7952E0F3F1F0E94551C09F046C00E94BF
:10185E006A1C0C9111272F5F3F4F0E94551CE9F512
:10186E000E946A1CEC91FE2FE0E00E2B1F2BE885E8
:10187E00E17021F0F8010E94F71F02C0F801FF701D
:10188E00662777272CC0E230A0E0FA0779F40E9491
:10189E00721C0E947B1C0E94821CF9F4A885B985DB
:1018AE00E2E00E948C1C0E94951C19C0E330A0E05F
:1018BE00FA0799F40E94721C0E949A1C0E94821CC4
:1018CE0061F4A885B985E4E00E948C1C0E94B020CA
:1018DE00EF7FFF7F6F7F7F7002C00E94A11C0E946E
:1018EE0012212E9608950E94E32024970E940A2129
:1018FE000E94A61C0E94411C50F0A989BA895E96CE
:10190E000E94B0200E94A61C0E94042110F042E00A
:10191E0085C0A989BA8992960E94B020ED83FE8374
:10192E006F837887A989BA89EC91F0E0E130A0E065
:10193E00FA0709F043C00D851E85F801F695E79567
:10194E000E0F1F1F0E94AB1C09F063C00E94C11C2A
:10195E0051F0D901EC91EF70AE2FE985F0E00E94C5
:10196E00EE1FEA2B01C0E985D901EC930F5F1F4FE3
:10197E00A989BA891496E1E0EC930E94AB1C09F098
:10198E0048C00E94C11C49F00E94CC1CE4E00E9499
:10199E00E21FFF27662777270EC0D901EC91E07F63
:1019AE001E2E0E94CC1CE8E00E94E21FFF27662735
:1019BE007727EF70E129D901EC932BC0E230A0E03C
:1019CE00FA0789F40E94D11C0E947B1C0E94DA1C2B
:1019DE0001F5AD85BE85E2E00E94E51CA985BA85BC
:1019EE00A083B18316C0E330A0E0FA0789F40E9409
:1019FE00D11C0E949A1C0E94DA1C59F4AD85BE853A
:101A0E00E4E00E94E51C0E94CC1C0E94D92001C07B
:101A1E0042E0A989BA891496E1E0EC93E42F0E9482
:101A2E001121639608950E94E32024970A930E9441
:101A3E00EE1C0E94411C18F00E94F31C10F002E0F4
:101A4E004AC000E00E94F31C08F045C0E985FA8503
:101A5E00FA93EA93AF81B88589859A85C9DE0E948B
:101A6E00DB1BE981FA816B817C810E94F52099F163
:101A7E000E94E51B0E94FC1C11F402E02CC00E9487
:101A8E00E51B0E94041D11F401E025C0E985FA85CD
:101A9E00FA93EA930E940C1D0E94DE200E94111DF3
:101AAE0022DF0E2F0030B9F4E985FA850E94161D4B
:101ABE0049F0A985BA850E941B1DA985BA85159680
:101ACE00E1E0EC93E981FA816B817C81ED83FE8309
:101ADE006F837887B7CFE02F08812B9608950E94E9
:101AEE00E3206097AC89BD895E960E94B0200E946B
:101AFE00251D0E94281D0E94F520B1F4AC89BD89D8
:101B0E001A960E944E1C0E942D1D0E94F92039F03B
:101B1E000E94321D0E942D1D0E94042120F00E9461
:101B2E00491C0E94351D1EC00E943A1DAA89BB8900
:101B3E008C899D890E943F1D0E94461D0E94411C5A
:101B4E0018F40E94491C90C00E94321D0E94461D2E
:101B5E000E94042118F40E944B1D86C00E94281D6D
:101B6E000E94351D0E94501D0E94551D0E94011C91
:101B7E00EF5FFF4F6F4F7F4F0E94551D0E94321D2A
:101B8E000E943C1C0E94042160F0E2E0F0E060E064
:101B9E0070E00E94551D0E945A1D18F40E945F1D90
:101BAE0063C00E943A1DAA85BB858C859D850E94C7
:101BBE003F1D0E944B1D0E94F520A1F00E94461D64
:101BCE000E94041D29F00E94461D0E94FC1C19F45F
:101BDE000E944B1D49C00E945A1D19F40E945F1DA0
:101BEE0043C0C4CF0E943A1D0E94641DAFEFBFEFE9
:101BFE008FEF9FE078DEE03019F00E94A11C34C018
:101C0E000E94281D0E94F52091F00E943A1DEA893B
:101C1E00FB896C897D890E94DE20AE85BF8588890F
:101C2E00998961DEE03019F00E94A11C1DC00E944E
:101C3E00011CAC89BD891A960E94BB20EC89FD89D6
:101C4E000E94161D79F0AC89BD891E960E94B620A1
:101C5E003197604070400E94C020AC89BD891596B6
:101C6E00E1E0EC930E94011C669608950E94E32029
:101C7E000E94321DE250F040604070400E94251DCF
:101C8E00EC81FD81A68DB78D80A191A1E2E0F0E0FF
:101C9E0060E070E00E946B1D0E94CF200E94042124
:101CAE0018F00E945F1D72C3EC81FD81E281F0E0AD
:101CBE000E94CF200E940F200E9428207F936F93B6
:101CCE00FF93EF93AC81BD819A960E94B020AF91A5
:101CDE00BF918F919F910E94B91F58C3BA93AA9337
:101CEE0024971A930A93EE81FF810E94701D169617
:101CFE000E94781D0E947F1D0E94FC1C29F00E94EC
:101D0E00841D0E94891D20F0E2E01981088163C1C3
:101D1E000E94C91B0E94F52029F40E94841DA081F7
:101D2E00A33009F006C00E94841DB696DF010E9402
:101D3E00781D0E94C91B0E94F520B1F40E94911DCE
:101D4E003896DF010E94AC20AE81BF81AE17BF076F
:101D5E0020F0E2E0198108813EC10E94841DB696F2
:101D6E00DF010E94B0203BC00E94841DE281A0E1F1
:101D7E00EA9F8001AE81BF81A017B10748F10E9492
:101D8E00841DFA93EA930E942D1D32DDEA83FB83B4
:101D9E006C837D830E947F1D0E94041D21F4E1E06F
:101DAE001981088118C10E947F1D0E94411C28F0D4
:101DBE000E94841D0E94891D20F0E2E01981088195
:101DCE000AC1EE81FF81E01BF10BEE83FF83D2CFC0
:101DDE000E94911DFA93EA930E942D1D47DFDF01A9
:101DEE00CB01EE81FF810E94F71F0E94981D0E9479
:101DFE009D1D0E94841DF296DF01EE81FF810E94DF
:101E0E00A31D19810881E7C0AA9324970E940C2173
:101E1E00A885B98514960E94AC2031968F01002EAC
:101E2E00012A31F0A885B9851E960E94B11D11F4C4
:101E3E00E4E0CFC0F801EF7009F0C1C0A885B98504
:101E4E000E941B1DA885B9851A960E94B11D61F4CA
:101E5E000E94841D3896DF010E94AC200E171F07CA
:101E6E0010F0E4E0B6C0ABC0F8010E94F71F0F01FE
:101E7E000E94841DE281F0E03197E021F12130973C
:101E8E0009F09DC00E94841D0E94B61DB1DC0E9407
:101E9E00BF1D0E94C41D0E94411C10F4E2E099C0B7
:101EAE000E94C41D0E94041D11F4E1E092C00E9424
:101EBE00841D7E96DF010E94B0200E94C41D0E94E8
:101ECE00042108F46DC0EF81E03011F4E4E081C02C
:101EDE000E94841D0E94B61D02DE0E94C91D0E9432
:101EEE00F52011F4E7E075C00E94C41D0E94FC1C91
:101EFE0011F4E2E06EC00E94C41D0E94041D11F494
:101F0E00E1E067C00E94841D0E940D1CE03011F0BC
:101F1E00E1E05FC00E94841D0E941D1C0E94841D72
:101F2E00DF01BE96FF93EF93FD010E94CF1DAF918F
:101F3E00BF910E94BB2020E00E94841DE2812E17DB
:101F4E00D8F40E94841D3496A1E0A0830E94841DC3
:101F5E000E940D1CE03011F0E1E03BC00E94841D98
:101F6E00BE96DF010E94B620EF5FFF4F6F4F7F4F8F
:101F7E000E94C0202F5FE0CF0E94841DBE96FF936B
:101F8E00EF93DF010E94B020DF01CB01E22FF0E0E2
:101F9E000E940F200E946B1DAF91BF910E94BB202B
:101FAE00EB81FC816D817E81A885B9851A960E9490
:101FBE00BB200E94841D0E94CF1D0E949D1DF80112
:101FCE000E94701D0E94AC20F296DF01F8010E9463
:101FDE00A31D0E9413212A9608950E94D41D21F05C
:101FEE00E02F0E941221D2C10E94E31D01F5AC81A7
:101FFE00BD8152962D913C91D9011C91103011F456
:10200E0004E015C0F901E385E87031F40E94F41D77
:10201E000E94BB1AE03009F001C009C0EC81FD81BD
:10202E00FA93EA93A0E0F0DE0E2F0030E9F2E02FF3
:10203E000E941221ABC10E94D41DB1F40E94E31D77
:10204E0099F4EC81FD81A289B3891C91153E11F0A2
:10205E00103009F409C0EC81FD81FA93EA93A1E0F6
:10206E00D3DE0E2F003051F3003029F50E94E31D10
:10207E0011F5AC81BD8152962D913C913A932A93E4
:10208E00E0E0EA93A0E2B0E00E94E61A0E94F41D9E
:10209E000E94D41AAC81BD8154960E94AC20E38577
:1020AE00E871D9011C96EC93AC81BD810E94AC20E5
:1020BE003496A1E0A083E02F0E94122167C1BA934B
:1020CE00AA9325970E940921AD85BE8554963D9110
:1020DE004C914A933A93E0E2EA93ABE0B0E00E946F
:1020EE00E61AE0E0E887E9870E2F5E2FE8E0EA8740
:1020FE00AB85BC850E94FF1D0E94041EAE0FBF1F44
:10210E00AC91AE3211F50E94091E1E3221F4A88543
:10211E00B98513970CF003C00E94151EF4CF1F3221
:10212E0021F01C3511F0113208F402C0E6E073C044
:10213E000E94041E0E941C1E10F4E4E201C0E0E2A4
:10214E00A32FB42F1B96EC9365C00E94091E11326B
:10215E0020F01F3211F01C3509F434C01E3219F074
:10216E00EA855E1768F0AA85A83011F41E3211F0C8
:10217E00E6E051C058E0EBE0EA87000F000F21C007
:10218E00103818F00360E6E046C0E0E1F1E060E0F0
:10219E0070E00E94DE20A12F43DA309711F0E6E0C6
:1021AE003AC0113410F01B3508F002C0026007C0AF
:1021BE00113610F01B3708F002C0016010520E9459
:1021CE00151EC3CF0E94041E0E941C1E10F4E4E0D4
:1021DE0001C0E0E01E2F503011F4E6E01CC0A32F2A
:1021EE00B42FAC91A53E21F4A32FB42FE5E0EC93D0
:1021FE00AA85A83011F4000F000FE02FE370E13034
:10220E0009F41061E02FEC70E43009F41860E32F4C
:10221E00F42F1387E0E00E9410212F960895BA93B1
:10222E00AA930E940B21E1E0E03029F0AC81BD8140
:10223E00AC91A03209F006C0EC81FD813196EC83A1
:10224E00FD83F1CFAC81BD81AC91AF3229F0AC8171
:10225E00BD81AC91AC3559F4EC81FD813196EC83A6
:10226E00FD83AE81BF8116960E94241E0AC0AE81E8
:10227E00BF810E94AC207696DF010E94B0200E94A2
:10228E00281EAC81BD81AC91BB27909760F40E9453
:10229E002E1EA0E0B0E022DD0E2FAE81BF81529641
:1022AE000E94331E3EC00E942E1EDE01169607DFD0
:1022BE000E2F0030B1F5AE81BF818FDE0E2FAE81B5
:1022CE00BF8154960E94AC20E385E4703E2F00300F
:1022DE0039F0043011F4303009F001C005E021C0AE
:1022EE003030F9F4AE81BF8152961D912C91E12FC1
:1022FE00F22FE385E07111F405E013C00E94381E41
:10230E000E940A207F936F93FF93EF930E943C1ECF
:10231E00AF91BF918F919F910E94421E0E94281EE5
:10232E00C2CFE02F0E941221289608950E94E3202A
:10233E00EC81FD81A181AA93ED81FE81F296FA9343
:10234E00EA93EB81FC816D817E810E94061C11F067
:10235E00E3E01CC0EC81FD810E94471E11F0E2E01B
:10236E0015C0AC81BD81A859BF4F0E94511E11F4FA
:10237E00E0E00CC0EC81FD81F296EE5AFF4FDF01DA
:10238E000E94511E11F4E0E001C0E1E0269608958E
:10239E00AA9364970E940A21AC8DBD8D0E94AC2039
:1023AE00EF83F887AF81B885EC91E0533E2F3A303A
:1023BE0020F41196AC91AA3309F00AC0EF81F8858A
:1023CE003296EF83F887AC8DBD8DED93FC9302C0F2
:1023DE0030910F0F313010F0EBE0CCC1E32F0E94A3
:1023EE005F1E0E94AC20ED83FE83AA8DBB8DED9304
:1023FE00FC93309711F4ECE0BDC1AD81BE81EC9140
:10240E00E03089F0ED81FE81A1810E94E6074E2F1A
:10241E0040FD09C0E98DE03011F042FD01C002C05F
:10242E00EAE0A8C1A6C1AD81BE81E0E0EC93E32F46
:10243E00AD81BE811196EC93ED81FE81A1810E944A
:10244E0012074E2F40FF02C0E3E094C1E98DE03049
:10245E0011F042FD01C002C0EAE08CC10E94671E6D
:10246E000E945F1DEF8BF88F698F7A8FDF01CB0192
:10247E005DDF0E2F0130D9F4ED81FE81F296E2542C
:10248E00FE4F1E2F2F2FE481E03089F0A12FB22FA7
:10249E0018960E94B020ED8BFE8B6F8B788F0E946A
:1024AE00671EAF89B88D898D9A8D40DF0E2F033050
:1024BE0011F4E1E05FC1003049F4AD81BE81DD96DB
:1024CE000E94AC20E030A2E0FA0711F0EDE052C11C
:1024DE00AD81BE81A85BBF4F0E94951C0E946C1EF1
:1024EE000E94711E0E94F52041F4AD81BE81AA5A50
:1024FE00BF4F0E94B0200E946C1E0E94711EAD81C3
:10250E00BE815A960E94BB20ED81FE81EE5BFF4F8D
:10251E00E081AD81BE811396EC93ED81FE81E38166
:10252E00F0E0A989BA898B899C890E940F200E94AC
:10253E0028200E946C1E0E94761E0E947D1EAD8178
:10254E00BE8192960E94BB20ED81FE81E7ADAD81EA
:10255E00BE811296EC93AD81BE81AD5BBF4F0E94E2
:10256E00AC20AD81BE811896ED93FC93AD81BE81FA
:10257E00AB5BBF4F0E94951CED87FE876F87788BF4
:10258E000E94F52051F4AD81BE81AE5ABF4F0E941C
:10259E00B020ED87FE876F87788B0E94761E0E9493
:1025AE00A61C662777270E946B1DA989BA898B897D
:1025BE009C890E94C31F7F936F93FF93EF930E949A
:1025CE00821EAF91BF918F919F91662777270E94B0
:1025DE00C81FED81FE81E281F0E00E940F200E9473
:1025EE006B20EE5FFF4F6F4F7F4FE987FA876B8748
:1025FE007C87AD81BE815E960E94BB2001E00E9469
:10260E00CC1CA73FEFE0BE07E0E08E07E0E09E07A0
:10261E0008F002E00E94CC1CA73FEFEFBE07E0E0FF
:10262E008E07E0E09E0708F003E0033039F4AD8139
:10263E00BE81A25ABF4F0E94B02002C00E948A1EC5
:10264E00AD81BE8196960E94BB200E948A1E7F930A
:10265E006F93FF93EF930E94821EAF91BF918F9164
:10266E009F910E94981DAD81BE819A960E94BB20BB
:10267E00AD81BE811E960E94A11C0E94BB20AD8121
:10268E00BE811496E0E0EC93033009F05FC0AD819B
:10269E00BE811596EC93AD81BE81AE59BF4F0E949F
:1026AE00AC200E947D1EAD81BE8152960E94BB2041
:1026BE00ED81FE81A181AA93EE81FF81F296FA93BC
:1026CE00EA93E885F9850E94341C0E94F007E030F9
:1026DE0011F5ED81FE810E94471EE9F4AD81BE81A8
:1026EE00D2960E94B020E235A2E5FA07A1E66A076B
:1026FE00A1E47A0781F4ED81FE81F296EC51FE4F52
:10270E00DF010E94B020E237A2E7FA07A1E46A07D0
:10271E00A1E67A0709F01AC0ED81FE81F296E45126
:10272E00FE4FDF010E94B020AD81BE811A960E943D
:10273E00BB20ED81FE81F296E851FE4FDF010E9433
:10274E00B020AD81BE811E960E94BB20AD81BE81A0
:10275E000C930E94151CAD81BE8156960E94241EBC
:10276E00ADE0BFE00E94911EAD81BE811696ED9345
:10277E00FC93E0E00E9411216E960895BA93AA93FD
:10278E00EA81FB81309771F0AA81BB81EC91E03038
:10279E0049F0EA81FB81A681B781E881F981EA17C8
:1027AE00FB0711F0E9E00AC0EA81FB81A1810E94DA
:1027BE00E607E17011F0E3E001C0E0E02496089531
:1027CE000E94671BAC81A13010F0EBE020C0EC81C1
:1027DE000E945F1E0D911C91002E012A19F0D80146
:1027EE00E0E0EC93EA81FB81309721F0AA81BB8176
:1027FE00E0E0EC93EC81ABE0BFE0F0E0EE0FFF1F0A
:10280E00EA0FFB1FAA81BB81A083B183E0E019818F
:10281E00088125960895AA93A2970E940C21A8A537
:10282E00B9A50E94331EEDA1EF71EDA3FE01B69680
:10283E00FA93EA93FE017196FA93EA93E9A5EE7183
:10284E00AE2FA6DD0E2F003009F01CC1FE0133960F
:10285E00EBA3FCA3FE013F96FA93EA93A8A5B9A5B4
:10286E00DEDC0E2FEDA1EC7109F49CC02897003030
:10287E0089F0043021F4DE015796DDDB0E2F003097
:10288E0019F0E02F2896FEC0EDA5E860EDA719A57A
:10289E002AA56BC0EDA5E47019F0E8E02896F2C009
:1028AE0019A52AA5012E022A29F0E12FF22FE38580
:1028BE00E17119F0E7E02896E5C0EDA5E87009F49E
:1028CE0054C00E94381E0E940A207F936F93FF937C
:1028DE00EF930E943C1EAF91BF918F919F910E94EA
:1028EE00421E0E94251DE12FF22F74960E94971E04
:1028FE007A960E94971E7C960E94111D0E94D920E6
:10290E00AF89B88D1496E1E0EC93AF89B88D9E96A1
:10291E000E944E1C0E94321D0E94F520B9F0EF89D4
:10292E00F88DFA93EA930E947F1D7DD80E2F00300A
:10293E0011F02896A7C00E94321DE150F040604071
:10294E007040AF89B88D1A960E94BB20EF89F88D22
:10295E00FA93EA93AE81BF81888599850E942E0BEA
:10296E000E2F003011F028968DC0EDA5E870C1F045
:10297E00E12FF22F3B96A0E0A0830E94960A0E94C0
:10298E00351D0E94501DA12FB22F1E960E94BB20F6
:10299E00AF89B88D1496E1E0EC93EDA5E062EDA75A
:1029AE0028961BC0003011F0E02F6CC019A12AA18F
:1029BE00012E022A29F0E12FF22FE385E07111F0AA
:1029CE00E4E060C0EDA1E27029F0E12FF22FE38583
:1029DE00E17009F402C0E7E055C0AF85B8899E9654
:1029EE000E94B020A8A5B9A55A960E94BB20E9A1C5
:1029FE00FAA1A8A5B9A55E96ED93FC93EDA1A8A5A5
:102A0E00B9A51496EC930E94381E0E940A207F935B
:102A1E006F93FF93EF930E943C1EAF91BF918F91E6
:102A2E009F910E94421EA8A5B9A51E960E94BB208A
:102A3E00A12FB22F5C960E94B020A8A5B9A51A9618
:102A4E000E94BB20A8A5B9A516960E94241EA8A573
:102A5E00B9A51596EFEFEC93A8A5B9A556960E94C9
:102A6E00241EEF85F889A8A5B9A5ED93FC93AF8533
:102A7E00B88916960E94AC20A8A5B9A51296ED931A
:102A8E00FC93E0E00E941321AA960895BA93AA93AC
:102A9E002E970E940A21EF89F88DED83FE83AB8974
:102AAE00BC890E94331E0E949E1E0E94A31E0E947D
:102ABE00A81E11F0E02F51C1E98DFA8DA481A078E6
:102ACE0011F0E2E04AC1E98DFA8DA481A17011F4F2
:102ADE00E7E043C1E98DFA8DA285B385848595859E
:102AEE009F938F93BF93AF930E94AF1EEF91FF9171
:102AFE006F917F910E94C31F0E94B61EAD89BE8941
:102B0E00882799270E94FF2020F4EF81F885ED8B0E
:102B1E00FE8BED89FE89309709F41EC10E94AF1E0F
:102B2E00FD01BC01F170309709F0E8C0E98DFA8D16
:102B3E0005800E949E1EE2810E16D8F10E94AF1EE5
:102B4E000E94F92031F4A98DBA8D1E960E94B020F4
:102B5E0008C00E949E1E0E94A31E0E94BB1E0E94C1
:102B6E00FF0BEF87F88B698B7A8BAF85B8898989D4
:102B7E009A890E94411C20F40E94C01EE2E0EDC022
:102B8E00AF85B88989899A890E94041D21F40E9413
:102B9E00C01EE1E0E2C0EF85F88969897A89A98DC6
:102BAE00BA8D52960E94BB20A98DBA8D1596E0E083
:102BBE00EC930E949E1E0E94A31E0E94BB1E56D81E
:102BCE000E94C71E0E94CC1E0E94F52021F40E9476
:102BDE00C01EE2E0C2C00E94D11E0E94D61E0E94FC
:102BEE000F200E94B91F0E94C71EAD89BE890E9488
:102BFE00DB1E09F44CC00E94D11EE30FF41F0F011F
:102C0E000E949E1EE281D001F0E0EA17FB0758F405
:102C1E000E949E1EE281F0E0DF010E94D11EAE1BDB
:102C2E00BF0B3A2F4B2F0E949E1EE181EA930E940A
:102C3E002E1EEE85FF85688979890E94DE20A32FDE
:102C4E000E94F007E03021F00E94C01EE1E085C036
:102C5E00E98DFA8DA481A07429F00E94E41E0E94D1
:102C6E00EB1E08F00FC00E94E41E0E94F41EAD8100
:102C7E00BE8188279927EA0FFB1F0E94A31EB096DC
:102C8E000E94FD1EA98DBA8D0E94031F51C0E98DB1
:102C9E00FA8DA481A07489F00E949E1E0E94101FBE
:102CAE00EC8DFD8D0E94181F21F00E94C01EE1E0E8
:102CBE0054C0A98DBA8D0E94231F0E94E41E0E944B
:102CCE00FF2079F00E949E1E0E94101FEE85FF8548
:102CDE00688979890E94061C21F00E94C01EE1E0DD
:102CEE003CC00E94CC1EA98DBA8D56960E94BB2068
:102CFE00A98DBA8D1596EC91EF5FEC93A98DBA8DD7
:102D0E000E94281F0E942D1FED89FE89E117F207F0
:102D1E0010F41D892E890E94671EAB8DBC8D0E94FA
:102D2E00281FAB8DBC8D9096EA0FFB1F0E94341F9F
:102D3E000E943A1FE98DFA8D0E94431FD0010E9416
:102D4E00BB20AB89BC890E944D1FED89FE89E11B1A
:102D5E00F20BED8BFE8BDDCEE0E00E9411216B9627
:102D6E000895BA93AA932A970E940A21EB89FC89A7
:102D7E00ED83FE83AF85B8890E94331E0E94541FD7
:102D8E000E94591F0E94A81E11F0E02F92C1ED89DA
:102D9E00FE89A481A07811F0E2E08BC1ED89FE8955
:102DAE00A481A27011F4E7E084C1ED89FE89A285A9
:102DBE00B38584859585E989FA890E94981D7F934C
:102DCE006F93FF93EF930E945E1FAF91BF918F9110
:102DDE009F910E94042118F4E0E0E98BEA8BE989C7
:102DEE00FA89309709F44BC10E94641FFD01BC01A2
:102DFE00F170309709F00DC1ED89FE8905800E94B2
:102E0E00541FE2810E1608F450C0AD89BE89169685
:102E1E000E94B11DE1F4AD89BE891E960E94B020BC
:102E2E000E94C71E0E94CC1E0E94F52079F40E94BB
:102E3E00541FFA93EA930E94111D0E94760D0E9470
:102E4E00C71EAD89BE891E960E94BB200AC00E9475
:102E5E00541F0E94591F0E94BB1E0E94760D0E9495
:102E6E00C71E0E94CC1E0E94F52009F408C10E94C4
:102E7E00D61E0E94FC1C21F40E946B1FE2E019C1B9
:102E8E000E94D61E0E94041D21F40E946B1FE1E0D9
:102E9E0010C10E94CC1EAD89BE8952960E94BB20E5
:102EAE00AD89BE891596E0E0EC93ED89FE89A4818B
:102EBE00A07489F00E94541F0E94721FE88DF98D34
:102ECE000E94181F21F00E946B1FE1E0F2C0AD8935
:102EDE00BE890E94231F0E94541F0E94591F0E94E8
:102EEE00BB1E0E943D0E0E94B61E0E94F52021F4CC
:102EFE000E946B1FE2E0DDC00E947A1FAF81B88591
:102F0E0089859A850E940F200E94B91FEF83F8874A
:102F1E0069877A87A989BA890E94DB1E09F44EC097
:102F2E000E947A1FE30FF41F0F010E94541FE281CB
:102F3E00D001F0E0EA17FB0758F40E94541FE2811B
:102F4E00F0E0DF010E947A1FAE1BBF0B3A2F4B2F12
:102F5E000E94541FE181EA930E942E1E0E94641D5E
:102F6E00A32F0E945408E03021F00E946B1FE1E075
:102F7E00A0C00E947F1F0E94EB1ED8F4ED89FE892F
:102F8E00B0960E94591FA689B789808D918DE985CB
:102F9E00FA856B857C850E94F41EAF81B8858827E3
:102FAE009927EA0FFB1F0E94FD1EAD89BE890E9464
:102FBE00231FAD89BE890E94031F4DC00E947F1F33
:102FCE000E94FF20C9F00E94641F0D010E945E1F27
:102FDE00D0010E94042158F40E94541F0E94721FB7
:102FEE00EA85FB856C857D850E94061C09F404C06C
:102FFE000E946B1FE1E05DC00E940C1DAD89BE8971
:10300E0056960E94BB20AD89BE891596EC91EF5F56
:10301E00EC93AD89BE890E94281F0E942D1FE9895D
:10302E00FA89E117F20710F419892A89AD89BE8948
:10303E000E94281FAD89BE899096EA0FFB1FFA9356
:10304E00EA93EF81F8850E94341FAD89BE891496EC
:10305E00EC91E064EC930E943A1FED89FE890E9488
:10306E00431FD0010E94BB20AF85B8890E944D1F1F
:10307E00E989FA89E11BF20BE98BFA8BB0CE0E943B
:10308E00641F0D010E945E1FD0010E94FF2050F4AC
:10309E00AD89BE8916960E94B020AD89BE891A965A
:1030AE000E94BB20AD89BE891496EC91E062EC9330
:1030BE00E0E00E94112167960895BA93AA9324978F
:1030CE000E940C210E94861FFA93EA93E985FA85E5
:1030DE000E94A81E09F075C0EF81F885A481A07228
:1030EE0009F46FC0A481A074A1F00E94861FE18133
:1030FE00EA93E885F985B096FA93EA93EA85FB851B
:10310E000E94181F11F0E1E05DC0AF81B8850E94EA
:10311E00231F0E94861FFA93EA93E985FA85A28DF2
:10312E00B38D848D958D0E942E0B0E2F003009F0DD
:10313E0048C0AF81B8855E961D912C91A12FB22FFC
:10314E001B96EC91E062EC93AF81B8851A960E94C3
:10315E00B020A12FB22F5C960E94BB20AF81B88504
:10316E001E960E94AC20A12FB22F5A96ED93FC937F
:10317E00EF81F885A685B78580899189FD01BC010F
:10318E000E940520A12FB22F5496ED93FC930E941E
:10319E00960A0E94C91DA12FB22F56960E94BB20DF
:1031AE00AF81B8851496EC91EF7DEC930E94861F4B
:1031BE003496A1E0A0830E94861FDF010E94950B2A
:1031CE000E2FE02F0E94132129960895BA93AA93E9
:1031DE000A93A981BA8171DF0E2F003021F4A981E3
:1031EE00BA810E94331EE02F0881239608950E9413
:1031FE00671BAA81BB8112960E94AC20309729F1E1
:10320E00AA81BB8114960E94AC208F01309761F089
:10321E000230E0E01E0780F0F80131978F01AA819D
:10322E00BB811496ED93FC93AA81BB8112960E94EA
:10323E00911E3197AC81A083AA81BB810E94AC20E4
:10324E00FF2312F00E94911E06C0AA81BB81EFEFF0
:10325E00FFEFED93FC93198108810C94F41ABA9345
:10326E00AA9328970E94092100E0AE85BF850E948F
:10327E00331EDE0154960E94CE1B6BBFE6913E2F8D
:10328E00E03009F42FC1E02FE03039F4353211F47B
:10329E0001E002C00E948B1F24C1E130A9F4353237
:1032AE0019F40E948B1F1CC102E050E010E03D3269
:1032BE0011F411E016C13B3211F45BE212C130324F
:1032CE0011F450E20EC102C0E23039F440E003E0E6
:1032DE00303311F4106805C103C0E33009F001C1A9
:1032EE00303310F03A3308F007C0AAE04A9F402D61
:1032FE00E32FE0534E0FF5C0E32FE33649F40E945F
:10330E00921FEA89FB89A481AA930E94981FE8C0A4
:10331E00E33769F40E94921FAA89BB8914960E9412
:10332E00FF1DAE81BF810E94F61A0E2F13C0E0372B
:10333E00A9F40E94921FAA89BB8914960E94B020FC
:10334E000E949E1FAE81BF81888599850E94021BB7
:10335E000E2F186012601F7720E038C0E43611F08F
:10336E00E93611F4146002C0E53741F4E8E4F1E007
:10337E0060E070E00E949E1F05E00EC0E83511F47B
:10338E00186003C0E83709F0ABC0E2E5F1E060E099
:10339E0070E00E949E1F04E012FF14C00E94921F54
:1033AE000E94A31FAD85AA233AF4EC85FD850E94E9
:1033BE00D21FEC87FD875DE2503011F00F5F01C028
:1033CE001B7F04C00E94921F0E94A31F10FD11C0FC
:1033DE00041778F417FF08C012FF04C01B7F352FA7
:1033EE00015001C030E301C030E20E948B1F4150FA
:1033FE00EFCF202F11FF18C02030A9F013FF07C008
:10340E00DE0116960E94CE1B6BBF369105C0AE81B3
:10341E00BF813D91AE83BF830E948B1F403009F068
:10342E0041502150E9CF52C030E3EE81FF816885D3
:10343E0079850E94C520EA87FB87EE81FF8168852A
:10344E007985EE5FFF4F6F4F7F4F0E949E1FEA857B
:10345E00FB85AC85BD85AE17BF0750F03F5FAA85D3
:10346E00BB85EC85FD85EA1BFB0BEC87FD87EFCF5B
:10347E003A3328F013FF02C0395F01C0395D14FDE5
:10348E001AC0313320F4AA85BB85119709F409C0FF
:10349E00421710F010FF01C013C030E217FF0BC02F
:1034AE0030E3106112FF07C01B7F5A930E94981FD2
:1034BE00403009F041500E948B1F403009F04150BE
:1034CE002150AA85BB85129708F0AECF10FF08C019
:1034DE00403031F04150E0E2EA930E94981FF8CF5D
:1034EE0000E0C7CEAE85BF850E94AC200E941021A1
:1034FE0068960895FF92F82E26970E940B21DE0102
:10350E001E960E94B51F0E94AC20309719F4EFEF63
:10351E00FFEF25C0DE0116960E94B51F8D01DE015C
:10352E001E960E94B51F0E94FF1DE0E0E887E98706
:10353E00DE011A960E94B51F0E94B0200E94DE2066
:10354E001A930A93EEEFF8E1FA93EA93DE011C96D2
:10355E0086DE9F01AE81BF81E0E0EC93F9010E940F
:10356E0012212A96FF900895BA93AA936627772779
:10357E0089919991E991F991A991B991009629F0C2
:10358E0001976D9171916717C9F3671B10F4EFEFF7
:10359E000895E0E009F0E3950895BA93AA9399810E
:1035AE008881009641F0BD81AC81FB81EA816191F9
:1035BE006D930197E1F7FD81EC8126960895BA93FC
:1035CE00AA93B981A881109631F0FC81EB816A81B2
:1035DE0061931197E9F7EB81FC8125960895BA93D3
:1035EE00AA93A991B991EE27FF276D91662311F049
:1035FE003196FBCF08950E94E320AA27BB27E991BD
:10360E00F991699179916BBF0790002011F0119695
:10361E00FBCFFD010895A2E0B0E00C94AB1F0E9419
:10362E0092010C948F01E981E07F0E2F02950F70AD
:10363E00A02FF5CFE981EF700E2FA02F0E949201DF
:10364E00EACFA981BA818B819C81FF2766277727D4
:10365E000E94B91F0895E0E0E0931209E093130968
:10366E000895A0911209B09113090895A4E1B9E04B
:10367E00EE0FFF1F0895A2E1B9E0ED91FD91319695
:10368E00FE93EE9308950E94EF01E0E0EA93A0E02E
:10369E000C94F2010E94C401A8EEB3E00C94AB1F8F
:1036AE00A02FB0E0A950B14FE02FFF276627772754
:1036BE000895E856FF4F6F4F6BBFE691EC93089558
:1036CE00BA93AA931A930A930895E4E5FCE0FA9349
:1036DE00EA930895FA93EA93E0E4F0E0FA93EA931A
:1036EE00A0E2BAE00895A4E5BCE00C94ED18E4E184
:1036FE00FAE0FA93EA930895A091740EB091750EC4
:10370E000895FADFE4E0F0E008950E946620AECF5F
:10371E000E946620DF01AA0FBB1FAA5EB64F6D91F5
:10372E007C91EFCFAE0FBF1F0E94AC20DF01FB01DB
:10373E00EA1BFB0B08950E944E20DF01E4E0F0E04F
:10374E000E9466200895A4E7BEE0ED91FD910895D4
:10375E0088DFE2E1F0E00895EA1BFB0BE950F14F40
:10376E00E0810895BB270E94B802A091000FA030FF
:10377E0008950E94B802ECCFF0E00E940F20DF0106
:10378E00CB010895EA81FB816C817D8108950E94B1
:10379E00B620EF5FFF4F6F4F7F4F0E94C020E1506A
:1037AE00F040604070400895E983FA836B837C8318
:1037BE000895ED81FE816F8178850895A981BA8182
:1037CE008B819C810895E985FA85A181AA93EA856A
:1037DE00FB85F296FA93EA93EC81FD816E817F81EF
:1037EE000E94DE20A1E00C945408A2A1B3A184A1F2
:1037FE0095A10895E885F9856A857B8508950E94CF
:10380E00DE20A1E00E94F007E0300895FA93EA93DB
:10381E00A0E0B0E080E090E00C942E0B9E96E0E0ED
:10382E00F0E060E070E00E94BB200895F296FA93FB
:10383E00EA93E0E0EA93A0E0B2E00C94E61A0E946C
:10384E00D920E981FA81F29608950E94B020D00124
:10385E000E94BB20E981FA810895A289B3898489E7
:10386E0095890E94E320A1E00895A885B9858A85EF
:10387E009B850895A230E0E0BE07E0E08E07E0E011
:10388E009E070895E1E0F0E060E070E008950E9488
:10389E00B020EC83FD836E837F830895EC85FD85D8
:1038AE00FA93EA93D901E0E0F2E00E945320AE8150
:1038BE00BF8188859985662777270E94BE1F0E9443
:1038CE002E0BE0300895AC85BD85D296F901F170CE
:1038DE00AE0FBF1F0895EC85FD85FA93EA93AA8576
:1038EE00BB858C859D850895E0E0F1E060E070E099
:1038FE000E946B200895AE81BF81888599850E94B4
:10390E00BE1F0E942E0BE03008950E944820F170D9
:10391E00AC85BD85D296AE0FBF1F08950E94AC2018
:10392E00662777270895E0E8F0E060E070E00E94F7
:10393E006B200895EFEFFFEF6FEF7FEF0895AD85EA
:10394E00BE858F8598890895E989FA89FA93EA9355
:10395E00D801E0E0F2E00E945320AF81B88589855E
:10396E009A85662777270E94BE1F0E942E0B4E2F28
:10397E0040300895A989BA89D296F801F170EA0FFC
:10398E00FB1F9F01ED85E1700895A985BA858B8592
:10399E009C850895E989FA89FA93EA93AF85B889E7
:1039AE0089899A890895AF81B88589859A850E94FB
:1039BE00BE1F0E942E0B4E2F403008950E944820AD
:1039CE00F170A989BA89D296EA0FFB1F0895AD81CD
:1039DE00BE818F8198850895A985BA855E960E94CD
:1039EE00B020F5DF0E9404210895A130E0E0BE076B
:1039FE00E0E08E07E0E09E070895AF3FEFEFBE07D1
:103A0E00EFEF8E07EFEF9E070895EF81F88569853A
:103A1E007A850895A0E0B0E080E090E00895A68554
:103A2E00B78580899189E9CF1E960E94B620EF5FF7
:103A3E00FF4F6F4F7F4F0E94C02008950E94D420E9
:103A4E000895E889F9896A897B890895AC81BD81D9
:103A5E008E819F8108950E94CA200895EC83FD8374
:103A6E006E837F830895EC89FD89FA93EA93089516
:103A7E000E94FF0BEC87FD876E877F870895AC85CC
:103A8E00BD858E859F850895EC85FD856E857F8528
:103A9E000895EC81FD816E817F810895E887F98715
:103AAE006A877B870895F5DFE0DE0E94FF20089588
:103ABE00E0E0F0E060E070E00895EA85FB856C855B
:103ACE007D850E94DE2008950E94E8200E94C31F7B
:103ADE000895A885B9851496ED93FC93A885B985AC
:103AEE0008950E94B020EA83FB836C837D83089542
:103AFE00AA81BB818C819D810895A885B9850E947C
:103B0E00AC2008957E96DF010E94B020F1DF0E9466
:103B1E000421089537DEA885B9851A960E94BB2028
:103B2E00ECCF662777270E94B91F0895A885B9851F
:103B3E001E960E94BB200895EF70F070EE0F0E944B
:103B4E00EE1FEA0FFB1FA885B9855296ED93FC93E5
:103B5E00E0E008950E94B0200E94F5200895FA93A7
:103B6E00EA93EA85FB85A285B385848595850895BC
:103B7E00EB83FC836D837E830895AB81BC818D8145
:103B8E009E810895F5DFEB81FC816D817E81089524
:103B9E00FA93EA931CDF0C943D0EBA93AA930E94FB
:103BAE000B21EC81FD81FA93EA93A0E0B0E00E9434
:103BBE00750E0E2F00300895AC81BD810E94AC2091
:103BCE00FA93EA93EE81FF81A685B7858089918964
:103BDE000E942E0B0E2F003008953A932A93EE81F9
:103BEE00FF81A489B589BA93AA93ABE0B0E008959A
:103BFE000E94AC20EE83FF830895E885F985AE819F
:103C0E00BF810895E885F9853196E887F987319760
:103C1E00AE81BF81AE0FBF1F1C910895E52F5F5F70
:103C2E00F0E0E30FF41F10830895EA0FFB1FAB853E
:103C3E00BC85ED93FC93113208953ADF0E94BB20B0
:103C4E000895AE81BF8116960E94BB200895EE8125
:103C5E00FF81FA93EA930895E0E0F0E0ED93FC9390
:103C6E000895A12FB22F549659CEA12FB22F5A9646
:103C7E000E94AC200895662777270E94CD1F0895D5
:103C8E00F296E250FE4FDF010E94AC20E535AAEA23
:103C9E00FA0708950E94B020EF7FFF7F6F7F70704C
:103CAE00E634A1E4FA07A4E56A07A0E07A070895CE
:103CBE00ABE0BFE0F0E0EE0FFF1FAE0FBF1F0895A9
:103CCE00ED81FE81FA93EA930895E98BFA8B6B8B63
:103CDE007C8B0895E989FA896B897C890895AD8179
:103CEE00BE81A05CBF4F0E94AC200895AD89BE89F5
:103CFE008F89988D16CFED81FE81A085B185FD014E
:103D0E000E94F71F0895ED81FE816FDDE3DF0E94B3
:103D1E00B91F0895ED91FD913196FE93EE9308959E
:103D2E00A0E0B0E0A083B183E12FF22F0895A98D1A
:103D3E00BA8D0E94AC200895FA93EA93EB8DFC8D18
:103D4E000895A281B3810E94C5130E2F00300895ED
:103D5E00E98DFA8DA681B781808591850895EF83CF
:103D6E00F88769877A8751CEA289B3898489958924
:103D7E000895A98DBA8D1496EC91E068EC93089590
:103D8E00EB87FC876D877E870895EB85FC856D85B7
:103D9E007E850895E98DFA8DE581F0E00895AB8575
:103DAE00BC858D859E850895E0E0F2E00E9453204B
:103DBE003E2F4F2F032E042A0895E98DFA8DA689E2
:103DCE00B789808D918DE1CF0E94C81FE32FF42F0C
:103DDE00662777270E94042108950E94C81FE0E0FD
:103DEE00F2E060E070E00E9428200895FA93EA93D2
:103DFE00A0E0B2E00C94D41A1596EC91E30FEC937C
:103E0E00E32FF42FEE0FFF1FFE2FE0E01E2F2F2FBC
:103E1E000895E181EA93EA8DFB8DB096FA93EA93C9
:103E2E000895A689B789808D918D0E94E320A1E027
:103E3E000E945408E03008951496EC91EF7BEC93B9
:103E4E00089516960E94AC20F1700895A0E0B2E09D
:103E5E00AE1BBF0B1A2F2B2F0895FA93EA93A12FA7
:103E6E00B22F0C94D41AE12FF22FAD81BE81EA0F3E
:103E7E00FB1FED83FE83089536960F01DF010E942E
:103E8E00B020DF01CB01E12FF22F4BCEED91FD9152
:103E9E00E10FF21FFE93EE930895AD89BE890E9445
:103EAE00AC200895FA93EA93EF89F88D0895AD89C1
:103EBE00BE891A960E94B0200895ED89FE89A681CA
:103ECE00B781808591850895AD89BE891496EC9150
:103EDE00E068EC930895E181EA93EE89FF89B0964C
:103EEE00FA93EA930895ED89FE89E581F0E008954D
:103EFE00ED89FE89A689B789808D918D86CDAF819A
:103F0E00B8850E94AC2008953A93AF85B889E989A7
:103F1E00FA8909950895EA89FB893497EA8BFB8B18
:103F2E000895AF85B889E989FA8909950895EE83D0
:103F3E00FF83688779870895AA89BB8914960E94A2
:103F4E00AC20EC87FD870895109639F080EA9FE04B
:103F5E000197F1F7A8951197C9F708950024AF0DB1
:103F6E00B01D0895EA0FFB1F681F791F0895AE0F4D
:103F7E00BF1F861F971F0895EA1BFB0B680B790B5B
:103F8E000895AE1BBF0B860B970B0895EA2BFB2BE8
:103F9E00682B792B0895F195E195F0400895EE2365
:103FAE000E2EFD01BC0131F0EE0FFF1F661F771FB5
:103FBE000A94D1F70895EE230E2EFD01BC0131F0C7
:103FCE0076956795F795E7950A94D1F70895EE0FD4
:103FDE00FF1FEE0FFF1FEE0FFF1FEE0FFF1F0895C7
:103FEE00F695E795F695E795F695E795F695E795A7
:103FFE000895EE0FFF1F661F771F0895E62FF72F08
:10400E0060E070E008956E2F7F2FE0E0F0E00895FD
:10401E006F2F660F660B762F0895EA17FB07E1E008
:10402E000CF4EE270895AE17BF07E1E00CF4EE276F
:10403E000895FA9FF02DEB9FF00DEA9FE02DF10D04
:10404E0008957A9F702D6B9F700DF89F700DE99FEC
:10405E00700D6A9F602D710DFB9F600D711DE89FA5
:10406E00600D711D8827FA9FF02D610D781FEB9F53
:10407E00F00D611D781FEA9FE02DF10D681F781F6E
:10408E0008956E2F6A9FF0016B9FF00D08954FD02B
:10409E00D0DF0EF480DF08950024112490E1AA0FE2
:1040AE00BB1F001C111C0E1A1F0A18F40E0E1F1E29
:1040BE0001C0A1609A9599F7FD01D001089537D0FE
:1040CE00EBDF0EF468DF08953F934F935F93002468
:1040DE0011244427552730E2AA0FBB1F881F991FB2
:1040EE00001C111C441F551F0E1A1F0A460B570B9E
:1040FE0028F40E0E1F1E461F571F01C0A1603A95D1
:10410E0059F7FD01BC01D001CA015F914F913F915A
:10411E000895E894B7FF04C0A095B09511966894E1
:10412E00F7FD39DFB9DFFD010EF435DF0895E894B0
:10413E00F7FF02C030DF6894B7FF06C0A095B095B8
:10414E00119600F8039400FA0895ED91FC911197E1
:10415E000895ED91FD916D917C9113970895ED91D8
:10416E00FD916D917D910895ED93FD936D937C93EB
:10417E0008957E936E93FE93EE9308956BBF079012
:10418E00F691E02D0895E881F9816A817B81089589
:10419E00A881B9818A819B810895E883F9836A8316
:1041AE007B830895A083B1838283938308957A934A
:1041BE006A93FA93EA9308959A938A93BA93AA9379
:1041CE000895182E862F612D192E972F712D1B2EC7
:1041DE00BF2FF12D1A2EAE2FE12D0895309760408E
:1041EE007040089500240A160B0608060906089565
:1041FE00EA17FB07680779070895AE17BF0786070A
:10420E00970708955A934A933A932A931A930A93C7
:10421E0008955D814C813B812A8119810881089521
:10422E00AC0FBD1F6BBF07900D928A95E1F70895F5
:00000001FF
