:0C0000000C9455000C9400000C940000BF
:10000C000C9400000C9400000C9400000C94000064
:10001C000C9400000C9400000C9400000C94000054
:10002C000C9400000C9400000C9400000C94000044
:10003C000C9400000C9400000C9400000C94000034
:10004C000C9400000C9400000C9400000C94000024
:10005C000C9400000C9400000C9400000C94000014
:10006C000C9400000C9400000C9400000C94000004
:10007C000C9400000C9400000C9400000C940000F4
:10008C000C9400000C9400000C9400001027E80362
:10009C0064000A0001000010000110000100F89437
:1000AC00EE27EFBBF1E0F5BFE5BF8DE0A2E0BB278B
:1000BC00ED938A95E9F780E090E2A0E0B1E0ED9352
:1000CC000197E9F78BBFE0E0EEBBEFEFEDBFE0E2AD
:1000DC00EEBFC0E0D9E00C947300279AE0E0E09307
:1000EC00C800E8E1E093C900E6E0E093CA00E0E074
:1000FC00E093CD00ECE0E093CC000BD04E2EE8E486
:10010C00E41509F42F9AECE4E41509F42F98F5CFD3
:10011C00FFCFE091C800E078E1F3E091CE000895C4
:00000001FF
