:080000000C94AB010C9400000C
:100008000C9400000C9400000C9400000C94000068
:100018000C9400000C9400000C9400000C94000058
:100028000C9400000C9400000C9400000C94000048
:100038000C9400000C9400000C9400000C94000038
:100048000C9400000C9400000C9400000C94000028
:100058000C9400000C9400000C9400000C94000018
:100068000C9400000C9400000C9400000C94000008
:100078000C9400000C9400000C9400000C940000F8
:100088000C9400000C9400000C9400000C940000E8
:1000980000000000000000F2000000E000E000287E
:1000A800FE28FE282454FE5448C4C81026466C92E4
:1000B800AA840A00A0C000000038448200008244DC
:1000C800380028107C102810107C1010000506003D
:1000D8000010101010100006060000040810204040
:1000E8007C8A92A27C0042FE020042868A92628446
:1000F80082A2E29C182848FE08E4A2A2A29C3C52D4
:1001080092920C808E90A0C06C9292926C609292A7
:1001180094780036360000003536000010284482F6
:10012800002828282828008244281040808A9060C7
:100138004C929E827C7E9090907EFE9292926C7CF5
:1001480082828244FE8282827CFE92929292FE9009
:100158009090907C8292925CFE101010FE0082FEBD
:10016800820084828282FCFE10284482FE020202FF
:1001780002FE402040FEFE402010FE7C8282827CEF
:10018800FE909090607C8286827DFE909894626456
:100198009292924C8080FE8080FC020202FCF8045D
:1001A8000204F8FE040804FEC6281028C6C0201E53
:1001B80020C0868A92A2C200FE82820040201008D7
:1001C80004008282FE0020408040200202020202D7
:1001D8000080402000042A2A2A1EFE1222221C1C0B
:1001E800222222221C222212FE1C2A2A2A18107ECF
:1001F800908040182525253EFE1020201E0022BE96
:100208000200040222BC00FE081422000082FE0242
:10021800003E2018201E3E1020201E1C2222221CD8
:100228003F24242418182424243F3E102020101290
:100238002A2A2A0420FE2202043C0202043E380430
:100248000204383C020C023C2214081422300A0A28
:100258000A3C22262A322200106C82000000FE008E
:100268000000826C10001020100810000000000030
:1002780004AA2AAA1E1CA222A21C1C4202421C3E3C
:10028800D050D03E3CC242C23C3C8202823C7F906D
:1002980092926C00000000000000000000000000C6
:1002A8000000000000000000000000000000000046
:1002B8000000000000000000000000000000000036
:1002C8000000000000000000000000000000000026
:1002D8000000000000000000000000000000000016
:1002E8000000000000000000000000000000000006
:1002F80000000000000000000000000000000000F6
:1003080000000000000000000000000000000000E5
:1003180000000000000000000000000000000000D5
:100328000000000000000000000046756E63696F61
:100338006E616E646F00496E7365727465206D65D9
:100348006E73616A6520617175692E2E2E00F894AE
:10035800EE27EFBBF1E0F5BFE5BF8DE0A2E0BB27DC
:10036800ED938A95E9F780E090E2A0E0B1E0ED93A3
:100378000197E9F78BBFE0E0EEBBEFEFEDBFE0E2FE
:10038800EEBFC0E0D5E00C940903BA93AA930A9390
:100398004298419800E0003180F4EA81E07811F455
:1003A800409801C0409A429A4298E981FA81EE0F3A
:1003B800FF1FE983FA830F5FEECF419A41980881C6
:1003C80023960895E7E0E7B9A0E0B9E0DEDFA8E00A
:1003D800BAE0DBDFA7E0BBE0D8DFA1E0BCE0D5DF17
:1003E800A0E0BFE039C0AA93E881E052E8833DD19C
:1003F800A0E0B8E040D13496E491F0E0F360DF018A
:100408003AD13396E491F0E0F460DF0134D13296CA
:10041800E491F0E0F560DF012ED13196E491F0E04F
:10042800F660DF0128D1E491F0E0F760DF01ADDF8D
:10043800219608951AD1A0E0B3E0A7DFA0E0B4E0C8
:10044800A4DFA0E0B5E0A1DFA0E0B6E09EDFA0E079
:10045800B7E09BDFA0E0B8E098DF0895AA930A937D
:1004680000E000E0E981F0E031970DD16CF4AC8157
:10047800BD81EE27A00FBE1FAC91B5DFAA81BB815D
:100488000E9453030F5FEECF088126960895AA9322
:100498001A930A9300E010E0CDDFEA81F0E031978B
:1004A800A5E0B0E00E946903E0931005F093110500
:1004B80000E0E0911005F09111053896E4D00CF0B9
:1004C800A0C0E0910C05F0910D05E0930E05F093A6
:1004D8000F05E0910A05F0910B05E0930C05F093E8
:1004E8000D05E0910805F0910905E0930A05F093E0
:1004F8000B05E0910605F0910705E0930805F093D8
:100508000905E0910405F0910505E0930605F093CF
:100518000705E0910205F0910305E0930405F093C7
:100528000505E0910005F0910105E0930205F093BF
:100538000305E0911005F0911105A5D0CCF4AD812B
:10054800BE81EE27A10FBE1FEC91F0E0B097A5E0A9
:10055800B0E00E946103E856FF4FBF0199D0E60F53
:10056800F71FE491F0E0E0930005F093010505C062
:10057800E0E0E0930005E09301058AD0E430A0E0D4
:10058800FA0709F41F5FE0910005F0910105F16099
:10059800DF01FBDEE0910205F0910305F260DF0167
:1005A800F4DEE0910405F0910505F360DF01EDDE6E
:1005B800E0910605F0910705F460DF01E6DEE091C1
:1005C8000805F0910905F560DF01DFDEE0910A0515
:1005D800F0910B05F660DF01D8DEE0910C05F09193
:1005E8000D05F760DF01D1DEE0910E05F0910F05F2
:1005F800F860DF01CADEAB81BC810E9453030F5F44
:1006080058CF1981088127960895E7E0EBB9DADE1B
:10061800489913C02C978CE0A0E0B0E0E2E3F3E047
:100628000E949D03FE01FA93EA93E8EEF3E0FA9341
:10063800EA93ACE013DF2C9616C0499913C068976B
:1006480088E1A0E0B0E0EEE3F3E00E949D03FE0144
:10065800FA93EA93EAEFF0E0FA93EA93A8E117DF56
:10066800689601C0E7DED4CFFFCFA0E0B1E08DDE11
:10067800A0E0B2E08ACE89DEE881A5E0EA9FF00139
:10068800E856FF4F0895A02FB0E0AE17BF070895B2
:10069800A02FBB27E5E0F0E00E94810308951096A3
:1006A80039F084EF91E00197F1F7A8951197C9F710
:1006B8000895F195E195F0400895FA9FF02DEB9F8C
:1006C800F00DEA9FE02DF10D089525D0F6DF0EF428
:1006D800F0DF08950024112490E1AA0FBB1F001C2D
:1006E800111C0E1A1F0A18F40E0E1F1E01C0A1605D
:1006F8009A9599F7FD01D0010895E894B7FF04C0D1
:10070800A095B09511966894F7FDD3DFE3DFFD015E
:100718000EF4CFDF0895E894F7FF02C0CADF6894AB
:10072800B7FF06C0A095B095119600F8039400FA9B
:100738000895AC0FBD1F05900D928A95E1F70895B5
:00000001FF
