:0C0000000C9499010C9400000C9400007A
:10000C000C9400000C9400000C9400000C94000064
:10001C000C9400000C9400000C9400000C94000054
:10002C000C9400000C9400000C9400000C94000044
:10003C000C9400000C9400000C9400000C94000034
:10004C000C9400000C9400000C9400000C94000024
:10005C000C9400000C9400000C9400000C94000014
:10006C000C9400000C9400000C9400000C94000004
:10007C000C9400000C9400000C9400000C940000F4
:10008C000C9400000C9400000C9400000000000084
:10009C00000000F2000000E000E00028FE28FE282E
:1000AC002454FE5448C4C81026466C92AA840A00F4
:1000BC00A0C00000003844820000824438002810A0
:1000CC007C102810107C1010000506000010101079
:1000DC001010000606000004081020407C8A92A232
:1000EC007C0042FE020042868A92628482A2E29CDA
:1000FC00182848FE08E4A2A2A29C3C5292920C80C2
:10010C008E90A0C06C9292926C6092929478003611
:10011C0036000000353600001028448200282828BC
:10012C002828008244281040808A90604C929E823D
:10013C007C7E9090907EFE9292926C7C8282824425
:10014C00FE8282827CFE92929292FE909090907CA3
:10015C008292925CFE101010FE0082FE820084825D
:10016C008282FCFE10284482FE02020202FE402023
:10017C0040FEFE402010FE7C8282827CFE9090909D
:10018C00607C8286827DFE90989462649292924CFE
:10019C008080FE8080FC020202FCF8040204F8FE5F
:1001AC00040804FEC6281028C6C0201E20C0868A5B
:1001BC0092A2C200FE8282004020100804008282BB
:1001CC00FE002040804020020202020200804020FB
:1001DC0000042A2A2A1EFE1222221C1C222222225F
:1001EC001C222212FE1C2A2A2A18107E90804018EB
:1001FC002525253EFE1020201E0022BE02000402F2
:10020C0022BC00FE081422000082FE02003E2018D0
:10021C00201E3E1020201E1C2222221C3F2424249F
:10022C0018182424243F3E10202010122A2A2A04B5
:10023C0020FE2202043C0202043E38040204383C34
:10024C00020C023C2214081422300A0A0A3C222610
:10025C002A322200106C82000000FE000000826C2A
:10026C0010001020100810000000000004AA2AAA98
:10027C001E1CA222A21C1C4202421C3ED050D03E8C
:10028C003CC242C23C3C8202823C7F9092926C0007
:10029C000000000000000000000000000000000052
:1002AC000000000000000000000000000000000042
:1002BC000000000000000000000000000000000032
:1002CC000000000000000000000000000000000022
:1002DC000000000000000000000000000000000012
:1002EC000000000000000000000000000000000002
:1002FC0000000000000000000000000000000000F2
:10030C0000000000000000000000000000000000E1
:10031C0000000000000000000000000000000000D1
:10032C00000000000000F894EE27EFBBF1E0F5BFF1
:10033C00E5BF8DE0A2E0BB27ED938A95E9F780E05D
:10034C0090E2A0E0B1E0ED930197E9F78BBFE0E01C
:10035C00EEBBEFEFEDBFE0E2EEBFC0E0D9E00C94F6
:10036C001602BA93AA931A934298419810E010314E
:10037C0080F4EA81E07811F4409801C0409A429AE6
:10038C004298E981FA81EE0FFF1FE983FA831F5F20
:10039C00EECF419A4198188123960895E7E0E7B98A
:1003AC00A0E0B9E0DEDFA8E0BAE0DBDFA7E0BBE06D
:1003BC00D8DFA1E0BCE0D5DFA0E0BFE0D2DF08953C
:1003CC00AA931A93E981E052E983A0E0B1E0C9DF76
:1003DC00A0E0B2E0C6DFA0E0B8E0C3DF13E0183065
:1003EC00E0F4F12FE0E0CF01E981A5E0EA9FF00114
:1003FC00E856FF4FBF01E12FF0E0A7E0B0E00E940C
:10040C004702EA1BFB0BE60FF71FE491F0E0E82B29
:10041C00F92BDF01A6DF1F5FE2CF1881229608952A
:10042C00E7E0EBB9BBDFAFEFB1E09BDFAFEFB2E0E2
:10043C0098DFAFEFB3E095DFAFEFB4E092DFAFEF53
:10044C00B5E08FDFAFEFB6E08CDFAFEFB7E089DF61
:10045C00AFEFB8E086DFA0EDB7E00E943D02A6E466
:10046C00AFDFA0EDB7E00E943D02DDCFFFCF1096CD
:10047C0039F084EF91E00197F1F7A8951197C9F73E
:10048C0008951B2EBF2FF12D1A2EAE2FE12D08959E
:00000001FF
