:040000000C94D70085
:100004000C9400000C9400000C9400000C9400006C
:100014000C9400000C9400000C9400000C9400005C
:100024000C9400000C9460020C94B5020C94000033
:100034000C9400000C9400000C9400000C9400003C
:100044000C9400000C9400000C9400000C9400002C
:100054000C9400000C9400000C9400000C9400001C
:100064000C9400000C9400000C9400000C9400000C
:100074000C9400000C9400000C9400000C940000FC
:100084000C9400000C9400000C9400000C940000EC
:100094000C9400000201030907311000000A00005B
:1000A40000002340244068010664FA0012010002A3
:1000B40002000020EB0310311103010203010403C9
:1000C4000904260348005000200049006E00660021
:1000D4006F005400650063006800200053002E0088
:1000E40052002E004C002E00320343006F006400C7
:1000F400650056006900730069006F006E004100DE
:1001040056005200200055005300420020004400D5
:10011400650076006900630065000C033000300060
:1001240030003000310009023E00020100C03209F3
:10013400040000010202010005240010010424024D
:10014400060524060001070581031000FF090401C8
:1001540000020A00000007050402400000070583AE
:100164000240000000010000B00012000200002A5A
:10017400013E00030000C2000401030904C6002676
:1001840002030904EC0032030309041E010C802558
:100194000000000008000000A12000000000010091
:1001A4000000020005009A010000F894EE27EFBB5E
:1001B400F1E0F5BFE5BF8DE0A2E0BB27ED938A95A2
:1001C400E9F780E090E2A0E0B1E0ED930197E9F770
:1001D400E6EAF1E085919591009761F0A591B591DA
:1001E40005901590BF01F00105900D920197E1F77C
:1001F400FB01F0CF8BBFE0E0EEBBEFEFEDBFE0E241
:10020400EEBFC0E0D9E00C940701279AA8E9B0E05A
:100214005FD07894E0910209E030E1F3ACEDB5E011
:100224000E9454040E942E044E2EE8E4E41509F4BE
:100234002F9AECE4E41509F42F98F4CFFFCFAA9396
:100244000E948604ED81FE81E491EF70E1501E2F3F
:100254001F3FB9F11430B8F5A3E01A9FF001E35F32
:10026400F64F9F01ED81FE8131961491103049F1D2
:10027400113848F5D901E1E0EC93ED81FE81E49178
:10028400E295E370E295E07FEE0FEE0FAC81EA2B8E
:10029400D9011196EC93113410F010E40DC0113211
:1002A40010F010E309C0113110F010E205C019304C
:1002B40010F010E101C010E0E12FE660D9011296C0
:1002C400EC93E1E001C0E0E00E948D0427960895DC
:1002D400BA93AA930E948404E1E8E093D700E0EA89
:1002E400E093D800E0E0E9BDE6E1E9BDE9B5E0FF6F
:1002F400FDCFE0E0E093DA00E0E9E093D800E0E04D
:10030400E093E000E093E100ECE0E093E2000E947F
:100314004204F098F198E0E0E0930209EDE0F9E09E
:10032400FA93EA93E0E0EA93ACE0B0E00E9432048E
:10033400EE81FF81309711F4E0E055C0EE81FF813A
:1003440072960E946C04309711F4E0E04CC0EE8188
:10035400FF817496E491E03011F4E0E044C04E81F2
:100364005F8110E0123060F5FA01E491E03021F190
:10037400FA013596FA93EA93A1E061DFE03041F0A7
:10038400FA013796FA93EA93A0E059DFE03011F4CA
:10039400E0E029C0FA0132960E946C049F01022E0B
:1003A400032A51F03A932A93E0E0EA93FA0134964F
:1003B400A491B0E00E943204475F5F4F1F5FD2CF29
:1003C400E2E9F1E0A3E0B9E088E00E947504EE817F
:1003D400FF817596A0E0B9E082E00E9475045E801A
:1003E4006F80F19AE1E00E948B042896089500241E
:1003F4000514060411F0F19902C0E0E80895E091B3
:100404000209E03011F4E1E80895E0E008951A9358
:10041400EEDF1E2FE03089F4F894E0E0F099E1E09B
:10042400A9E0EA9FF001E50DF61D3796E491EF701F
:10043400E093E900E03009F410E8E12F1991089500
:10044400AA930E9486043FB7E2DF0E2FE03079F5CD
:10045400E091E8000E2FE072E9F402FF06C0E0919B
:10046400E800EB77E093E80014C0EC81E03079F029
:100474000091E9003FBF00003FB7F8940093E90002
:10048400E0910209E03011F401E811C002C002E871
:100494000EC0DECF0091F1001127E091E800E07278
:1004A40029F4E091E800EB77E093E80002C0102F14
:1004B40000273FBFF8010E948D04E0C10A921A92FE
:1004C400AA93EA93FA93EFB7EA931A931091E1008F
:1004D400E0E0E093E10013FF14C0E0E0E093E90002
:1004E400E1E0E093EB00E0E0E093EC00E2E2E09393
:1004F400ED00E8E0E093F000E0E0E0930209E0932F
:100504000A0912FF04C0E0910209E03009F422C094
:1005140010E01230F8F4E12FF0E0E55FF64FE081EF
:10052400E170B1F0E12FF0E0E55FF64FA0E0A083C9
:10053400A9E01A9FF001E50DF61D3596E491EF70E0
:10054400E093E900E091E800EE77E093E80002C070
:100554001F5FDFCF1991E991EFBFF991E991A9915B
:100564001990099018950A921A926A937A938A9329
:100574009A93AA93BA93EA93FA93EFB7EA932C97D0
:100584000E948404E0E0E093E900E091E800E87070
:1005940009F44FC138E0FE0136968F010E944804E9
:1005A4003150E1F7E2EFE093E800AF81A63009F0C3
:1005B4006BC0E52DF62D72960E946C04E88BF98BC6
:1005C400E52DF62D7496249130E03F933F5FE22FA2
:1005D400AF91AE1708F02DC1E889F9890E94700423
:1005E400E885F9856A857B850E947F0461F4E88942
:1005F400F98934960E946C04EE87FF87E889F989AB
:100604003696549106C0E889F9893796E88BF98BB8
:10061400DCCF4C85E52FAC85BD85F0E0EA17FB0700
:1006240008F4452F2091E800E22FE570D9F322FD6C
:1006340003C1242F203208F020E2322FEE85FF85FB
:10064400309781F0E32F3150E03059F0EE85FF858B
:10065400E491E093F100EE85FF853196EE87FF8704
:10066400F1CF08C0E32F3150E03021F0E0E0E09317
:10067400F100F8CF421BEEEFE093E800403011F4B4
:10068400203209F4CFCFD8C0AF81A53061F4EEEFAA
:10069400E093E800E091E800E170E1F3E885E068C8
:1006A400E093E300C9C0AF81A13011F0A33001F59C
:1006B400AE81A230E9F4E885F9853097C9F4EA857A
:1006C400EF772E2F213010F0253008F011C0EEEF17
:1006D400E093E8002093E900AF81A33009F4A9C0B6
:1006E400E9E1E093EB00E22FA1E00E945E0428C060
:1006F400AF81A93019F4AE81A03009F027C0E88594
:10070400E09302090E944204E0E0E0930A090DE04C
:1007140019E0EEEFE093E80031E0353080F43093F7
:10072400E9000E944F04E093EB000E944F04E09321
:10073400EC000E944F04E093ED003F5FEECFEEE14A
:10074400E093EA00E0E0E093EA0076C0AF81A830ED
:1007540019F4AE81A03809F00EC002E019E021E0DE
:10076400E091E800E170E1F30E944F04E093F100AE
:100774002150D1F71BC0EF81E030E1F420E0AE81DD
:10078400A23859F4EA85E093E900E091EB00E072C5
:1007940009F021E0E0E0E093E900E091E800E17095
:1007A400E1F32093F100E0E0E093F100EEEFE09359
:1007B400E80042C0AA85BB851297D8F5AA85BB85F7
:1007C400E9E00E946604E50DF61DE88BF98B54916F
:1007D400AE81A13A51F4523019F4AF81A13209F03B
:1007E40004C003E019E027E0BBCFAE81A13209F5D4
:1007F4005230F9F4AF81A332B9F0A03279F403E0B6
:1008040019E027E0E091E800E470E1F30E94480475
:100814002150E1F7EBEFE093E800C8CFAF81A232BB
:1008240041F4E885E0930A09E091E800E170E1F31E
:10083400BDCFE1E2E093EB000E948B046296E99164
:10084400EFBFF991E991B991A99199918991799120
:100854006991199009901895F09AA1E0F1DD089535
:10086400BA93AA93B981A881109631F0FC81EB81E7
:100874006A8161931197E9F7EB81FC8125960895CC
:10088400E0E0E0930B09E0930C090895E091F10096
:10089400D801EC930F5F1F4F0895D8010F5F1F4FCE
:1008A400EC910895109639F080EA9FE00197F1F7F2
:1008B400A8951197C9F70895EE230E2EEA2F19F083
:1008C400EE0F0A94E9F708956E2F6A9FF0016B9F6B
:1008D400F00D08950590F491E02D0895A591B5913A
:1008E4008591949108959927EF93FF9305900D9224
:1008F4000197E1F7FF91EF910895EA17FB07680765
:10090400790708955A934A933A932A931A930A9328
:1009140008955D814C813B812A8119810881089564
:00000001FF
