:100000000C949A000C9400000C9400000C940000D6
:100010000C9400000C9400000C9400000C94000060
:100020000C9400000C9400000C9400000C94000050
:100030000C9400000C94F0000C9400000C94000050
:100040000C9400000C94D3000C9400000C9400005D
:100050000C9400000C9400000C9400000C94000020
:100060000C9400000C9400000C9400000C94000010
:100070000C9400000C9400000C9400000C94000000
:100080000C9400000C9400000C9400000C940000F0
:100090000C9400000C94000020222A2B2C5B3D5D68
:1000A0007C7F00000004000200018000400020006E
:1000B0001000080004000200000000800040002042
:1000C000001000080040002000100008000400029A
:1000D0001027E80364000A0001000010000110006E
:1000E0000100303A413030312E7761760000010056
:1000F0000400EBFE904D53444F53352E30004E4FCD
:10010000204E414D452020202046415433322020AE
:1001100020004E4F204E414D452020202046415486
:1001200020202020200001006D0FEE000100710F43
:10013000F0000000F894EE27EFBBF1E0F5BFE5BF5B
:10014000F8E1A895A4B7A77FA4BFF0936000E0935F
:1001500060008DE0A2E0BB27ED938A95E9F780E08F
:1001600090E2A0E0B1E0ED930197E9F7E6E2F1E07B
:1001700085919591009761F0A591B59105901590A5
:10018000BF01F00105900D920197E1F7FB01F0CF5F
:100190008BBFE0E0EEBBEFEFEDBFE0E2EEBFC0E013
:1001A000D9E00C94E5010A921A92FA926A937A9332
:1001B0008A939A93AA93BA93EA93FA93EFB7EA933E
:1001C0000E94EA06E991EFBFF991E991B991A991ED
:1001D0009991899179916991F9901990099018955F
:1001E000AA93BA93EA93FA93EFB7EA930E9455164B
:1001F00040F40E945D163197EC5FF64FE081E7BD59
:100200000CC0E091110BF091120BE050F140EC5F4B
:10021000F54FE081E7BD0E945D160E94551609F476
:10022000F19AA091110BB091120BA030E2E0BE0741
:1002300031F4F09AE0E0E093110BE093120BE991B6
:10024000EFBFF991E991B991A9911895BA93AA9341
:100250000E946516EA81FB81FA93EA93A1E00E946D
:10026000C810E093190BF0931A0B309709F0ABC04C
:100270005E9A0E9465160E946A16ECE2F0E00E9407
:100280006F16E0912F09F0E00E94431AA0E0B0E061
:1002900080E091E00E946E1A7F936F93FF93EF933B
:1002A000E0912E09F0E00E94431AA0E0B0E081E066
:1002B00090E00E946E1AAF91BF918F919F910E9422
:1002C000E5197F936F93FF93EF93E0912D09F0E091
:1002D0000E94431AA0E0B1E080E090E00E946E1A14
:1002E000AF91BF918F919F910E94EA19E0912C09E3
:1002F000F0E00E94431A0E94E519E093130BF0937B
:10030000140B6093150B7093160B0E9465160E94D8
:100310006A160E9475160E9478160E9465160E9441
:1003200091160E947816F198F098E3E8E4BDE1E0B8
:10033000E5BDE0E0E093110BE093120BF09902C0F1
:10034000F19B01C001C0FACFF19B08C00E94651665
:100350000E946A160E947516F19805C00E946516E3
:100360000E949116F098E091170BF091180B0E94E3
:100370009616662777270E94F419A093130BB09363
:10038000140B8093150B9093160B7F9909C0E0E036
:10039000E093130BE093140BE093150BE093160B13
:1003A0000E949616A130E1E0BE07E0E08E07E0E093
:1003B0009E0720F6E0E0E4BDE5BD2F98ADE4BDE08A
:1003C0000E9441145E9822960895E0E8E09361004F
:1003D000E0E0E0936100279A569A8F9AEAE0E09372
:1003E0008100EEE4E0938900EFE1E0938800E2E031
:1003F000E0936F00E3E8E4BDE2E0E093B000E09357
:10040000B100EAE5E093B300E2E0E0937000789495
:10041000A0E082D1A4EFB1E00E94D719E4E0FBE0B4
:10042000FA93EA93E2EEF0E0FA93EA9380E00E9416
:10043000C7152496E0E0EA93ABE1BBE00E94981078
:10044000E093190BF0931A0B309719F4A4E0BBE07A
:10045000FDDE0E949F16FFCFFFCFFFCFAA930E9421
:100460001C1B30E01C81AD81BE812D91AD83BE830C
:1004700008E0330FE32FE227E07811F0E9E03E27B0
:10048000220F0150B1F7115071F7E32FEE0FE16029
:100490000E94231B54C50A93E2E3E0936F0FEFEF32
:1004A000EEBDEDB5E7FFFDCFEFEFEEBDEDB5E7FF3C
:1004B000FDCF0EB50F3F21F0E0916F0FE03009F452
:1004C00001C0F2CFE02FBAC4289AEFEFEEBDEDB530
:1004D000E7FFFDCF0895BA93AA930E941D1BE4E1A4
:1004E000E0936E0FEFEFEEBDEDB5E7FFFDCF0EB57C
:1004F0000F3F21F4E0916E0FE03009F401C0F2CF1C
:100500000E3F21F0E0E00E94241B19C51D812E81C1
:10051000EFEFEEBDEDB5E7FFFDCF2F931F931F5F0C
:100520002F4FEEB5AF91BF91EC93EFEFEEBDEDB570
:10053000E7FFFDCF2F931F931F5F2F4FEEB5AF91B6
:10054000BF91EC93EFEFEEBDEDB5E7FFFDCF2F933D
:100550001F931F5F2F4FEEB5AF91BF91EC93EFEF5D
:10056000EEBDEDB5E7FFFDCF2F931F931F5F2F4F1C
:10057000EEB5AF91BF91EC93EB81FC813497EB83A7
:10058000FC8331F6EFEFEEBDEDB5E7FFFDCFEFEF0A
:10059000EEBDEDB5E7FFFDCFE1E00E94241BCFC427
:1005A000AA930E941C1B77DFEF3F21F0E0E00E943E
:1005B000231BC5C4EC81EEBDEDB5E7FFFDCFAC81DB
:1005C000AD3F69F110E02D813E81D9012F5F3F4F92
:1005D000EC91EEBDEDB5E7FFFDCFD9012F5F3F4FA9
:1005E000EC91EEBDEDB5E7FFFDCF115071F7EFEFE8
:1005F000EEBDEDB5E7FFFDCFEFEFEEBDEDB5E7FFEB
:10060000FDCFEFEFEEBDEDB5E7FFFDCF0EB5E02F6F
:10061000EF71E53021F0E0E00E94231B90C4E1E09F
:100620000E94231B8CC40E94F41A1A930A93EE8131
:10063000E07881F0EE81EF77EE83E7E7EA93A0E0E0
:10064000B0E080E090E0EFDF1E2F123018F019814B
:10065000088175C4AE81AC3449F036DF28981BDFC1
:10066000EF3F21F0EFEF1981088169C4EE81EEBD03
:10067000EDB5E7FFFDCFED81EEBDEDB5E7FFFDCFB9
:10068000EC81EEBDEDB5E7FFFDCFEB81EEBDEDB545
:10069000E7FFFDCFEA81EEBDEDB5E7FFFDCF01E05D
:1006A000AE81A03411F405E904C0AE81A83409F488
:1006B00007E80EBDEDB5E7FFFDCFAE81AC3429F400
:1006C000EFEFEEBDEDB5E7FFFDCF0FEFEFEFEEBDC6
:1006D000EDB5E7FFFDCF1EB517FF02C0015009F4CD
:1006E00001C0F4CFE12F1981088129C4BA93AA93DC
:1006F0000A9304E0EFEFEEBDEDB5E7FFFDCFA98172
:10070000BA811196A983BA831197EEB5EC93015083
:1007100089F7088123960895AA9324970E941D1BA8
:10072000EF81E03021F0E1E00E94241BB3C1249866
:100730002598EAE0E0936E0FE0916E0FE030E1F76C
:10074000E0916D0FE27029F0E0916D0F0E94241B83
:10075000A1C1209A289AE5B1E97FE5B92B9A23989F
:10076000E4B1E760E4B9E3E5ECBDE0E0EDBD2FEF17
:100770000AE0EFEFEEBDEDB5E7FFFDCF0150C9F7A1
:10078000E0E4EA93A0E0B0E080E090E04CDF1E2FD0
:100790002150113011F0203009F401C0E9CF20E0E0
:1007A000113009F068C0E4E6E0936E0FE8E4EA93E4
:1007B000AAEAB1E080E090E036DFE13091F5DE01B9
:1007C000139694DFAD81A13019F4AE81AA3A09F0F5
:1007D00027C0E0916E0FE03049F0E9EEEA93A0E027
:1007E000B0E080E090E41FDFE03009F401C0F1CF19
:1007F000E0916E0FE03049F0EAE7EA93A0E0B0E064
:1008000080E090E010DFE03009F00AC0DE011396CE
:100810006DDFEB81E07411F0ECE001C0E4E02E2F1D
:100820002AC0E9EEEA93A0E0B0E080E090E0FBDED1
:10083000E23018F422E019EE02C021E011E4E09168
:100840006E0FE03041F01A93A0E0B0E080E090E05D
:10085000EADEE03009F401C0F2CFE0916E0FE03043
:1008600049F0E0E5EA93A0E0B2E080E090E0DBDE72
:10087000E03009F020E02093700F26DE203041F0B8
:10088000E0916D0FEE7FE0936D0FE0E5ECBD11C0E0
:10089000289801DE19DEE0E0ECBDE4B1E07FE4B9C8
:1008A000E5B1E07FE5B92098E0916D0FE160E0935C
:1008B0006D0FE0916D0F0E94241BECC0AA93E8819C
:1008C000E03011F0E1E002C0E0916D0F2196089553
:1008D000AA93EF81E03019F4E881E03019F4E4E004
:1008E000F0E0D8C0E0916D0FE17019F0E3E0F0E0C6
:1008F000D1C0E091700FE87071F4E981FA816B81E9
:100900007C81A0E0B2E080E090E00E94481AE98398
:10091000FA836B837C83A881A130A9F4E1E5EA9393
:10092000AA81BB818C819D817EDEE03059F4ED810E
:10093000FE81FA93EA93A0E0B2E0CDDDE03011F061
:10094000E0E0E88323C0E2E5EA93AA81BB818C81E1
:100950009D8169DEE030D1F4ED81FE81FA93EA9366
:10096000A0E0B2E0B8DDE03051F0ED81FE81E05072
:10097000FE4FED83FE83E881E150E88369F7ECE404
:10098000EA93A0E0B0E080E090E04DDE9DDDE881FC
:10099000E03019F0E1E0F0E002C0E0E0F0E07AC021
:1009A000AA93EF81E03019F4E881E03019F4E4E033
:1009B000F0E070C0E0916D0FE17019F0E3E0F0E05D
:1009C00069C0E0916D0FE47019F0E2E0F0E062C000
:1009D000E091700FE87071F4E981FA816B817C819C
:1009E000A0E0B2E080E090E00E94481AE983FA8338
:1009F0006B837C83A881A130A1F4E8E5EA93AA8106
:100A0000BB818C819D810FDEE03051F4ED81FE8150
:100A1000FA93EA93AEEFC4DDE03011F0E0E0E88352
:100A200030C0E091700FE67039F0E7EDEA93A981EC
:100A3000BB2788279927F7DDE9E5EA93AA81BB81DF
:100A40008C819D81F0DDE030E1F4ED81FE81FA934F
:100A5000EA93ACEFA5DDE03051F0ED81FE81E0508E
:100A6000FE4FED83FE83E881E150E88371F7E0E01B
:100A7000F0E0FA93EA93ADEF93DDE03011F4E1E0BA
:100A8000E88322DDE881E03019F0E1E0F0E002C027
:100A9000E0E0F0E028960895BA93AA9360970E9448
:100AA0001B1BE88DE03019F0E4E0F0E08FC1E0912D
:100AB0006D0FE17019F0E3E0F0E088C101E010E0B3
:100AC000EF89E03039F42898E6DCEF3F11F400E0DC
:100AD00010E07AC1E13009F05CC0E9E4EA93A0E0FB
:100AE000B0E080E090E09FDDE03049F4FE01359613
:100AF000FA93EA93A0E1B0E0EEDCE03009F448C0FC
:100B0000ED81E295EF70E695E695E13069F4E0E07D
:100B1000FD85AE85B0E0EA0FFB1F31969F01D9013C
:100B200088279927EAE02CC0EA85EF70AE2FEF8581
:100B3000E078EE1FE0E0EE1FAE0FEE85E370EE0F03
:100B4000EA0FEE5F4E2FED85E295EF70E695E695A4
:100B5000AE2FEC85F0E00E94261AB0E0AE0FBF1F6A
:100B6000EB85E370F0E00E94261AFE2FE0E0EA0F2A
:100B7000FB1F31969F01D90188279927E42FE9505F
:100B80000E940A1AAD89BE890E94CD1A00E010E0C9
:100B90001BC1E23049F4AD89BE89E0E0F2E0ED939B
:100BA000FC9300E010E010C1E33009F0ADC0E0912B
:100BB000700FE47089F1EDECEA93A0E0B0E080E022
:100BC00090E031DDE03039F5EFEFEEBDEDB5E7FF58
:100BD000FDCFFE013596FA93EA93A0E1B0E07BDC0D
:100BE000E030C9F040E3403039F0EFEFEEBDEDB555
:100BF000E7FFFDCF4150F7CFEF85E295EF70A0E121
:100C0000B0E080E090E00E940A1AAD89BE890E949F
:100C1000CD1A00E010E077C0E9E4EA93A0E0B0E08C
:100C200080E090E000DDE03009F06DC0FE01359617
:100C3000FA93EA93A0E1B0E04EDCE03009F463C03F
:100C4000E091700FE27051F1EF85EF73FF27662797
:100C500077270E94341A7F936F93FF93EF93E8896D
:100C6000E078FF2766277727DF01CB01E7E00E94C6
:100C7000161AAF91BF918F919F910E94E519EF5F76
:100C8000FF4F6F4F7F4FDF01CB01EA89E295EF7095
:100C9000E695E695E1500E940A1A2FC0EF85EC77A1
:100CA000E695E695FF2766277727EF5FFF4F6F4FA3
:100CB0007F4F7F936F93FF93EF93E889E370FF2754
:100CC00066277727DF01CB01E3E00E940A1ADF01E4
:100CD000CB01E889E07EE295EF70E695FF27662775
:100CE00077270E94E519EF5FFF4F6F4F7F4FAF915E
:100CF000BF918F919F910E94481AAD89BE890E9431
:100D0000CD1A00E010E060C0EA3041F4E091700FCD
:100D1000AD89BE89EC9300E010E056C0EB3011F4D1
:100D200049E403C0EC3009F54AE44A93A0E0B0E09E
:100D300080E090E078DCE030B9F4ED89FE89FA9348
:100D4000EA93A0E1B0E0C7DBE03071F0ED89FE8905
:100D5000FA93EA93AFE082DBAE2FED89FE89E78557
:100D6000EA1711F400E010E02FC0ED3079F4EAE763
:100D7000EA93A0E0B0E080E090E055DCE03029F4B8
:100D8000AD89BE89B3DC00E010E01EC0EE30D1F4C6
:100D9000EDECEA93A0E0B0E080E090E044DCE030ED
:100DA00081F4EFEFEEBDEDB5E7FFFDCFED89FE89F4
:100DB000FA93EA93A0E4B0E08EDBE03011F000E0BB
:100DC00010E002C004E010E07FDBF8010E94221B6B
:100DD000699608950A9300916E0F003019F0015042
:100DE00000936E0F00916F0F003019F001500093C7
:100DF0006F0F0091710FE0E0E093710F1C9903C039
:100E0000E1E0E093710F1D9B05C0E091710FE2607E
:100E1000E093710FE091710FE01781F400916D0F75
:100E2000E17011F00D7F01C00360E091710FE2707D
:100E300011F0046001C00B7F00936D0F09910895BC
:100E40002797A0910009B0910109109731F0A09166
:100E50000209B0910309109729F4E0E0F0E061E2A3
:100E60007AE36DC0FE013696FA93EA93FE01379657
:100E7000FA93EA93DE011896E0910009F0910109D6
:100E80000995FE013396FA93EA93FE013496FA939C
:100E9000EA93DE011496E0910209F09103090995A5
:100EA000E881F981EC5BF74066277727DF01CB010A
:100EB000E9E10E940A1A7F936F93FF93EF93EA810F
:100EC0000E94A516E5E10E940A1AAF91BF918F9189
:100ED0009F910E94F919DF01CB01EB81F0E00E94A4
:100EE000431A0E943E1A0E94F9197F936F93FF9351
:100EF000EF93EE810E94A516EBE00E940A1AAF91D3
:100F0000BF918F919F910E94F9197F936F93FF93E7
:100F1000EF93ED810E94A516E5E00E940A1AAF91B9
:100F2000BF918F919F910E94F919DF01CB01EC8154
:100F3000F0E0F595E7950E94431A0E94F91927966B
:100F40000895AA930A93EA81FB81E4910E2FE03081
:100F500019F0E981E01709F406C0EA81FB813196B6
:100F6000EA83FB83F0CFE02FF0E0D8C00E94F41AB0
:100F700024970A93A985BA859E960E94C21AE9838E
:100F8000FA836B837C830E94AB160E94B0160E948A
:100F9000101B09F454C0E985FA85E481E030A1F121
:100FA0000E94B516309719F0E1E0F0E04AC0A9853B
:100FB000BA851496E0E0EC93E985FA850E94C7169D
:100FC0000D01A985BA855A960E94C21AD0010E94C5
:100FD000E5190E94B0160E94151BB0F4E985FA8548
:100FE0000381023088F0A985BA855A960E94C21AF8
:100FF0000E94B0160E94E519E983FA836B837C8313
:101000000E94B5160150EDCF0E94AB160E94061B40
:10101000B1F0E985FA85A181AA93EA85FB85F2966C
:101020000E94CC160E94D51619F0E1E0F0E009C04C
:101030000E94AB16A985BA859E960E94CD1AE0E063
:10104000F0E008812B9608950E94DA16EA81FB8170
:101050000E94DF168F01002E012A09F05DC0AA81CF
:10106000BB81AC91A33029F4EA81FB81E581E030BA
:1010700009F445C0AA81BB810E94E716EA81FB8181
:101080000E94EF16EA81FB81F296E250FE4FA5E541
:10109000BAEAA083B183EA81FB81F296A2E5B2E5C8
:1010A00081E691E40E94F816EC51FE4FA2E7B2E708
:1010B00081E491E60E94F816E851FE4F0F01AA81E3
:1010C000BB811E960E94FE16F296E451FE4F0F0160
:1010D000AA81BB811A960E94FE16A181AA93EB8178
:1010E000FC81F296FA93EA93ED81FE810E94061745
:1010F000A1E056DCAA81BB811596E0E0EC93EA8181
:10110000FB81A181AA93E0E0EA93A0E0B0E0C4DC17
:10111000309711F001E010E0F80119810881249660
:1011200008950E94F41A24970E941C1B0E940D1718
:101130000E94121750F0AC85BD855E960E94C21ABF
:101140000E940D170E94151B18F00E941A1760C00C
:10115000AC85BD8592960E941F17AC85BD85EC912C
:10116000F0E0E130A0E0FA0739F528853985F9018A
:10117000F695E7952E0F3F1F0E94261709F046C0EF
:101180000E943B170C9111272F5F3F4F0E9426179B
:10119000E9F50E943B17EC91FE2FE0E00E2B1F2B90
:1011A000E885E17021F0F8010E942B1A02C0F801D5
:1011B000FF70662777272CC0E230A0E0FA0779F4A9
:1011C0000E9443170E944C170E945317F9F4A885F8
:1011D000B985E2E00E945D170E94661719C0E330EE
:1011E000A0E0FA0799F40E9443170E946B170E942F
:1011F000531761F4A885B985E4E00E945D170E9449
:10120000C21AEF7FFF7F6F7F7F7002C00E9472174C
:101210000E94231B2E9608950E94F41A24970E9480
:101220001A1B0E9477170E94121750F0AA89BB89D7
:101230005E960E94C21A0E9477170E94151B18F032
:1012400042E050E086C0AA89BB8992960E94C21AE9
:10125000EE83FF8368877987AA89BB89EC91F0E0E8
:10126000E130A0E0FA0709F043C00E851F85F801C0
:10127000F695E7950E0F1F1F0E947C1709F064C0BA
:101280000E94901751F0D901EC91EF70AE2FEA85D2
:10129000F0E00E94221AEA2B01C0EA85D901EC9302
:1012A0000F5F1F4FAA89BB891496E1E0EC930E945F
:1012B0007C1709F049C00E94901749F00E949B17C3
:1012C000E4E00E94161AFF27662777270EC0D9018F
:1012D000EC91E07F1E2E0E949B17E8E00E94161AF8
:1012E000FF2766277727EF70E129D901EC932CC0FF
:1012F000E230A0E0FA0789F40E94A0170E944C1780
:101300000E94A91709F5AE85BF85E2E00E94B217D9
:10131000AA85BB85A083B18317C0E330A0E0FA079C
:1013200089F40E94A0170E946B170E94A91761F40C
:10133000AE85BF85E4E00E94B2170E949B170E9411
:10134000EA1A02C042E050E0AA89BB891496E1E0A3
:10135000EC93FA010E94211B649608950E94F41AEE
:1013600024971A930A930E94BB170E94121718F031
:101370000E94C01718F002E010E042C000E010E048
:101380000E94C017E8F5EA85FB85FA93EA930E946C
:101390000D170E94C9170E94D0170E94061B81F1E9
:1013A0000E94D5170E94DA1719F402E010E028C055
:1013B0000E94E21719F401E010E022C0EA85FB85E3
:1013C0000E94CC16A0E0B0E080E090E025DF8F0125
:1013D000002E012AA9F4EA85FB850E94EB1749F04B
:1013E000AA85BB850E94F717AA85BB851596E1E003
:1013F000EC930E94D017EE83FF8368877987C0CF74
:10140000F801198108812C9608950E94F41A6097BA
:10141000AC89BD895E960E94C21A0E9401180E9482
:1014200004180E94061BB1F4AC89BD891A960E946B
:101430001F170E9409180E940A1B39F00E940E18FB
:101440000E9409180E94151B20F00E941A170E9482
:1014500011181EC00E941618AA89BB898C899D8903
:101460000E941B180E9422180E94121718F40E9452
:101470001A1790C00E940E180E9422180E94151B75
:1014800018F40E94271886C00E9404180E941118A0
:101490000E942C180E9431180E943618EF5FFF4FEF
:1014A0006F4F7F4F0E9431180E940E180E940D1737
:1014B0000E94151B60F0E2E0F0E060E070E00E9446
:1014C00031180E943B1818F40E94401863C00E9413
:1014D00016180E949B170E941B180E9427180E9432
:1014E000061BA1F00E9422180E94451829F00E94B4
:1014F00022180E94DA1719F40E9427184BC00E9484
:101500003B1819F40E94401845C0C6CF0E94161817
:10151000EA85FB856C857D850E94EF1AAFEFBFEFF2
:101520008FEF9FE079DE309719F00E94721732C07A
:101530000E9404180E94061B81F00E941618EA8976
:10154000FB896C897D890E94EF1A0E94771764DEFF
:10155000309719F00E9472171DC00E943618AC898E
:10156000BD891A960E94CD1AEC89FD890E94EB175D
:1015700079F0AC89BD891E960E94C81A31976040E7
:1015800070400E94D21AAC89BD891596E1E0EC93B7
:101590000E943618669608950E94F41A0E940E184A
:1015A000E250F040604070400E940118EC81FD81E3
:1015B000A68DB78D80A191A1E2E0F0E060E070E03F
:1015C0000E944D180E94E01A0E94151B18F00E94FC
:1015D000401885C3EC81FD81E281F0E00E94E01AB1
:1015E0000E94431A0E94481A7F936F93FF93EF93D0
:1015F000AC81BD819A960E94C21AAF91BF918F9122
:101600009F910E94E5196BC3BA93AA9324971A93EA
:101610000A93EE81FF810E94521816960E945A1872
:101620000E94D5170E94DA1729F00E9461180E94C3
:10163000661818F00E946E186FC10E94D0170E94A1
:10164000061B29F40E946118A081A33009F006C08E
:101650000E946118B696DF010E945A180E94D017A6
:101660000E94061BA9F40E9473183896DF010E949D
:10167000BE1AAE81BF81AE17BF0718F00E946E1868
:101680004BC10E946118B696DF010E94C21A36C093
:101690000E946118E281A0E1EA9F8001AE81BF81D2
:1016A000A017B10720F10E946118FA93EA930E94F3
:1016B00009180E94C9170E94E21729F4E1E0F0E03E
:1016C0001981088129C10E94D5170E94121728F09C
:1016D0000E9461180E94661818F00E946E181CC1C2
:1016E000EE81FF81E01BF10BEE83FF83D7CF0E94D9
:1016F0007318FA93EA930E9409184EDFDF01CB01B9
:10170000EE81FF810E942B1A0E947A180E947F1896
:101710000E946118F296DF01EE81FF810E94851818
:1017200019810881F9C0AA9324970E941D1BA885DE
:10173000B98514960E94BE1A31968F01002E012A97
:1017400041F0A885B9851E960E94C21A0E94061B08
:1017500019F4E4E0F0E0DEC0F801EF7009F0D0C069
:10176000A885B9850E94F717A885B9851A960E94A1
:10177000C21A0E94061B69F40E9461183896DF01A4
:101780000E94BE1A0E171F0718F0E4E0F0E0C2C076
:10179000B7C0F8010E942B1A0F010E946118E28164
:1017A000F0E03197E021F121309709F0A9C00E94C3
:1017B00061180E949418B5DCEB83FC836D837E83F3
:1017C0000E949D180E94121718F4E2E0F0E0A2C0F7
:1017D0000E949D180E94451819F4E1E0F0E09AC0BB
:1017E0000E9461187E96DF010E94C21A0E949D1815
:1017F0000E94151B08F477C0EF81E03019F4E4E093
:10180000F0E088C00E9461180E949418FEDDEB830E
:10181000FC836D837E830E94A2180E94061B19F42C
:10182000E7E0F0E077C00E949D180E94DA1719F4F3
:10183000E2E0F0E06FC00E949D180E94451819F484
:10184000E1E0F0E067C00E9461180E94DF16309767
:1018500019F0E1E0F0E05EC00E9461180E94EF160E
:101860000E946118DF01BE96FF93EF93FD010E9475
:10187000A718AF91BF910E94CD1A20E00E94611875
:10188000E2812E17E0F40E9461183496A1E0A08353
:101890000E9461180E94DF16309719F0E1E0F0E035
:1018A00039C00E946118BE96DF010E94C81AEF5F1E
:1018B000FF4F6F4F7F4F0E94D21A2F5FDFCF0E94E2
:1018C0006118BE96FF93EF93DF010E94C21ADF01F9
:1018D000CB01E22FF0E00E94431A0E944D18AF9115
:1018E000BF910E94CD1A0E94A218A885B9851A96A8
:1018F0000E94CD1A0E9461180E94A7180E947F18AA
:10190000F8010E9452180E94BE1AF296DF01F801F7
:101910000E9485180E94241B2A9608950E94AF18E1
:1019200009F067C00E94BF1811F5AD81BE815296C3
:101930003D914C91A32FB42F2C91203019F404E049
:1019400010E015C0E32FF42FE385E87031F40E9416
:10195000D1180E940116E03009F001C008C00E94B1
:10196000DC18A0E0E0DE8F01002E012AD9F241C090
:101970000E94AF18A9F40E94BF1891F4ED81FE8176
:10198000A289B3892C91253E11F0203009F408C0BA
:101990000E94DC18A1E0C7DE8F01002E012A59F356
:1019A000002E012A31F50E94BF1819F5AD81BE81C4
:1019B00052963D914C914A933A93E0E0EA93A0E22B
:1019C000B0E00E942C160E94D1180E941A16AD8118
:1019D000BE8154960E94BE1AE385E871A32FB42FEE
:1019E0001C96EC93AD81BE810E94BE1A3496A1E094
:1019F000A083F8010E94221B27960895BA93AA9308
:101A000025970E941A1BAD85BE8554963D914C9139
:101A10004A933A93E0E2EA93ABE0B0E00E942C16DE
:101A2000E0E0E887E9870E2F5E2FE8E0EA87AB85E4
:101A3000BC850E94E1180E94E618AE0FBF1FAC9152
:101A4000AE3219F50E94EB181E3221F4A885B98533
:101A500013970CF003C00E94F718F4CF1F3221F047
:101A60001C3511F0113208F403C0E6E0F0E076C056
:101A70000E94E6180E94FE1810F4E4E201C0E0E2C1
:101A8000A32FB42F1B96EC9367C00E94EB18113262
:101A900020F01F3211F01C3509F435C01E3219F048
:101AA000EA855E1770F0AA85A83011F41E3219F08D
:101AB000E6E0F0E053C058E0EBE0EA87000F000FEB
:101AC00021C0103820F00360E6E0F0E047C0E8E90C
:101AD000F0E0FA93EA93A12F34DA309719F0E6E0B8
:101AE000F0E03CC0113410F01B3508F002C0026079
:101AF00007C0113610F01B3708F002C00160105209
:101B00000E94F718C2CF0E94E6180E94FE1810F437
:101B1000E4E001C0E0E01E2F503019F4E6E0F0E010
:101B20001DC0A32FB42FAC91A53E21F4A32FB42F39
:101B3000E5E0EC93AA85A83011F4000F000FE02F28
:101B4000E370E13009F41061E02FEC70E43009F447
:101B50001860E32FF42F1387E0E0F0E00E94211BD0
:101B60002F960895BA93AA930E941B1BE1E0E030E0
:101B700029F0AD81BE81AC91A03209F006C0ED81A3
:101B8000FE813196ED83FE83F1CFAD81BE81AC91B4
:101B9000AF3229F0AD81BE81AC91AC3559F4ED8105
:101BA000FE813196ED83FE83AF81B88516960E9443
:101BB00006190AC0AF81B8850E94BE1A7696DF0169
:101BC0000E94C21A0E940A19AD81BE81AC91BB2746
:101BD000909760F40E941019A0E0B0E015DD8F012D
:101BE000AF81B88552960E94151944C00E94101901
:101BF000DE01179603DF8F01002E012AD9F5AF8190
:101C0000B8858CDE8F01AF81B88554960E94BE1ACC
:101C1000E385E4704E2F002E012A59F0E4E0F0E055
:101C2000E017F10711F4403009F002C005E010E0C0
:101C300021C04030F9F4AF81B88552962D913C9186
:101C4000F901E385E07119F405E010E013C00E948A
:101C50001A190E943E1A7F936F93FF93EF930E948D
:101C60001D19AF91BF918F919F910E9422190E94DF
:101C70000A19BCCFF8010E94221B299608950E94E0
:101C8000F41AEC81FD81A181AA93ED81FE81F29687
:101C9000FA93EA930E94A2180E94EF1A0E94D516A6
:101CA00011F0E3E01CC0EC81FD810E94271911F0C6
:101CB000E2E015C0AC81BD81A859BF4F0E94311927
:101CC00011F4E0E00CC0EC81FD81F296EE5AFF4F7A
:101CD000DF010E94311911F4E0E001C0E1E0269635
:101CE0000895AA9364970E941B1BAC8DBD8D0E9422
:101CF000BE1AEF83F887AF81B885EC91E0533E2F91
:101D00003A3020F41196AC91AA3309F00AC0EF8161
:101D1000F8853296EF83F887AC8DBD8DED93FC93FB
:101D200002C03091760F313018F0EBE0F0E0D8C10E
:101D3000E32F0E943F190E94BE1AED83FE83AA8DF5
:101D4000BB8DED93FC93309719F4ECE0F0E0C8C143
:101D5000AD81BE81EC91E03091F0ED81FE81A181F9
:101D60000E945E044E2F40FD0AC0E98DE03011F064
:101D700042FD01C003C0EAE0F0E0B2C1AFC1AD81F5
:101D8000BE81E0E0EC93E32FAD81BE811196EC9330
:101D9000ED81FE81A1810E948C034E2F40FF03C084
:101DA000E3E0F0E09DC1E98DE03011F042FD01C0BB
:101DB00003C0EAE0F0E094C10E94DC180E944018E1
:101DC000EF8BF88F698F7A8FDF01CB0158DF0E2FF1
:101DD0000130D9F4ED81FE81F296E254FE4F1E2FC0
:101DE0002F2FE481E03089F0A12FB22F18960E94A6
:101DF000C21AED8BFE8B6F8B788F0E94DC18AF8937
:101E0000B88D898D9A8D3BDF0E2F033019F4E1E0F8
:101E1000F0E066C1003049F4AD81BE81DD960E94DC
:101E2000BE1AE030A2E0FA0719F0EDE0F0E058C188
:101E3000AD81BE81A85BBF4F0E9466170E94471903
:101E40000E944C190E94061B41F4AD81BE81AA5A22
:101E5000BF4F0E94C21A0E9447190E944C19AD81BF
:101E6000BE815A960E94CD1AED81FE81EE5BFF4F36
:101E7000E081AD81BE811396EC93ED81FE81E3811B
:101E8000F0E0A989BA898B899C890E94431A0E9433
:101E9000481A0E9447190E9451190E945819AD8191
:101EA000BE8192960E94CD1AED81FE81E7ADAD8193
:101EB000BE811296EC93AD81BE81AD5BBF4F0E9497
:101EC000BE1AAD81BE811896ED93FC93AD81BE81A3
:101ED000AB5BBF4F0E946617ED87FE876F87788BDD
:101EE0000E94061B51F4AD81BE81AE5ABF4F0E94C5
:101EF000C21AED87FE876F87788B0E945119AD85D6
:101F0000BE858F859889662777270E944D18A989F5
:101F1000BA898B899C890E94EF197F936F93FF93F5
:101F2000EF930E945D19AF91BF918F919F916627AA
:101F300077270E94F419ED81FE81E281F0E00E9492
:101F4000431A0E94861AEE5FFF4F6F4F7F4FE9875B
:101F5000FA876B877C87AD81BE815E960E94CD1A21
:101F600001E0A985BA858B859C85A73FEFE0BE0778
:101F7000E0E08E07E0E09E0708F002E0A985BA8560
:101F80008B859C85A73FEFEFBE07E0E08E07E0E082
:101F90009E0708F003E0033039F4AD81BE81A25AF8
:101FA000BF4F0E94C21A02C00E946519AD81BE8156
:101FB00096960E94CD1A0E9465197F936F93FF93A6
:101FC000EF930E945D19AF91BF918F919F910E94F5
:101FD0007A18AD81BE819A960E94CD1AAD81BE81DC
:101FE0001E960E9472170E94CD1AAD81BE81149672
:101FF000E0E0EC93033009F05EC0AD81BE81159640
:10200000EC93AD81BE81AE59BF4F0E94BE1A0E94B3
:102010005819AD81BE8152960E94CD1AED81FE8184
:10202000A181AA93EE81FF81F296FA93EA93E88563
:10203000F9850E9406170E94D51611F5ED81FE81E3
:102040000E942719E9F4AD81BE81D2960E94C21A7E
:10205000E235A2E5FA07A1E66A07A1E47A0781F46E
:10206000ED81FE81F296EC51FE4FDF010E94C21A13
:10207000E237A2E7FA07A1E46A07A1E67A0709F0C6
:102080001AC0ED81FE81F296E451FE4FDF010E94FD
:10209000C21AAD81BE811A960E94CD1AED81FE81D1
:1020A000F296E851FE4FDF010E94C21AAD81BE8157
:1020B0001E960E94CD1AAD81BE810C930E94E71638
:1020C000AD81BE8156960E940619A4E7BFE00E942A
:1020D0006C19AD81BE811696ED93FC93E0E0F0E0C3
:1020E0000E94221B6E960895BA93AA93EA81FB81FF
:1020F000309771F0AA81BB81EC91E03049F0EA8120
:10210000FB81A681B781E881F981EA17FB0719F005
:10211000E9E0F0E0C6C3EA81FB81A1810E945E0490
:10212000E17019F0E3E0F0E0BCC3E0E0F0E0B9C337
:102130000E94DA16AC81A13030F0EBE0F0E01981BA
:1021400008810C943A16EC810E943F190D911C9164
:10215000002E012A19F0D801E0E0EC93EA81FB811E
:10216000309721F0AA81BB81E0E0EC93EC81A2E7FB
:10217000BFE0F0E0EE0FFF1FEA0FFB1FAA81BB815B
:10218000A083B183E0E0F0E0198108810C943A1655
:10219000AA93A2970E941C1BA9A5BAA50E94151973
:1021A000EEA1EF71EEA3FE01B796FA93EA93FE015A
:1021B0007296FA93EA93EAA5EE71AE2F92DD8F0143
:1021C000002E012A09F022C1FE013496ECA3FDA3E2
:1021D000FE017096FA93EA93A9A5BAA5C3DC8F0114
:1021E000EEA1EC7109F4A1C02897002E012AA9F0F4
:1021F000E4E0F0E0E017F10721F4DE015896B8DBE7
:102200008F01002E012A19F0F8012896FFC0EEA5D3
:10221000E860EEA72AA53BA571C0EEA5E47021F009
:10222000E8E0F0E02896F2C02AA53BA5022E032A9A
:1022300021F0F901E385E17121F0E7E0F0E0289673
:10224000E5C0EEA5E87009F459C00E941A190E9471
:102250003E1A7F936F93FF93EF930E941D19AF91E6
:10226000BF918F919F910E9422190E940118F9013C
:102270007496A0E0B0E0A083B183F9017A96A083C0
:10228000B183F9017C96A0E0B0E080E090E00E948C
:10229000EA1AA88DB98D1496E1E0EC93A88DB98D5A
:1022A0009E960E941F170E940E180E94061BC1F0E6
:1022B000E88DF98DFA93EA930E94D5174FD88F01D4
:1022C000002E012A11F02896A1C00E940E18E1509C
:1022D000F04060407040A88DB98D1A960E94CD1ACA
:1022E000E88DF98DFA93EA930E94BB170E94B60716
:1022F0008F01002E012A11F0289688C0EEA5E87003
:1023000091F0F9013B96A0E0A0830E947219D901D7
:102310001E960E94CD1AA88DB98D1496E1E0EC931B
:10232000EEA5E062EEA728961CC0002E012A11F04F
:10233000F8016CC02AA13BA1022E032A21F0F90169
:10234000E385E07119F0E4E0F0E060C0EEA1E27036
:1023500021F0F901E385E17009F403C0E7E0F0E062
:1023600055C0A889B9899E960E94C21AA9A5BAA586
:102370005A960E94CD1AEAA1FBA1A9A5BAA55E961C
:10238000ED93FC93EEA1A9A5BAA51496EC930E9437
:102390001A190E943E1A7F936F93FF93EF930E9446
:1023A0001D19AF91BF918F919F910E942219A9A5EC
:1023B000BAA51E960E94CD1AD9015C960E94C21A37
:1023C000A9A5BAA51A960E94CD1AA9A5BAA51696CE
:1023D0000E940619A9A5BAA51596EFEFEC93A9A539
:1023E000BAA556960E940619E889F989A9A5BAA541
:1023F000ED93FC93A889B98916960E94BE1AA9A5E7
:10240000BAA51296ED93FC93E0E0F0E00E94231B46
:10241000AB960895BA93AA932E970E941A1BE88D43
:10242000F98DEE83FF83AC89BD890E9415190E9446
:1024300076190E947B190E94801911F0F80197C14A
:10244000EA8DFB8DA481A07819F0E2E0F0E08FC165
:10245000EA8DFB8DA481A17019F4E7E0F0E087C15B
:10246000EA8DFB8DA285B385848595859F938F9397
:10247000BF93AF930E948819EF91FF916F917F9165
:102480000E94EF190E9431180E943618AE89BF8948
:10249000882799270E94101B20F4E885F985EE8B88
:1024A000FF8BEE89FF89309709F45FC10E9488197C
:1024B000FD01BC01F170309709F00CC1EA8DFB8D74
:1024C00005800E947619E2810E16E8F10E948819B3
:1024D0000E940A1B31F4AA8DBB8D1E960E94C21A5F
:1024E0000AC00E9476190E947B19A289B389848947
:1024F00095890E949108E88BF98B6A8B7B8BA88960
:10250000B9898A899B890E94121728F40E948F1921
:10251000E2E0F0E02CC1A889B9898A899B890E94F0
:10252000451829F40E948F19E1E0F0E020C10E94D3
:102530000418AA8DBB8D52960E94CD1AAA8DBB8D10
:102540001596E0E0EC930E9476190E947B19A2890F
:10255000B389848995890E94CC0AEC87FD876E87B0
:102560007F870E9427180E94061B29F40E948F195A
:10257000E2E0F0E0FCC00E9496190E9422180E943E
:10258000431A0E94E519EC87FD876E877F87AE8925
:10259000BF89E0E0F2E00E94731AAF01042E052A21
:1025A00009F45FC00E949619E40FF51F0F010E9405
:1025B0007619E281D001F0E0EA17FB0750F40E949F
:1025C0007619E281F0E0DF010E949619AE1BBF0B85
:1025D000AD010E947619E181EA930E9410190E94D0
:1025E0009B19A42F0E946804309729F00E948F192C
:1025F000E1E0F0E0BCC0EA8DFB8DA481A07451F055
:102600000E94A2190E94F419FA01662777270E94F6
:10261000151B08F019C00E94A2190E94F419E0E0ED
:10262000F2E060E070E00E94481AAE81BF81882726
:102630009927EA0FFB1F0E947B19B096FA93EA9341
:10264000A0E0B2E00E941A16AA8DBB8D1596EC91FF
:10265000E40FEC93FA01EE0FFF1FFE2FE0E09F0165
:102660005FC0EA8DFB8DA481A074A1F00E94761951
:102670000E94A919ED8DFE8D0E94B11929F00E94CA
:102680008F19E1E0F0E073C0AA8DBB8D1496EC9138
:10269000EF7BEC930E94A2190E94101B71F00E9424
:1026A00076190E94A9190E949B190E94D51629F03B
:1026B0000E948F19E1E0F0E05AC00E942718AA8D0D
:1026C000BB8D56960E94CD1AAA8DBB8D1596EC91A6
:1026D000EF5FEC93AA8DBB8D16960E94BE1AF17027
:1026E000A0E0B2E0AE1BBF0B9D01EE89FF89E217AF
:1026F000F30710F42E893F89EE81FF81FA93EA9364
:10270000AC8DBD8D16960E94BE1AF170AC8DBD8D3C
:102710009096EA0FFB1FFA93EA93D9010E941A16CA
:10272000F901AE81BF81EA0FFB1FEE83FF83EA8DC3
:10273000FB8D36960F01DF010E94C21ADF01CB012B
:10274000F9010E947A18D0010E94CD1AAC89BD8986
:10275000ED91FD91E20FF31FFE93EE93EE89FF8959
:10276000E21BF30BEE8BFF8B9CCEE0E0F0E00E94CF
:10277000211B6C960895BA93AA9324970E941C1B60
:102780000E946118FA93EA93EA85FB850E948019FA
:1027900009F072C0E885F985A481A07209F46CC0C3
:1027A000A481A074B9F00E946118E181EA93E985DF
:1027B000FA85B096FA93EA93EB85FC850E94B119ED
:1027C00019F0E1E0F0E059C0A885B9851496EC91C4
:1027D000EF7BEC930E946118FA93EA93EA85FB85FC
:1027E000A28DB38D848D958D0E94B6078F01002E2A
:1027F000012A09F041C0A885B9855E962D913C91CA
:10280000D9011B96EC91E062EC93A885B9851A96E4
:102810000E94C21AD9015C960E94CD1AA885B9857A
:102820001E960E94BE1AD9015A96ED93FC93E88534
:10283000F985A685B78580899189FD01BC010E9433
:10284000391AD9015496ED93FC930E947219D9015B
:1028500056960E94CD1AA885B9851496EC91EF7D05
:10286000EC930E9461183496A1E0A0830E94611845
:10287000DF010E9424088F01F8010E94231B2A9681
:1028800008950E94DA16AA81BB8175DF8F01002EA0
:10289000012A21F4AA81BB810E941519F80119812E
:1028A0000881249608950E94DA16AA81BB811296A7
:1028B0000E94BE1A309729F1AA81BB8114960E940A
:1028C000BE1A8F01309761F00230E0E01E0780F001
:1028D000F80131978F01AA81BB811496ED93FC9387
:1028E000AA81BB8112960E946C193197AC81A0839A
:1028F000AA81BB810E94BE1AFF2312F00E946C19AC
:1029000006C0AA81BB81EFEFFFEFED93FC93198125
:1029100008810C943A16BA93AA9326970E941A1B20
:1029200000E0AC85BD850E941519EA89FB893196C6
:10293000EA8BFB8B3197E4913E2FE03009F41FC105
:10294000E02FE03039F4353211F401E002C00E948A
:10295000BC1914C1E130A9F4353219F40E94BC1934
:102960000CC102E050E010E03D3211F411E006C16C
:102970003B3211F45BE202C1303211F450E2FEC08E
:1029800002C0E23039F440E003E0303311F4106863
:10299000F5C003C0E33009F0F1C0303310F03A3332
:1029A00008F007C0AAE04A9F402DE32FE0534E0FE6
:1029B000E5C0E32FE33649F40E94C319E889F98999
:1029C000A481AA930E94C919D8C0E33769F40E9470
:1029D000C319A889B98914960E94E118AE81BF81F4
:1029E0000E943C160E2F0FC0E03789F40E94C319D5
:1029F000A889B98914960E94E118AE81BF810E940E
:102A000048160E2F186012601F7720E034C0E4369D
:102A100011F0E93611F4146002C0E53731F4E0ED4D
:102A2000F0E0EE83FF8305E00CC0E83511F4186098
:102A300003C0E83709F0A1C0EAEDF0E0EE83FF83C0
:102A400004E012FF14C00E94C3190E94CF19AB8585
:102A5000AA233AF4EA85FB850E94FE19EA87FB87E0
:102A60005DE2503011F00F5F01C01B7F04C00E9477
:102A7000C3190E94CF1910FD11C0041778F417FF75
:102A800008C012FF04C01B7F352F015001C030E386
:102A900001C030E20E94BC194150EFCF202F11FF3E
:102AA00017C02030A1F013FF06C0EE81FF813591E1
:102AB000EE83FF8305C0AE81BF813D91AE83BF83AE
:102AC0000E94BC19403009F041502150EACF4BC060
:102AD00030E3EE81FF810E94D71AE887F987EE8103
:102AE000FF813296EE83FF83E885F985AA85BB8551
:102AF000AE17BF0750F03F5FA885B985EA85FB8513
:102B0000EA1BFB0BEA87FB87EFCF3A3328F013FF72
:102B100002C0395F01C0395D14FD1AC0313320F4A1
:102B2000A885B985119709F409C0421710F010FF64
:102B300001C013C030E217FF0BC030E3106112FF79
:102B400007C01B7F5A930E94C919403009F04150B9
:102B50000E94BC19403009F041502150A885B98528
:102B6000129708F0B5CF10FF08C0403031F0415047
:102B7000E0E2EA930E94C919F8CF00E0D6CEAC8516
:102B8000BD850E94BE1A0E94211B64960895FF9283
:102B9000F82E26970E941C1BDE011C960E94E1194C
:102BA0000E94BE1A309719F4EFEFFFEF25C0DE0147
:102BB00016960E94E1198D01DE011C960E94E11912
:102BC0000E94E118E0E0E887E987DE011A960E949A
:102BD000E1190E94BE1AFA93EA931A930A93E3E565
:102BE000F4E1FA93EA93DE011A9695DE9F01AE8135
:102BF000BF81E0E0EC93F9010E94231B2A96FF902D
:102C00000895BA93AA936627772789919991E991B4
:102C1000F991A991B991009629F001976D9171915F
:102C20006717C9F3671B10F4EFEF0895E0E009F0B0
:102C3000E3950895BA93AA9399818881009641F00B
:102C4000BD81AC81FB81EA8161916D930197E1F7D0
:102C5000FD81EC8126960895BA93AA93B981A88143
:102C6000109631F0FC81EB816A8161931197E9F74D
:102C7000EB81FC8125960895BA93AA93A991B99105
:102C8000EE27FF276D91662311F03196FBCF089553
:102C9000BA93AA93AA27BB27E991F991059000203E
:102CA00011F01196FBCFFD010895A091110BB09189
:102CB000120BA030E1E0BE070895A1E1BBE0ED9169
:102CC000FD913196FE93EE930895EDE4FDE0FA93C5
:102CD000EA930895E4E0F9E0FA93EA930895FA9309
:102CE000EA93A7E1BBE00C940A12E0E0F1E0F7CF31
:102CF000E091170BF091180BA091130BB091140BEE
:102D00008091150B9091160B662777270E94F41976
:102D1000A093130BB093140B8093150B9093160B89
:102D20000895E4E0FAE0FA93EA93DFCFA091130B61
:102D3000B091140B8091150B9091160B0895E0E063
:102D4000EA93A0E0B0E00C949810F0E00E94431ADF
:102D5000DF01CB010895ED81FE816F8178850895B3
:102D6000A981BA818B819C810895E985FA85A18129
:102D7000AA93EA85FB85F296FA93EA93EC81FD81AA
:102D80006E817F810E94EF1AA1E00C94D004A2A171
:102D9000B3A184A195A10895FA93EA93E885F985F2
:102DA0006A857B850E94EF1A0895A1E00E9468045D
:102DB00030970895BA93AA931A930A930895FA93B1
:102DC000EA93A0E0B0E080E090E00C94B6079E9615
:102DD000E0E0F0E060E070E00E94CD1A0895F29625
:102DE000FA93EA93E0E0EA93A0E0B2E00C942C16A8
:102DF0000E94EA1AEA81FB81F29608950E94C21AA3
:102E0000D0010E94CD1AEA81FB810895A289B3897D
:102E1000848995890E94F41A0895A885B9858A85C0
:102E20009B850895A230E0E0BE07E0E08E07E0E079
:102E30009E070895E1E0F0E060E070E008950E94F0
:102E4000C21AEC83FD836E837F830895EC85FD8534
:102E5000FA93EA93D901E0E0F2E00E94731AAE819E
:102E6000BF8188859985662777270E94EA190E9485
:102E7000B60730970895AC85BD85D296F901F170FB
:102E8000AE0FBF1F0895EC85FD85FA93EA93AA85DE
:102E9000BB858C859D850895E0E0F1E060E070E001
:102EA0000E94861A0895AE81BF81888599850E9407
:102EB000EA190E94B607309708950E94681AF170C7
:102EC000AC85BD85D296AE0FBF1F08950E94BE1A75
:102ED000662777270895E0E8F0E060E070E00E9460
:102EE000861A0895EFEFFFEF6FEF7FEF0895AE853D
:102EF000BF85888999890895EA89FB89FA93EA93BD
:102F0000D801E0E0F2E00E94731A87DF6627772796
:102F10000E94EA190E94B607AF01042E052A0895FF
:102F2000AA89BB89D296F801F170EA0FFB1F9F01B5
:102F3000EE85E1700895AA85BB858C859D850895F1
:102F4000EA89FB89FA93EA93A889B9898A899B89D6
:102F5000089563DF0E94EA190E94B607AF01042EAC
:102F6000052A08950E94681AF170AA89BB89D29631
:102F7000EA0FFB1F0895AE81BF818885998508956A
:102F8000AA85BB855E960E94C21AF5DF0E94151BBA
:102F900008950E949108EA83FB836C837D830895E2
:102FA000EA81FB816C817D810895AA81BB818C813E
:102FB0009D810895A130E0E0BE07E0E08E07E0E0EB
:102FC0009E070895F2DFAF3FEFEFBE07EFEF8E07EA
:102FD000EFEF9E070895A685B78580899189AF3F59
:102FE000EFEFBE07EFEF8E07EFEF9E0708951E96F7
:102FF0000E94C81AEF5FFF4F6F4F7F4F0E94D21A97
:1030000008950E94E51A0895E889F9896A897B89FB
:103010000895AC81BD818E819F8108950E94DB1A45
:103020000895EC83FD836E837F830895EC89FD8989
:10303000FA93EA9308950E949108EC87FD876E87C2
:103040007F870895AC85BD858E859F850895EC8525
:10305000FD856E857F850895EC81FD816E817F8180
:103060000895E887F9876A877B870895E885F98559
:103070006A857B850895F0DFD0DE0E94101B0895DD
:10308000E0E0F0E060E070E00895AF3FEFEFBE07F2
:10309000EFEF8E07EFEF9E0708950E94F91A0E9446
:1030A000EF190895A885B9851496ED93FC93A8852A
:1030B000B98508950E94C21AEA83FB836C837D83DD
:1030C0000895A885B9850E94BE1A08957E96DF01ED
:1030D0000E94C21A6ADF0E94151B0895E2E0F0E028
:1030E0001981088108955CDFA885B9851A960E9428
:1030F000CD1AE7CF662777270E94E5190895A8859E
:10310000B9851E960E94CD1A0895EF70F070EE0FEB
:103110000E94221AEA0FFB1FA885B9855296ED93EB
:10312000FC93E0E0F0E00895FA93EA93EA85FB85EA
:10313000A285B385848595850895AB81BC818D81F9
:103140009E810895EB81FC816D817E810895FA93C3
:10315000EA93AD81BE818F8198850C94CC0ABA9395
:10316000AA930E941B1BED81FE81FA93EA93A0E0D3
:10317000B0E00E94040B8F01002E012A0895AD815A
:10318000BE810E94BE1AFA93EA93EF81F885A68564
:10319000B785808991890E94B6078F01002E012A88
:1031A00008954A933A93EF81F885A489B589BA9333
:1031B000AA93ABE0B0E00895ED81FE81FA93EA9323
:1031C00008950E94BE1AEE83FF830895E885F9856D
:1031D000AE81BF810895E885F9853196E887F98742
:1031E0003197AE81BF81AE0FBF1F1C910895E52FAF
:1031F0005F5FF0E0E30FF41F10830895EA0FFB1FF9
:10320000AB85BC85ED93FC931132089539DF0E94A4
:10321000CD1A0895AF81B88516960E94CD1A0895EB
:10322000EF81F885FA93EA930895E0E0F0E0ED93FA
:10323000FC930895D901549649CED9015A960E941B
:10324000BE1A0895662777270E94F9190895F29605
:10325000E250FE4FDF010E94BE1AE535AAEAFA07E6
:1032600008950E94C21AEF7FFF7F6F7F7070E6346F
:10327000A1E4FA07A4E56A07A0E07A070895A2E7A7
:10328000BFE0F0E0EE0FFF1FAE0FBF1F0895E98B08
:10329000FA8B6B8B7C8B0895E989FA896B897C8921
:1032A0000895AD81BE81A05CBF4F0E94BE1A0895F3
:1032B000AD89BE898F89988D1DCFED81FE81A08556
:1032C000B185FD010E942B1A0895ED81FE815FDD1D
:1032D000E3DF0E94E5190895ED91FD913196FE938B
:1032E000EE9308950E9420079CDEB6CEAA8DBB8D7A
:1032F0000E94BE1A0895FA93EA93EC8DFD8D08950D
:10330000A281B3810E9474108F01002E012A0895BA
:10331000EA8DFB8DA681B781808591850895AA8D60
:10332000BB8D1496EC91E068EC930895EA8DFB8DCB
:10333000E581F0E00895EF85F88969897A890E942E
:10334000EF1A0895EA8DFB8DA689B789808D918D3E
:103350007ECEE181EA93EB8DFC8DB096FA93EA93F1
:103360000895A689B789808D918D0E94F41AA1E0F5
:103370000E94D004309708953A93AD85BE85EF85BD
:10338000F88909950895E889F9893497E88BF98BCC
:103390000895AD85BE85EF85F88909950895A889BA
:1033A000B98914960E94BE1AEA87FB870895109681
:1033B00039F080EA9FE00197F1F7A8951197C9F7D6
:1033C00008950024AF0DB01D0895EA0FFB1F681F7C
:1033D000791F0895AE0FBF1F861F971F0895EA1B20
:1033E000FB0B680B790B0895AE1BBF0B860B970B7D
:1033F0000895EA2BFB2B682B792B0895F195E19525
:10340000F0400895F09560957095E195FF4F6F4FEE
:103410007F4F0895EE230E2EFD01BC0131F0EE0F1B
:10342000FF1F661F771F0A94D1F70895EE230E2E13
:10343000FD01BC0131F076956795F795E7950A9403
:10344000D1F70895EE0FFF1FEE0FFF1FEE0FFF1FC6
:10345000EE0FFF1F0895F695E795F695E795F6951B
:10346000E795F695E7950895EE0FFF1F661F771F06
:103470000895E62FF72F60E070E008956E2F7F2FFC
:10348000E0E0F0E008956F2F660F660B762F089549
:103490007A9F702D6B9F700DF89F700DE99F700DD6
:1034A0006A9F602D710DFB9F600D711DE89F600D7F
:1034B000711D8827FA9FF02D610D781FEB9FF00D8D
:1034C000611D781FEA9FE02DF10D681F781F089598
:1034D0006E2F6A9FF0016B9FF00D08953CD0D8DFEE
:1034E0000EF490DF08950024112490E1AA0FBB1F71
:1034F000001C111C0E1A1F0A18F40E0E1F1E01C00C
:10350000A1609A9599F7FD01D00108953F934F93DB
:103510005F93002411244427552730E2AA0FBB1FD4
:10352000881F991F001C111C441F551F0E1A1F0ACB
:10353000460B570B28F40E0E1F1E461F571F01C0C7
:10354000A1603A9559F7FD01BC01D001CA015F9114
:103550004F913F910895E89477FF02C053DF68943C
:1035600097FF0BC00024A095B0958095909511967B
:10357000801D901D00F8039400FA0895ED91FC91D0
:1035800011970895ED91FD916D917C911397089598
:10359000ED91FD916D917D910895ED93FD936D9366
:1035A0007C9308957E936E93FE93EE930895059019
:1035B000F491E02D0895E881F9816A817B81089575
:1035C000A881B9818A819B810895E883F9836A8300
:1035D0007B830895A083B1838283938308957A9334
:1035E0006A93FA93EA9308959A938A93BA93AA9363
:1035F0000895182E862F612D192E972F712D1B2EB1
:10360000BF2FF12D1A2EAE2FE12D08953097604077
:103610007040089500240A160B060806090608954E
:10362000EA17FB07680779070895AE17BF078607F3
:10363000970708955A934A933A932A931A930A93B1
:1036400008955D814C813B812A811981088108950B
:00000001FF
