<<<<<<< HEAD
:0C0000000C94B0000C9400000C94000064
:10000C000C9400000C9400000C9400000C94000064
:10001C000C9400000C9400000C9400000C94000054
:10002C000C9400000C9400000C94AF010C94000094
:10003C000C9400000C9400000C9492010C940000A1
:10004C000C9400000C9400000C9400000C94000024
:10005C000C9400000C9400000C9400000C94000014
:10006C000C9400000C9400000C9400000C94000004
:10007C000C9400000C9400000C9400000C940000F4
:10008C000C9400000C9400000C94000020222A2BED
:10009C002C5B3D5D7C7F00000004000200018000B1
:1000AC004000200010000800040002000000008046
:1000BC000040002000100008004000200010000844
:1000CC00000400021027E80364000A00010000107D
:1000DC0000011000010003030302020C00080001E0
:1000EC0000062E004900500052004400447269760C
:1000FC00652064657465637461646F00303A5325E0
:10010C003032752E424D500025732D2573000100A1
:10011C000400EBFE904D53444F53352E30004E4FA0
:10012C00204E414D45202020204641543332202082
:10013C0020004E4F204E414D45202020204641545A
:10014C002020202020000100B40F1A010100B80F5C
:10015C001C010000F894EE27EFBBF1E0F5BFE5BF02
:10016C008DE0A2E0BB27ED938A95E9F780E090E261
:10017C00A0E0B1E0ED930197E9F7E2E5F1E08591BC
:10018C009591009761F0A591B59105901590BF01DF
:10019C00F00105900D920197E1F7FB01F0CF8BBFB9
:1001AC00E0E0EEBBEFEFEDBFE0E2EEBFC0E0D9E088
:1001BC000C9489032C978CE0A0E0B0E0E2EEF0E028
:1001CC000E94B71F0A93849A859A809A819A829A80
:1001DC00839AA2E3B0E00E945C1E00E00C3068F44D
:1001EC000E94A119E02FF0E0DE011196AE0FBF1FA7
:1001FC00AC910E94A5190F5FF1CFECE0E0930409DC
:10020C00A091040921D008812D9608958C9A8C9880
:10021C000895AA93E881E87011F08B9A01C08B982D
:10022C00E881E47011F08A9A01C08A98E881E27042
:10023C0011F0899A01C08998E881E17011F0889ACF
:10024C0001C0889821960895AA930A938D980E94CC
:10025C00A1190E94A9190E94B019D8DF088151C2B6
:10026C00AA930A938D9A0E94A1190E94A9190E941F
:10027C00B019CCDF088145C2BA93AA930A9300E067
:10028C00E02F0F5FA981BA81F0E0EA0FFB1FA49168
:10029C00E7DFE02FA981BA81F0E0EA0FFB1FE491C0
:1002AC00E03071F715C0BA93AA930A9300E0E02FDF
:1002BC000F5FA981BA81F0E0AE0FBF1FAC91D0DF08
:1002CC00A981BA81EE27A00FBE1FEC91E03079F71F
:1002DC00088123960895A1E0B7DF0895AA93E881D9
:1002EC00F0E0309719F4A981A05814C0E130A0E0D7
:1002FC00FA0719F4A981A0540DC0E230A0E0FA0766
:10030C0019F4A981AC5606C0E330A0E0FA0719F441
:10031C00A981AC5299DFF5C10A921A92FA926A93AA
:10032C007A938A939A93AA93BA93EA93FA93EFB730
:10033C00EA930E94D308E991EFBFF991E991B99141
:10034C00A9919991899179916991F9901990099054
:10035C001895AA93BA93EA93FA93EFB7EA93F29BA0
:10036C0019C00E94B71928F40E94BF190E94C41921
:10037C0007C00E94D519E7BD0E94D5190E94DC194F
:10038C000E94B71909F4F19A0E94E51911F40E9420
:10039C00ED191BC00E94B71930F40E94F419319763
:1003AC000E94C41909C00E94D519E7BD0E94F41916
:1003BC000E94D5190E94DC190E94B71909F4F19A10
:1003CC000E94E51911F40E94ED19E991EFBFF99122
:1003DC00E991B991A99118950E94FC19A1E10E948B
:1003EC007312E03009F0B8C00E94071A0E940C1A70
:1003FC000E94111A7F936F93FF93EF930E94251A1B
:10040C00AF91BF918F919F910E946A1E7F936F93C2
:10041C00FF93EF930E94311AAF91BF918F919F91EF
:10042C000E943D1A0E94071A0E944F1AE05CFF4F6F
:10043C006F4F7F4FDF01CB010E94F5150E94071A09
:10044C000E940C1A0E94581A0E94601A0E94641A88
:10045C00E0E0E093B30F0E946A1AA081A03041F053
:10046C000E946E1AA03021F0A091B30FA03108F0B9
:10047C000CC0A091B30FB0E0AD57B04F0E946A1AF8
:10048C000E94731A0E94761AE6CF0E94BF193A9600
:10049C000E947C1A0E946A1AA081EEEEF0E0B0E095
:1004AC00EA17FB0769F10E946E1AE0EFF0E0B0E08A
:1004BC00EA17FB0729F10E94BF19E95FF64FA081EB
:1004CC00E2EFF0E0B0E0EA17FB07D1F00E94BF19B1
:1004DC00E85FF64FA081E4EFF0E0B0E0EA17FB072D
:1004EC0079F00E94BF19E75FF64FA081E6EFF0E0CC
:1004FC00B0E0EA17FB0721F0A091B30FA03108F090
:10050C000CC0A091B30FB0E0AD56B04F0E946A1A68
:10051C000E94731A0E94761ABDCF0E94BF19399699
:10052C000E947C1A0E946A1AA081A03041F00E949D
:10053C006E1AA03021F0A091B30FA03108F00CC0BE
:10054C00A091B30FB0E0AD55B04F0E946A1A0E9453
:10055C00731A0E94761AE6CFD4C00E94FC19A3E14C
:10056C000E947312E03079F50E94071A0E940C1A4F
:10057C00EDE2F0E0FA93EA93AFE2BBE00E94AC1339
:10058C000E94601AE0911E09F0E0ED37A0E0FA0736
:10059C0021F4EEE3E093B30004C0ED35A0E0FA07DC
:1005AC0021F4E2E5E093B30004C0E535A0E0FA07DE
:1005BC0019F4EAE5E093B300A0911B09A13011F402
:1005CC00F29A01C0F2989DC00E94FC19A1E00E9411
:1005DC007312E03009F095C05E9A0E94071A0E94CF
:1005EC000C1A0E94111A7F936F93FF93EF930E9442
:1005FC00251AAF91BF918F919F910E946A1E7F9394
:10060C006F93FF93EF930E94311AAF91BF918F912B
:10061C009F910E943D1A0E944F1AE0932B0BF0936E
:10062C002C0B60932D0B70932E0B0E94071A0E94BB
:10063C000C1A0E94581A0E94841A0E94071A0E94CF
:10064C009D1A0E94841AF198F098E3E8E4BDE1E069
:10065C00E5BD0E94641AF09902C0F19B01C001C073
:10066C00FACFF19B08C00E94071A0E940C1A0E9434
:10067C00581AF19805C00E94071A0E949D1AF0980A
:10068C00E0912F0BF091300B0E94A21A662777276E
:10069C000E94791EA093270BB093280B8093290BF3
:1006AC0090932A0B329909C0E0E0E093270BE0937A
:1006BC00280BE093290BE0932A0B319910C0E091A1
:1006CC002B0BF0912C0B60912D0B70912E0BE0935A
:1006DC00270BF093280B6093290B70932A0B0E9425
:1006EC00A21AA130E1E0BE07E0E08E07E0E09E0731
:1006FC0008F0B1CFE0E0E4BDE5BD2F980E94601A90
:10070C005E9822960895E0E8E0936100E0E0E093C3
:10071C006100509A569A409A419A429A439A279A63
:10072C00EAE0E0938100EEE4E0938900E0E2E093FC
:10073C008800E2E0E0936F00E3EAE4BDE0E0E093E0
:10074C00B600E2E0E093B000E093B100EAE5E0939C
:10075C00B300E2E0E09370000E94E0007894A0E027
:10076C00CED1A4EFB1E00E945C1EE0E0EA93A1E3DD
:10077C00BBE00E944612E03009F063C0E0E0EA936F
:10078C00A1E0ACDDA8EFB0E077DDA8EEB3E00E940D
:10079C005C1E0E94641AE5E0FBE0FA93EA93E8E041
:1007AC00F1E0FA93EA930E94BF190E94AB1A84E01D
:1007BC000E94131928960E94071AE5E0FBE0FA93B1
:1007CC00EA93A0E00E947312E03011F00E94F41939
:1007DC000E94601AA091250BB091260B179710F070
:1007EC000E94641AA5E0BBE0F7DDE5E1FBE0FA93BB
:1007FC00EA93E4E1F1E0FA93EA93E3E8FFE00E9484
:10080C00AB1AE3EAFFE00E94AB1A88E00E941319CE
:10081C002C9661DDE0E0EA93A0E060DDA5E1BBE0B1
:10082C0042DDE0E0EA93A1E059DDA3E9BFE03BDD66
:10083C00A5E0BBE092DEA5E0BBE0C6DE0E94F419A9
:10084C00AACFFFCFFFCFAA930E94AB1F30E01C8131
:10085C00AD81BE812D91AD83BE8308E0330FE32FB4
:10086C00E227E07811F0E9E03E27220F0150B1F7C2
:10087C00115071F7E32FEE0FE1600E94B21F42C5D9
:10088C000A93E2E3E093B60FEFEFEEBDEDB5E7FFB1
:10089C00FDCFEFEFEEBDEDB5E7FFFDCF0EB50F3F92
:1008AC0021F0E091B60FE03009F401C0F2CFE02F57
:1008BC00A8C4289AEFEFEEBDEDB5E7FFFDCF089584
:1008CC00BA93AA930E94AC1FE4E1E093B50FEFEF4B
:1008DC00EEBDEDB5E7FFFDCF0EB50F3F21F4E09176
:1008EC00B50FE03009F401C0F2CF0E3F21F0E0E08B
:1008FC000E94B31F07C51D812E81EFEFEEBDEDB534
:10090C00E7FFFDCF2F931F931F5F2F4FEEB5AF91D6
:10091C00BF91EC93EFEFEEBDEDB5E7FFFDCF2F935D
:10092C001F931F5F2F4FEEB5AF91BF91EC93EFEF7D
:10093C00EEBDEDB5E7FFFDCF2F931F931F5F2F4F3C
:10094C00EEB5AF91BF91EC93EFEFEEBDEDB5E7FFD8
:10095C00FDCF2F931F931F5F2F4FEEB5AF91BF911C
:10096C00EC93EB81FC813497EB83FC8331F6EFEF56
:10097C00EEBDEDB5E7FFFDCFEFEFEEBDEDB5E7FF5B
:10098C00FDCFE1E00E94B31FBDC4AA930E94AB1F30
:10099C0077DFEF3F21F0E0E00E94B21FB3C4EC819F
:1009AC00EEBDEDB5E7FFFDCFAC81AD3F69F110E0D9
:1009BC002D813E81D9012F5F3F4FEC91EEBDEDB5FE
:1009CC00E7FFFDCFD9012F5F3F4FEC91EEBDEDB5A9
:1009DC00E7FFFDCF115071F7EFEFEEBDEDB5E7FF7F
:1009EC00FDCFEFEFEEBDEDB5E7FFFDCFEFEFEEBDC9
:1009FC00EDB5E7FFFDCF0EB5E02FEF71E53021F03F
:100A0C00E0E00E94B21F7EC4E1E00E94B21F7AC4F3
:100A1C000E94831F1A930A93EE81E07881F0EE8195
:100A2C00EF77EE83E7E7EA93A0E0B0E080E090E0B8
:100A3C00EFDF1E2F123018F01981088163C4AE81CC
:100A4C00AC3449F036DF28981BDFEF3F21F0EFEF95
:100A5C001981088157C4EE81EEBDEDB5E7FFFDCFDE
:100A6C00ED81EEBDEDB5E7FFFDCFEC81EEBDEDB553
:100A7C00E7FFFDCFEB81EEBDEDB5E7FFFDCFEA81E2
:100A8C00EEBDEDB5E7FFFDCF01E0AE81A03411F472
:100A9C0005E904C0AE81A83409F407E80EBDEDB534
:100AAC00E7FFFDCFAE81AC3429F4EFEFEEBDEDB531
:100ABC00E7FFFDCF0FEFEFEFEEBDEDB5E7FFFDCF9D
:100ACC001EB517FF02C0015009F401C0F4CFE12F8D
:100ADC001981088117C4BA93AA930A9304E0EFEF23
:100AEC00EEBDEDB5E7FFFDCFA981BA811196A983C3
:100AFC00BA831197EEB5EC93015089F7E6C4AA932B
:100B0C0024970E94AC1FEF81E03021F0E1E00E94BD
:100B1C00B31FACC124982598EAE0E093B50FE0919F
:100B2C00B50FE030E1F7E091B40FE27029F0E091FD
:100B3C00B40F0E94B31F9AC1209A289AE5B1E97F9D
:100B4C00E5B92B9A2398E4B1E760E4B9E2E5ECBD92
:100B5C00E0E0EDBD2FEF0AE0EFEFEEBDEDB5E7FF06
:100B6C00FDCF0150C9F7E0E4EA93A0E0B0E080E0EB
:100B7C0090E04EDF1E2F2150113011F0203009F47F
:100B8C0001C0E9CF20E0113009F068C0E4E6E09341
:100B9C00B50FE8E4EA93AAEAB1E080E090E038DF30
:100BAC00E13091F5DE01139696DFAD81A13019F499
:100BBC00AE81AA3A09F027C0E091B50FE03049F0B8
:100BCC00E9EEEA93A0E0B0E080E090E421DFE030D1
:100BDC0009F401C0F1CFE091B50FE03049F0EAE73C
:100BEC00EA93A0E0B0E080E090E012DFE03009F0A2
:100BFC000AC0DE0113966FDFEB81E07411F0ECE0BC
:100C0C0001C0E4E02E2F2AC0E9EEEA93A0E0B0E0A8
:100C1C0080E090E0FDDEE23018F422E019EE02C034
:100C2C0021E011E4E091B50FE03041F01A93A0E01F
:100C3C00B0E080E090E0ECDEE03009F401C0F2CFEF
:100C4C00E091B50FE03049F0E0E5EA93A0E0B2E0C6
:100C5C0080E090E0DDDEE03009F020E02093B70F7B
:100C6C0028DE203051F0E091B40FEE7FE093B40F0A
:100C7C00E0E5ECBDE1E0EDBD11C0289801DE19DE28
:100C8C00E0E0ECBDE4B1E07FE4B9E5B1E07FE5B9CB
:100C9C002098E091B40FE160E093B40FE091B40FB1
:100CAC000E94B31FE3C0AA93E881E03011F0E1E0A9
:100CBC0002C0E091B40F21960895AA93EF81E03021
:100CCC0019F4E881E03011F4E4E0D0C0E091B40F05
:100CDC00E17011F0E3E0CAC0E091B70FE87071F475
:100CEC00E981FA816B817C81A0E0B2E080E090E048
:100CFC000E94D71EE983FA836B837C83A881A13081
:100D0C00A9F4E1E5EA93AA81BB818C819D8180DE07
:100D1C00E03059F4ED81FE81FA93EA93A0E0B2E061
:100D2C00CFDDE03011F0E0E0E88323C0E2E5EA93A8
:100D3C00AA81BB818C819D816BDEE030D1F4ED8189
:100D4C00FE81FA93EA93A0E0B2E0BADDE03051F014
:100D5C00ED81FE81E050FE4FED83FE83E881E15092
:100D6C00E88369F7ECE4EA93A0E0B0E080E090E07F
:100D7C004FDE9FDDE881E03011F0E1E001C0E0E002
:100D8C0075C0AA93EF81E03019F4E881E03011F4DA
:100D9C00E4E06CC0E091B40FE17011F0E3E066C0E8
:100DAC00E091B40FE47011F0E2E060C0E091B70F95
:100DBC00E87071F4E981FA816B817C81A0E0B2E08A
:100DCC0080E090E00E94D71EE983FA836B837C83DA
:100DDC00A881A130A1F4E8E5EA93AA81BB818C81BA
:100DEC009D8116DEE03051F4ED81FE81FA93EA9399
:100DFC00AEEFCBDDE03011F0E0E0E88330C0E09105
:100E0C00B70FE67039F0E7EDEA93A981BB27882785
:100E1C009927FEDDE9E5EA93AA81BB818C819D814E
:100E2C00F7DDE030E1F4ED81FE81FA93EA93ACEF6B
:100E3C00ACDDE03051F0ED81FE81E050FE4FED83F2
:100E4C00FE83E881E150E88371F7E0E0F0E0FA938B
:100E5C00EA93ADEF9ADDE03011F4E1E0E88329DDAF
:100E6C00E881E03011F0E1E001C0E0E0289608955F
:100E7C00BA93AA9360970E94AB1FEF89E03011F0F0
:100E8C00E4E087C1E091B40FE17011F0E3E081C1BF
:100E9C0001E0EE89E03031F42898F2DCEF3F09F400
:100EAC0000E075C1E13009F05FC0E9E4EA93A0E02D
:100EBC00B0E080E090E0ACDDE03049F4FE01349627
:100ECC00FA93EA93A0E1B0E0FBDCE03009F44BC00C
:100EDC00EC81E295EF70E695E695E13079F4E0E08F
:100EEC00FC85AD85B0E0EA0FFB1F31961E2F2F2F2E
:100EFC00A12FB22F88279927EAE02EC0E985EF7041
:100F0C00AE2FEE85E078EE1FE0E0EE1FAE0FED8524
:100F1C00E370EE0FEA0FEE5F3E2FEC85E295EF707B
:100F2C00E695E695AE2FEB85F0E00E94B01EB0E0A2
:100F3C00AE0FBF1FEA85E370F0E00E94B01EFE2FDB
:100F4C00E0E0EA0FFB1F31961E2F2F2FA12FB22F9F
:100F5C0088279927E32FE9500E94941EAC89BD89FC
:100F6C000E945C1F00E013C1E23041F4AC89BD89E2
:100F7C00E0E0F2E0ED93FC9300E009C1E33009F00E
:100F8C00ABC0E091B70FE47081F1EDECEA93A0E017
:100F9C00B0E080E090E03CDDE03031F5EFEFEEBD0D
:100FAC00EDB5E7FFFDCFFE013496FA93EA93A0E18D
:100FBC00B0E086DCE030C1F030E3303039F0EFEFF8
:100FCC00EEBDEDB5E7FFFDCF3150F7CFEE85E295E5
:100FDC00EF70A0E1B0E080E090E00E94941EAC893C
:100FEC00BD890E945C1F00E076C0E9E4EA93A0E0B2
:100FFC00B0E080E090E00CDDE03009F06CC0FE0168
:10100C003496FA93EA93A0E1B0E05ADCE03009F4AC
:10101C0062C0E091B70FE27051F1EE85EF73FF27DC
:10102C00662777270E94BE1E7F936F93FF93EF93E3
:10103C00EF85E078FF2766277727DF01CB01E7E014
:10104C000E94A01EAF91BF918F919F910E946A1E2A
:10105C00EF5FFF4F6F4F7F4FDF01CB01E989E295C7
:10106C00EF70E695E695E1500E94941E2FC0EE8538
:10107C00EC77E695E695FF2766277727EF5FFF4F1E
:10108C006F4F7F4F7F936F93FF93EF93EF85E370D9
:10109C00FF2766277727DF01CB01E3E00E94941E30
:1010AC00DF01CB01EF85E07EE295EF70E695FF273F
:1010BC00662777270E946A1EEF5FFF4F6F4F7F4FA7
:1010CC00AF91BF918F919F910E94D71EAC89BD8922
:1010DC000E945C1F00E05BC0EA3039F4E091B70F6E
:1010EC00AC89BD89EC9300E052C0EB3011F439E4CB
:1010FC0003C0EC3001F53AE43A93A0E0B0E080E0B4
:10110C0090E086DCE030B1F4EC89FD89FA93EA9347
:10111C00A0E1B0E0D5DBE03069F0EC89FD89FA9311
:10112C00EA93AFE090DBAE2FEC89FD89E785EA17F7
:10113C0009F400E02CC0ED3071F4EAE7EA93A0E08A
:10114C00B0E080E090E064DCE03021F4AC89BD8953
:10115C00C2DC00E01CC0EE30C9F4EDECEA93A0E078
:10116C00B0E080E090E054DCE03079F4EFEFEEBDDD
:10117C00EDB5E7FFFDCFEC89FD89FA93EA93A0E486
:10118C00B0E09EDBE03009F000E001C004E091DB50
:10119C00E02F0E94B21F689608950A930091B50F34
:1011AC00003019F001500093B50F0091B60F0030CC
:1011BC0019F001500093B60F0091B80FE0E0E093E6
:1011CC00B80F1C9903C0E1E0E093B80F1D9B05C05C
:1011DC00E091B80FE260E093B80FE091B80FE01720
:1011EC0081F40091B40FE17011F00D7F01C0036028
:1011FC00E091B80FE27011F0046001C00B7F009316
:10120C00B40F099108952797A0910009B091010995
:10121C00109731F0A0910209B0910309109729F4AD
:10122C00E0E0F0E061E27AE36DC0FE013696FA93FD
:10123C00EA93FE013796FA93EA93DE011896E09151
:10124C000009F09101090995FE013396FA93EA938E
:10125C00FE013496FA93EA93DE011496E0910209AA
:10126C00F09103090995E881F981EC5BF740662759
:10127C007727DF01CB01E9E10E94941E7F936F93E6
:10128C00FF93EF93EA810E94B01AE5E10E94941E4D
:10129C00AF91BF918F919F910E94831EDF01CB0173
:1012AC00EB81F0E00E94CD1E0E94C81E0E94831E9E
:1012BC007F936F93FF93EF93EE810E94B01AEBE054
:1012CC000E94941EAF91BF918F919F910E94831E9B
:1012DC007F936F93FF93EF93ED810E94B01AE5E03B
:1012EC000E94941EAF91BF918F919F910E94831E7B
:1012FC00DF01CB01EC81F0E0F595E7950E94CD1E66
:10130C000E94831E27960895AA930A93EA81FB8173
:10131C00E4910E2FE03019F0E981E01709F406C0D2
:10132C00EA81FB813196EA83FB83F0CFE02FF0E07A
:10133C000881249608950E94831F24970A93A985F7
:10134C00BA859E960E94B61A0E94BD1A0E94C21AB5
:10135C000E949F1F09F450C0E985FA85E481E030B2
:10136C0099F10E94C71AE03011F0E1E01DC2A98585
:10137C00BA851496E0E0EC93E985FA850E94D91AB7
:10138C000D01A985BA855A960E94511FD0010E9461
:10139C006A1E0E94C21A0E94A41FB0F4E985FA8545
:1013AC000381023088F0A985BA855A960E94511F94
:1013BC000E94C21A0E946A1EE983FA836B837C83A3
:1013CC000E94C71A0150EDCF0E94BD1A0E94951FB2
:1013DC0099F0E985FA85A181AA93EA85FB85F296B5
:1013EC000E94DE1A11F0E1E0DFC10E94BD1AA9854E
:1013FC00BA859E960E945C1FE0E0D6C1BA93AA9370
:10140C000A93E981FA810E94EB1A0E2F003009F041
:10141C005BC0A981BA81AC91A33029F4E981FA812E
:10142C00E581E03009F444C0A981BA810E94F31A25
:10143C00E981FA810E94FB1AE981FA81F296E25065
:10144C00FE4FA5E5BAEAA083B183E981FA81F29651
:10145C00A2E5B2E581E691E40E94041BEC51FE4F3B
:10146C00A2E7B2E781E491E60E94041BE851FE4F2B
:10147C000F01A981BA811E960E940A1BF296E451B3
:10148C00FE4F0F01A981BA811A960E940A1BA181F5
:10149C00AA93EA81FB81F296FA93EA93EC81FD819F
:1014AC000E94121B6EDCA981BA811596E0E0EC93C8
:1014BC00E981FA81A181AA93E0E0EA93A0E0B0E08F
:1014CC00D7DCE03009F001E0E02F08812396089585
:1014DC000E94831F24970E94AB1F0E941A1B0E941C
:1014EC001F1B50F0AC85BD855E960E94511F0E945B
:1014FC001A1B0E94A41F18F00E94271B60C0AC8509
:10150C00BD8592960E942C1BAC85BD85EC91F0E0BC
:10151C00E130A0E0FA0739F528853985F901F6950F
:10152C00E7952E0F3F1F0E94331B09F046C00E9407
:10153C00481B0C9111272F5F3F4F0E94331BE9F57D
:10154C000E94481BEC91FE2FE0E00E2B1F2BE88530
:10155C00E17021F0F8010E94B51E02C0F801FF7085
:10156C00662777272CC0E230A0E0FA0779F40E94B6
:10157C00501B0E94591B0E94601BF9F4A885B98569
:10158C00E2E00E946A1B0E94731B19C0E330A0E0CA
:10159C00FA0799F40E94501B0E94781B0E94601B52
:1015AC0061F4A885B985E4E00E946A1B0E94511F72
:1015BC00EF7FFF7F6F7F7F7002C00E947F1B0E94B6
:1015CC00B21F2E9608950E94831F24970E94AA1F73
:1015DC000E94841B0E941F1B30F0A989BA895E9659
:1015EC000E94891B10F042E083C0A989BA899296A7
:1015FC000E94511F0E948F1BA989BA89EC91F0E0BF
:10160C00E130A0E0FA0709F043C00D851E85F80112
:10161C00F695E7950E0F1F1F0E94941B09F063C0EF
:10162C000E94AA1B51F0D901EC91EF70AE2FE98505
:10163C00F0E00E94AC1EEA2B01C0E985D901EC93C5
:10164C000F5F1F4FA989BA891496E1E0EC930E94B1
:10165C00941B09F048C00E94AA1B49F00E94B51BBC
:10166C00E4E00E94A01EFF27662777270EC0D90151
:10167C00EC91E07F1E2E0E94B51BE8E00E94A01E9C
:10168C00FF2766277727EF70E129D901EC932BC050
:10169C00E230A0E0FA0789F40E94BA1B0E94591BA1
:1016AC000E94C31B01F5AD85BE85E2E00E94CE1BF6
:1016BC00A985BA85A083B18316C0E330A0E0FA07F0
:1016CC0089F40E94BA1B0E94781B0E94C31B59F418
:1016DC00AD85BE85E4E00E94CE1B0E94B51B0E9426
:1016EC00791F01C042E0A989BA891496E1E0EC9314
:1016FC00E42F0E94B11F639608950E94831F2497C4
:10170C000A930E94D71B0E941F1B18F00E94DC1B1F
:10171C0010F002E048C000E00E94DC1B08F043C05F
:10172C00E985FA85FA93EA93AF81B88589859A851C
:10173C00CFDEE983FA836B837C830E94E51B0E94D6
:10174C00951F89F10E94C21A0E94EA1B11F402E053
:10175C002AC00E94C21A0E94F21B11F401E023C09D
:10176C00E985FA85FA93EA93EF81F88569857A859C
:10177C000E947E1F0E94FA1B26DF0E2F003099F468
:10178C00E985FA850E94FF1B49F0A985BA850E945C
:10179C00041CA985BA851596E1E0EC930E94E51B23
:1017AC000E948F1BB9CFE02F08812B9608950E94C1
:1017BC00831F6097AC89BD895E960E94511F0E9461
:1017CC000E1C0E94111C0E94951FB1F4AC89BD899E
:1017DC001A960E942C1B0E94161C0E94991F39F00D
:1017EC000E941B1C0E94161C0E94A41F20F00E9429
:1017FC00271B0E941E1C1EC00E94231CAA89BB8989
:10180C008C899D890E94281C0E942F1C0E941F1BE2
:10181C0018F40E94271B94C00E941B1C0E942F1CB2
:10182C000E94A41F18F40E94341C8AC00E94111C30
:10183C000E941E1C0E94391C0E943E1C0E94431CCC
:10184C00EF5FFF4F6F4F7F4F0E943E1C0E941B1C8F
:10185C000E941A1B0E94A41F60F0E2E0F0E060E01E
:10186C0070E00E943E1C0E94481C18F40E944D1C03
:10187C0067C00E94231CAA85BB858C859D850E9410
:10188C00281C0E94341C0E94951FA1F00E942F1C42
:10189C000E94F21B29F00E942F1C0E94EA1B19F4D3
:1018AC000E94341C4DC00E94481C19F40E944D1C0F
:1018BC0047C0C4CF0E94231CEA85FB856C857D85BF
:1018CC000E947E1FAFEFBFEF8FEF9FE07CDEE0301A
:1018DC0019F00E947F1B34C00E94111C0E94951F9E
:1018EC0091F00E94231CEA89FB896C897D890E94F6
:1018FC007E1FAE85BF858889998965DEE03019F039
:10190C000E947F1B1DC00E94431CAC89BD891A9686
:10191C000E945C1FEC89FD890E94FF1B79F0AC8949
:10192C00BD891E960E94571F3197604070400E94DF
:10193C00611FAC89BD891596E1E0EC930E94431CB4
:10194C00669608950E94831F0E941B1CE250F04073
:10195C00604070400E940E1CEC81FD81A68DB78DFD
:10196C0080A191A1E2E0F0E060E070E00E94521CE6
:10197C000E946F1F0E94A41F18F00E944D1C70C380
:10198C00EC81FD81E281F0E00E946F1F0E94CD1E70
:10199C000E94D71E7F936F93FF93EF93AC81BD8111
:1019AC009A960E94511FAF91BF918F919F910E9467
:1019BC006A1E56C3BA93AA9324971A930A93EE817C
:1019CC00FF810E94571C16960E945F1C0E94661C89
:1019DC000E94EA1B29F00E946B1C0E94701C20F0D4
:1019EC00E2E01981088163C10E94781C29F40E94ED
:1019FC006B1CA081A33009F006C00E946B1CB6962C
:101A0C00DF010E945F1C0E94781CB1F40E947F1CB5
:101A1C003896DF010E944D1FAE81BF81AE17BF0704
:101A2C0020F0E2E01981088142C10E946B1CB6963D
:101A3C00DF010E94511F3BC00E946B1CE281A0E1A0
:101A4C00EA9F8001AE81BF81A017B10748F10E94C7
:101A5C006B1CFA93EA930E94161C3ADDEA83FB8313
:101A6C006C837D830E94661C0E94F21B21F4E1E0D2
:101A7C00198108811CC10E94661C0E941F1B28F042
:101A8C000E946B1C0E94701C20F0E2E019810881FE
:101A9C000EC1EE81FF81E01BF10BEE83FF83D2CFF1
:101AAC000E947F1CFA93EA930E94161C4BDFDF0105
:101ABC00CB01EE81FF810E94B51E0E94891C0E9401
:101ACC008E1C0E946B1CF296DF01EE81FF810E943E
:101ADC00941C19810881EBC0AA9324970E94AC1F17
:101AEC00A885B98514960E944D1F31968F01002E42
:101AFC00012A41F0A885B9851E960E94511F0E94AB
:101B0C00951F11F4E4E0D1C0F801EF7009F0C3C0E7
:101B1C00A885B9850E94041CA885B9851A960E94CF
:101B2C00511F0E94951F61F40E946B1C3896DF01B7
:101B3C000E944D1F0E171F0710F0E4E0B6C0ABC09B
:101B4C00F8010E94B51E0F010E946B1CE281F0E0AF
:101B5C003197E021F121309709F09DC00E946B1C58
:101B6C000E94A21CB5DC0E94AB1C0E94B01C0E94FF
:101B7C001F1B10F4E2E099C00E94B01C0E94F21BE3
:101B8C0011F4E1E092C00E946B1C7E96DF010E9472
:101B9C00511F0E94B01C0E94A41F08F46DC0EF815D
:101BAC00E03011F4E4E081C00E946B1C0E94A21C86
:101BBC00FEDD0E94B51C0E94951F11F4E7E075C074
:101BCC000E94B01C0E94EA1B11F4E2E06EC00E945D
:101BDC00B01C0E94F21B11F4E1E067C00E946B1C68
:101BEC000E94EB1AE03011F0E1E05FC00E946B1C28
:101BFC000E94FB1A0E946B1CDF01BE96FF93EF93B1
:101C0C00FD010E94BB1CAF91BF910E945C1F20E0A4
:101C1C000E946B1CE2812E17D8F40E946B1C349628
:101C2C00A1E0A0830E946B1C0E94EB1AE03011F023
:101C3C00E1E03BC00E946B1CBE96DF010E94571F67
:101C4C00EF5FFF4F6F4F7F4F0E94611F2F5FE0CF01
:101C5C000E946B1CBE96FF93EF93DF010E94511FF5
:101C6C00DF01CB01E22FF0E00E94CD1E0E94521C3E
:101C7C00AF91BF910E945C1FEB81FC816D817E81D5
:101C8C00A885B9851A960E945C1F0E946B1C0E9445
:101C9C00BB1C0E948E1CF8010E94571C0E944D1FF9
:101CAC00F296DF01F8010E94941C0E94B31F2A9641
:101CBC0008950E94C01C21F0E02F0E94B21FD0C1D9
:101CCC000E94CF1C01F5AC81BD8152962D913C91A7
:101CDC00D9011C91103011F404E015C0F901E38511
:101CEC00E87031F40E94E01C0E944D19E03009F0BC
:101CFC0001C009C0EC81FD81FA93EA93A0E0ECDE0F
:101D0C000E2F0030E9F2E02F0E94B21FA9C10E94F1
:101D1C00C01CB1F40E94CF1C99F4EC81FD81A28906
:101D2C00B3891C91153E11F0103009F409C0EC81F7
:101D3C00FD81FA93EA93A1E0CFDE0E2F003051F330
:101D4C00003029F50E94CF1C11F5AC81BD81529653
:101D5C002D913C913A932A93E0E0EA93A0E2B0E013
:101D6C000E9478190E94E01C0E946619AC81BD810A
:101D7C0054960E944D1FE385E871D9011C96EC9393
:101D8C00AC81BD810E944D1F3496A1E0A083E02F51
:101D9C000E94B21F65C1BA93AA9325970E94A91FEE
:101DAC00AD85BE8554963D914C914A933A93E0E2B1
:101DBC00EA93ABE0B0E00E947819E0E0E887E987AD
:101DCC000E2F5E2FE8E0EA87AB85BC850E94EB1CEA
:101DDC000E94F01CAE0FBF1FAC91AE3211F50E94E9
:101DEC00F51C1E3221F4A885B98513970CF003C09D
:101DFC000E94011DF4CF1F3221F01C3511F011325D
:101E0C0008F402C0E6E071C00E94F01C0E94081D9C
:101E1C0010F4E4E201C0E0E2A32FB42F1B96EC9384
:101E2C0063C00E94F51C113220F01F3211F01C35DA
:101E3C0009F432C01E3219F0EA855E1768F0AA85E3
:101E4C00A83011F41E3211F0E6E04FC058E0EBE080
:101E5C00EA87000F000F1FC0103818F00360E6E08F
:101E6C0044C0E8E9F0E0FA93EA93A12F4DDA3097F9
:101E7C0011F0E6E03AC0113410F01B3508F002C046
:101E8C00026007C0113610F01B3708F002C0016069
:101E9C0010520E94011DC5CF0E94F01C0E94081D0B
:101EAC0010F4E4E001C0E0E01E2F503011F4E6E045
:101EBC001CC0A32FB42FAC91A53E21F4A32FB42F9B
:101ECC00E5E0EC93AA85A83011F4000F000FE02F89
:101EDC00E370E13009F41061E02FEC70E43009F4A8
:101EEC001860E32FF42F1387E0E00E94B01F2F96A9
:101EFC000895BA93AA930E94AB1FE1E0E03029F059
:101F0C00AC81BD81AC91A03209F006C0EC81FD81A1
:101F1C003196EC83FD83F1CFAC81BD81AC91AF32B6
:101F2C0029F0AC81BD81AC91AC3559F4EC81FD81CB
:101F3C003196EC83FD83AE81BF8116960E94101DF5
:101F4C000AC0AE81BF810E944D1F7696DF010E94B0
:101F5C00511F0E94141DAC81BD81AC91BB27909781
:101F6C0060F40E941A1DA0E0B0E024DD0E2FAE81BB
:101F7C00BF8152960E941F1D3EC00E941A1DDE0199
:101F8C00169609DF0E2F0030B1F5AE81BF8191DEC0
:101F9C000E2FAE81BF8154960E944D1FE385E470D5
:101FAC003E2F003039F0043011F4303009F001C00C
:101FBC0005E021C03030F9F4AE81BF8152961D91FD
:101FCC002C91E12FF22FE385E07111F405E013C0A1
:101FDC000E94241D0E94C81E7F936F93FF93EF9362
:101FEC000E94281DAF91BF918F919F910E942E1D31
:101FFC000E94141DC2CFE02F0E94B21F2896089594
:10200C000E94831FEC81FD81A181AA93ED81FE8149
:10201C00F296FA93EA93EB81FC816D817E810E94AA
:10202C00331D11F0E3E01CC0EC81FD810E943A1DD0
:10203C0011F0E2E015C0AC81BD81A859BF4F0E94E0
:10204C00441D11F4E0E00CC0EC81FD81F296EE5AD7
:10205C00FF4FDF010E94441D11F4E0E001C0E1E0FC
:10206C0026960895AA9364970E94AA1FAC8DBD8DE5
:10207C000E944D1FEF83F887AF81B885EC91E05338
:10208C003E2F3A3020F41196AC91AA3309F00AC0D5
:10209C00EF81F8853296EF83F887AC8DBD8DED938B
:1020AC00FC9302C03091BD0F313010F0EBE0C2C197
:1020BC00E32F0E94521D0E944D1FED83FE83AA8DBB
:1020CC00BB8DED93FC93309711F4ECE0B3C1AD8173
:1020DC00BE81EC91E03089F0ED81FE81A1810E94FE
:1020EC0059064E2F40FD09C0E98DE03011F042FD3C
:1020FC0001C002C0EAE09EC19CC1AD81BE81E0E09E
:10210C00EC93E32FAD81BE811196EC93ED81FE81B2
:10211C00A1810E9485054E2F40FF02C0E3E08AC1D9
:10212C00E98DE03011F042FD01C002C0EAE082C14D
:10213C000E945A1D0E944D1CEF8BF88F698F7A8F6D
:10214C00DF01CB015DDF0E2F0130D9F4ED81FE8173
:10215C00F296E254FE4F1E2F2F2FE481E03089F0CF
:10216C00A12FB22F18960E94511FED8BFE8B6F8BF7
:10217C00788F0E945A1DAF89B88D898D9A8D40DF5A
:10218C000E2F033011F4E1E055C1003049F4AD815C
:10219C00BE81DD960E944D1FE030A2E0FA0711F0DF
:1021AC00EDE048C1AD81BE81A85BBF4F0E94731B9F
:1021BC000E945F1D0E94641D0E94951F41F4AD8119
:1021CC00BE81AA5ABF4F0E94511F0E945F1D0E94E0
:1021DC00641DAD81BE815A960E945C1FED81FE810B
:1021EC00EE5BFF4FE081AD81BE811396EC93ED81E8
:1021FC00FE81E381F0E00E94691D0E94CD1E0E94C9
:10220C00D71E0E945F1D0E946E1D0E94751DAD8120
:10221C00BE8192960E945C1FED81FE81E7ADAD817F
:10222C00BE811296EC93AD81BE81AD5BBF4F0E9417
:10223C004D1FAD81BE811896ED93FC93AD81BE818F
:10224C00AB5BBF4F0E94731B0E947A1D0E947F1DC7
:10225C0031F4AD81BE81AE5ABF4F0E94861D0E94E3
:10226C006E1D0E94841B662777270E94521C0E94B9
:10227C00691D0E94741E7F936F93FF93EF930E94CE
:10228C00891DAF91BF918F919F91662777270E94EF
:10229C00791EED81FE81E281F0E00E94CD1E0E944C
:1022AC00151FEE5FFF4F6F4F7F4FE987FA876B87E4
:1022BC007C87AD81BE815E960E945C1F01E00E940E
:1022CC00B51BA73FEFE0BE07E0E08E07E0E09E07FE
:1022DC0008F002E00E94B51BA73FEFEFBE07E0E05D
:1022EC008E07E0E09E0708F003E0033039F4AD817F
:1022FC00BE81A25ABF4F0E94511F02C00E94911D65
:10230C00AD81BE8196960E945C1F0E94911D7F93A9
:10231C006F93FF93EF930E94891DAF91BF918F91A3
:10232C009F910E94891CAD81BE819A960E945C1F70
:10233C00AD81BE811E960E947F1B0E945C1FAD81E9
:10234C00BE811496E0E0EC93033009F05FC0AD81E0
:10235C00BE811596EC93AD81BE81AE59BF4F0E94E4
:10236C004D1F0E94751DAD81BE8152960E945C1F4F
:10237C00ED81FE81A181AA93EE81FF81F296FA9301
:10238C00EA93E885F9850E94121B0E946306E030EF
:10239C0011F5ED81FE810E943A1DE9F4AD81BE81FB
:1023AC00D2960E94511FE235A2E5FA07A1E66A0710
:1023BC00A1E47A0781F4ED81FE81F296EC51FE4F97
:1023CC00DF010E94511FE237A2E7FA07A1E46A0776
:1023DC00A1E67A0709F01AC0ED81FE81F296E4516C
:1023EC00FE4FDF010E94511FAD81BE811A960E94E3
:1023FC005C1FED81FE81F296E851FE4FDF010E94D9
:10240C00511FAD81BE811E960E945C1FAD81BE81A5
:10241C000C930E94F31AAD81BE8156960E94101D3A
:10242C00ABEBBFE00E94981DAD81BE811696ED937B
:10243C00FC93E0E00E94B11F6E960895BA93AA93A4
:10244C00EA81FB81309771F0AA81BB81EC91E0307D
:10245C0049F0EA81FB81A681B781E881F981EA170D
:10246C00FB0711F0E9E00AC0EA81FB81A1810E941F
:10247C005906E17011F0E3E001C0E0E02496089504
:10248C00BA93AA931A930A93AC81A13010F0EBE0A3
:10249C0020C0EC810E94521D0D911C91002E012A2E
:1024AC0019F0D801E0E0EC93EA81FB81309721F040
:1024BC00AA81BB81E0E0EC93EC81A9EBBFE0F0E0FA
:1024CC00EE0FFF1FEA0FFB1FAA81BB81A083B18314
:1024DC00E0E01981088125960895AA93A2970E949D
:1024EC00AC1FA8A5B9A50E941F1DEDA1EF71EDA30E
:1024FC00FE01B696FA93EA93FE017196FA93EA936B
:10250C00E9A5EE71AE2FAEDD0E2F003009F01AC129
:10251C00FE013396EBA3FCA3FE013F96FA93EA93DC
:10252C00A8A5B9A5E6DC0E2FEDA1EC7109F49AC0B3
:10253C002897003089F0043021F4DE015796E7DB50
:10254C000E2F003019F0E02F2896FCC0EDA5E860A6
:10255C00EDA719A52AA569C0EDA5E47019F0E8E06E
:10256C002896F0C019A52AA5012E022A29F0E12FE0
:10257C00F22FE385E17119F0E7E02896E3C0EDA5B1
:10258C00E87009F452C00E94241D0E94C81E7F935B
:10259C006F93FF93EF930E94281DAF91BF918F9182
:1025AC009F910E942E1D0E940E1CE12FF22F7496FB
:1025BC000E949E1D7A960E949E1D7C960E94FA1B7C
:1025CC000E94791FAF89B88D1496E1E0EC93AF8926
:1025DC00B88D9E960E942C1B0E941B1C0E94951F5E
:1025EC00A9F0EF89F88DFA93EA930E94661C85D8BE
:1025FC000E2F003011F02896A5C00E941B1C0E94C3
:10260C00A51DAF89B88D1A960E945C1FEF89F88DB5
:10261C00FA93EA93AE81BF81888599850E94A109BE
:10262C000E2F003011F028968DC0EDA5E870C1F08A
:10263C00E12FF22F3B96A0E0A0830E9409090E9493
:10264C001E1C0E94391CA12FB22F1E960E945C1FCB
:10265C00AF89B88D1496E1E0EC93EDA5E062EDA79F
:10266C0028961BC0003011F0E02F6CC019A12AA1D4
:10267C00012E022A29F0E12FF22FE385E07111F0EF
:10268C00E4E060C0EDA1E27029F0E12FF22FE385C8
:10269C00E17009F402C0E7E055C0AF85B8899E9699
:1026AC000E94511FA8A5B9A55A960E945C1FE9A1CA
:1026BC00FAA1A8A5B9A55E96ED93FC93EDA1A8A5EA
:1026CC00B9A51496EC930E94241D0E94C81E7F93FA
:1026DC006F93FF93EF930E94281DAF91BF918F9141
:1026EC009F910E942E1DA8A5B9A51E960E945C1F45
:1026FC00A12FB22F5C960E94511FA8A5B9A51A96BE
:10270C000E945C1FA8A5B9A516960E94101DA8A52D
:10271C00B9A51596EFEFEC93A8A5B9A556960E940E
:10272C00101DEF85F889A8A5B9A5ED93FC93AF858D
:10273C00B88916960E944D1FA8A5B9A51296ED93BF
:10274C00FC93E0E00E94B31FAA960895BA93AA9353
:10275C002E970E94AA1FEF89F88DED83FE83AB891B
:10276C00BC890E941F1D0E94AA1D0E94AF1D0E94C1
:10277C00B41D11F0E02F95C1E98DFA8DA481A078DC
:10278C0011F0E2E08EC1E98DFA8DA481A17011F4F3
:10279C00E7E087C1E98DFA8DA285B385848595859F
:1027AC009F938F93BF93AF930E94BB1DEF91FF91AB
:1027BC006F917F910E94741EEF83F88769877A87E7
:1027CC00AD89BE89882799270E949F1F20F4EF812D
:1027DC00F885ED8BFE8BED89FE89309709F460C18D
:1027EC000E94BB1DFD01BC01F170309709F00EC1B8
:1027FC00E98DFA8D05800E94AA1DE2810E16C8F1A2
:10280C000E94BB1D0E94991F31F4A98DBA8D1E9692
:10281C000E94511F0AC00E94AA1D0E94AF1DA289CE
:10282C00B389848995890E946E0AEF87F88B698B2E
:10283C007A8B0E94C21D0E941F1B20F40E94C71D90
:10284C00E2E02FC10E94C21D0E94F21B21F40E94E3
:10285C00C71DE1E026C1EF85F88969897A89A98DC0
:10286C00BA8D52960E945C1FA98DBA8D1596E0E028
:10287C00EC930E94AA1D0E94AF1DA289B389848982
:10288C00958960D8EB87FC876D877E870E94CE1D6B
:10289C000E94951F21F40E94C71DE2E002C10E9414
:1028AC00D31DAB85BC858D859E850E94CD1E0E9457
:1028BC006A1EEB87FC876D877E87AD89BE89E0E059
:1028CC00F2E00E94021F3E2F4F2F032E042A09F420
:1028DC0066C00E94D31DE30FF41F0F010E94AA1DB6
:1028EC00E281D001F0E0EA17FB0758F40E94AA1D20
:1028FC00E281F0E0DF010E94D31DAE1BBF0B3A2F2B
:10290C004B2F0E94AA1DE181EA930E941A1DEE85AD
:10291C00FF85688979890E947E1FA32F0E94630618
:10292C00E03021F00E94C71DE1E0BBC0E98DFA8DBB
:10293C00A481A07459F00E94D81D0E94791EE32F27
:10294C00F42F662777270E94A41F08F019C00E9455
:10295C00D81D0E94791EE0E0F2E060E070E00E9479
:10296C00D71EAD81BE8188279927EA0FFB1F0E94D5
:10297C00AF1DB096FA93EA93A0E0B2E00E946619FC
:10298C00A98DBA8D1596EC91E30FEC93E32FF42FF0
:10299C00EE0FFF1FFE2FE0E01E2F2F2F5DC0E98DE5
:1029AC00FA8DA481A07489F00E94AA1D0E94DF1DDB
:1029BC00EC8DFD8D0E94E71D21F00E94C71DE1E00A
:1029CC0070C0A98DBA8D0E94F21D0E94D81D0E9464
:1029DC009F1F79F00E94AA1D0E94DF1DEE85FF85C6
:1029EC00688979890E94331D21F00E94C71DE1E09E
:1029FC0058C00E94CE1DA98DBA8D56960E945C1FA0
:102A0C00A98DBA8D1596EC91EF5FEC93A98DBA8DCB
:102A1C0016960E944D1FF170A0E0B2E0AE1BBF0BEA
:102A2C001A2F2B2FED89FE89E117F20710F41D895F
:102A3C002E890E945A1DAB8DBC8D16960E944D1F7F
:102A4C00F170AB8DBC8D9096EA0FFB1FFA93EA9355
:102A5C00A12FB22F0E946619E12FF22FAD81BE81FA
:102A6C00EA0FFB1FED83FE83E98DFA8D0E94F71DA3
:102A7C00DF01CB01E12FF22F0E94891CD0010E94B3
:102A8C005C1FAB89BC89ED91FD91E10FF21FFE93A8
:102A9C00EE93ED89FE89E11BF20BED8BFE8B9BCE49
:102AAC00E0E00E94B11F6B960895BA93AA93249705
:102ABC000E94AC1F0E94FD1DFA93EA93E985FA85EA
:102ACC000E94B41D09F075C0EF81F885A481A07235
:102ADC0009F46FC0A481A074A1F00E94FD1DE181D6
:102AEC00EA93E885F985B096FA93EA93EA85FB8533
:102AFC000E94E71D11F0E1E05DC0AF81B8850E9436
:102B0C00F21D0E94FD1DFA93EA93E985FA85A28DC8
:102B1C00B38D848D958D0E94A1090E2F003009F084
:102B2C0048C0AF81B8855E961D912C91A12FB22F14
:102B3C001B96EC91E062EC93AF81B8851A960E94DB
:102B4C00511FA12FB22F5C960E945C1FAF81B885DC
:102B5C001E960E944D1FA12FB22F5A96ED93FC93F7
:102B6C00EF81F885A685B78580899189FD01BC0127
:102B7C000E94C31EA12FB22F5496ED93FC930E947A
:102B8C0009090E94B51CA12FB22F56960E945C1FFA
:102B9C00AF81B8851496EC91EF7DEC930E94FD1DEE
:102BAC003496A1E0A0830E94FD1DDF010E94040A5F
:102BBC000E2FE02F0E94B31F29960895BA93AA9363
:102BCC000A93A981BA8171DF0E2F003021F4A981FB
:102BDC00BA810E941F1DE02F0881239608950E9440
:102BEC00831F60970A930E94021EFA93EA93EF895F
:102BFC00F88D0E94B41D09F096C1ED89FE89A4815F
:102C0C00A07811F0E2E090C10E94071E0E94691D9D
:102C1C000E949F1F28F4ED89FE89A481A27009F0FF
:102C2C0004C00E94071E0E945F1DAD89BE891696C6
:102C3C000E94B61A0E944D1C0E948F1B0E940D1EF2
:102C4C001596EFEFEC930E94691D0E94991F08F0F6
:102C5C000FC10E94021EE281F0E00E94CD1EA0E096
:102C6C00B2E080E090E00E94D71EE987FA876B877C
:102C7C007C870E94C21A0E94991F98F40E94641DBE
:102C8C000E94151E7F936F93FF93EF930E94E51B99
:102C9C000E94151EAF91BF918F919F910E94A41F0E
:102CAC0008F421C00E94E51B0E94A51DDF01CB0189
:102CBC000E941F1E0E94A51D0E94D21E0E947E1EF5
:102CCC000E940D1E16960E94511F0E94691D0E94A3
:102CDC00791EA98BBA8B8B8B9C8BAD89BE89529636
:102CEC000E94861D2DC0AD89BE891E960E94861D30
:102CFC000E947F1D19F50E94021EFA93EA930E940E
:102D0C00FA1B0E94DD0B0E947A1D0E94841B0E94FC
:102D1C00EA1B21F40E94241EE2E006C10E94841BDF
:102D2C000E94F21B21F40E94241EE1E0FDC00E94CF
:102D3C002B1EAD89BE891E960E945C1F0E94301E00
:102D4C000E947F1D09F494C00E941F1E0E94691DE1
:102D5C000E949F1F08F04DC0ED89FE89A481A270CE
:102D6C0089F00E94021E0E94371E0E94DD0B0E94F9
:102D7C007A1D0E947F1D29F40E941F1E0E945F1D58
:102D8C0038C008C00E94021E0E94371E0E946E0AA4
:102D9C000E947A1D0E94841B0E94F21B21F40E9447
:102DAC00241EE1E0C1C00E94841B0E941F1B38F04E
:102DBC000E94021E7E96DF010E94891B20F00E9459
:102DCC00241EE2E0B1C00E94301EED89FE890E94F3
:102DDC00F71D0E94B51B0E946A1ED0010E945C1F49
:102DEC000E94B51B0E94641D0E94741E0E945F1DF0
:102DFC00ABCFED89FE890E94F71D0E94691D0E94D0
:102E0C006A1ED0010E945C1F0E94691DE0E0F2E086
:102E1C0060E070E00E94151FAD89BE891596EC9399
:102E2C000E94641DF170309719F10E94021E0E94DD
:102E3C00371E0E94A80C0E948F1B0E94BD1A0E9474
:102E4C00951F21F40E94241EE2E06EC0ED89FE89DC
:102E5C00E581F0E00E94D71B0E94CD1E0E946A1EE5
:102E6C000E948F1BAD89BE891596EC91EF5FEC9398
:102E7C000E943A1EFD01BC01F170309751F0AD89F2
:102E8C00BE8956960E94511F0E94D71B0E949F1FFD
:102E9C0009F430C0ED89FE89A481A074B1F00E94C0
:102EAC00021EE181EA93EE89FF89B096FA93EA93C8
:102EBC00E88DF98D0E94E71D21F00E94241EE1E0AF
:102ECC0033C0AD89BE890E94F21D0E94021EE181B1
:102EDC00EA93EE89FF89B0960E94DE1A21F00E94D7
:102EEC00241EE1E021C00E94BD1AAD89BE89569610
:102EFC000E945C1F0E943A1E0D010E94071ED00109
:102F0C000E949F1F80F4AD89BE8916960E94511FA6
:102F1C00AD89BE891A960E945C1FAD89BE89149634
:102F2C00EC91E062EC93E02F088167960895BA93D8
:102F3C00AA931A930A93AA81BB8112960E944D1FE1
:102F4C00309729F1AA81BB8114960E944D1F8F01E5
:102F5C00309761F00230E0E01E0780F0F801319705
:102F6C008F01AA81BB811496ED93FC93AA81BB813E
:102F7C0012960E94981D3197AC81A083AA81BB81C7
:102F8C000E944D1FFF2312F00E94981D06C0AA81BB
:102F9C00BB81EFEFFFEFED93FC93198108810C944B
:102FAC008619BA93AA9326970E94A91F00E0AC85B4
:102FBC00BD850E941F1DEA89FB893196EA8BFB8B2C
:102FCC003197E4913E2FE03009F41FC1E02FE0303F
:102FDC0039F4353211F401E002C00E94411E14C1D3
:102FEC00E130A9F4353219F40E94411E0CC102E003
:102FFC0050E010E03D3211F411E006C13B3211F407
:10300C005BE202C1303211F450E2FEC002C0E23089
:10301C0039F440E003E0303311F41068F5C003C01C
:10302C00E33009F0F1C0303310F03A3308F007C048
:10303C00AAE04A9F402DE32FE0534E0FE5C0E32F4B
:10304C00E33649F40E94481EE889F989A481AA93C1
:10305C000E944E1ED8C0E33769F40E94481EA8890E
:10306C00B98914960E94EB1CAE81BF810E9488190D
:10307C000E2F0FC0E03789F40E94481EA889B98929
:10308C0014960E94EB1CAE81BF810E9494190E2FE6
:10309C00186012601F7720E034C0E43611F0E93676
:1030AC0011F4146002C0E53731F4E0EDF0E0EE838A
:1030BC00FF8305E00CC0E83511F4186003C0E83755
:1030CC0009F0A1C0EAEDF0E0EE83FF8304E012FF0B
:1030DC0014C00E94481E0E94541EAB85AA233AF4C9
:1030EC00EA85FB850E94881EEA87FB875DE25030EB
:1030FC0011F00F5F01C01B7F04C00E94481E0E948C
:10310C00541E10FD11C0041778F417FF08C012FFED
:10311C0004C01B7F352F015001C030E301C030E2E9
:10312C000E94411E4150EFCF202F11FF17C02030BD
:10313C00A1F013FF06C0EE81FF813591EE83FF8372
:10314C0005C0AE81BF813D91AE83BF830E94411EFD
:10315C00403009F041502150EACF4BC030E3EE81B2
:10316C00FF810E94661FE887F987EE81FF81329606
:10317C00EE83FF83E885F985AA85BB85AE17BF076B
:10318C0050F03F5FA885B985EA85FB85EA1BFB0BF0
:10319C00EA87FB87EFCF3A3328F013FF02C0395F81
:1031AC0001C0395D14FD1AC0313320F4A885B985EE
:1031BC00119709F409C0421710F010FF01C013C099
:1031CC0030E217FF0BC030E3106112FF07C01B7F0A
:1031DC005A930E944E1E403009F041500E94411EED
:1031EC00403009F041502150A885B985129708F05C
:1031FC00B5CF10FF08C0403031F04150E0E2EA9307
:10320C000E944E1EF8CF00E0D6CEAC85BD850E9444
:10321C004D1F0E94B01F64960895FF92F82E2697BA
:10322C000E94AB1FDE011C960E94661E0E944D1F61
:10323C00309719F4EFEFFFEF25C0DE0116960E94D0
:10324C00661E8D01DE011C960E94661E0E94EB1C00
:10325C00E0E0E887E987DE011A960E94661E0E946C
:10326C004D1FFA93EA931A930A93EDE9F7E1FA9357
:10327C00EA93DE011A9695DE9F01AE81BF81E0E0F4
:10328C00EC93F9010E94B21F2A96FF900895BA930D
:10329C00AA936627772789919991E991F991A99138
:1032AC00B991009629F001976D9171916717C9F347
:1032BC00671B10F4EFEF0895E0E009F0E395089533
:1032CC00BA93AA9399818881009641F0BD81AC8113
:1032DC00FB81EA8161916D930197E1F7FD81EC81AE
:1032EC0026960895BA93AA93B981A881109631F0C5
:1032FC00FC81EB816A8161931197E9F7EB81FC8189
:10330C0025960895BA93AA93A991B991EE27FF2710
:10331C006D91662311F03196FBCF0895BA93AA9361
:10332C00AA27BB27E991F9910590002011F011967D
:10333C00FBCFFD010895A2E0B0E00C945C1E0E944E
:10334C000F010C940C01E981E07F0E2F02950F7098
:10335C00A02FF5CFE981EF700E2FA02F0E940F0147
:10336C00EACFA091250BB091260BA030E1E0BE076F
:10337C000895E091250BF091260B0895EB5FF64F25
:10338C00E081E7BDA5E2BBE0ED91FD913196FE93A6
:10339C00EE933197EB5FF64FE081E8BD0895E9DFDE
:1033AC00E050F140EB5FF54FE0810895E8BDA5E2F8
:1033BC00BBE0ED91FD913196FE93EE930895A091B3
:1033CC00250BB091260BA030E2E0BE070895F09AD1
:1033DC00E0E0E093250BE093260B0895A5E2BBE01B
:1033EC00ED91FD913196FE93EE930895BA93AA93C5
:1033FC00E3E6FDE0FA93EA93EA81FB81FA93EA9320
:10340C000895E3E6FDE0FA93EA930895E5E0F9E028
:10341C00FA93EA930895ECE2F0E0FA93EA93AFE2C0
:10342C00BBE00E94AC13E0913009F0E00E94CD1E8D
:10343C00A0E0B0E080E091E00E94FD1E0895E091D4
:10344C002F09F0E00E94CD1EA0E0B0E081E090E0FA
:10345C000E94FD1E0895E0912E09F0E00E94CD1E01
:10346C00A0E0B1E080E090E00E94FD1E08950E9473
:10347C006F1EE0912D09F0E00E94CD1E0E946A1E85
:10348C00E093270BF093280B6093290B70932A0B76
:10349C000895E091270BF091280B6091290B709106
:1034AC002A0B0895E0E0F1E0FA93EA93AFE2BBE077
:1034BC000C94AC13A3E6BDE00C94E415E0E0E093AF
:1034CC00250BE093260B089554DFEB5FF64F089520
:1034DC0050DFEA5FF64FA0810895E081EC937ECF38
:1034EC00E091B30FEF5FE093B30F0895E093250BDA
:1034FC00F093260BE0E0E093B30F0895E0912F0BCF
:10350C00F091300BA091270BB091280B8091290BD7
:10351C0090912A0B662777270E94791EA093270B80
:10352C00B093280B8093290B90932A0B0895E5E018
:10353C00FAE0FA93EA93B6CFA091270BB091280B3F
:10354C008091290B90912A0B0895662777270E946A
:10355C007E1F0895F0E00E94CD1EDF01CB0108957F
:10356C000E94511FE983FA836B837C830895ED815C
:10357C00FE816F8178850895A981BA818B819C81A8
:10358C000895E985FA85A181AA93EA85FB85F296CF
:10359C00FA93EA93EC81FD816E817F810E947E1FFC
:1035AC00A1E00C94C706A2A1B3A184A195A1089592
:1035BC00FA93EA93E885F9856A857B850E947E1FDC
:1035CC00A1E00E946306E0300895FA93EA93A0E02C
:1035DC00B0E080E090E00C94A1099E96E0E0F0E071
:1035EC0060E070E00E945C1F0895F296FA93EA93F3
:1035FC00E0E0EA93A0E0B2E00C9478190E94791F05
:10360C00E981FA81F29608950E94511FD0010E941F
:10361C005C1FE981FA810895A289B389848995890F
:10362C000E94831FA1E00895A885B9858A859B8592
:10363C000895A230E0E0BE07E0E08E07E0E09E07D0
:10364C000895E1E0F0E060E070E008950E94511F01
:10365C00EC83FD836E837F830895EC85FD85FA935F
:10366C00EA93D901E0E0F2E00E94021FAE81BF8133
:10367C0088859985662777270E946F1E0E94A1096D
:10368C00E0300895AC85BD85D296F901F170AE0F8E
:10369C00BF1F0895EC85FD85FA93EA93AA85BB8537
:1036AC008C859D850895E0E0F1E060E070E00E947B
:1036BC00151F0895AE81BF81888599850E946F1E64
:1036CC000E94A109E03008950E94F71EF170AC85AC
:1036DC00BD85D296AE0FBF1F08950E944D1F662761
:1036EC0077270895E0E8F0E060E070E00E94151F95
:1036FC000895EFEFFFEF6FEF7FEF0895AD85BE8577
:10370C008F85988908950E94511FF8DF0E94A41F8D
:10371C000895ED83FE836F8378870895E989FA898C
:10372C00FA93EA93D801E0E0F2E00E94021FAF8125
:10373C00B88589859A85662777270E946F1E0E9417
:10374C00A1094E2F40300895A989BA89D296F80163
:10375C00F170EA0FFB1F9F01ED85E1700895A985BB
:10376C00BA858B859C850895E989FA89FA93EA9341
:10377C00AF85B88989899A890895AF81B88589857B
:10378C009A850E946F1E0E94A1094E2F4030089509
:10379C000E94F71EF170A989BA89D296EA0FFB1F15
:1037AC000895AD81BE818F8198850895A985BA85CC
:1037BC005E960E94511FF5DF0E94A41F0895E981B7
:1037CC00FA816B817C810895A130E0E0BE07E0E0D6
:1037DC008E07E0E09E070895AF3FEFEFBE07EFEFD7
:1037EC008E07EFEF9E070895A0E0B0E080E090E038
:1037FC000895A685B78580899189EECF1E960E9483
:10380C00571FEF5FFF4F6F4F7F4F0E94611F08954F
:10381C000E94741F0895E889F9896A897B89089543
:10382C00AC81BD818E819F8108950E946A1F08958D
:10383C00EC83FD836E837F830895EC89FD89FA9375
:10384C00EA9308950E946E0AEC87FD876E877F8746
:10385C000895AC85BD858E859F850895EC85FD8585
:10386C006E857F850895EC81FD816E817F81089541
:10387C00E887F9876A877B870895E885F9856A85E3
:10388C007B850895F0DFD0DE0E949F1F0895E0E055
:10389C00F0E060E070E008950E94881F0E94741EA2
:1038AC000895A885B9851496ED93FC93A885B985E0
:1038BC0008950E94511FEA83FB836C837D830895D6
:1038CC00AA81BB818C819D810895A885B9850E94B0
:1038DC004D1F08957E96DF010E94511FF1DF0E945B
:1038EC00A41F0895EA81FB816C817D810E94951F44
:1038FC000895EA81FB816C817D81A885B9851A9632
:10390C000E945C1FE2CF662777270E946A1E0895EB
:10391C00A885B9851E960E945C1F0895EF70F07003
:10392C00EE0F0E94AC1EEA0FFB1FA885B9855296BC
:10393C00ED93FC93E0E00895FA93EA93EA85FB8516
:10394C00A285B385848595850895EB83FC836D836F
:10395C007E830895AB81BC818D819E810895F5DFB6
:10396C00EB81FC816D817E810895FA93EA9319DFD6
:10397C000C94A80CBA93AA930E94AB1FEC81FD8106
:10398C00FA93EA93A0E0B0E00E94E00C0E2F003016
:10399C000895AC81BD810E944D1FFA93EA93EE818C
:1039AC00FF81A685B785808991890E94A1090E2F78
:1039BC00003008953A932A93EE81FF81A489B5894A
:1039CC00BA93AA93ABE0B0E008950E944D1FEE832A
:1039DC00FF830895E885F985AE81BF810895E88558
:1039EC00F9853196E887F9873197AE81BF81AE0FA3
:1039FC00BF1F1C910895E52F5F5FF0E0E30FF41FEC
:103A0C0010830895EA0FFB1FAB85BC85ED93FC93E7
:103A1C00113208953CDF0E945C1F0895AE81BF8176
:103A2C0016960E945C1F0895EE81FF81FA93EA932B
:103A3C000895E0E0F0E0ED93FC930895A12FB22FF0
:103A4C0054964BCEA12FB22F5A960E944D1F08951B
:103A5C00662777270E94831E08950E947E1FA1E08F
:103A6C000E946306E0300895F296E250FE4FDF01AB
:103A7C000E944D1FE535AAEAFA0708950E94511FCE
:103A8C00EF7FFF7F6F7F7070E634A1E4FA07A4E547
:103A9C006A07A0E07A070895A9EBBFE0F0E0EE0F0B
:103AAC00FF1FAE0FBF1F0895ED81FE81FA93EA93BD
:103ABC000895E98BFA8B6B8B7C8B0895E989FA89D5
:103ACC006B897C890895A989BA898B899C89089509
:103ADC00AD81BE81A05CBF4F0E944D1F0895AD8982
:103AEC00BE898F89988D0FCFED87FE876F87788B76
:103AFC000895ED85FE856F8578890E94951F089540
:103B0C000E94511FF1CFED81FE81A085B185FD0191
:103B1C000E94B51E0895ED81FE8145DDCFDF0E9428
:103B2C006A1E0895ED91FD913196FE93EE930895E2
:103B3C00A0E0B0E0A083B183E12FF22F0895E15013
:103B4C00F040604070400895A98DBA8D0E944D1FC1
:103B5C000895FA93EA93EB8DFC8D0895A281B381BD
:103B6C000E9424120E2F00300895E98DFA8DA68143
:103B7C00B781808591850895AF85B88989899A899F
:103B8C000895A98DBA8D1496EC91E068EC93089584
:103B9C00EB85FC856D857E850895E98DFA8DE58133
:103BAC00F0E00895E98DFA8DA689B789808D918D05
:103BBC00EFCFE181EA93EA8DFB8DB096FA93EA930D
:103BCC000895A689B789808D918D0E94831FA1E0ED
:103BDC000E94C706E03008951496EC91EF7BEC93AD
:103BEC00089536960F01DF010E94511F0895AF8191
:103BFC00B8850E944D1F0895AD89BE890E944D1F46
:103C0C000895AD89BE891A960E94511F0895AD89F9
:103C1C00BE8916960E945C1FAD89BE8908958FDF00
:103C2C00DF01CB01E985FA856B857C850E94151F28
:103C3C000895E985FA856B857C850895AD89BE89E3
:103C4C001496EC91E068EC930895ED85FE856F85F4
:103C5C0078890895FADFAD89BE8952960E945C1F5F
:103C6C000895FA93EA9388CFED89FE89A681B781EE
:103C7C008085918508953A93AD85BE85EF85F88949
:103C8C0009950895E889F9893497E88BF98B08959B
:103C9C00AD85BE85EF85F88909950895A889B98900
:103CAC0014960E944D1FEA87FB870895109639F0F1
:103CBC0080ED97E00197F1F7A8951197C9F7089552
:103CCC000024AF0DB01D0895EA0FFB1F681F791F6C
:103CDC000895AE0FBF1F861F971F0895EA1BFB0B9D
:103CEC00680B790B0895AE1BBF0B860B970B0895D1
:103CFC00EA23FB23682379230895EA2BFB2B682BFB
:103D0C00792B0895F195E195F0400895F095609523
:103D1C007095E195FF4F6F4F7F4F0895EE230E2E58
:103D2C00FD01BC0131F0EE0FFF1F661F771F0A94D7
:103D3C00D1F70895EE230E2EFD01BC0131F07695DE
:103D4C006795F795E7950A94D1F70895EE0FFF1F45
:103D5C00EE0FFF1FEE0FFF1FEE0FFF1F0895F695DE
:103D6C00E795F695E795F695E795F695E795089519
:103D7C00EE0FFF1F661F771F0895E62FF72F60E0E9
:103D8C0070E008956E2F7F2FE0E0F0E008956F2F24
:103D9C00660F660B762F0895E095F09560957095FB
:103DAC0008957A9F702D6B9F700DF89F700DE99F91
:103DBC00700D6A9F602D710DFB9F600D711DE89F4A
:103DCC00600D711D8827FA9FF02D610D781FEB9FF8
:103DDC00F00D611D781FEA9FE02DF10D681F781F13
:103DEC0008956E2F6A9FF0016B9FF00D08953CD0E3
:103DFC00D8DF0EF48BDF08950024112490E1AA0F74
:103E0C00BB1F001C111C0E1A1F0A18F40E0E1F1ECD
:103E1C0001C0A1609A9599F7FD01D00108953F93D7
:103E2C004F935F93002411244427552730E2AA0FA7
:103E3C00BB1F881F991F001C111C441F551F0E1AF5
:103E4C001F0A460B570B28F40E0E1F1E461F571F3A
:103E5C0001C0A1603A9559F7FD01BC01D001CA011E
:103E6C005F914F913F910895E89477FF02C04EDF28
:103E7C00689497FF0BC00024A095B0958095909501
:103E8C001196801D901D00F8039400FA0895ED9191
:103E9C00FC9111970895ED91FD916D917C91139783
:103EAC000895ED91FD916D917D910895ED93FD93A4
:103EBC006D937C9308957E936E93FE93EE93089589
:103ECC000590F491E02D0895E881F9816A817B8158
:103EDC000895A881B9818A819B810895E883F9832B
:103EEC006A837B830895A083B1838283938308952F
:103EFC007A936A93FA93EA9308959A938A93BA936E
:103F0C00AA930895182E862F612D192E972F712D97
:103F1C001B2EBF2FF12D1A2EAE2FE12D08953097A9
:103F2C0060407040089500240A160B060806090626
:103F3C000895EA17FB07680779070895AE17BF07BE
:103F4C008607970708955A934A933A932A931A939C
:103F5C000A9308955D814C813B812A8119810881E6
:103F6C000895AC0FBD1F05900D928A95E1F7089549
=======
:020000000C945E
:10000200B6000C9400000C9400000C9400000C94B8
:1000120000000C9400000C9400000C9400000C945E
:1000220000000C9400000C9400000C9400000C944E
:1000320000000C949F010C9400000C9400000C949E
:1000420000000C9482010C9400000C9400000C94AB
:1000520000000C9400000C9400000C9400000C941E
:1000620000000C9400000C9400000C9400000C940E
:1000720000000C9400000C9400000C9400000C94FE
:1000820000000C9400000C9400000C9400000C94EE
:1000920000000C94000020222A2B2C5B3D5D7C7F0B
:1000A2000000000400020001800040002000100057
:1000B2000800040002000000008000400020001040
:1000C2000008004000200010000800040002102771
:1000D200E80364000A0001000010000110000100A2
:1000E20003030302020C00080001000636004672F8
:1000F20065633A20003232303530003234303030ED
:1001020000333230303000204D6F6E6F0020537458
:10011200657200303A413030312E7761760001004D
:100122000400EBFE904D53444F53352E30004E4F9A
:10013200204E414D4520202020464154333220207C
:1001420020004E4F204E414D452020202046415454
:100152002020202020000100190BEE000100740F66
:1001620020010100780F22010000F894EE27EFBB76
:10017200F1E0F5BFE5BF8DE0A2E0BB27ED938A95E4
:10018200E9F780E090E2A0E0B1E0ED930197E9F7B2
:10019200E8E5F1E085919591009761F0A591B5911F
:1001A20005901590BF01F00105900D920197E1F7BE
:1001B200FB01F0CF8BBFE0E0EEBBEFEFEDBFE0E283
:1001C200EEBFC0E0D9E00C9465032C978CE0A0E070
:1001D200B0E0E2EEF0E00E94021F0A93849A859A50
:1001E200809A819A829A839AA2E3B0E00E94A71D24
:1001F20000E00C3068F40E944019E02FF0E0DE01CC
:100202001196AE0FBF1FAC910E9444190F5FF1CF40
:10021200ECE0E0930409A091040921D008812D9615
:1002220008958C9A8C980895AA93E881E87011F049
:100232008B9A01C08B98E881E47011F08A9A01C010
:100242008A98E881E27011F0899A01C08998E88160
:10025200E17011F0889A01C088980C940406AA9360
:100262000A938D980E9440190E9448190E944F19C2
:10027200D8DF088127C2AA930A938D9A0E94401957
:100282000E9448190E944F19CCDF08811BC2BA9301
:10029200AA930A9300E0E02F0F5FA981BA81F0E0F0
:1002A200EA0FFB1FA491E7DFE02FA981BA81F0E0FA
:1002B200EA0FFB1FE491E03071F70881239608955D
:1002C200A1E0CDDF0895AA93E881F0E0309719F418
:1002D200A981A05814C0E130A0E0FA0719F4A9815D
:1002E200A0540DC0E230A0E0FA0719F4A981AC567F
:1002F20006C0E330A0E0FA0719F4A981AC52AFDFDF
:10030200E1C10A921A92FA926A937A938A939A9321
:10031200AA93BA93EA93FA93EFB7EA930E94760804
:10032200E991EFBFF991E991B991A99199918991D7
:1003320079916991F990199009901895AA93BA93B5
:10034200EA93FA93EFB7EA93F29B19C00E94561907
:1003520028F40E945E190E94631907C00E94741952
:10036200E7BD0E9474190E947B190E94561909F474
:10037200F19A0E94841911F40E948C191BC00E94E8
:10038200561930F40E94931931970E94631909C0DB
:100392000E947419E7BD0E9493190E9474190E9469
:1003A2007B190E94561909F4F19A0E94841911F4DA
:1003B2000E948C19E991EFBFF991E991B991A99144
:1003C20018951A930A930E949B19E0911B0BF091C6
:1003D2001C0B60911D0B70911E0BE45DFF4F6F4F64
:1003E2007F4FDF01CB010E9496150E949B190E944C
:1003F200A019E0E8F0E00E94A51962DF02E110E036
:100402000E94AB1919F40F5F1F4FFACFE0E0EA9395
:10041200A0E059DF0E94AB1919F00E94B219FACF7D
:100422000E94AB1919F40F5F1F4FFACF0B5F1F4FDA
:100432000E94AB1919F40F5F1F4FFACFE0E0EA9365
:10044200A1E041DF0E94AB1919F00E94B219FACF64
:100452000E94AB1919F40F5F1F4FFACF0B5F1F4FAA
:100462000E94AB1919F40F5F1F4FFACFE0E0EA9335
:10047200A2E029DF0E94AB1919F00E94B219FACF4B
:10048200E0E0EA93A3E01FDFA0EFB0E000DFA0917D
:100492001A0BA23219F4A7EFB0E0F9DEA0911A0B01
:1004A200A03C19F4ADEFB0E0F2DEE0911A0BE030BF
:1004B20019F4A3E0B1E0EBDEF29B03C0A9E0B1E0E6
:1004C200E6DEF29903C0AFE0B1E0E1DE0E949B19E3
:1004D200ACE2B0E080E090E00E949615099119919B
:1004E2000895BA93AA930E949B19EA81FB81FA9319
:1004F200EA93A1E00E941612E093210BE03009F08A
:10050200E1C05E9A0E949B190E94A019ECE2F0E001
:100512000E94A519E0913009F0E00E94181EA0E0A7
:10052200B0E080E091E00E94481E7F936F93FF93BA
:10053200EF93E0912F09F0E00E94181EA0E0B0E0D6
:1005420081E090E00E94481EAF91BF918F919F91F0
:100552000E94B51D7F936F93FF93EF93E0912E0955
:10056200F0E00E94181EA0E0B1E080E090E00E945E
:10057200481EAF91BF918F919F910E94BA1DE09149
:100582002D09F0E00E94BC19E093140BF093150BB7
:100592006093160B7093170BE0931B0BF0931C0BDD
:1005A20060931D0B70931E0BA0911B09A13011F4D7
:1005B200F29A01C0F298A0911D09A23219F4EAE55B
:1005C200E093B300A0911D09A03C19F4E3E5E09388
:1005D200B300E0911D09E03019F4EEE3E093B300BB
:1005E200E0911D09E0931A0BECDE0E949B190E9418
:1005F200A0190E94C1190E94C4190E949B190E944D
:10060200DD190E94C419F198F098E3EAE4BDE1E033
:10061200E5BDE0E0E093120BE093130BF09902C00A
:10062200F19B01C001C0FACFF19B08C00E949B1947
:100632000E94A0190E94C119F19805C00E949B193D
:100642000E94DD19F098E0911F0BF091200B0E949F
:10065200E219662777270E94C41DA093140BB0935A
:10066200150B8093160B9093170B329902C00E94C0
:10067200EB19309910C00E94F519A0E2B3E00E9474
:10068200A71D3099FECFACE2B1E00E94A71DE3EABC
:10069200E4BDE1E0E5BD319903C00E94EB19F39A94
:1006A2000E94E219A130E1E0BE07E0E08E07E0E03F
:1006B2009E0708F0B3CF0E94F519A4E5BDE00E94A1
:1006C20085155E9822960895E0E8E0936100E0E0E7
:1006D200E09361000E94E600279A509A569A409A47
:1006E200419A429AEAE0E0938100EEE4E0938900C5
:1006F200EFE1E0938800E2E0E0936F00E3EAE4BD1B
:10070200E2E0E093B000E093B100EAE5E093B300E9
:10071200E2E0E09370007894A0E099D1A4EFB1E018
:100722000E94A71DE5E0FBE0FA93EA93E5E1F1E020
:10073200FA93EA9380E00E94B2182496E1E3E093F0
:10074200180BE0E0EA93A2E2BBE00E94E911E09319
:10075200210BE030E9F4A5E0BBE0C3DEF39913C05E
:10076200E091180BEF5FE093180BE091190BA09149
:10077200180BEA1718F4E1E3E093180BE091180B59
:10078200E0930A0B01C0F398ACE2B1E00E94A71D0E
:10079200D8CFFFCFFFCFAA930E94F61E30E01C8174
:1007A200AD81BE812D91AD83BE8308E0330FE32F6F
:1007B200E227E07811F0E9E03E27220F0150B1F77D
:1007C200115071F7E32FEE0FE1600E94FD1E42C54A
:1007D2000A93E2E3E093760FEFEFEEBDEDB5E7FFAC
:1007E200FDCFEFEFEEBDEDB5E7FFFDCF0EB50F3F4D
:1007F20021F0E091760FE03009F401C0F2CFE02F52
:10080200A8C4289AEFEFEEBDEDB5E7FFFDCF08953E
:10081200BA93AA930E94F71EE4E1E093750FEFEFFB
:10082200EEBDEDB5E7FFFDCF0EB50F3F21F4E09130
:10083200750FE03009F401C0F2CF0E3F21F0E0E085
:100842000E94FE1E07C51D812E81EFEFEEBDEDB5A4
:10085200E7FFFDCF2F931F931F5F2F4FEEB5AF9191
:10086200BF91EC93EFEFEEBDEDB5E7FFFDCF2F9318
:100872001F931F5F2F4FEEB5AF91BF91EC93EFEF38
:10088200EEBDEDB5E7FFFDCF2F931F931F5F2F4FF7
:10089200EEB5AF91BF91EC93EFEFEEBDEDB5E7FF93
:1008A200FDCF2F931F931F5F2F4FEEB5AF91BF91D7
:1008B200EC93EB81FC813497EB83FC8331F6EFEF11
:1008C200EEBDEDB5E7FFFDCFEFEFEEBDEDB5E7FF16
:1008D200FDCFE1E00E94FE1EBDC4AA930E94F61E57
:1008E20077DFEF3F21F0E0E00E94FD1EB3C4EC8110
:1008F200EEBDEDB5E7FFFDCFAC81AD3F69F110E094
:100902002D813E81D9012F5F3F4FEC91EEBDEDB5B8
:10091200E7FFFDCFD9012F5F3F4FEC91EEBDEDB563
:10092200E7FFFDCF115071F7EFEFEEBDEDB5E7FF39
:10093200FDCFEFEFEEBDEDB5E7FFFDCFEFEFEEBD83
:10094200EDB5E7FFFDCF0EB5E02FEF71E53021F0F9
:10095200E0E00E94FD1E7EC4E1E00E94FD1E7AC41A
:100962000E94CE1E1A930A93EE81E07881F0EE8106
:10097200EF77EE83E7E7EA93A0E0B0E080E090E073
:10098200EFDF1E2F123018F01981088163C4AE8187
:10099200AC3449F036DF28981BDFEF3F21F0EFEF50
:1009A2001981088157C4EE81EEBDEDB5E7FFFDCF99
:1009B200ED81EEBDEDB5E7FFFDCFEC81EEBDEDB50E
:1009C200E7FFFDCFEB81EEBDEDB5E7FFFDCFEA819D
:1009D200EEBDEDB5E7FFFDCF01E0AE81A03411F42D
:1009E20005E904C0AE81A83409F407E80EBDEDB5EF
:1009F200E7FFFDCFAE81AC3429F4EFEFEEBDEDB5EC
:100A0200E7FFFDCF0FEFEFEFEEBDEDB5E7FFFDCF57
:100A12001EB517FF02C0015009F401C0F4CFE12F47
:100A22001981088117C4BA93AA930A9304E0EFEFDD
:100A3200EEBDEDB5E7FFFDCFA981BA811196A9837D
:100A4200BA831197EEB5EC93015089F7E6C4AA93E5
:100A520024970E94F71EEF81E03021F0E1E00E942E
:100A6200FE1EACC124982598EAE0E093750FE09150
:100A7200750FE030E1F7E091740FE27029F0E09138
:100A8200740F0E94FE1E9AC1209A289AE5B1E97F4E
:100A9200E5B92B9A2398E4B1E760E4B9E3E5ECBD4C
:100AA200E0E0EDBD2FEF0AE0EFEFEEBDEDB5E7FFC1
:100AB200FDCF0150C9F7E0E4EA93A0E0B0E080E0A6
:100AC20090E04EDF1E2F2150113011F0203009F43A
:100AD20001C0E9CF20E0113009F068C0E4E6E093FC
:100AE200750FE8E4EA93AAEAB1E080E090E038DF2B
:100AF200E13091F5DE01139696DFAD81A13019F454
:100B0200AE81AA3A09F027C0E091750FE03049F0B2
:100B1200E9EEEA93A0E0B0E080E090E421DFE0308B
:100B220009F401C0F1CFE091750FE03049F0EAE736
:100B3200EA93A0E0B0E080E090E012DFE03009F05C
:100B42000AC0DE0113966FDFEB81E07411F0ECE076
:100B520001C0E4E02E2F2AC0E9EEEA93A0E0B0E063
:100B620080E090E0FDDEE23018F422E019EE02C0EF
:100B720021E011E4E091750FE03041F01A93A0E01A
:100B8200B0E080E090E0ECDEE03009F401C0F2CFAA
:100B9200E091750FE03049F0E0E5EA93A0E0B2E0C1
:100BA20080E090E0DDDEE03009F020E02093770F76
:100BB20028DE203051F0E091740FEE7FE093740F45
:100BC200E0E5ECBDE1E0EDBD11C0289801DE19DEE3
:100BD200E0E0ECBDE4B1E07FE4B9E5B1E07FE5B986
:100BE2002098E091740FE160E093740FE091740F2C
:100BF2000E94FE1EE3C0AA93E881E03011F0E1E01A
:100C020002C0E091740F21960895AA93EF81E0301B
:100C120019F4E881E03011F4E4E0D0C0E091740FFF
:100C2200E17011F0E3E0CAC0E091770FE87071F46F
:100C3200E981FA816B817C81A0E0B2E080E090E002
:100C42000E94221EE983FA836B837C83A881A130F0
:100C5200A9F4E1E5EA93AA81BB818C819D8180DEC2
:100C6200E03059F4ED81FE81FA93EA93A0E0B2E01C
:100C7200CFDDE03011F0E0E0E88323C0E2E5EA9363
:100C8200AA81BB818C819D816BDEE030D1F4ED8144
:100C9200FE81FA93EA93A0E0B2E0BADDE03051F0CF
:100CA200ED81FE81E050FE4FED83FE83E881E1504D
:100CB200E88369F7ECE4EA93A0E0B0E080E090E03A
:100CC2004FDE9FDDE881E03011F0E1E001C0E0E0BD
:100CD20075C0AA93EF81E03019F4E881E03011F495
:100CE200E4E06CC0E091740FE17011F0E3E066C0E3
:100CF200E091740FE47011F0E2E060C0E091770FD0
:100D0200E87071F4E981FA816B817C81A0E0B2E044
:100D120080E090E00E94221EE983FA836B837C8349
:100D2200A881A130A1F4E8E5EA93AA81BB818C8174
:100D32009D8116DEE03051F4ED81FE81FA93EA9353
:100D4200AEEFCBDDE03011F0E0E0E88330C0E091BF
:100D5200770FE67039F0E7EDEA93A981BB27882780
:100D62009927FEDDE9E5EA93AA81BB818C819D8109
:100D7200F7DDE030E1F4ED81FE81FA93EA93ACEF26
:100D8200ACDDE03051F0ED81FE81E050FE4FED83AD
:100D9200FE83E881E150E88371F7E0E0F0E0FA9346
:100DA200EA93ADEF9ADDE03011F4E1E0E88329DD6A
:100DB200E881E03011F0E1E001C0E0E0289608951A
:100DC200BA93AA9360970E94F61EEF89E03011F061
:100DD200E4E087C1E091740FE17011F0E3E081C1BA
:100DE20001E0EE89E03031F42898F2DCEF3F09F4BB
:100DF20000E075C1E13009F05FC0E9E4EA93A0E0E8
:100E0200B0E080E090E0ACDDE03049F4FE013496E1
:100E1200FA93EA93A0E1B0E0FBDCE03009F44BC0C6
:100E2200EC81E295EF70E695E695E13079F4E0E049
:100E3200FC85AD85B0E0EA0FFB1F31961E2F2F2FE8
:100E4200A12FB22F88279927EAE02EC0E985EF70FB
:100E5200AE2FEE85E078EE1FE0E0EE1FAE0FED85DF
:100E6200E370EE0FEA0FEE5F3E2FEC85E295EF7036
:100E7200E695E695AE2FEB85F0E00E94FB1DB0E013
:100E8200AE0FBF1FEA85E370F0E00E94FB1DFE2F4C
:100E9200E0E0EA0FFB1F31961E2F2F2FA12FB22F5A
:100EA20088279927E32FE9500E94DF1DAC89BD896D
:100EB2000E94A71E00E013C1E23041F4AC89BD8953
:100EC200E0E0F2E0ED93FC9300E009C1E33009F0C9
:100ED200ABC0E091770FE47081F1EDECEA93A0E012
:100EE200B0E080E090E03CDDE03031F5EFEFEEBDC8
:100EF200EDB5E7FFFDCFFE013496FA93EA93A0E148
:100F0200B0E086DCE030C1F030E3303039F0EFEFB2
:100F1200EEBDEDB5E7FFFDCF3150F7CFEE85E2959F
:100F2200EF70A0E1B0E080E090E00E94DF1DAC89AC
:100F3200BD890E94A71E00E076C0E9E4EA93A0E022
:100F4200B0E080E090E00CDDE03009F06CC0FE0122
:100F52003496FA93EA93A0E1B0E05ADCE03009F467
:100F620062C0E091770FE27051F1EE85EF73FF27D7
:100F7200662777270E94091E7F936F93FF93EF9353
:100F8200EF85E078FF2766277727DF01CB01E7E0CF
:100F92000E94EB1DAF91BF918F919F910E94B51D51
:100FA200EF5FFF4F6F4F7F4FDF01CB01E989E29582
:100FB200EF70E695E695E1500E94DF1D2FC0EE85A9
:100FC200EC77E695E695FF2766277727EF5FFF4FD9
:100FD2006F4F7F4F7F936F93FF93EF93EF85E37094
:100FE200FF2766277727DF01CB01E3E00E94DF1DA1
:100FF200DF01CB01EF85E07EE295EF70E695FF27FA
:10100200662777270E94B51DEF5FFF4F6F4F7F4F17
:10101200AF91BF918F919F910E94221EAC89BD8991
:101022000E94A71E00E05BC0EA3039F4E091770F1E
:10103200AC89BD89EC9300E052C0EB3011F439E485
:1010420003C0EC3001F53AE43A93A0E0B0E080E06E
:1010520090E086DCE030B1F4EC89FD89FA93EA9302
:10106200A0E1B0E0D5DBE03069F0EC89FD89FA93CC
:10107200EA93AFE090DBAE2FEC89FD89E785EA17B2
:1010820009F400E02CC0ED3071F4EAE7EA93A0E045
:10109200B0E080E090E064DCE03021F4AC89BD890E
:1010A200C2DC00E01CC0EE30C9F4EDECEA93A0E033
:1010B200B0E080E090E054DCE03079F4EFEFEEBD98
:1010C200EDB5E7FFFDCFEC89FD89FA93EA93A0E441
:1010D200B0E09EDBE03009F000E001C004E091DB0B
:1010E200E02F0E94FD1E689608950A930091750FE5
:1010F200003019F001500093750F0091760F003007
:1011020019F001500093760F0091780FE0E0E09320
:10111200780F1C9903C0E1E0E093780F1D9B05C096
:10112200E091780FE260E093780FE091780FE0179A
:1011320081F40091740FE17011F00D7F01C0036022
:10114200E091780FE27011F0046001C00B7F009310
:10115200740F099108952797A0910009B091010990
:10116200109731F0A0910209B0910309109729F468
:10117200E0E0F0E061E27AE36DC0FE013696FA93B8
:10118200EA93FE013796FA93EA93DE011896E0910C
:101192000009F09101090995FE013396FA93EA9349
:1011A200FE013496FA93EA93DE011496E091020965
:1011B200F09103090995E881F981EC5BF740662714
:1011C2007727DF01CB01E9E10E94DF1D7F936F9357
:1011D200FF93EF93EA810E94FB19E5E10E94DF1D74
:1011E200AF91BF918F919F910E94CE1DDF01CB01E4
:1011F200EB81F0E00E94181E0E94131E0E94CE1D79
:101202007F936F93FF93EF93EE810E94FB19EBE0C4
:101212000E94DF1DAF91BF918F919F910E94CE1DC1
:101222007F936F93FF93EF93ED810E94FB19E5E0AB
:101232000E94DF1DAF91BF918F919F910E94CE1DA1
:10124200DF01CB01EC81F0E0F595E7950E94181ED5
:101252000E94CE1D27960895AA930A93EA81FB81E4
:10126200E4910E2FE03019F0E981E01709F406C08D
:10127200EA81FB813196EA83FB83F0CFE02FF0E035
:101282000881249608950E94CE1E24970A93A98568
:10129200BA859E960E94011A0E94081A0E940D1A8F
:1012A2000E94EA1E09F450C0E985FA85E481E03023
:1012B20099F10E94121AE03011F0E1E01DC2A985F5
:1012C200BA851496E0E0EC93E985FA850E94241A27
:1012D2000D01A985BA855A960E949C1ED0010E94D2
:1012E200B51D0E940D1A0E94EF1EB0F4E985FA8521
:1012F2000381023088F0A985BA855A960E949C1E05
:101302000E940D1A0E94B51DE983FA836B837C83C8
:101312000E94121A0150EDCF0E94081A0E94E01E8C
:1013220099F0E985FA85A181AA93EA85FB85F2966F
:101332000E94291A11F0E1E0DFC10E94081AA98572
:10134200BA859E960E94A71EE0E0D6C1BA93AA93E0
:101352000A93E981FA810E94361A0E2F003009F0B1
:101362005BC0A981BA81AC91A33029F4E981FA81E9
:10137200E581E03009F444C0A981BA810E943E1A95
:10138200E981FA810E94461AE981FA81F296E250D5
:10139200FE4FA5E5BAEAA083B183E981FA81F2960C
:1013A200A2E5B2E581E691E40E944F1AEC51FE4FAC
:1013B200A2E7B2E781E491E60E944F1AE851FE4F9C
:1013C2000F01A981BA811E960E94551AF296E45124
:1013D200FE4F0F01A981BA811A960E94551AA18166
:1013E200AA93EA81FB81F296FA93EA93EC81FD815A
:1013F2000E945D1A6EDCA981BA811596E0E0EC9339
:10140200E981FA81A181AA93E0E0EA93A0E0B0E049
:10141200D7DCE03009F001E0E02F0881239608953F
:101422000E94CE1E24970E94F61E0E94651A0E94F8
:101432006A1A50F0AC85BD855E960E949C1E0E9481
:10144200651A0E94EF1E18F00E94721A60C0AC85E5
:10145200BD8592960E94771AAC85BD85EC91F0E02D
:10146200E130A0E0FA0739F528853985F901F695CA
:10147200E7952E0F3F1F0E947E1A09F046C00E9478
:10148200931A0C9111272F5F3F4F0E947E1AE9F5A4
:101492000E94931AEC91FE2FE0E00E2B1F2BE885A1
:1014A200E17021F0F8010E94001E02C0F801FF70F5
:1014B200662777272CC0E230A0E0FA0779F40E9471
:1014C2009B1A0E94A41A0E94AB1AF9F4A885B98546
:1014D200E2E00E94B51A0E94BE1A19C0E330A0E0F1
:1014E200FA0799F40E949B1A0E94C31A0E94AB1A2F
:1014F20061F4A885B985E4E00E94B51A0E949C1E99
:10150200EF7FFF7F6F7F7F7002C00E94CA1A0E9426
:10151200FD1E2E9608950E94CE1E24970E94F51E4F
:101522000E94CF1A0E946A1A30F0A989BA895E967F
:101532000E94D41A10F042E083C0A989BA89929617
:101542000E949C1E0E94DA1AA989BA89EC91F0E0E5
:10155200E130A0E0FA0709F043C00D851E85F801CD
:10156200F695E7950E0F1F1F0E94DF1A09F063C060
:101572000E94F51A51F0D901EC91EF70AE2FE98576
:10158200F0E00E94F71DEA2B01C0E985D901EC9336
:101592000F5F1F4FA989BA891496E1E0EC930E946C
:1015A200DF1A09F048C00E94F51A49F00E94001B98
:1015B200E4E00E94EB1DFF27662777270EC0D901C2
:1015C200EC91E07F1E2E0E94001BE8E00E94EB1DC2
:1015D200FF2766277727EF70E129D901EC932BC00B
:1015E200E230A0E0FA0789F40E94051B0E94A41AC7
:1015F2000E940E1B01F5AD85BE85E2E00E94191B1B
:10160200A985BA85A083B18316C0E330A0E0FA07AA
:1016120089F40E94051B0E94C31A0E940E1B59F4F2
:10162200AD85BE85E4E00E94191B0E94001B0E944A
:10163200C41E01C042E0A989BA891496E1E0EC9384
:10164200E42F0E94FC1E639608950E94CE1E2497EA
:101652000A930E94221B0E946A1A18F00E94271BFA
:1016620010F002E048C000E00E94271B08F043C0CF
:10167200E985FA85FA93EA93AF81B88589859A85D7
:10168200CFDEE983FA836B837C830E94301B0E9446
:10169200E01E89F10E940D1A0E94351B11F402E02E
:1016A2002AC00E940D1A0E943D1B11F401E023C0C2
:1016B200E985FA85FA93EA93EF81F88569857A8557
:1016C2000E94C91E0E94451B26DF0E2F003099F48E
:1016D200E985FA850E944A1B49F0A985BA850E94CC
:1016E2004F1BA985BA851596E1E0EC930E94301B49
:1016F2000E94DA1AB9CFE02F08812B9608950E9432
:10170200CE1E6097AC89BD895E960E949C1E0E9487
:10171200591B0E945C1B0E94E01EB1F4AC89BD897A
:101722001A960E94771A0E94611B0E94E41E39F0E9
:101732000E94661B0E94611B0E94EF1E20F00E9405
:10174200721A0E94691B1EC00E946E1BAA89BB8965
:101752008C899D890E94731B0E947A1B0E946A1ABF
:1017620018F40E94721A94C00E94661B0E947A1B8F
:101772000E94EF1E18F40E947F1B8AC00E945C1B0D
:101782000E94691B0E94841B0E94891B0E948E1B5F
:10179200EF5FFF4F6F4F7F4F0E94891B0E94661BB6
:1017A2000E94651A0E94EF1E60F0E2E0F0E060E045
:1017B20070E00E94891B0E94931B18F40E94981BE0
:1017C20067C00E946E1BAA85BB858C859D850E9481
:1017D200731B0E947F1B0E94E01EA1F00E947A1BD5
:1017E2000E943D1B29F00E947A1B0E94351B19F4AE
:1017F2000E947F1B4DC00E94931B19F40E94981BEC
:1018020047C0C4CF0E946E1BEA85FB856C857D852F
:101812000E94C91EAFEFBFEF8FEF9FE07CDEE0308A
:1018220019F00E94CA1A34C00E945C1B0E94E01E7A
:1018320091F00E946E1BEA89FB896C897D890E9466
:10184200C91EAE85BF858889998965DEE03019F0A9
:101852000E94CA1A1DC00E948E1BAC89BD891A96AD
:101862000E94A71EEC89FD890E944A1B79F0AC896F
:10187200BD891E960E94A21E3197604070400E9450
:10188200AC1EAC89BD891596E1E0EC930E948E1BDB
:10189200669608950E94CE1E0E94661BE250F0409A
:1018A200604070400E94591BEC81FD81A68DB78D6E
:1018B20080A191A1E2E0F0E060E070E00E949D1B57
:1018C2000E94BA1E0E94EF1E18F00E94981B70C35D
:1018D200EC81FD81E281F0E00E94BA1E0E94181E96
:1018E2000E94221E7F936F93FF93EF93AC81BD8181
:1018F2009A960E949C1EAF91BF918F919F910E94D8
:10190200B51D56C3BA93AA9324971A930A93EE81EC
:10191200FF810E94A21B16960E94AA1B0E94B11B65
:101922000E94351B29F00E94B61B0E94BB1B20F0AF
:10193200E2E01981088163C10E94C31B29F40E945D
:10194200B61BA081A33009F006C00E94B61BB69652
:10195200DF010E94AA1B0E94C31BB1F40E94CA1B92
:101962003896DF010E94981EAE81BF81AE17BF0775
:1019720020F0E2E01981088142C10E94B61BB696AE
:10198200DF010E949C1E3BC00E94B61BE281A0E1C7
:10199200EA9F8001AE81BF81A017B10748F10E9482
:1019A200B61BFA93EA930E94611B3ADDEA83FB833A
:1019B2006C837D830E94B11B0E943D1B21F4E1E0F8
:1019C200198108811CC10E94B11B0E946A1A28F069
:1019D2000E94B61B0E94BB1B20F0E2E01981088125
:1019E2000EC1EE81FF81E01BF10BEE83FF83D2CFAC
:1019F2000E94CA1BFA93EA930E94611B4BDFDF012C
:101A0200CB01EE81FF810E94001E0E94D41B0E9426
:101A1200D91B0E94B61BF296DF01EE81FF810E9464
:101A2200DF1B19810881EBC0AA9324970E94F71E3D
:101A3200A885B98514960E94981E31968F01002EB2
:101A4200012A41F0A885B9851E960E949C1E0E941B
:101A5200E01E11F4E4E0D1C0F801EF7009F0C3C058
:101A6200A885B9850E944F1BA885B9851A960E9440
:101A72009C1E0E94E01E61F40E94B61B3896DF0194
:101A82000E94981E0E171F0710F0E4E0B6C0ABC00C
:101A9200F8010E94001E0F010E94B61BE281F0E0D5
:101AA2003197E021F121309709F09DC00E94B61BC9
:101AB2000E94ED1BB5DC0E94F61B0E94FB1B0E94DC
:101AC2006A1A10F4E2E099C00E94FB1B0E943D1BBF
:101AD20011F4E1E092C00E94B61B7E96DF010E94E3
:101AE2009C1E0E94FB1B0E94EF1E08F46DC0EF813A
:101AF200E03011F4E4E081C00E94B61B0E94ED1BAD
:101B0200FEDD0E94001C0E94E01E11F4E7E075C099
:101B12000E94FB1B0E94351B11F4E2E06EC00E9482
:101B2200FB1B0E943D1B11F4E1E067C00E94B61B43
:101B32000E94361AE03011F0E1E05FC00E94B61B4D
:101B42000E94461A0E94B61BDF01BE96FF93EF93D6
:101B5200FD010E94061CAF91BF910E94A71E20E0CA
