:0A0000000C94A8000C9400000C946E
:10000A0000000C9400000C9400000C9400000C9466
:10001A0000000C9400000C9400000C9400000C9456
:10002A0000000C9400000C9400000C9490010C94B5
:10003A0000000C9400000C9400000C9473010C94C2
:10004A0000000C9400000C9400000C9400000C9426
:10005A0000000C9400000C9400000C9400000C9416
:10006A0000000C9400000C9400000C9400000C9406
:10007A0000000C9400000C9400000C9400000C94F6
:10008A0000000C9400000C9400000C940000202244
:10009A002A2B2C5B3D5D7C7F0000000400020001DE
:1000AA008000400020001000080004000200000048
:1000BA0000800040002000100008004000200010CE
:1000CA000008000400021027E80364000A00010087
:1000DA00001000011000010003030302020C0008D3
:1000EA00000100062E004900500052004400303A38
:1000FA0053253032752E5741560025732D2573002E
:10010A0001000400EBFE904D53444F53352E30004E
:10011A004E4F204E414D4520202020464154333237
:10012A00202020004E4F204E414D452020202046C1
:10013A0041542020202020000100B40F0A010100B0
:10014A00B80F0C010000F894EE27EFBBF1E0F5BF01
:10015A00E5BF8DE0A2E0BB27ED938A95E9F780E041
:10016A0090E2A0E0B1E0ED930197E9F7E2E4F1E073
:10017A0085919591009761F0A591B591059015909B
:10018A00BF01F00105900D920197E1F7FB01F0CF55
:10019A008BBFE0E0EEBBEFEFEDBFE0E2EEBFC0E009
:1001AA00D9E00C94C1022C978CE0A0E0B0E0E2EE1A
:1001BA00F0E00E94861C0A93849A859A809A819A12
:1001CA00829A839AA2E3B0E00E94351B00E00C30C9
:1001DA0068F40E945317E02FF0E0DE011196AE0F8B
:1001EA00BF1FAC910E9457170F5FF1CFECE0E0936D
:1001FA000409A091040921D008812D9608958C9AAA
:10020A008C980895AA93E881E87011F08B9A01C03E
:10021A008B98E881E47011F08A9A01C08A98E88183
:10022A00E27011F0899A01C08998E881E17011F0B1
:10023A00889A01C088980C948F05AA930A938D987E
:10024A000E9453170E945B170E946217D8DF088129
:10025A0091C1AA930A938D9A0E9453170E945B1721
:10026A000E946217CCDF088185C1BA93AA930A93C8
:10027A0000E0E02F0F5FA981BA81F0E0AE0FBF1F47
:10028A00AC91E7DFA981BA81EE27A00FBE1FEC91DE
:10029A00E03079F7088123960895A1E0CEDF08952A
:1002AA00AA93E881F0E0309719F4A981A05814C004
:1002BA00E130A0E0FA0719F4A981A0540DC0E23098
:1002CA00A0E0FA0719F4A981AC5606C0E330A0E011
:1002DA00FA0719F4A981AC52B0DF4CC10A921A92FA
:1002EA00FA926A937A938A939A93AA93BA93EA931D
:1002FA00FA93EFB7EA930E940108E991EFBFF991E7
:10030A00E991B991A9919991899179916991F99014
:10031A00199009901895AA93BA93EA93FA93EFB7AA
:10032A00EA93F29B19C00E94691728F40E94711778
:10033A000E94761707C00E948717E7BD0E94871799
:10034A000E948E170E94691709F4F19A0E94971762
:10035A0011F40E949F171BC00E94691730F40E9473
:10036A00A61731970E94761709C00E948717E7BD22
:10037A000E94A6170E9487170E948E170E9469176B
:10038A0009F4F19A0E94971711F40E949F17E991B4
:10039A00EFBFF991E991B991A99118950E94AE1709
:1003AA00A3E10E94BE11E03049F50E94B917EDE2BF
:1003BA00F0E00E94C2170E94C817E0911E09F0E0FF
:1003CA00ED37A0E0FA0721F4EEE3E093B30004C0AE
:1003DA00ED35A0E0FA0721F4E2E5E093B30004C0AA
:1003EA00E535A0E0FA0719F4EAE5E093B300A09135
:1003FA001B09A13011F4F29A01C0F298BBC00E9405
:10040A00AE17A1E00E94BE11E03009F0B3C05E9AB7
:10041A000E94B917ECE2F0E00E94C217E09130099D
:10042A00F0E00E94A11BA0E0B0E080E091E00E9411
:10043A00CC1B7F936F93FF93EF93E0912F09F0E02A
:10044A000E94A11BA0E0B0E081E090E00E94CC1BDA
:10045A00AF91BF918F919F910E94431B7F936F939E
:10046A00FF93EF93E0912E09F0E00E94A11BA0E018
:10047A00B1E080E090E00E94CC1BAF91BF918F91D8
:10048A009F910E94481BE0912D09F0E00E94A11B58
:10049A000E94431B0E94CC17E091270BF091280B76
:1004AA006091290B70912A0BE0932B0BF0932C0B84
:1004BA0060932D0B70932E0B0E94B9170E94D517CB
:1004CA000E94D8170E94F1170E94D817F198F09845
:1004DA00E3E8E4BDE1E0E5BD0E94FA17F09902C045
:1004EA00F19B01C001C0FACFF19B06C00E94B91767
:1004FA000E94D517F19803C00E94F117F098E09175
:10050A002F0BF091300B0E940018662777270E9464
:10051A00521BA093270BB093280B8093290B90931F
:10052A002A0B329909C0E0E0E093270BE093280BED
:10053A00E093290BE0932A0B31990AC0E0912B0B27
:10054A00F0912C0B60912D0B70912E0B0E94CC1701
:10055A000E940018A130E1E0BE07E0E08E07E0E06B
:10056A009E0708F0BBCFE0E0E4BDE5BD2F980E94EE
:10057A00C8175E9822960895E0E8E0936100E0E0EB
:10058A00E0936100509A569A409A419A429A439A45
:10059A00279AEAE0E0938100EEE4E0938900E0E242
:1005AA00E0938800E2E0E0936F00E3EAE4BDE0E074
:1005BA00E093B600E2E0E093B000E093B100EAE530
:1005CA00E093B300E2E0E09370000E94D8007894D0
:1005DA00A0E0C4D1A4EFB1E00E94351BE0E0EA93A9
:1005EA00A1E3BBE00E948E11E03009F059C00E94DD
:1005FA00FA17A091250BB091260B179710F00E94BD
:10060A00FA17E5E0FBE0FA93EA93E8EFF0E0FA93F1
:10061A00EA930E9471170E94091884E00E94C51685
:10062A002896E3E6FDE0FA93EA93E5E0FBE0FA9325
:10063A00EA93A0E00E94BE11E03011F00E94A617D2
:10064A000E94C8170E940E18A5E0BBE00EDEE5E185
:10065A00FBE0FA93EA93E4E0F1E0FA93EA93E3E841
:10066A00FFE00E940918E3EAFFE00E94091888E007
:10067A000E94C5162C960E940E18A5E1BBE0F5DD76
:10068A00E0E0EA93A1E00CDEA3E9BFE0EEDDA5E03D
:10069A00BBE084DEA5E0BBE0B2DE0E94A617A9CFCC
:1006AA00FFCFFFCFAA930E947A1C30E01C81AD8154
:1006BA00BE812D91AD83BE8308E0330FE32FE2277D
:1006CA00E07811F0E9E03E27220F0150B1F711500E
:1006DA0071F7E32FEE0FE1600E94811C42C50A9375
:1006EA00E2E3E093B60FEFEFEEBDEDB5E7FFFDCF26
:1006FA00EFEFEEBDEDB5E7FFFDCF0EB50F3F21F0F1
:10070A00E091B60FE03009F401C0F2CFE02FA8C49F
:10071A00289AEFEFEEBDEDB5E7FFFDCF0895BA9346
:10072A00AA930E947B1CE4E1E093B50FEFEFEEBDC4
:10073A00EDB5E7FFFDCF0EB50F3F21F4E091B50F00
:10074A00E03009F401C0F2CF0E3F21F0E0E00E9450
:10075A00821C07C51D812E81EFEFEEBDEDB5E7FFC7
:10076A00FDCF2F931F931F5F2F4FEEB5AF91BF9110
:10077A00EC93EFEFEEBDEDB5E7FFFDCF2F931F939F
:10078A001F5F2F4FEEB5AF91BF91EC93EFEFEEBD28
:10079A00EDB5E7FFFDCF2F931F931F5F2F4FEEB5E8
:1007AA00AF91BF91EC93EFEFEEBDEDB5E7FFFDCF53
:1007BA002F931F931F5F2F4FEEB5AF91BF91EC930D
:1007CA00EB81FC813497EB83FC8331F6EFEFEEBDCE
:1007DA00EDB5E7FFFDCFEFEFEEBDEDB5E7FFFDCFDE
:1007EA00E1E00E94821CBDC4AA930E947A1C77DFB2
:1007FA00EF3F21F0E0E00E94811CB3C4EC81EEBD22
:10080A00EDB5E7FFFDCFAC81AD3F69F110E02D8179
:10081A003E81D9012F5F3F4FEC91EEBDEDB5E7FF69
:10082A00FDCFD9012F5F3F4FEC91EEBDEDB5E7FF4C
:10083A00FDCF115071F7EFEFEEBDEDB5E7FFFDCF3C
:10084A00EFEFEEBDEDB5E7FFFDCFEFEFEEBDEDB596
:10085A00E7FFFDCF0EB5E02FEF71E53021F0E0E0C4
:10086A000E94811C7EC4E1E00E94811C7AC40E941D
:10087A00521C1A930A93EE81E07881F0EE81EF77A9
:10088A00EE83E7E7EA93A0E0B0E080E090E0EFDFF4
:10089A001E2F123018F01981088163C4AE81AC345E
:1008AA0049F036DF28981BDFEF3F21F0EFEF19817F
:1008BA00088157C4EE81EEBDEDB5E7FFFDCFED81AE
:1008CA00EEBDEDB5E7FFFDCFEC81EEBDEDB5E7FF7F
:1008DA00FDCFEB81EEBDEDB5E7FFFDCFEA81EEBDC1
:1008EA00EDB5E7FFFDCF01E0AE81A03411F405E9D3
:1008FA0004C0AE81A83409F407E80EBDEDB5E7FFE0
:10090A00FDCFAE81AC3429F4EFEFEEBDEDB5E7FFD4
:10091A00FDCF0FEFEFEFEEBDEDB5E7FFFDCF1EB553
:10092A0017FF02C0015009F401C0F4CFE12F198169
:10093A00088117C4BA93AA930A9304E0EFEFEEBDB5
:10094A00EDB5E7FFFDCFA981BA811196A983BA83D4
:10095A001197EEB5EC93015089F7EAC4AA9324974C
:10096A000E947B1CEF81E03021F0E1E00E94821CB2
:10097A00ACC124982598EAE0E093B50FE091B50F51
:10098A00E030E1F7E091B40FE27029F0E091B40FA2
:10099A000E94821C9AC1209A289AE5B1E97FE5B99A
:1009AA002B9A2398E4B1E760E4B9E2E5ECBDE0E014
:1009BA00EDBD2FEF0AE0EFEFEEBDEDB5E7FFFDCF9E
:1009CA000150C9F7E0E4EA93A0E0B0E080E090E0EB
:1009DA004EDF1E2F2150113011F0203009F401C0D2
:1009EA00E9CF20E0113009F068C0E4E6E093B50FE2
:1009FA00E8E4EA93AAEAB1E080E090E038DFE13087
:100A0A0091F5DE01139696DFAD81A13019F4AE811E
:100A1A00AA3A09F027C0E091B50FE03049F0E9EEB3
:100A2A00EA93A0E0B0E080E090E421DFE03009F44E
:100A3A0001C0F1CFE091B50FE03049F0EAE7EA935F
:100A4A00A0E0B0E080E090E012DFE03009F00AC0F8
:100A5A00DE0113966FDFEB81E07411F0ECE001C068
:100A6A00E4E02E2F2AC0E9EEEA93A0E0B0E080E0AD
:100A7A0090E0FDDEE23018F422E019EE02C021E037
:100A8A0011E4E091B50FE03041F01A93A0E0B0E034
:100A9A0080E090E0ECDEE03009F401C0F2CFE091B2
:100AAA00B50FE03049F0E0E5EA93A0E0B2E080E07B
:100ABA0090E0DDDEE03009F020E02093B70F28DE79
:100ACA00203051F0E091B40FEE7FE093B40FE0E5EF
:100ADA00ECBDE1E0EDBD11C0289801DE19DEE0E0D1
:100AEA00ECBDE4B1E07FE4B9E5B1E07FE5B9209877
:100AFA00E091B40FE160E093B40FE091B40F0E946B
:100B0A00821CE3C0AA93E881E03011F0E1E002C060
:100B1A00E091B40F21960895AA93EF81E03019F479
:100B2A00E881E03011F4E4E0D0C0E091B40FE17064
:100B3A0011F0E3E0CAC0E091B70FE87071F4E981FF
:100B4A00FA816B817C81A0E0B2E080E090E00E94B3
:100B5A00A61BE983FA836B837C83A881A130A9F45D
:100B6A00E1E5EA93AA81BB818C819D8180DEE03038
:100B7A0059F4ED81FE81FA93EA93A0E0B2E0CFDD69
:100B8A00E03011F0E0E0E88323C0E2E5EA93AA81CD
:100B9A00BB818C819D816BDEE030D1F4ED81FE81D9
:100BAA00FA93EA93A0E0B2E0BADDE03051F0ED81C9
:100BBA00FE81E050FE4FED83FE83E881E150E88339
:100BCA0069F7ECE4EA93A0E0B0E080E090E04FDE61
:100BDA009FDDE881E03011F0E1E001C0E0E075C09E
:100BEA00AA93EF81E03019F4E881E03011F4E4E0EF
:100BFA006CC0E091B40FE17011F0E3E066C0E091DF
:100C0A00B40FE47011F0E2E060C0E091B70FE87051
:100C1A0071F4E981FA816B817C81A0E0B2E080E025
:100C2A0090E00E94A61BE983FA836B837C83A881E8
:100C3A00A130A1F4E8E5EA93AA81BB818C819D8168
:100C4A0016DEE03051F4ED81FE81FA93EA93AEEFBD
:100C5A00CBDDE03011F0E0E0E88330C0E091B70F7F
:100C6A00E67039F0E7EDEA93A981BB27882799272F
:100C7A00FEDDE9E5EA93AA81BB818C819D81F7DDDE
:100C8A00E030E1F4ED81FE81FA93EA93ACEFACDD5A
:100C9A00E03051F0ED81FE81E050FE4FED83FE839E
:100CAA00E881E150E88371F7E0E0F0E0FA93EA9333
:100CBA00ADEF9ADDE03011F4E1E0E88329DDE88167
:100CCA00E03011F0E1E001C0E0E028960895BA931F
:100CDA00AA9360970E947A1CEF89E03011F0E4E051
:100CEA0087C1E091B40FE17011F0E3E081C101E046
:100CFA00EE89E03031F42898F2DCEF3F09F400E0A5
:100D0A0075C1E13009F05FC0E9E4EA93A0E0B0E020
:100D1A0080E090E0ACDDE03049F4FE013496FA93CD
:100D2A00EA93A0E1B0E0FBDCE03009F44BC0EC81CF
:100D3A00E295EF70E695E695E13079F4E0E0FC851E
:100D4A00AD85B0E0EA0FFB1F31961E2F2F2FA12F82
:100D5A00B22F88279927EAE02EC0E985EF70AE2FD7
:100D6A00EE85E078EE1FE0E0EE1FAE0FED85E37052
:100D7A00EE0FEA0FEE5F3E2FEC85E295EF70E695F7
:100D8A00E695AE2FEB85F0E00E94841BB0E0AE0F33
:100D9A00BF1FEA85E370F0E00E94841BFE2FE0E0AB
:100DAA00EA0FFB1F31961E2F2F2FA12FB22F882754
:100DBA009927E32FE9500E94681BAC89BD890E94DC
:100DCA002B1C00E013C1E23041F4AC89BD89E0E09C
:100DDA00F2E0ED93FC9300E009C1E33009F0ABC007
:100DEA00E091B70FE47081F1EDECEA93A0E0B0E096
:100DFA0080E090E03CDDE03031F5EFEFEEBDEDB59F
:100E0A00E7FFFDCFFE013496FA93EA93A0E1B0E042
:100E1A0086DCE030C1F030E3303039F0EFEFEEBD80
:100E2A00EDB5E7FFFDCF3150F7CFEE85E295EF70D4
:100E3A00A0E1B0E080E090E00E94681BAC89BD8927
:100E4A000E942B1C00E076C0E9E4EA93A0E0B0E03F
:100E5A0080E090E00CDDE03009F06CC0FE013496D1
:100E6A00FA93EA93A0E1B0E05ADCE03009F462C0F8
:100E7A00E091B70FE27051F1EE85EF73FF27662715
:100E8A0077270E94921B7F936F93FF93EF93EF85CF
:100E9A00E078FF2766277727DF01CB01E7E00E948A
:100EAA00741BAF91BF918F919F910E94431BEF5F7B
:100EBA00FF4F6F4F7F4FDF01CB01E989E295EF705A
:100ECA00E695E695E1500E94681B2FC0EE85EC7707
:100EDA00E695E695FF2766277727EF5FFF4F6F4F67
:100EEA007F4F7F936F93FF93EF93EF85E370FF2715
:100EFA0066277727DF01CB01E3E00E94681BDF0149
:100F0A00CB01EF85E07EE295EF70E695FF27662735
:100F1A0077270E94431BEF5FFF4F6F4F7F4FAF91C1
:100F2A00BF918F919F910E94A61BAC89BD890E9497
:100F3A002B1C00E05BC0EA3039F4E091B70FAC89B2
:100F4A00BD89EC9300E052C0EB3011F439E403C0E0
:100F5A00EC3001F53AE43A93A0E0B0E080E090E0AA
:100F6A0086DCE030B1F4EC89FD89FA93EA93A0E1DA
:100F7A00B0E0D5DBE03069F0EC89FD89FA93EA93B9
:100F8A00AFE090DBAE2FEC89FD89E785EA1709F41B
:100F9A0000E02CC0ED3071F4EAE7EA93A0E0B0E09B
:100FAA0080E090E064DCE03021F4AC89BD89C2DCE9
:100FBA0000E01CC0EE30C9F4EDECEA93A0E0B0E02A
:100FCA0080E090E054DCE03079F4EFEFEEBDEDB56F
:100FDA00E7FFFDCFEC89FD89FA93EA93A0E4B0E03C
:100FEA009EDBE03009F000E001C004E091DBE02F75
:100FFA000E94811C689608950A930091B50F0030EB
:10100A0019F001500093B50F0091B60F003019F096
:10101A0001500093B60F0091B80FE0E0E093B80FCB
:10102A001C9903C0E1E0E093B80F1D9B05C0E09155
:10103A00B80FE260E093B80FE091B80FE01781F4BF
:10104A000091B40FE17011F00D7F01C00360E091CF
:10105A00B80FE27011F0046001C00B7F0093B40F67
:10106A00099108952797A0910009B0910109109755
:10107A0031F0A0910209B0910309109729F4E0E038
:10108A00F0E061E27AE36DC0FE013696FA93EA93E4
:10109A00FE013796FA93EA93DE011896E091000969
:1010AA00F09101090995FE013396FA93EA93FE013C
:1010BA003496FA93EA93DE011496E0910209F091CC
:1010CA0003090995E881F981EC5BF74066277727E0
:1010DA00DF01CB01E9E10E94681B7F936F93FF93C5
:1010EA00EF93EA810E941518E5E10E94681BAF910F
:1010FA00BF918F919F910E94571BDF01CB01EB811A
:10110A00F0E00E94A11B0E949C1B0E94571B7F9328
:10111A006F93FF93EF93EE810E941518EBE00E9404
:10112A00681BAF91BF918F919F910E94571B7F932C
:10113A006F93FF93EF93ED810E941518E5E00E94EB
:10114A00681BAF91BF918F919F910E94571BDF013E
:10115A00CB01EC81F0E0F595E7950E94A11B0E9476
:10116A00571B27960895AA930A93EA81FB81E49173
:10117A000E2FE03019F0E981E01709F406C0EA8180
:10118A00FB813196EA83FB83F0CFE02FF0E0088100
:10119A00249608950E94521C24970A93A985BA8519
:1011AA009E960E94201C0E941B180E9420180E94D2
:1011BA0025180E946E1C09F452C0E985FA85E4815B
:1011CA00E03089F10E942A18E03011F0E1E02BC2E8
:1011DA00A985BA851496E0E0EC93E985FA850E9420
:1011EA003C180D01A985BA855A960E94201CD00187
:1011FA000E94431B0E9425180E94731CA0F4E985D3
:10120A00FA850381023078F0A985BA855A960E9438
:10121A00201C0E9425180E94431B0E941B180E9432
:10122A002A180150EFCF0E9420180E94641CB9F0BE
:10123A00E985FA85A181AA93EA85FB85F296FA9354
:10124A00EA930E9441180E94461811F0E1E0EBC1AE
:10125A000E942018A985BA859E960E942B1CE0E060
:10126A00E2C1BA93AA930A93E981FA810E944D18BE
:10127A000E2F003009F05BC0A981BA81AC91A3306E
:10128A0029F4E981FA81E581E03009F444C0A981B1
:10129A00BA810E945518E981FA810E945D18E98194
:1012AA00FA81F296E250FE4FA5E5BAEAA083B1832D
:1012BA00E981FA81F296A2E5B2E581E691E40E941B
:1012CA006618EC51FE4FA2E7B2E781E491E60E946C
:1012DA006618E851FE4F0F01A981BA811E960E9435
:1012EA006C18F296E451FE4F0F01A981BA811A9641
:1012FA000E946C18A181AA93EA81FB81F296FA9363
:10130A00EA93EC81FD810E9474186ADCA981BA8192
:10131A001596E0E0EC93E981FA81A181AA93E0E0D5
:10132A00EA93A0E0B0E0D3DCE03009F001E0E02F7E
:10133A000881239608950E94521C24970E947A1CC1
:10134A000E947C180E94811850F0AC85BD855E967B
:10135A000E94201C0E947C180E94731C18F00E9494
:10136A00891860C0AC85BD8592960E948E18AC859E
:10137A00BD85EC91F0E0E130A0E0FA0739F5288567
:10138A003985F901F695E7952E0F3F1F0E949518AA
:10139A0009F046C00E94AA180C9111272F5F3F4FEF
:1013AA000E949518E9F50E94AA18EC91FE2FE0E038
:1013BA000E2B1F2BE885E17021F0F8010E94891B92
:1013CA0002C0F801FF70662777272CC0E230A0E040
:1013DA00FA0779F40E94B2180E94BB180E94C21838
:1013EA00F9F4A885B985E2E00E94CC180E94D518C4
:1013FA0019C0E330A0E0FA0799F40E94B2180E94DB
:10140A00DA180E94C21861F4A885B985E4E00E943E
:10141A00CC180E94201CEF7FFF7F6F7F7F7002C075
:10142A000E94E1180E94811C2E9608950E94521C67
:10143A0024970E94791C0E94E6180E94811850F095
:10144A00A989BA895E960E94201C0E94E6180E9409
:10145A00731C10F042E085C0A989BA8992960E944D
:10146A00201CED83FE836F837887A989BA89EC9162
:10147A00F0E0E130A0E0FA0709F043C00D851E85CF
:10148A00F801F695E7950E0F1F1F0E94EB1809F059
:10149A0063C00E94011951F0D901EC91EF70AE2F8F
:1014AA00E985F0E00E94801BEA2B01C0E985D90199
:1014BA00EC930F5F1F4FA989BA891496E1E0EC9368
:1014CA000E94EB1809F048C00E94011949F00E94D5
:1014DA000C19E4E00E94741BFF27662777270EC0C9
:1014EA00D901EC91E07F1E2E0E940C19E8E00E94BF
:1014FA00741BFF2766277727EF70E129D901EC9340
:10150A002BC0E230A0E0FA0789F40E9411190E9468
:10151A00BB180E941A1901F5AD85BE85E2E00E944A
:10152A002519A985BA85A083B18316C0E330A0E046
:10153A00FA0789F40E9411190E94DA180E941A19EE
:10154A0059F4AD85BE85E4E00E9425190E940C1964
:10155A000E94481C01C042E0A989BA891496E1E0B8
:10156A00EC93E42F0E94801C639608950E94521CFB
:10157A0024970A930E942E190E94811818F00E943B
:10158A00331910F002E04EC000E00E94331908F04F
:10159A0049C0E985FA85FA93EA93AF81B8858985C6
:1015AA009A85C9DE0E941B18E981FA816B817C81C8
:1015BA000E94641CB9F10E9425180E943C1911F47A
:1015CA0002E030C00E9425180E94441911F401E07B
:1015DA0029C0E985FA85FA93EA93EF81F885698546
:1015EA007A850E944D1CA0E0B0E080E090E01EDF0A
:1015FA000E2F0030B9F4E985FA850E944C1949F09A
:10160A00A985BA850E945119A985BA851596E1E07E
:10161A00EC93E981FA816B817C81ED83FE836F8390
:10162A007887B3CFE02F08812B9608950E94521C29
:10163A006097AC89BD895E960E94201C0E945B1946
:10164A000E945E190E94641CB1F4AC89BD891A9685
:10165A000E948E180E9463190E94681C39F00E9429
:10166A0068190E9463190E94731C20F00E9489184D
:10167A000E946B191EC00E947019AA89BB898C89A5
:10168A009D890E9475190E947C190E94811818F47C
:10169A000E94891894C00E9468190E947C190E94AD
:1016AA00731C18F40E9481198AC00E945E190E9454
:1016BA006B190E9486190E948B190E944118EF5FCC
:1016CA00FF4F6F4F7F4F0E948B190E9468190E942B
:1016DA007C180E94731C60F0E2E0F0E060E070E0C9
:1016EA000E948B190E94901918F40E94951967C0DC
:1016FA000E947019AA85BB858C859D850E947519E3
:10170A000E9481190E94641CA1F00E947C190E9407
:10171A00441929F00E947C190E943C1919F40E946C
:10172A0081194DC00E94901919F40E94951947C059
:10173A00C4CF0E947019EA85FB856C857D850E945D
:10174A004D1CAFEFBFEF8FEF9FE070DEE03019F076
:10175A000E94E11834C00E945E190E94641C91F034
:10176A000E947019EA89FB896C897D890E944D1C47
:10177A00AE85BF858889998959DEE03019F00E94C3
:10178A00E1181DC00E944118AC89BD891A960E94B1
:10179A002B1CEC89FD890E944C1979F0AC89BD8912
:1017AA001E960E94261C3197604070400E94301C91
:1017BA00AC89BD891596E1E0EC930E9441186696C2
:1017CA0008950E94521C0E946819E250F04060403D
:1017DA0070400E945B19EC81FD81A68DB78D80A1B6
:1017EA0091A1E2E0F0E060E070E00E949A190E94A4
:1017FA003E1C0E94731C18F00E94951970C3EC815C
:10180A00FD81E281F0E00E943E1C0E94A11B0E9421
:10181A00A61B7F936F93FF93EF93AC81BD819A963A
:10182A000E94201CAF91BF918F919F910E94431BF0
:10183A0056C3BA93AA9324971A930A93EE81FF8107
:10184A000E949F1916960E94A7190E94AE190E941B
:10185A003C1929F00E94B3190E94B81920F0E2E05D
:10186A001981088163C10E94C01929F40E94B31921
:10187A00A081A33009F006C00E94B319B696DF0111
:10188A000E94A7190E94C019B1F40E94C71938967C
:10189A00DF010E941C1CAE81BF81AE17BF0720F07A
:1018AA00E2E01981088142C10E94B319B696DF01AC
:1018BA000E94201C3BC00E94B319E281A0E1EA9F6A
:1018CA008001AE81BF81A017B10748F10E94B31908
:1018DA00FA93EA930E9463192EDDEA83FB836C83F1
:1018EA007D830E94AE190E94441921F4E1E0198116
:1018FA0008811CC10E94AE190E94811828F00E941A
:10190A00B3190E94B81920F0E2E0198108810EC1CA
:10191A00EE81FF81E01BF10BEE83FF83D2CF0E94A1
:10192A00C719FA93EA930E9463194BDFDF01CB01CF
:10193A00EE81FF810E94891B0E94D1190E94D6194B
:10194A000E94B319F296DF01EE81FF810E94DC1931
:10195A0019810881EBC0AA9324970E947B1CA88551
:10196A00B98514960E941C1C31968F01002E012AFB
:10197A0041F0A885B9851E960E94201C0E94641C0D
:10198A0011F4E4E0D1C0F801EF7009F0C3C0A885F2
:10199A00B9850E945119A885B9851A960E94201CFA
:1019AA000E94641C61F40E94B3193896DF010E94F8
:1019BA001C1C0E171F0710F0E4E0B6C0ABC0F801FC
:1019CA000E94891B0F010E94B319E281F0E031974E
:1019DA00E021F121309709F09DC00E94B3190E94BD
:1019EA00EA19A9DC0E94F3190E94F8190E948118C9
:1019FA0010F4E2E099C00E94F8190E94441911F407
:101A0A00E1E092C00E94B3197E96DF010E94201C79
:101A1A000E94F8190E94731C08F46DC0EF81E0302F
:101A2A0011F4E4E081C00E94B3190E94EA19FEDDB4
:101A3A000E94FD190E94641C11F4E7E075C00E941F
:101A4A00F8190E943C1911F4E2E06EC00E94F819DC
:101A5A000E94441911F4E1E067C00E94B3190E9480
:101A6A004D18E03011F0E1E05FC00E94B3190E9406
:101A7A005D180E94B319DF01BE96FF93EF93FD0133
:101A8A000E94031AAF91BF910E942B1C20E00E9472
:101A9A00B319E2812E17D8F40E94B3193496A1E043
:101AAA00A0830E94B3190E944D18E03011F0E1E0C2
:101ABA003BC00E94B319BE96DF010E94261CEF5F4D
:101ACA00FF4F6F4F7F4F0E94301C2F5FE0CF0E9465
:101ADA00B319BE96FF93EF93DF010E94201CDF012A
:101AEA00CB01E22FF0E00E94A11B0E949A19AF914C
:101AFA00BF910E942B1CEB81FC816D817E81A885A0
:101B0A00B9851A960E942B1C0E94B3190E94031AC7
:101B1A000E94D619F8010E949F190E941C1CF29675
:101B2A00DF01F8010E94DC190E94821C2A9608959E
:101B3A000E94081A21F0E02F0E94811CD0C10E9445
:101B4A00171A01F5AC81BD8152962D913C91D901AC
:101B5A001C91103011F404E015C0F901E385E87016
:101B6A0031F40E94281A0E94FF16E03009F001C0E1
:101B7A0009C0EC81FD81FA93EA93A0E0ECDE0E2F16
:101B8A000030E9F2E02F0E94811CA9C10E94081AC4
:101B9A00B1F40E94171A99F4EC81FD81A289B389E4
:101BAA001C91153E11F0103009F409C0EC81FD8139
:101BBA00FA93EA93A1E0CFDE0E2F003051F3003002
:101BCA0029F50E94171A11F5AC81BD8152962D9103
:101BDA003C913A932A93E0E0EA93A0E2B0E00E94B3
:101BEA002A170E94281A0E941817AC81BD815496A0
:101BFA000E941C1CE385E871D9011C96EC93AC8108
:101C0A00BD810E941C1C3496A1E0A083E02F0E9493
:101C1A00811C65C1BA93AA9325970E94781CAD8549
:101C2A00BE8554963D914C914A933A93E0E2EA93E9
:101C3A00ABE0B0E00E942A17E0E0E887E9870E2FC0
:101C4A005E2FE8E0EA87AB85BC850E94331A0E94C2
:101C5A00381AAE0FBF1FAC91AE3211F50E943D1A71
:101C6A001E3221F4A885B98513970CF003C00E948F
:101C7A00491AF4CF1F3221F01C3511F0113208F441
:101C8A0002C0E6E071C00E94381A0E94501A10F48D
:101C9A00E4E201C0E0E2A32FB42F1B96EC9363C0E9
:101CAA000E943D1A113220F01F3211F01C3509F43E
:101CBA0032C01E3219F0EA855E1768F0AA85A8308C
:101CCA0011F41E3211F0E6E04FC058E0EBE0EA876B
:101CDA00000F000F1FC0103818F00360E6E044C080
:101CEA00E8E9F0E0FA93EA93A12F3DDA309711F090
:101CFA00E6E03AC0113410F01B3508F002C0026069
:101D0A0007C0113610F01B3708F002C001601052EC
:101D1A000E94491AC5CF0E94381A0E94501A10F41C
:101D2A00E4E001C0E0E01E2F503011F4E6E01CC0F0
:101D3A00A32FB42FAC91A53E21F4A32FB42FE5E035
:101D4A00EC93AA85A83011F4000F000FE02FE3707E
:101D5A00E13009F41061E02FEC70E43009F4186006
:101D6A00E32FF42F1387E0E00E947F1C2F9608953B
:101D7A00BA93AA930E947A1CE1E0E03029F0AC8180
:101D8A00BD81AC91A03209F006C0EC81FD8131968B
:101D9A00EC83FD83F1CFAC81BD81AC91AF3229F0E8
:101DAA00AC81BD81AC91AC3559F4EC81FD813196A1
:101DBA00EC83FD83AE81BF8116960E94581A0AC031
:101DCA00AE81BF810E941C1C7696DF010E94201CF6
:101DDA000E945C1AAC81BD81AC91BB27909760F4DC
:101DEA000E94621AA0E0B0E024DD0E2FAE81BF810E
:101DFA0052960E94671A3EC00E94621ADE01169627
:101E0A0009DF0E2F0030B1F5AE81BF8191DE0E2FB2
:101E1A00AE81BF8154960E941C1CE385E4703E2F5C
:101E2A00003039F0043011F4303009F001C005E017
:101E3A0021C03030F9F4AE81BF8152961D912C91A8
:101E4A00E12FF22FE385E07111F405E013C00E943F
:101E5A006C1A0E949C1B7F936F93FF93EF930E94CF
:101E6A00701AAF91BF918F919F910E94761A0E942A
:101E7A005C1AC2CFE02F0E94811C289608950E9406
:101E8A00521CEC81FD81A181AA93ED81FE81F2961B
:101E9A00FA93EA93EB81FC816D817E810E94461858
:101EAA0011F0E3E01CC0EC81FD810E947B1A11F065
:101EBA00E2E015C0AC81BD81A859BF4F0E94851AC6
:101ECA0011F4E0E00CC0EC81FD81F296EE5AFF4F6E
:101EDA00DF010E94851A11F4E0E001C0E1E02696D4
:101EEA000895AA9364970E94791CAC8DBD8D0E94B7
:101EFA001C1CEF83F887AF81B885EC91E0533E2F25
:101F0A003A3020F41196AC91AA3309F00AC0EF8155
:101F1A00F8853296EF83F887AC8DBD8DED93FC93EF
:101F2A0002C03091BD0F313010F0EBE0CCC1E32F8D
:101F3A000E94931A0E941C1CED83FE83AA8DBB8DFE
:101F4A00ED93FC93309711F4ECE0BDC1AD81BE81F5
:101F5A00EC91E03089F0ED81FE81A1810E94870534
:101F6A004E2F40FD09C0E98DE03011F042FD01C05D
:101F7A0002C0EAE0A8C1A6C1AD81BE81E0E0EC934F
:101F8A00E32FAD81BE811196EC93ED81FE81A18193
:101F9A000E94B3044E2F40FF02C0E3E094C1E98DD2
:101FAA00E03011F042FD01C002C0EAE08CC10E949B
:101FBA009B1A0E949519EF8BF88F698F7A8FDF0130
:101FCA00CB015DDF0E2F0130D9F4ED81FE81F2964F
:101FDA00E254FE4F1E2F2F2FE481E03089F0A12F0B
:101FEA00B22F18960E94201CED8BFE8B6F8B788F78
:101FFA000E949B1AAF89B88D898D9A8D40DF0E2F6A
:10200A00033011F4E1E05FC1003049F4AD81BE81D3
:10201A00DD960E941C1CE030A2E0FA0711F0EDE008
:10202A0052C1AD81BE81A85BBF4F0E94D5180E94E4
:10203A00A01A0E94A51A0E94641C41F4AD81BE81B7
:10204A00AA5ABF4F0E94201C0E94A01A0E94A51AD9
:10205A00AD81BE815A960E942B1CED81FE81EE5BFA
:10206A00FF4FE081AD81BE811396EC93ED81FE8135
:10207A00E381F0E0A989BA898B899C890E94A11B16
:10208A000E94A61B0E94A01A0E94AA1A0E94B11AB4
:10209A00AD81BE8192960E942B1CED81FE81E7AD37
:1020AA00AD81BE811296EC93AD81BE81AD5BBF4F0F
:1020BA000E941C1CAD81BE811896ED93FC93AD81E4
:1020CA00BE81AB5BBF4F0E94D518ED87FE876F8735
:1020DA00788B0E94641C51F4AD81BE81AE5ABF4F09
:1020EA000E94201CED87FE876F87788B0E94AA1AB0
:1020FA000E94E618662777270E949A19A989BA8941
:10210A008B899C890E944D1B7F936F93FF93EF935A
:10211A000E94B61AAF91BF918F919F916627772738
:10212A000E94521BED81FE81E281F0E00E94A11B18
:10213A000E94E41BEE5FFF4F6F4F7F4FE987FA87DC
:10214A006B877C87AD81BE815E960E942B1C01E065
:10215A000E940C19A73FEFE0BE07E0E08E07E0E01F
:10216A009E0708F002E00E940C19A73FEFEFBE0796
:10217A00E0E08E07E0E09E0708F003E0033039F460
:10218A00AD81BE81A25ABF4F0E94201C02C00E948C
:10219A00BE1AAD81BE8196960E942B1C0E94BE1A61
:1021AA007F936F93FF93EF930E94B61AAF91BF91FB
:1021BA008F919F910E94D119AD81BE819A960E94FA
:1021CA002B1CAD81BE811E960E94E1180E942B1C19
:1021DA00AD81BE811496E0E0EC93033009F05FC054
:1021EA00AD81BE811596EC93AD81BE81AE59BF4FCC
:1021FA000E941C1C0E94B11AAD81BE8152960E9497
:10220A002B1CED81FE81A181AA93EE81FF81F296BA
:10221A00FA93EA93E885F9850E9474180E94910559
:10222A00E03011F5ED81FE810E947B1AE9F4AD815F
:10223A00BE81D2960E94201CE235A2E5FA07A1E6E9
:10224A006A07A1E47A0781F4ED81FE81F296EC51E6
:10225A00FE4FDF010E94201CE237A2E7FA07A1E441
:10226A006A07A1E67A0709F01AC0ED81FE81F296A3
:10227A00E451FE4FDF010E94201CAD81BE811A96F7
:10228A000E942B1CED81FE81F296E851FE4FDF0180
:10229A000E94201CAD81BE811E960E942B1CAD811E
:1022AA00BE810C930E945518AD81BE8156960E943C
:1022BA00581AABEBBFE00E94C51AAD81BE811696D3
:1022CA00ED93FC93E0E00E94801C6E960895BA9309
:1022DA00AA93EA81FB81309771F0AA81BB81EC91C4
:1022EA00E03049F0EA81FB81A681B781E881F98172
:1022FA00EA17FB0711F0E9E00AC0EA81FB81A18134
:10230A000E948705E17011F0E3E001C0E0E0249645
:10231A000895BA93AA931A930A93AC81A13028F02C
:10232A00EBE0198108810C943817EC810E94931A0A
:10233A000D911C91002E012A19F0D801E0E0EC93CE
:10234A00EA81FB81309721F0AA81BB81E0E0EC931E
:10235A00EC81A9EBBFE0F0E0EE0FFF1FEA0FFB1FD5
:10236A00AA81BB81A083B183E0E0198108810C9422
:10237A003817AA93A2970E947B1CA8A5B9A50E9408
:10238A00671AEDA1EF71EDA3FE01B696FA93EA93EF
:10239A00FE017196FA93EA93E9A5EE71AE2FA1DDDB
:1023AA000E2F003009F01EC1FE013396EBA3FCA3E9
:1023BA00FE013F96FA93EA93A8A5B9A5D9DC0E2F98
:1023CA00EDA1EC7109F49EC02897003089F0043021
:1023DA0021F4DE015796DADB0E2F003019F0E02FD8
:1023EA00289600C1EDA5E860EDA719A52AA56DC03C
:1023FA00EDA5E47019F0E8E02896F4C019A52AA51D
:10240A00012E022A29F0E12FF22FE385E17119F05A
:10241A00E7E02896E7C0EDA5E87009F456C00E94E7
:10242A006C1A0E949C1B7F936F93FF93EF930E94F9
:10243A00701AAF91BF918F919F910E94761A0E9454
:10244A005B19E12FF22F74960E94CB1A7A960E949A
:10245A00CB1A7C96A0E0B0E080E090E00E94481C95
:10246A00AF89B88D1496E1E0EC93AF89B88D9E964A
:10247A000E948E180E9468190E94641CB9F0EF89A4
:10248A00F88DFA93EA930E94AE1970D80E2F003095
:10249A0011F02896A7C00E946819E150F0406040E8
:1024AA007040AF89B88D1A960E942B1CEF89F88D5F
:1024BA00FA93EA93AE81BF81888599850E94CF08F5
:1024CA000E2F003011F028968DC0EDA5E870C1F0EE
:1024DA00E12FF22F3B96A0E0A0830E9437080E94CA
:1024EA006B190E948619A12FB22F1E960E942B1CCF
:1024FA00AF89B88D1496E1E0EC93EDA5E062EDA703
:10250A0028961BC0003011F0E02F6CC019A12AA137
:10251A00012E022A29F0E12FF22FE385E07111F052
:10252A00E4E060C0EDA1E27029F0E12FF22FE3852B
:10253A00E17009F402C0E7E055C0AF85B8899E96FC
:10254A000E94201CA8A5B9A55A960E942B1CE9A195
:10255A00FAA1A8A5B9A55E96ED93FC93EDA1A8A54D
:10256A00B9A51496EC930E946C1A0E949C1B7F9347
:10257A006F93FF93EF930E94701AAF91BF918F915F
:10258A009F910E94761AA8A5B9A51E960E942B1C97
:10259A00A12FB22F5C960E94201CA8A5B9A51A9655
:1025AA000E942B1CA8A5B9A516960E94581AA8A580
:1025BA00B9A51596EFEFEC93A8A5B9A556960E9472
:1025CA00581AEF85F889A8A5B9A5ED93FC93AF85AC
:1025DA00B88916960E941C1CA8A5B9A51296ED9357
:1025EA00FC93E0E00E94821CAA960895BA93AA93EB
:1025FA002E970E94791CEF89F88DED83FE83AB89B3
:10260A00BC890E94671A0E94D21A0E94D71A0E9495
:10261A00DC1A11F0E02F9EC1E98DFA8DA481A07811
:10262A0011F0E2E097C1E98DFA8DA481A17011F44D
:10263A00E7E090C1E98DFA8DA285B38584859585F9
:10264A009F938F93BF93AF930E94E31AEF91FF91E9
:10265A006F917F910E944D1BEF83F88769877A8774
:10266A00AD89BE89882799270E946E1C20F4EF81C4
:10267A00F885ED8BFE8BED89FE89309709F469C1E7
:10268A000E94E31AFD01BC01F170309709F014C1F0
:10269A00E98DFA8D05800E94D21AE2810E16E8F1C0
:1026AA000E94E31A0E94681C31F4A98DBA8D1E9605
:1026BA000E94201C0AC00E94D21A0E94D71AA2891C
:1026CA00B389848995890E94A009EF87F88B698B61
:1026DA007A8BAF85B88989899A890E94811820F4F2
:1026EA000E94EA1AE2E036C1AF85B88989899A89D7
:1026FA000E94441921F40E94EA1AE1E02BC1EF85F5
:10270A00F88969897A89A98DBA8D52960E942B1CFB
:10271A00A98DBA8D1596E0E0EC930E94D21A0E9418
:10272A00D71AA289B389848995894BD8EB87FC8704
:10273A006D877E870E94F11A0E94641C21F40E9410
:10274A00EA1AE2E007C10E94F61AAB85BC858D85BC
:10275A009E850E94A11B0E94431BEB87FC876D8705
:10276A007E87AD89BE89E0E0F2E00E94D11B3E2F50
:10277A004F2F032E042A09F466C00E94F61AE30FAB
:10278A00F41F0F010E94D21AE281D001F0E0EA1789
:10279A00FB0758F40E94D21AE281F0E0DF010E949E
:1027AA00F61AAE1BBF0B3A2F4B2F0E94D21AE181A9
:1027BA00EA930E94621AEE85FF85688979890E94E8
:1027CA004D1CA32F0E949105E03021F00E94EA1AC5
:1027DA00E1E0C0C0E98DFA8DA481A07459F00E948D
:1027EA00FB1A0E94521BE32FF42F662777270E94B9
:1027FA00731C08F019C00E94FB1A0E94521BE0E0E9
:10280A00F2E060E070E00E94A61BAD81BE818827DD
:10281A009927EA0FFB1F0E94D71AB096FA93EA93F8
:10282A00A0E0B2E00E941817A98DBA8D1596EC9116
:10283A00E30FEC93E32FF42FEE0FFF1FFE2FE0E0E0
:10284A001E2F2F2F5FC0E98DFA8DA481A07499F0F5
:10285A000E94D21A0E94021BEC8DFD8D0E940A1B57
:10286A0021F00E94EA1AE1E075C0A98DBA8D14968A
:10287A00EC91EF7BEC930E94FB1A0E946E1C79F09C
:10288A000E94D21A0E94021BEE85FF856889798907
:10289A000E94461821F00E94EA1AE1E05BC00E94F9
:1028AA00F11AA98DBA8D56960E942B1CA98DBA8D44
:1028BA001596EC91EF5FEC93A98DBA8D16960E944E
:1028CA001C1CF170A0E0B2E0AE1BBF0B1A2F2B2F1D
:1028DA00ED89FE89E117F20710F41D892E890E94FD
:1028EA009B1AAB8DBC8D16960E941C1CF170AB8D89
:1028FA00BC8D9096EA0FFB1FFA93EA93A12FB22F91
:10290A000E941817E12FF22FAD81BE81EA0FFB1F3B
:10291A00ED83FE83E98DFA8D36960F01DF010E9461
:10292A00201CDF01CB01E12FF22F0E94D119D00127
:10293A000E942B1CAB89BC89ED91FD91E10FF21F1E
:10294A00FE93EE93ED89FE89E11BF20BED8BFE8B74
:10295A0092CEE0E00E94801C6B960895BA93AA93E7
:10296A0024970E947B1C0E94151BFA93EA93E9851F
:10297A00FA850E94DC1A09F077C0EF81F885A481F4
:10298A00A07209F471C0A481A074B1F00E94151B51
:10299A00E181EA93E885F985B096FA93EA93EA85A4
:1029AA00FB850E940A1B11F0E1E05FC0AF81B88588
:1029BA001496EC91EF7BEC930E94151BFA93EA9321
:1029CA00E985FA85A28DB38D848D958D0E94CF08F5
:1029DA000E2F003009F048C0AF81B8855E961D9170
:1029EA002C91A12FB22F1B96EC91E062EC93AF8150
:1029FA00B8851A960E94201CA12FB22F5C960E94BD
:102A0A002B1CAF81B8851E960E941C1CA12FB22FC9
:102A1A005A96ED93FC93EF81F885A685B785808950
:102A2A009189FD01BC010E94971BA12FB22F5496D8
:102A3A00ED93FC930E9437080E94FD19A12FB22F33
:102A4A0056960E942B1CAF81B8851496EC91EF7DA7
:102A5A00EC930E94151B3496A1E0A0830E94151BDB
:102A6A00DF010E9436090E2FE02F0E94821C299650
:102A7A000895BA93AA930A93A981BA816FDF0E2F98
:102A8A00003021F4A981BA810E94671AE02F0881D7
:102A9A0023960895BA93AA931A930A93AA81BB819B
:102AAA0012960E941C1C309729F1AA81BB811496A8
:102ABA000E941C1C8F01309761F00230E0E01E0773
:102ACA0080F0F80131978F01AA81BB811496ED93AA
:102ADA00FC93AA81BB8112960E94C51A3197AC81D8
:102AEA00A083AA81BB810E941C1CFF2312F00E94B2
:102AFA00C51A06C0AA81BB81EFEFFFEFED93FC93E5
:102B0A00198108810C943817BA93AA9326970E94C0
:102B1A00781C00E0AC85BD850E94671AEA89FB89AA
:102B2A003196EA8BFB8B3197E4913E2FE03009F422
:102B3A001FC1E02FE03039F4353211F401E002C050
:102B4A000E941A1B14C1E130A9F4353219F40E940B
:102B5A001A1B0CC102E050E010E03D3211F411E002
:102B6A0006C13B3211F45BE202C1303211F450E289
:102B7A00FEC002C0E23039F440E003E0303311F421
:102B8A001068F5C003C0E33009F0F1C0303310F02B
:102B9A003A3308F007C0AAE04A9F402DE32FE053DA
:102BAA004E0FE5C0E32FE33649F40E94211BE88962
:102BBA00F989A481AA930E94271BD8C0E33769F434
:102BCA000E94211BA889B98914960E94331AAE81E2
:102BDA00BF810E943A170E2F0FC0E03789F40E9476
:102BEA00211BA889B98914960E94331AAE81BF8124
:102BFA000E9446170E2F186012601F7720E034C01B
:102C0A00E43611F0E93611F4146002C0E53731F404
:102C1A00E0EDF0E0EE83FF8305E00CC0E83511F447
:102C2A00186003C0E83709F0A1C0EAEDF0E0EE83CE
:102C3A00FF8304E012FF14C00E94211B0E942D1B77
:102C4A00AB85AA233AF4EA85FB850E945C1BEA87D6
:102C5A00FB875DE2503011F00F5F01C01B7F04C09B
:102C6A000E94211B0E942D1B10FD11C0041778F42D
:102C7A0017FF08C012FF04C01B7F352F015001C087
:102C8A0030E301C030E20E941A1B4150EFCF202FDF
:102C9A0011FF17C02030A1F013FF06C0EE81FF819B
:102CAA003591EE83FF8305C0AE81BF813D91AE832E
:102CBA00BF830E941A1B403009F041502150EACFCD
:102CCA004BC030E3EE81FF810E94351CE887F9870B
:102CDA00EE81FF813296EE83FF83E885F985AA8526
:102CEA00BB85AE17BF0750F03F5FA885B985EA8557
:102CFA00FB85EA1BFB0BEA87FB87EFCF3A3328F009
:102D0A0013FF02C0395F01C0395D14FD1AC03133A7
:102D1A0020F4A885B985119709F409C0421710F063
:102D2A0010FF01C013C030E217FF0BC030E310617F
:102D3A0012FF07C01B7F5A930E94271B403009F0DD
:102D4A0041500E941A1B403009F041502150A88579
:102D5A00B985129708F0B5CF10FF08C0403031F09E
:102D6A004150E0E2EA930E94271BF8CF00E0D6CE5A
:102D7A00AC85BD850E941C1C0E947F1C6496089528
:102D8A00FF92F82E26970E947A1CDE011C960E945A
:102D9A003F1B0E941C1C309719F4EFEFFFEF25C070
:102DAA00DE0116960E943F1B8D01DE011C960E94D1
:102DBA003F1B0E94331AE0E0E887E987DE011A9692
:102DCA000E943F1B0E941C1CFA93EA931A930A93CF
:102DDA00EFE4F5E1FA93EA93DE011A9695DE9F0194
:102DEA00AE81BF81E0E0EC93F9010E94811C2A9632
:102DFA00FF900895BA93AA936627772789919991A4
:102E0A00E991F991A991B991009629F001976D91EB
:102E1A0071916717C9F3671B10F4EFEF0895E0E0AB
:102E2A0009F0E3950895BA93AA9399818881009647
:102E3A0041F0BD81AC81FB81EA8161916D9301977B
:102E4A00E1F7FD81EC8126960895BA93AA93B98198
:102E5A00A881109631F0FC81EB816A816193119708
:102E6A00E9F7EB81FC8125960895BA93AA93A99173
:102E7A00B991EE27FF276D91662311F03196FBCFAA
:102E8A000895BA93AA93AA27BB27E991F9910590C5
:102E9A00002011F01196FBCFFD010895A2E0B0E0E9
:102EAA000C94351B0E9407010C940401E981E07F10
:102EBA000E2F02950F70A02FF5CFE981EF700E2F1C
:102ECA00A02F0E940701EACFA091250BB091260BF3
:102EDA00A030E1E0BE070895E091250BF091260BA2
:102EEA000895EB5FF64FE081E7BDA5E2BBE0ED9107
:102EFA00FD913196FE93EE933197EB5FF64FE081A9
:102F0A00E8BD0895E9DFE050F140EB5FF54FE0815D
:102F1A000895E8BDA5E2BBE0ED91FD913196FE93DF
:102F2A00EE930895A091250BB091260BA030E2E014
:102F3A00BE070895F09AE0E0E093250BE093260B94
:102F4A000895A5E2BBE0ED91FD913196FE93EE93D3
:102F5A000895BA93AA93E3E6FDE0FA93EA93EA8125
:102F6A00FB81FA93EA930895E3E6FDE0FA93EA9384
:102F7A00E5E0F9E0FA93EA930895FA93EA93AFE267
:102F8A00BBE00C94FB12A3E6BDE00C943E15E09363
:102F9A00270BF093280B6093290B70932A0B089543
:102FAA00E0E0F1E0EACFE0912F0BF091300BA09135
:102FBA00270BB091280B8091290B90912A0B662739
:102FCA0077270E94521BA093270BB093280B80935C
:102FDA00290B90932A0B0895E3E6FDE0FA93EA930E
:102FEA00E5E0FAE0FA93EA93DBCFE0E0E093250B21
:102FFA00E093260B0895A091270BB091280B80919E
:10300A00290B90912A0B0895662777270E944D1C59
:10301A0008950E945201E0E0EA93A0E00C94550161
:10302A00F0E00E94A11BDF01CB010895E983FA8336
:10303A006B837C830895ED81FE816F817885089585
:10304A00A981BA818B819C810895E985FA85A1813C
:10305A00AA93EA85FB85F296FA93EA93EC81FD81BD
:10306A006E817F810E944D1CA1E00C94F505A2A1FE
:10307A00B3A184A195A10895E885F9856A857B8520
:10308A0008950E944D1CA1E00E949105E030089528
:10309A00FA93EA93A0E0B0E080E090E00C94CF08C5
:1030AA009E96E0E0F0E060E070E00E942B1C08953C
:1030BA00F296FA93EA93E0E0EA93A0E0B2E00C9485
:1030CA002A170E94481CE981FA81F29608950E9403
:1030DA00201CD0010E942B1CE981FA810895A28943
:1030EA00B389848995890E94521CA1E00895A88514
:1030FA00B9858A859B850895A230E0E0BE07E0E0A5
:10310A008E07E0E09E070895E1E0F0E060E070E0FD
:10311A0008950E94201CEC83FD836E837F830895AB
:10312A00EC85FD85FA93EA93D901E0E0F2E00E948A
:10313A00D11BAE81BF8188859985662777270E9432
:10314A00481B0E94CF08E0300895AC85BD85D29611
:10315A00F901F170AE0FBF1F0895EC85FD85FA9352
:10316A00EA93AA85BB858C859D850895E0E0F1E008
:10317A0060E070E00E94E41B0895AE81BF818885FB
:10318A0099850E94481B0E94CF08E03008950E944A
:10319A00C61BF170AC85BD85D296AE0FBF1F0895D0
:1031AA000E941C1C662777270895E0E8F0E060E09B
:1031BA0070E00E94E41B0895EFEFFFEF6FEF7FEFDF
:1031CA000895AD85BE858F8598890895E989FA891C
:1031DA00FA93EA93D801E0E0F2E00E94D11BAF81B2
:1031EA00B88589859A85662777270E94481B0E9499
:1031FA00CF084E2F40300895A989BA89D296F8018E
:10320A00F170EA0FFB1F9F01ED85E1700895A98512
:10321A00BA858B859C850895E989FA89FA93EA9398
:10322A00AF85B88989899A890895AF81B8858985D2
:10323A009A850E94481B0E94CF084E2F403008955D
:10324A000E94C61BF170A989BA89D296EA0FFB1FA0
:10325A000895AD81BE818F8198850895A985BA8523
:10326A005E960E94201CF5DF0E94731C0895A1300F
:10327A00E0E0BE07E0E08E07E0E09E070895AF3F7A
:10328A00EFEFBE07EFEF8E07EFEF9E070895A685D3
:10329A00B78580899189F3CF1E960E94261CEF5F1D
:1032AA00FF4F6F4F7F4F0E94301C08950E94431CAE
:1032BA000895E889F9896A897B890895AC81BD8175
:1032CA008E819F8108950E94391C0895EC83FD83A5
:1032DA006E837F830895EC89FD89FA93EA930895B2
:1032EA000E94A009EC87FD876E877F870895AC85C9
:1032FA00BD858E859F850895EC85FD856E857F85C4
:10330A000895EC81FD816E817F810895E887F987B0
:10331A006A877B870895F5DFEADE0E946E1C0895AE
:10332A00E0E0F0E060E070E008950E94571C0E941F
:10333A004D1B0895A885B9851496ED93FC93A8852D
:10334A00B98508950E94201CEA83FB836C837D83E0
:10335A000895AA81BB818C819D810895A885B9852C
:10336A000E941C1C08957E96DF010E94201CF1DF3A
:10337A000E94731C0895EA81FB816C817D810E9401
:10338A00641C0895EA81FB816C817D81A885B985D9
:10339A001A960E942B1CE2CF662777270E94431BAE
:1033AA000895A885B9851E960E942B1C0895EF7072
:1033BA00F070EE0F0E94801BEA0FFB1FA885B985EB
:1033CA005296ED93FC93E0E00895FA93EA93EA8526
:1033DA00FB85A285B385848595850895EB83FC8357
:1033EA006D837E830895AB81BC818D819E81089512
:1033FA00F5DFEB81FC816D817E810895FA93EA9372
:10340A0028DF0C94E60BBA93AA930E947A1CEC81EB
:10341A00FD81FA93EA93A0E0B0E00E941E0C0E2F01
:10342A0000300895AC81BD810E941C1CFA93EA9376
:10343A00EE81FF81A685B785808991890E94CF0890
:10344A000E2F003008953A932A93EE81FF81A489C2
:10345A00B589BA93AA93ABE0B0E008950E941C1C08
:10346A00EE83FF830895E885F985AE81BF810895CB
:10347A00E885F9853196E887F9873197AE81BF816A
:10348A00AE0FBF1F1C910895E52F5F5FF0E0E30FB9
:10349A00F41F10830895EA0FFB1FAB85BC85ED93DB
:1034AA00FC93113208953CDF0E942B1C0895AE81D3
:1034BA00BF8116960E942B1C0895EE81FF81FA9314
:1034CA00EA930895E0E0F0E0ED93FC930895A12FCC
:1034DA00B22F549665CEA12FB22F5A960E941C1C69
:1034EA000895662777270E94571B0895F296E2509F
:1034FA00FE4FDF010E941C1CE535AAEAFA0708956F
:10350A000E94201CEF7FFF7F6F7F7070E634A1E47A
:10351A00FA07A4E56A07A0E07A070895A9EBBFE0D5
:10352A00F0E0EE0FFF1FAE0FBF1F0895ED81FE8181
:10353A00FA93EA930895E98BFA8B6B8B7C8B089547
:10354A00E989FA896B897C890895AD81BE81A05C7D
:10355A00BF4F0E941C1C0895AD89BE898F89988D22
:10356A001BCFED81FE81A085B185FD010E94891BDB
:10357A000895ED81FE817BDDE3DF0E94431B089500
:10358A00ED91FD913196FE93EE930895A0E0B0E09F
:10359A00A083B183E12FF22F0895A98DBA8D0E94DD
:1035AA001C1C0895FA93EA93EB8DFC8D0895A28171
:1035BA00B3810E946C110E2F00300895E98DFA8DA7
:1035CA00A681B781808591850895A98DBA8D1496B3
:1035DA00EC91E068EC930895EB85FC856D857E851A
:1035EA000895E98DFA8DE581F0E00895E98DFA8D67
:1035FA00A689B789808D918DEFCFE181EA93EA8D13
:10360A00FB8DB096FA93EA930895A689B789808DBF
:10361A00918D0E94521CA1E00E94F505E0300895A8
:10362A00AF81B8850E941C1C08953A93AD85BE856A
:10363A00EF85F88909950895E889F9893497E88B1F
:10364A00F98B0895AD85BE85EF85F88909950895AA
:10365A00A889B98914960E941C1CEA87FB870895D9
:10366A00109639F080ED97E00197F1F7A895119738
:10367A00C9F708950024AF0DB01D0895EA0FFB1F86
:10368A00681F791F0895AE0FBF1F861F971F0895E1
:10369A00EA1BFB0B680B790B0895AE1BBF0B860B5D
:1036AA00970B0895EA2BFB2B682B792B0895F1953C
:1036BA00E195F0400895F09560957095E195FF4F7A
:1036CA006F4F7F4F0895EE230E2EFD01BC0131F09E
:1036DA00EE0FFF1F661F771F0A94D1F70895EE2396
:1036EA000E2EFD01BC0131F076956795F795E795A9
:1036FA000A94D1F70895EE0FFF1FEE0FFF1FEE0F8A
:10370A00FF1FEE0FFF1F0895F695E795F695E795CB
:10371A00F695E795F695E7950895EE0FFF1F661F54
:10372A00771F0895E62FF72F60E070E008956E2F57
:10373A007F2FE0E0F0E008956F2F660F660B762F7B
:10374A0008957A9F702D6B9F700DF89F700DE99FF9
:10375A00700D6A9F602D710DFB9F600D711DE89FB2
:10376A00600D711D8827FA9FF02D610D781FEB9F60
:10377A00F00D611D781FEA9FE02DF10D681F781F7B
:10378A0008956E2F6A9FF0016B9FF00D08953CD04B
:10379A00D8DF0EF490DF08950024112490E1AA0FD7
:1037AA00BB1F001C111C0E1A1F0A18F40E0E1F1E36
:1037BA0001C0A1609A9599F7FD01D00108953F9340
:1037CA004F935F93002411244427552730E2AA0F10
:1037DA00BB1F881F991F001C111C441F551F0E1A5E
:1037EA001F0A460B570B28F40E0E1F1E461F571FA3
:1037FA0001C0A1603A9559F7FD01BC01D001CA0187
:10380A005F914F913F910895E89477FF02C053DF8B
:10381A00689497FF0BC00024A095B0958095909569
:10382A001196801D901D00F8039400FA0895ED91F9
:10383A00FC9111970895ED91FD916D917C911397EB
:10384A000895ED91FD916D917D910895ED93FD930C
:10385A006D937C9308957E936E93FE93EE930895F1
:10386A000590F491E02D0895E881F9816A817B81C0
:10387A000895A881B9818A819B810895E883F98393
:10388A006A837B830895A083B18382839383089597
:10389A007A936A93FA93EA9308959A938A93BA93D6
:1038AA00AA930895182E862F612D192E972F712D00
:1038BA001B2EBF2FF12D1A2EAE2FE12D0895309712
:1038CA0060407040089500240A160B06080609068F
:1038DA000895EA17FB07680779070895AE17BF0727
:1038EA008607970708955A934A933A932A931A9305
:1038FA000A9308955D814C813B812A81198108814F
:10390A000895AC0FBD1F05900D928A95E1F70895B1
:00000001FF
