:0A0000000C945C000C9400000C94BA
:10000A0000000C9400000C9400000C9400000C9466
:10001A0000000C9400000C9400000C9400000C9456
:10002A0000000C9400000C9400000C9400000C9446
:10003A0000000C9400000C9400000C9400000C9436
:10004A0000000C9400000C9400000C9400000C9426
:10005A0000000C9400000C9400000C9400000C9416
:10006A0000000C9400000C9400000C9400000C9406
:10007A0000000C9400000C9400000C9400000C94F6
:10008A0000000C9400000C9400000C94000010274F
:10009A00E80364000A0001000010000110000100DA
:1000AA0025632C25632C25632F6E2F720000F8948C
:1000BA00EE27EFBBF1E0F5BFE5BF8DE0A2E0BB277D
:1000CA00ED938A95E9F780E090E2A0E0B1E0ED9344
:1000DA000197E9F78BBFE0E0EEBBEFEFEDBFE0E29F
:1000EA00EEBFC0E0D9E00C949300AA93E881E062E5
:1000FA00E0937C0087E08A95F1F7E0917A00E0646A
:10010A00E0937A00E0917A00E071E1F3E0917A00FD
:10011A00E061E0937A00E091790029C0E0E0E093A1
:10012A00C800E8E1E093C900E6E0E093CA00E0E035
:10013A00E093CD00ECE0E093CC00EAEAF0E0FA9339
:10014A00EA93A7E00E943D02A6E00E943D02A5E0D4
:10015A000E943D028CE04ED12E96EFCFFFCFAA939C
:10016A00E091C800E072E1F3E881E093CE002196C5
:10017A000895BA93AA93AA81F2DFA881B981ED9171
:10018A00FD913196FE93EE9323960895BA93AA931E
:10019A0026970E947F0210E0AC85BD85E0E0F0E082
:1001AA00ED93FC93EA89FB893196EA8BFB8B3197B5
:1001BA00E4912E2FE03009F415C1E12FE03039F433
:1001CA00253211F411E002C00E9445020AC1E13051
:1001DA00A9F4253219F40E94450202C112E040E056
:1001EA0000E02D3211F401E0FCC02B3211F44BE295
:1001FA00F8C0203211F440E2F4C002C0E23039F40F
:10020A0050E013E0203311F40068EBC003C0E33080
:10021A0009F0E7C0203310F02A3308F007C0AAE03B
:10022A005A9F502DE22FE0535E0FDBC0E22FE336D8
:10023A0049F40E944C02E889F989A481AA930E9490
:10024A005202CEC0E33741F40E944C020E94580287
:10025A000E9424021E2F0AC0E03761F40E944C0259
:10026A000E9458020E9430021E2F086002600F7717
:10027A0030E034C0E43611F0E93611F4046002C00B
:10028A00E53731F4E8E9F0E0EE83FF8315E00CC0CE
:10029A00E83511F4086003C0E83709F0A1C0E2EAC2
:1002AA00F0E0EE83FF8314E002FF14C00E944C02C8
:1002BA000E946202AB85AA233AF4EA85FB850E9472
:1002CA006E02EA87FB874DE2403011F01F5F01C0E2
:1002DA000B7F04C00E944C020E94620200FD11C002
:1002EA00151778F407FF08C002FF04C00B7F242FFC
:1002FA00115001C020E301C020E20E944502515082
:10030A00EFCF312F01FF17C03030A1F003FF06C035
:10031A00EE81FF812591EE83FF8305C0AE81BF8107
:10032A002D91AE83BF830E944502503009F051508F
:10033A003150EACF4BC020E3EE81FF810E94760262
:10034A00E887F987EE81FF813296EE83FF83E8859D
:10035A00F985AA85BB85AE17BF0750F02F5FA88520
:10036A00B985EA85FB85EA1BFB0BEA87FB87EFCF9A
:10037A002A3328F003FF02C0295F01C0295D04FD6A
:10038A001AC0213320F4A885B985119709F409C048
:10039A00531710F000FF01C013C020E207FF0BC083
:1003AA0020E3006102FF07C00B7F4A930E945202BA
:1003BA00503009F051500E944502503009F0515016
:1003CA003150A885B985129708F0B5CF00FF08C04B
:1003DA00503031F05150E0E2EA930E945202F8CFD5
:1003EA0010E0E0CEAC85BD850E9472020E948602B2
:1003FA0064960895FF92F82E26971A930A93DE01BF
:10040A0014960E946A028D01E0E0EC83ED83EE838C
:10041A00EF83DE0118960E946A020E947202FA9322
:10042A00EA931A930A93EEEBF0E0FA93EA93DE0169
:10043A001896ACDE198108812896FF900895BA9320
:10044A00AA93A991B991EE27FF276D91662311F01E
:10045A003196FBCF0895BA93AA93AA27BB27E991AD
:10046A00F9910590002011F01196FBCFFD01089536
:10047A000E947A00FF27662777270E947A0208954A
:10048A002A93AD85BE85EF85F88909950895E8898F
:10049A00F9893497E88BF98B0895AD85BE85EF8588
:1004AA00F88909950895A889B98914960E94720253
:1004BA00EE83FF83AE81BF810895A889B989149616
:1004CA000E947202EA87FB8708950024AF0DB01DCF
:1004DA000895F195E195F0400895ED91FC911197F9
:1004EA0008950590F491E02D08957A936A93FA930A
:1004FA00EA9308955A934A933A932A931A930A933A
:10050A0008955D814C813B812A8119810881089572
:00000001FF
