:020000000C945E
:100002001A040C9400000C9400000C9400000C9450
:1000120000000C9400000C9400000C9400000C945E
:1000220000000C9400000C9400000C9400000C944E
:1000320000000C9400000C9400000C9400000C943E
:1000420000000C9400000C9400000C9400000C942E
:1000520000000C9400000C9400000C9400000C941E
:1000620000000C9400000C9400000C9400000C940E
:1000720000000C9400000C9400000C9400000C94FE
:1000820000000C9400000C9400000C94C1050C9428
:1000920000000C9400000000001818000000C0C00E
:1000A200000000000303C0C0001818000303C3C30C
:1000B20000000000C3C3C3C300181800C3C3DBDBC6
:1000C20000000000DBDB0002000400010402010565
:1000D200000505020507000700000000000000F20D
:1000E200000000E000E00028FE28FE282454FE5410
:1000F20048C4C81026466C92AA840A00A0C0000018
:100102000038448200008244380028107C102810F5
:10011200107C1010000506000010101010100006D0
:1001220006000004081020407C8A92A27C0042FE55
:10013200020042868A92628482A2E29C182848FEC9
:1001420008E4A2A2A29C3C5292920C808E90A0C083
:100152006C9292926C609292947800363600000013
:1001620035360000102844820028282828280082DA
:1001720044281040808A90604C929E827C7E9090AF
:10018200907EFE9292926C7C82828244FE82828275
:100192007CFE92929292FE909090907C8292925CDF
:1001A200FE101010FE0082FE820084828282FCFE1B
:1001B20010284482FE02020202FE402040FEFE405F
:1001C2002010FE7C8282827CFE909090607C8286EF
:1001D200827DFE90989462649292924C8080FE801E
:1001E20080FC020202FCF8040204F8FE040804FE89
:1001F200C6281028C6C0201E20C0868A92A2C2002D
:10020200FE8282004020100804008282FE0020400C
:1002120080402002020202020080402000042A2ABA
:100222002A1EFE1222221C1C222222221C222212FE
:10023200FE1C2A2A2A18107E908040182525253E69
:10024200FE1020201E0022BE0200040222BC00FE7C
:10025200081422000082FE02003E2018201E3E10DA
:1002620020201E1C2222221C3F242424181824246D
:10027200243F3E10202010122A2A2A0420FE2202A5
:10028200043C0202043E38040204383C020C023CE4
:100292002214081422300A0A0A3C22262A32220098
:1002A200106C82000000FE000000826C1000102022
:1002B200100810000000000004AA2AAA1E1CA22294
:1002C200A21C1C4202421C3ED050D03E3CC242C242
:1002D2003C3C8202823C7F9092926C0000000000C3
:1002E200000000000000000000000000000000000C
:1002F20000000000000000000000000000000000FC
:1003020000000000000000000000000000000000EB
:1003120000000000000000000000000000000000DB
:1003220000000000000000000000000000000000CB
:1003320000000000000000000000000000000000BB
:1003420000000000000000000000000000000000AB
:10035200000000000000000000000000000000009B
:10036200000000000000000000000000000000008B
:100372000000940294020100940201000C02940213
:1003820001000E03010001000100870101000100CC
:1003920001000C02010001008701010001004A0175
:1003A20001000100B8010100EE010100D301B80112
:1003B20001008701940201000E0370030100BA02DA
:1003C2000E030100940201000C024C02EE01010036
:1003D20001000C02010001008701010001004A0135
:1003E20001000100B8010100EE010100D301B801D2
:1003F20001008701940201000E0370030100BA029A
:100402000E030100940201000C024C02EE010100F5
:100412000100010001000E03E402BA0270020100B1
:1004220094020100A001B8010C020100B8010C0203
:100432004C02010001000E03E402BA027002010044
:1004420094020100180401001804180401000100BC
:100452000100010001000E03E402BA027002010071
:1004620094020100A001B8010C020100B8010C02C3
:100472004C02010001007002010001004C02010067
:1004820001000C0201000100010001000100010055
:100492000100010001000E03E402BA027002010031
:1004A20094020100A001B8010C020100B8010C0283
:1004B2004C02010001000E03E402BA0270020100C4
:1004C200940201001804010018041804010001003C
:1004D2000100010001000E03E402BA0270020100F1
:1004E20094020100A001B8010C020100B8010C0243
:1004F2004C02010001007002010001004C020100E7
:1005020001000C02010001000100010001000100D4
:1005120001000C020C0201000C0201000C024C0250
:10052200010094020C020100B801870101000100E0
:1005320001000C020C0201000C0201000C024C0230
:1005420001000100010001000100010001000100A1
:100552000C020C0201000C0201000C024C02010010
:1005620094020C020100B8018701010001000100A0
:10057200940294020100940201000C029402010010
:100582000E030100010001008701010001000100CA
:100592000C02010001008701010001004A01010073
:1005A2000100B8010100EE010100D301B801010010
:1005B2008701940201000E0370030100BA020E03C8
:1005C2000100940201000C024C02EE010100010044
:1005D2000C02010001008701010001004A01010033
:1005E2000100B8010100EE010100D301B8010100D0
:1005F2008701940201000E0370030100BA020E0388
:100602000100940201000C024C02EE010100010003
:1006120094020C020100870101000100A001010007
:10062200B801BA020100BA02B801010001000100DA
:10063200EE0170030100700370030E030100BA02A1
:1006420094020C020100B8018701010001000100BF
:1006520094020C020100870101000100A0010100C7
:10066200B801BA020100BA02B8010100010001009A
:10067200EE01BA020100BA02BA02940201004C026F
:1006820087014A0101004A0106010100010001003F
:1006920094020C020100870101000100A001010087
:1006A200B801BA020100BA02B8010100010001005A
:1006B200EE0170030100700370030E030100BA0221
:1006C20094020C020100B80187010100010001003F
:1006D20094020C020100870101000100A001010047
:1006E200B801BA020100BA02B8010100010001001A
:1006F200EE01BA020100BA02BA02940201004C02EF
:1007020087014A0101004A010601010001000100BE
:100712000C020C0201000C0201000C024C0201004E
:1007220094020C020100B8018701010001000100DE
:100732000C020C0201000C0201000C024C0201002E
:1007420001000100010001000100010001000C0292
:100752000C0201000C0201000C024C020100940286
:100762000C020100B801870101000100010094029E
:1007720094020100940201000C02940201000E0393
:100782000100010001008701010001000100940243
:100792000C020100870101000100A0010100B80163
:1007A200BA020100BA02B801010001000100EE0123
:1007B20070030100700370030E030100BA02940279
:1007C2000C020100B801870101000100010094023E
:1007D2000C020100870101000100A0010100B80123
:1007E200BA020100BA02B801010001000100EE01E3
:1007F200BA020100BA02BA02940201004C02870155
:100802004A0101004A010601010001000100000045
:1008120057656C636F6D650001002D4E414E0049B6
:100822004E460000070004091208010013091A08C5
:100832000000F894EE27EFBBF1E0F5BFE5BF8DE0D5
:10084200A2E0BB27ED938A95E9F780E090E2A0E071
:10085200B1E0ED930197E9F7E6E2F8E08591959131
:10086200009761F0A591B59105901590BF01F00137
:1008720005900D920197E1F7FB01F0CF8BBFE0E00D
:10088200EEBBEFEFEDBFE0E2EEBFC0E0D9E00C94CB
:100892000906E0E0E093810008950E9497092497F9
:1008A2001A930A93EE81FF8168857985A0E0B4E20C
:1008B20084EF98E40E94BE08EA83FB836C837D8305
:1008C2000E9400088F01AA81BB818C819D816627CD
:1008D20077270E9439080E949C090E946C08DF0158
:1008E200CB01E0E0F0E060E07FE30E94030910F05A
:1008F2000F5F1F4FF8013197EF2FF0E0E09389006F
:10090200E02FE150E0938800E0E4E0938000E9E02A
:10091200E0938100198108812A960895BA93AA93D7
:100922000A934298419800E0003180F4EA81E0782D
:1009320011F4409801C0409A429A4298E981FA81A2
:10094200EE0FFF1FE983FA830F5FEECF419A4198C2
:100952000881BDC0E7E0E7B9A0E0B9E0DFDFA8E0C9
:10096200BAE0DCDFA7E0BBE0D9DFA1E0BCE0D6DF84
:10097200A0E0BFE003C1AA93E881E052E8830E94AD
:10098200DC06A0E0B8E00E94E40634960E94ED0680
:100992000E94E4063396E491F0E0F460DF010E94E5
:1009A200E4063296E491F0E0F560DF010E94E4068D
:1009B2003196E491F0E0F660DF010E94E406E491F2
:1009C200F0E0F7602DC0AA930E94F20637960E94CB
:1009D200FA060E94F20636960E9400070E94F2066C
:1009E20035960E94ED060E9406073496E491F0E0E7
:1009F200F460DF010E9406073396E491F0E0F560AF
:100A0200DF010E9406070E940907DF010E94060714
:100A12000E940E07DF010E940607E491F0E0F860F1
:100A2200DF017CDF21960895AA930E941307329674
:100A32000E94FA060E94130731960E9400070E9444
:100A420013070E94ED060E941D070E942907F66007
:100A5200DF010E941D070E943007F760DF010E943C
:100A62001D070E943707F860DF0158DF8BC1AA9388
:100A72000E943D0732960E94FA060E943D07319677
:100A82000E9400070E943D070E94ED060E94470750
:100A92000E9409070E944A070E942907E62BF72BAA
:100AA200DF010E9447070E940E070E944A070E9428
:100AB2003007E62BF72BDF010E944707E491F0E0B5
:100AC200F8600E944A070E9437070E945507239642
:100AD2000895AA930E945A073296E491F0E0F160D9
:100AE200BF010E9413070E9429070E9455070E9416
:100AF2005A073196E491F0E0F260BF010E941307B9
:100B02000E9430070E9455070E945A07E491F0E0C4
:100B1200F360BF010E9413070E9437070E94640717
:100B22000E9409070E9468070E9429070E94640721
:100B32000E940E070E9468070E9430070E94640705
:100B4200E491F0E0F8600E9468070E9437070E9473
:100B52005507249608950E94DC06A0E0B3E0DEDE8D
:100B6200A0E0B4E0DBDEA0E0B5E0D8DEA0E0B6E0D5
:100B7200D5DEA0E0B7E0D2DEA0E0B8E0CFDE089597
:100B82000A921A92FA926A937A938A939A93AA93FE
:100B9200BA93EA93FA93EFB7EA930E947307E4E1F8
:100BA200F0E00E947F09309761F4E0910D09F0E0D6
:100BB200EC5FF64FA081DFDEE0910D09EF5FE0937D
:100BC2000D09A2E0B9E0ED91FD913196FE93EE930D
:100BD2000E947307AC38E0E0BE0718F40E94780761
:100BE20009C0B9DF56DEE0E0E0939500E09394009F
:100BF200E0937100E991EFBFF991E991B991A9915F
:100C02009991899179916991F99019900990189522
:100C1200E3E0EBB9E0E0E0930E099CDE3E9AE1E00E
:100C2200E5BD259AE0E0E0939000E2E0E0939100D8
:100C32000E947807E0E3E0939900E3EDE0939800E7
:100C4200E1E0E093710078940E947307AC38E0E031
:100C5200BE0780F50E947F070E949409119789F0D0
:100C62000E947F070E9490090E943F090E94390852
:100C7200DF01CB0112DEA8ECB0E00E94C90709DE59
:100C820004C0A8ECB0E00E94C907A0E0B9E0ED9171
:100C9200FD913196FE93EE93A0910009B091010966
:100CA200AF34E2E0BE0729F4E0E0E0930009E0930C
:100CB2000109CACF48994AC04EDFE0910E09E030DF
:100CC20031F40E948A07A0910F097DDE3BC0A091FA
:100CD2000E09A13059F40E948A070E949A07E091F6
:100CE2000F09EA93A09110099FDE2CC0A0910E0972
:100CF200A23081F40E94AA07E0930F090E949A078A
:100D02000E94B307E09311090E94B907A09111094B
:100D1200AEDE18C0A0910E09A330A1F40E948A078A
:100D22000E949A070E94B307E09311090E94B30739
:100D3200E09312090E94B907E0911109EA93A09188
:100D42001209C7DEA4EFB1E00E94C907499910C099
:100D5200E0910E09EF5FE0930E09A0910E09A43015
:100D620018F0E0E0E0930E09A4EFB1E00E94C90799
:100D7200A1CFFFCFBA93AA93E881F9810E943F09DC
:100D82000E94C00722960895E0911309F091140978
:100D92006091150970911609ADE6BEE486EC91E406
:100DA2000E944C09EE59F8486F4F7F4F0E94C007CE
:100DB200FB01FF770895A0E0B1E00E948F04A0E05C
:100DC200B2E00C948F040E948F04E881A5E0EA9FB0
:100DD200F001E652FF4F0895E491F0E0F360DF0185
:100DE2000895E881F0E031970E943809E856FF4FF4
:100DF2000895E491F0E0F160DF010C948F04E49136
:100E0200F0E0F260DF010C948F040E948F04E9CFBE
:100E12003296E491F0E0F66008953196E491F0E0C4
:100E2200F7600895E881F0E03197A3E0B0E00E9416
:100E32004409E853FF4F08950E948F04E981F0E0CE
:100E42003197A3E0B0E00E944409E853FF4F0895B0
:100E52003296A491B0E0E5E00E942F090895319600
:100E6200A491B0E0E5E00E942F090895A491B0E0BA
:100E7200E5E00E942F090895E981F0E03197A3E0AF
:100E8200B0E00E944409E853FF4F08950E948F0486
:100E9200C9CFBF01EA81F0E03197A3E0B0E00E9440
:100EA2004409E853FF4F0895E62BF72BDF010C941A
:100EB2008F04EA81F0E03197A3E0B0E00E94440998
:100EC200E853FF4F0895E62BF72BDF01B5CFBF01A3
:100ED200EB81F0E03197A3E0B0E00E944409E853CF
:100EE200FF4F0895A0910209B09103090895EFEC14
:100EF200E0939500ECE2E09394000895E0910009FC
:100F0200F0910109A4E7B3E0EE0FFF1FEA0FFB1F08
:100F12000895E6B5F0E0DF010E94BB060E94C50617
:100F2200DF01E6E0F0E00E948209EF5FE0930F0943
:100F32000895E6B5F0E0DF010E94BB060E94C506F7
:100F4200DF01E6E0F0E00E948209EF5FE093100922
:100F520008950E94C506DF01E6E0F0E00E948209E2
:100F6200EF5F0895E6B5F0E0DF010E94BB06F1CF26
:100F7200E0910F09EA93E0911009EA930895E09352
:100F82001309F093140960931509709316090895D3
:100F9200109639F08AEF90E00197F1F7A895119732
:100FA200C9F70895552342F4503811F4E0FF04C004
:100FB2003196691F791F6BF050E8572711F45F9340
:100FC200CAC05F3F31F0660F000C57956795752FC9
:100FD20008955F9300200AF0CAC0C3C050E8192EDA
:100FE2001522880F991F9527550F879550E8072ED0
:100FF2000522660F771F7527550F67950895689428
:1010020001C0E8945F93F2DF703818F07F3F08F474
:10101200A2C056E1571BAAF4519558300EF459302C
:1010220030F0EFEFFFEF6FEF7FE777F91AC0772726
:101032005523B9F0EE0FFF1F661F771F5A95D1F7A0
:1010420010C07727583028F0EF2FF62F672F58500F
:10105200F9CF552331F076956795F795E7955A952F
:10106200D1F700200AF4F2D05F910895689401C08C
:10107200E894309760407040B1F0002426F0772366
:1010820012F40094E3D0172E7EE1112032F07A950B
:10109200EE0FFF1F661F111CF9CFEF2FF62F612DE8
:1010A2005F938ADF5F9108954F93AF01FD01DA01EB
:1010B200AB01BC01CA01402D012C142E4F910895A1
:1010C200EA0FFB1F681F0895E095F0956095EF5FAA
:1010D200FF4F6F4F08955F9381DF903849F150E8D9
:1010E2001526703821F1572F591B2BF112F4DCDF32
:1010F200FACF583118F0AA27BB278827583028F092
:10110200AB2FB82F88275850F9CF552329F0869551
:10111200B795A7955A95D9F7502D512572F0D0DF82
:1011220038F46795F795E795739513F420C0BCDF03
:1011320043DF5F910895D8F7FBCFEA1BFB0B680BE7
:1011420051F010F40094C0DF662392F3EE0FFF1FFC
:10115200661F7A95CBF7EE27FF27662777275F91E1
:101162000895EFEFFFEF6FE77FEF5F910895EFEFE5
:10117200FFEF6FE77FE75F9108955F932FDF70388E
:1011820021F411200AF4EDCFF2CF903809F4E3CF25
:1011920001240894970B1BF4D4F30020F3CF792F8A
:1011A2001F932F933F934F93112411272227332705
:1011B2004427552790E2AE17BF078607410730F054
:1011C200AE1BBF0B860B410B089401C08894551FC0
:1011D200221F331F111CAA1FBB1F881F441F9A9571
:1011E20051F7F901612D4F913F912F911F91662384
:1011F20032F0550FEE1FFF1F661F7A9543F2D2DEC3
:101202005F91089599239AF0772342F0971748F057
:1012120029F4AE17BF07860720F031F0989488941E
:1012220008959894089408951894889408957723BB
:10123200C2F7971798F3A9F7EA17FB07680788F32D
:1012420099F3ECCFF195E195F0400895F095609512
:101252007095E195FF4F6F4F7F4F0895EE230E2E4D
:10126200FD0121F0EE0FFF1F0A94E1F70895EE0F42
:10127200FF1FEE0FFF1FEE0FFF1F08956F2F660F68
:10128200660B762F0895FA9FF02DEB9FF00DEA9FE3
:10129200E02DF10D08957A9F702D6B9F700DF89FD0
:1012A200700DE99F700D6A9F602D710DFB9F600D9F
:1012B200711DE89F600D711D8827FA9FF02D610D49
:1012C200781FEB9FF00D611D781FEA9FE02DF10D55
:1012D200681F781F08950024112490E1AA0FBB1FF4
:1012E200001C111C0E1A1F0A18F40E0E1F1E01C03C
:1012F200A1609A9599F7FD01D0010895ECDFFD01F7
:101302000895E894B7FF04C0A095B095119668942B
:10131200F7FD98DFE0DFFD010EF494DF08950590FC
:10132200F491E02D0895A591B49108959A938A932A
:10133200BA93AA930895182E862F612D192E972FEE
:10134200712D1B2EBF2FF12D1A2EAE2FE12D0895D8
:00000001FF
