:060000000C94EA000C94D0
:1000060000000C9400000C9400000C9400000C946A
:1000160000000C9400000C9400000C9400000C945A
:1000260000000C9400000C9400000C9400000C944A
:1000360000000C9400000C9400000C9400000C943A
:1000460045020C9400000C9400000C9400000C94E3
:1000560000000C9400000C9400000C9400000C941A
:1000660000000C9400000C9400000C9400000C940A
:1000760000000C9400000C9400000C9400000C94FA
:1000860000000C9400000C9400000C9400000C94EA
:10009600000020222A2B2C5B3D5D7C7F00000004A3
:1000A600000200018000400020001000080004004B
:1000B6000200000000800040002000100008004000
:1000C600002000100008000400021027E803640066
:1000D6000A000100001000011000010003030302E2
:1000E600020C000800010006303A6D7565737472E3
:1000F600612E7478740005004172636869766F201A
:100106004E4F20456E636F6E747261646F00447269
:10011600697665204E4F2044657465637461646F2B
:1001260000253032693A253032693A253032692065
:1001360056313A2025692E256900253032693A253F
:100146003032693A253032692056323A2025692EF6
:1001560025690046656368613A253032692F253086
:1001660032692F253032692056313A25692E2569A4
:100176002C2056323A25692E25690000010004001C
:10018600EBFE904D53444F53352E30004E4F204ECC
:10019600414D452020202046415433322020200066
:1001A6004E4F204E414D45202020204641542020D0
:1001B600202020000D001509EE0001004309FC0077
:1001C6000100180E820101001C0E84010000F89443
:1001D600EE27EFBBF1E0F5BFE5BF8DE0A2E0BB2760
:1001E600ED938A95E9F780E090E2A0E0B1E0ED9327
:1001F6000197E9F7EAEBF1E085919591009761F0B7
:10020600A591B59105901590BF01F00105900D924D
:100216000197E1F7FB01F0CF8BBFE0E0EEBBEFEF1C
:10022600EDBFE0E2EEBFC0E0D9E00C9417032C97D7
:100236008CE0A0E0B0E0E2EEF0E00E945C230A93DE
:10024600849A859A809A819A829A839AA2E3B0E0E8
:100256000E949B2000E00C3068F40E94371BE02FC0
:10026600F0E0DE011196AE0FBF1FAC910E943B1B62
:100276000F5FF1CFECE0E0930009A091000921D0D7
:1002860008812D9608958C9A8C980895AA93E881F2
:10029600E87011F08B9A01C08B98E881E47011F038
:1002A6008A9A01C08A98E881E27011F0899A01C0A1
:1002B6008998E881E17011F0889A01C088980C94B9
:1002C600C606AA930A938D980E94371B0E943F1B6D
:1002D6000E94461BD8DF08810C942504AA930A9332
:1002E6008D9A0E94371B0E943F1B0E94461BCBDF44
:1002F60008810C942504BA93AA930A9300E0E02F90
:100306000F5FA981BA81F0E0EA0FFB1FA491E6DF37
:10031600E02FA981BA81F0E0EA0FFB1FE491E030FB
:1003260071F708810C948C04BA93AA930A9300E09F
:10033600E02F0F5FA981BA81F0E0AE0FBF1FAC912D
:10034600CDDFA981BA81EE27A00FBE1FEC91E03068
:1003560079F708810C948C04AA93E881F0E0309731
:1003660019F4A981A05814C0E130A0E0FA0719F4E5
:10037600A981A0540DC0E230A0E0FA0719F4A981C2
:10038600AC5606C0E330A0E0FA0719F4A981AC52D6
:1003960098DF0C942504AA93E881E06CE0937C0036
:1003A60087E08A95F1F7E0917A00E064E0937A00BD
:1003B600E0917A00E071E1F3E0917A00E061E09388
:1003C6007A00E0917800F09179000C94C606A6E0D8
:1003D6000E944D1BE0930509F093060960930709F7
:1003E60070930809A7E00E944D1BE0930909F0935A
:1003F6000A0960930B0970930C09E0910509F091C5
:10040600060960910709709108090E94D420E093BB
:100416000D09F0930E090E94621B0E948A220E9417
:100426000B21A0910509B0910609809107099091C9
:1004360008090E94671BE0930F09F0931009E091E9
:100446000909F0910A0960910B0970910C090E9443
:10045600D420E0931109F09312090E94741B0E94A4
:100466008A220E940B21A0910909B0910A09809164
:100476000B0990910C090E94671BE0931309F093F6
:10048600140908950A921A92FA926A937A938A93B1
:100496009A93AA93BA93EA93FA93EFB7EA930E94D0
:1004A6003809E991EFBFF991E991B991A99199912B
:1004B600899179916991F990199009901895BA9353
:1004C600AA93E0E0EA93AEEAB9E00E94A112E093B3
:1004D600AD09E03009F051C00E94791B0E947E1BD5
:1004E600A3E10E94CE12E093AD09E03009F041C0CD
:1004F6000E94791BE9E4F9E0FA93EA93E3E6F0E077
:10050600FA93EA93A5E4B9E00E9407140E94791BC6
:10051600A091EA0BB091EB0B8091EC0B9091ED0B57
:100526000E949A170E94791BE9E4F9E0FA93EA938C
:10053600E2E0F0E0FA93EA93A5E4B9E00E946815D8
:10054600E0E2F0E0E093000EF093010E0E94791BCA
:10055600EA81FB81FA93EA93E0E2F0E0FA93EA9308
:10056600A7E4B9E00E946815A0EEBBE00E948917D7
:1005760003C0AEEFB0E0BFDE03C0A4E1B1E0BBDE76
:10058600E0E0EA93A0E0B0E00E94A112249608956C
:10059600E2E0FEE0FA93EA93E3E0FEE0FA93EA9300
:1005A600A4E0BEE00E944504E5E0FEE0FA93EA938B
:1005B600E6E0FEE0FA93EA93A7E0BEE00E9460045C
:1005C6000895E8E0FEE0FA93EA93E7E2F1E0FA93B1
:1005D600EA93E091020E0E94831BE091030E0E94B3
:1005E600831BE091040E0E94831B0E94891B0E94BC
:1005F600971BA0E00E949E1BE8E0FEE0FA93EA93B8
:10060600E0E4F1E00E94A41BE091060E0E94831B29
:10061600E091070E0E94831B0E94A91B0E94971B54
:10062600A1E00E949E1B0895E0ECE0937E00E0931B
:100636007C00E1E8E0937A00E0E8E0937B000E942A
:100646001A01E0E0EA93EA93A0E00E942704E9E0B9
:10065600E0938100EEE4E0938900EFE1E093880007
:10066600E2E0E0936F000E941A017894A0E00E94F5
:10067600EA05A8ECB0E00E949B20EFEFE8B90E94E3
:10068600B71B10F00E94C21BA2DE82DF9ADF3099F0
:1006960005C0E091020EEF5F0E94C81B319905C0AC
:1006A600E091030EEF5F0E94D21B329902C00E94B6
:1006B600DE1B339905C0E091050EEF5F0E94EB1B30
:1006C600339905C0E091060EEF5F0E94F51B349941
:1006D60005C0E091070EEF5F0E94011C359911C01D
:1006E600E0914309EB5FE0934309A0914309AD33E1
:1006F60018F0E5E0E09343090E94B71B10F00E9452
:10070600C21BA091040EAC3310F00E94DE1BA09118
:10071600030EAC3318F0E0E00E94D21BA091020E4B
:10072600A83118F0E0E00E94C81BA091050EA03287
:1007360018F0E0E00E94EB1BA091060EAD3018F019
:10074600E0E00E94F51BA091070EAA3118F0E0E048
:100756000E94011CE0914409A091040EEA1721F5BC
:10076600E3E2F9E0FA93EA93E9E5F1E00E94A41BDB
:10077600E091060E0E94831BE091070E0E94831BE8
:100786000E94891B0E94A91B8CE10E94921AA096C6
:10079600E5E1F9E0FA93EA93A3E2B9E090DE0E947C
:1007A600B71B10F00E94C21B6FCFFFCF589883E093
:1007B6008A95F1F70895AA93519A529A509A589A9F
:1007C60083E08A95F1F7A88102D00C94C606AA9315
:1007D600E991A8E0E7955A9808F45A9A00000000B3
:1007E60000000000599A81E08A95F1F7599881E056
:1007F6008A95F1F7AA9571F70895AA93E881E160C1
:10080600AE2F0E94DE035A985298A8E088944A991F
:100816000894E795599A81E08A95F1F7599881E00D
:100826008A95F1F7AA9591F70E94D903ACC2AA93CB
:10083600E981EE7FAE2F0E94DE03A8810E94EA03C3
:100846000E94D90322960895AA93E881E370E8836B
:10085600EA81E03019F0E881E06AE883A981A130F5
:1008660019F4E881E46007C0A981A23019F4E8818F
:10087600E86001C0E0E0E8830E940D1CE0E9EA932D
:10088600A98142C0BA93AA93A5E80E94121CAC8122
:10089600BD81EC93A3E80E94121CAA81BB81EC9354
:1008A600A1E81AC0AA930E940D1CE4E80E94171C36
:1008B600E2E80E941E1CE0E822C0BA93AA93A7E8C9
:1008C6000E94121CAC81BD81EC93A9E80E94121C07
:1008D600AA81BB81EC93ADE890DFAE2F0E94CC1AC3
:1008E600A881B981EC9326960895AA930E940D1CBF
:1008F600E6E80E94171CE8E80E941E1CECE8EA9352
:10090600A9810E94D91AAE2F92DFEEE8EA93A0E8F9
:100916008EDF23960895AA930E94502330E01C810F
:10092600AD81BE812D91AD83BE8308E0330FE32FE9
:10093600E227E07811F0E9E03E27220F0150B1F7F7
:10094600115071F7E32FEE0FE1600E94572342C565
:100956000A93E2E3E0931A0EEFEFEEBDEDB5E7FF83
:10096600FDCFEFEFEEBDEDB5E7FFFDCF0EB50F3FC7
:1009760021F0E0911A0EE03009F401C0F2CFE02F29
:10098600A8C4289AEFEFEEBDEDB5E7FFFDCF0895B9
:10099600BA93AA930E945123E4E1E093190EEFEF74
:1009A600EEBDEDB5E7FFFDCF0EB50F3F21F4E091AB
:1009B600190EE03009F401C0F2CF0E3F21F0E0E05D
:1009C6000E94582307C51D812E81EFEFEEBDEDB5C0
:1009D600E7FFFDCF2F931F931F5F2F4FEEB5AF910C
:1009E600BF91EC93EFEFEEBDEDB5E7FFFDCF2F9393
:1009F6001F931F5F2F4FEEB5AF91BF91EC93EFEFB3
:100A0600EEBDEDB5E7FFFDCF2F931F931F5F2F4F71
:100A1600EEB5AF91BF91EC93EFEFEEBDEDB5E7FF0D
:100A2600FDCF2F931F931F5F2F4FEEB5AF91BF9151
:100A3600EC93EB81FC813497EB83FC8331F6EFEF8B
:100A4600EEBDEDB5E7FFFDCFEFEFEEBDEDB5E7FF90
:100A5600FDCFE1E00E945823BDC4AA930E94502313
:100A660077DFEF3F21F0E0E00E945723B3C4EC812B
:100A7600EEBDEDB5E7FFFDCFAC81AD3F69F110E00E
:100A86002D813E81D9012F5F3F4FEC91EEBDEDB533
:100A9600E7FFFDCFD9012F5F3F4FEC91EEBDEDB5DE
:100AA600E7FFFDCF115071F7EFEFEEBDEDB5E7FFB4
:100AB600FDCFEFEFEEBDEDB5E7FFFDCFEFEFEEBDFE
:100AC600EDB5E7FFFDCF0EB5E02FEF71E53021F074
:100AD600E0E00E9457237EC4E1E00E9457237AC4D7
:100AE6000E9428231A930A93EE81E07881F0EE8122
:100AF600EF77EE83E7E7EA93A0E0B0E080E090E0EE
:100B0600EFDF1E2F123018F01981088163C4AE8101
:100B1600AC3449F036DF28981BDFEF3F21F0EFEFCA
:100B26001981088157C4EE81EEBDEDB5E7FFFDCF13
:100B3600ED81EEBDEDB5E7FFFDCFEC81EEBDEDB588
:100B4600E7FFFDCFEB81EEBDEDB5E7FFFDCFEA8117
:100B5600EEBDEDB5E7FFFDCF01E0AE81A03411F4A7
:100B660005E904C0AE81A83409F407E80EBDEDB569
:100B7600E7FFFDCFAE81AC3429F4EFEFEEBDEDB566
:100B8600E7FFFDCF0FEFEFEFEEBDEDB5E7FFFDCFD2
:100B96001EB517FF02C0015009F401C0F4CFE12FC2
:100BA6001981088117C4BA93AA930A9304E0EFEF58
:100BB600EEBDEDB5E7FFFDCFA981BA811196A983F8
:100BC600BA831197EEB5EC93015089F7E6C4AA9360
:100BD60024970E945123EF81E03021F0E1E00E944A
:100BE6005823ACC124982598EAE0E093190EE091C9
:100BF600190EE030E1F7E091180EE27029F0E0916D
:100C0600180E0E9458239AC1209A289AE5B1E97FC6
:100C1600E5B92B9A2398E4B1E760E4B9E1E5ECBDC8
:100C2600E0E0EDBD2FEF0AE0EFEFEEBDEDB5E7FF3B
:100C3600FDCF0150C9F7E0E4EA93A0E0B0E080E020
:100C460090E04EDF1E2F2150113011F0203009F4B4
:100C560001C0E9CF20E0113009F068C0E4E6E09376
:100C6600190EE8E4EA93AAEAB1E080E090E038DF02
:100C7600E13091F5DE01139696DFAD81A13019F4CE
:100C8600AE81AA3A09F027C0E091190EE03049F08A
:100C9600E9EEEA93A0E0B0E080E090E421DFE03006
:100CA60009F401C0F1CFE091190EE03049F0EAE70E
:100CB600EA93A0E0B0E080E090E012DFE03009F0D7
:100CC6000AC0DE0113966FDFEB81E07411F0ECE0F1
:100CD60001C0E4E02E2F2AC0E9EEEA93A0E0B0E0DE
:100CE60080E090E0FDDEE23018F422E019EE02C06A
:100CF60021E011E4E091190EE03041F01A93A0E0F2
:100D0600B0E080E090E0ECDEE03009F401C0F2CF24
:100D1600E091190EE03049F0E0E5EA93A0E0B2E098
:100D260080E090E0DDDEE03009F020E020931B0E4D
:100D360028DE203051F0E091180EEE7FE093180E79
:100D4600E0E5ECBDE1E0EDBD11C0289801DE19DE5D
:100D5600E0E0ECBDE4B1E07FE4B9E5B1E07FE5B900
:100D66002098E091180EE160E093180EE091180EBD
:100D76000E945823E3C0AA93E881E03011F0E1E035
:100D860002C0E091180E21960895AA93EF81E030F3
:100D960019F4E881E03011F4E4E0D0C0E091180ED7
:100DA600E17011F0E3E0CAC0E0911B0EE87071F447
:100DB600E981FA816B817C81A0E0B2E080E090E07D
:100DC6000E949422E983FA836B837C83A881A130F5
:100DD600A9F4E1E5EA93AA81BB818C819D8180DE3D
:100DE600E03059F4ED81FE81FA93EA93A0E0B2E097
:100DF600CFDDE03011F0E0E0E88323C0E2E5EA93DE
:100E0600AA81BB818C819D816BDEE030D1F4ED81BE
:100E1600FE81FA93EA93A0E0B2E0BADDE03051F049
:100E2600ED81FE81E050FE4FED83FE83E881E150C7
:100E3600E88369F7ECE4EA93A0E0B0E080E090E0B4
:100E46004FDE9FDDE881E03011F0E1E001C0E0E037
:100E560075C0AA93EF81E03019F4E881E03011F40F
:100E6600E4E06CC0E091180EE17011F0E3E066C0BA
:100E7600E091180EE47011F0E2E060C0E0911B0E04
:100E8600E87071F4E981FA816B817C81A0E0B2E0BF
:100E960080E090E00E949422E983FA836B837C834E
:100EA600A881A130A1F4E8E5EA93AA81BB818C81EF
:100EB6009D8116DEE03051F4ED81FE81FA93EA93CE
:100EC600AEEFCBDDE03011F0E0E0E88330C0E0913A
:100ED6001B0EE67039F0E7EDEA93A981BB27882758
:100EE6009927FEDDE9E5EA93AA81BB818C819D8184
:100EF600F7DDE030E1F4ED81FE81FA93EA93ACEFA1
:100F0600ACDDE03051F0ED81FE81E050FE4FED8327
:100F1600FE83E881E150E88371F7E0E0F0E0FA93C0
:100F2600EA93ADEF9ADDE03011F4E1E0E88329DDE4
:100F3600E881E03011F0E1E001C0E0E02896089594
:100F4600BA93AA9360970E945023EF89E03011F07C
:100F5600E4E087C1E091180EE17011F0E3E081C191
:100F660001E0EE89E03031F42898F2DCEF3F09F435
:100F760000E075C1E13009F05FC0E9E4EA93A0E062
:100F8600B0E080E090E0ACDDE03049F4FE0134965C
:100F9600FA93EA93A0E1B0E0FBDCE03009F44BC041
:100FA600EC81E295EF70E695E695E13079F4E0E0C4
:100FB600FC85AD85B0E0EA0FFB1F31961E2F2F2F63
:100FC600A12FB22F88279927EAE02EC0E985EF7076
:100FD600AE2FEE85E078EE1FE0E0EE1FAE0FED855A
:100FE600E370EE0FEA0FEE5F3E2FEC85E295EF70B1
:100FF600E695E695AE2FEB85F0E00E946D22B0E017
:10100600AE0FBF1FEA85E370F0E00E946D22FE2F4F
:10101600E0E0EA0FFB1F31961E2F2F2FA12FB22FD4
:1010260088279927E32FE9500E945122AC89BD8970
:101036000E94012300E013C1E23041F4AC89BD896E
:10104600E0E0F2E0ED93FC9300E009C1E33009F043
:10105600ABC0E0911B0EE47081F1EDECEA93A0E0E9
:10106600B0E080E090E03CDDE03031F5EFEFEEBD42
:10107600EDB5E7FFFDCFFE013496FA93EA93A0E1C2
:10108600B0E086DCE030C1F030E3303039F0EFEF2D
:10109600EEBDEDB5E7FFFDCF3150F7CFEE85E2951A
:1010A600EF70A0E1B0E080E090E00E945122AC89B0
:1010B600BD890E94012300E076C0E9E4EA93A0E03E
:1010C600B0E080E090E00CDDE03009F06CC0FE019D
:1010D6003496FA93EA93A0E1B0E05ADCE03009F4E2
:1010E60062C0E0911B0EE27051F1EE85EF73FF27AF
:1010F600662777270E947B227F936F93FF93EF9358
:10110600EF85E078FF2766277727DF01CB01E7E049
:101116000E945D22AF91BF918F919F910E942722DD
:10112600EF5FFF4F6F4F7F4FDF01CB01E989E295FC
:10113600EF70E695E695E1500E9451222FC0EE85AC
:10114600EC77E695E695FF2766277727EF5FFF4F53
:101156006F4F7F4F7F936F93FF93EF93EF85E3700E
:10116600FF2766277727DF01CB01E3E00E945122A4
:10117600DF01CB01EF85E07EE295EF70E695FF2774
:10118600662777270E942722EF5FFF4F6F4F7F4F1B
:10119600AF91BF918F919F910E949422AC89BD8996
:1011A6000E94012300E05BC0EA3039F4E0911B0E97
:1011B600AC89BD89EC9300E052C0EB3011F439E400
:1011C60003C0EC3001F53AE43A93A0E0B0E080E0E9
:1011D60090E086DCE030B1F4EC89FD89FA93EA937D
:1011E600A0E1B0E0D5DBE03069F0EC89FD89FA9347
:1011F600EA93AFE090DBAE2FEC89FD89E785EA172D
:1012060009F400E02CC0ED3071F4EAE7EA93A0E0BF
:10121600B0E080E090E064DCE03021F4AC89BD8988
:10122600C2DC00E01CC0EE30C9F4EDECEA93A0E0AD
:10123600B0E080E090E054DCE03079F4EFEFEEBD12
:10124600EDB5E7FFFDCFEC89FD89FA93EA93A0E4BB
:10125600B0E09EDBE03009F000E001C004E091DB85
:10126600E02F0E945723689608950A930091190E5D
:10127600003019F001500093190E00911A0E00303B
:1012860019F0015000931A0E00911C0EE0E0E09355
:101296001C0E1C9903C0E1E0E0931C0E1D9B05C0CB
:1012A600E0911C0EE260E0931C0EE0911C0EE0172C
:1012B60081F40091180EE17011F00D7F01C00360FA
:1012C600E0911C0EE27011F0046001C00B7F0093E8
:1012D600180E099108952797A0910109B091020966
:1012E600109731F0A0910309B0910409109729F4E1
:1012F600E0E0F0E061E27AE36DC0FE013696FA9333
:10130600EA93FE013796FA93EA93DE011896E09186
:101316000109F09102090995FE013396FA93EA93C1
:10132600FE013496FA93EA93DE011496E0910309DE
:10133600F09104090995E881F981EC5BF74066278D
:101346007727DF01CB01E9E10E9451227F936F935A
:10135600FF93EF93EA810E94251CE5E10E9451224A
:10136600AF91BF918F919F910E944022DF01CB01E7
:10137600EB81F0E00E948A220E9485220E94402290
:101386007F936F93FF93EF93EE810E94251CEBE012
:101396000E945122AF91BF918F919F910E9440224E
:1013A6007F936F93FF93EF93ED810E94251CE5E0F9
:1013B6000E945122AF91BF918F919F910E9440222E
:1013C600DF01CB01EC81F0E0F595E7950E948A22DA
:1013D6000E94402227960895AA930A93EA81FB81E8
:1013E600E4910E2FE03019F0E981E01709F406C008
:1013F600EA81FB813196EA83FB83F0CFE02FF0E0B0
:101406000881249608950E94282324970A93A98583
:10141600BA859E960E942B1C0E94321C0E94371C85
:101426000E94442309F450C0E985FA85E481E0303E
:1014360099F10E943C1CE03011F0E1E01BC2A98545
:10144600BA851496E0E0EC93E985FA850E944E1C75
:101456000D01A985BA855A960E94F622D0010E94EE
:1014660027220E94371C0E944923B0F4E985FA8599
:101476000381023088F0A985BA855A960E94F62221
:101486000E94371C0E942722E983FA836B837C83A0
:101496000E943C1C0150EDCF0E94321C0E943A2350
:1014A60099F0E985FA85A181AA93EA85FB85F296EA
:1014B6000E94531C11F0E1E0DDC10E94321CA98597
:1014C600BA859E960E940123E0E0D4C1BA93AA93FE
:1014D6000A93E981FA810E94601C0E2F003009F000
:1014E6005BC0A981BA81AC91A33029F4E981FA8164
:1014F600E581E03009F444C0A981BA810E94681CE4
:10150600E981FA810E94701CE981FA81F296E25023
:10151600FE4FA5E5BAEAA083B183E981FA81F29686
:10152600A2E5B2E581E691E40E94791CEC51FE4FFA
:10153600A2E7B2E781E491E60E94791CE851FE4FEA
:101546000F01A981BA811E960E947F1CF296E45172
:10155600FE4F0F01A981BA811A960E947F1CA181B4
:10156600AA93EA81FB81F296FA93EA93EC81FD81D4
:101576000E94871C6EDCA981BA811596E0E0EC9387
:10158600E981FA81A181AA93E0E0EA93A0E0B0E0C4
:10159600D7DCE03009F001E0E02F088123960895BA
:1015A6000E94282324970E9450230E948F1C0E9489
:1015B600941C50F0AC85BD855E960E94F6220E9472
:1015C6008F1C0E94492318F00E949C1C60C0AC85A9
:1015D600BD8592960E94A11CAC85BD85EC91F0E07C
:1015E600E130A0E0FA0739F528853985F901F69545
:1015F600E7952E0F3F1F0E94A81C09F046C00E94C7
:10160600BD1C0C9111272F5F3F4F0E94A81CE9F5C6
:101616000E94BD1CEC91FE2FE0E00E2B1F2BE885EF
:10162600E17021F0F8010E94722202C0F801FF70F9
:10163600662777272CC0E230A0E0FA0779F40E94EB
:10164600C51C0E94CE1C0E94D51CF9F4A885B9853C
:10165600E2E00E94DF1C0E94E81C19C0E330A0E013
:10166600FA0799F40E94C51C0E94ED1C0E94D51C25
:1016760061F4A885B985E4E00E94DF1C0E94F62289
:10168600EF7FFF7F6F7F7F7002C00E94F41C0E9475
:1016960057232E9608950E94282324970E944F23AD
:1016A6000E94F91C0E94941C30F0A989BA895E96A2
:1016B6000E94FE1C10F042E083C0A989BA89929666
:1016C6000E94F6220E94041DA989BA89EC91F0E0D5
:1016D600E130A0E0FA0709F043C00D851E85F80148
:1016E600F695E7950E0F1F1F0E94091D09F063C0AE
:1016F6000E941F1D51F0D901EC91EF70AE2FE985C4
:10170600F0E00E946922EA2B01C0E985D901EC9339
:101716000F5F1F4FA989BA891496E1E0EC930E94E6
:10172600091D09F048C00E941F1D49F00E942A1D8C
:10173600E4E00E945D22FF27662777270EC0D901C5
:10174600EC91E07F1E2E0E942A1DE8E00E945D2299
:10175600FF2766277727EF70E129D901EC932BC085
:10176600E230A0E0FA0789F40E942F1D0E94CE1CE9
:101776000E94381D01F5AD85BE85E2E00E94431D3D
:10178600A985BA85A083B18316C0E330A0E0FA0725
:1017960089F40E942F1D0E94ED1C0E94381D59F4E9
:1017A600AD85BE85E4E00E94431D0E942A1D0E946D
:1017B6001E2301C042E0A989BA891496E1E0EC93A0
:1017C600E42F0E945623639608950E9428232497A7
:1017D6000A930E944C1D0E94941C18F00E94511DF1
:1017E60010F002E046C000E00E94511D08F041C022
:1017F600E985FA85FA93EA93AF81B88589859A8552
:10180600CFDEE983FA836B837C830E945A1D0E9494
:101816003A2379F10E94371C0E945F1D11F402E001
:1018260028C00E94371C0E94671D11F401E021C0E8
:10183600E985FA85FA93EA930E946F1D0E94232395
:101846000E94741D28DF0E2F003099F4E985FA8571
:101856000E94791D49F0A985BA850E947E1DA98539
:10186600BA851596E1E0EC930E945A1D0E94041D6C
:10187600BBCFE02F08812B9608950E9428236097FE
:10188600AC89BD895E960E94F6220E94881D0E9440
:101896008B1D0E943A23B1F4AC89BD891A960E9429
:1018A600A11C0E94901D0E943E2339F00E94951DA6
:1018B6000E94901D0E94492320F00E949C1C0E94B9
:1018C600981D1EC00E949D1DAA89BB898C899D8971
:1018D6000E94A21D0E94A91D0E94941C18F40E9439
:1018E6009C1C90C00E94951D0E94A91D0E94492320
:1018F60018F40E94AE1D86C00E948B1D0E94981D82
:101906000E94B31D0E94B81D0E94BD1DEF5FFF4FD0
:101916006F4F7F4F0E94B81D0E94951D0E948F1C1D
:101926000E94492360F0E2E0F0E060E070E00E948F
:10193600B81D0E94C21D18F40E94C71D63C00E94F4
:101946009D1DAA85BB858C859D850E94A21D0E9432
:10195600AE1D0E943A23A1F00E94A91D0E94671D98
:1019660029F00E94A91D0E945F1D19F40E94AE1D58
:1019760049C00E94C21D19F40E94C71D43C0C4CFAE
:101986000E949D1D0E94CC1DAFEFBFEF8FEF9FE021
:1019960082DEE03019F00E94F41C34C00E948B1DD8
:1019A6000E943A2391F00E949D1DEA89FB896C8969
:1019B6007D890E942323AE85BF85888999896BDE40
:1019C600E03019F00E94F41C1DC00E94BD1DAC89B8
:1019D600BD891A960E940123EC89FD890E94791D12
:1019E60079F0AC89BD891E960E94FC223197604031
:1019F60070400E940623AC89BD891596E1E0EC9300
:101A06000E94BD1D669608950E9428230E94951D7A
:101A1600E250F040604070400E94881DEC81FD81DC
:101A2600A68DB78D80A191A1E2E0F0E060E070E0C4
:101A36000E94D31D0E9414230E94492318F00E947D
:101A4600C71D6CC3EC81FD81E281F0E00E94142386
:101A56000E948A220E9494227F936F93FF93EF93B2
:101A6600AC81BD819A960E94F622AF91BF918F916B
:101A76009F910E94272252C3BA93AA9324971A933E
:101A86000A93EE81FF810E94D81D16960E94E01DE2
:101A96000E94E71D0E945F1D29F00E94EC1D0E9416
:101AA600F11D20F0E2E0198108815FC10E94F91D55
:101AB60029F40E94EC1DA081A33009F006C00E9403
:101AC600EC1DB696DF010E94E01D0E94F91DB1F4DF
:101AD6000E94001E3896DF010E94F222AE81BF816D
:101AE600AE17BF0720F0E2E0198108813EC10E94CF
:101AF600EC1DB696DF010E94F6223BC00E94EC1D4B
:101B0600E281A0E1EA9F8001AE81BF81A017B10703
:101B160048F10E94EC1DFA93EA930E94901D40DD65
:101B2600EA83FB836C837D830E94E71D0E94671D09
:101B360021F4E1E01981088118C10E94E71D0E9485
:101B4600941C28F00E94EC1D0E94F11D20F0E2E09A
:101B5600198108810AC1EE81FF81E01BF10BEE833A
:101B6600FF83D2CF0E94001EFA93EA930E94901D33
:101B76004BDFDF01CB01EE81FF810E9472220E94C2
:101B86000A1E0E940F1E0E94EC1DF296DF01EE81D6
:101B9600FF810E94151E19810881E7C0AA93249728
:101BA6000E945123A885B98514960E94F222319687
:101BB6008F01002E012A31F0A885B9851E960E9454
:101BC600231E11F4E4E0CFC0F801EF7009F0C1C0A4
:101BD600A885B9850E947E1DA885B9851A960E949A
:101BE600231E61F40E94EC1D3896DF010E94F2224A
:101BF6000E171F0710F0E4E0B6C0ABC0F8010E9454
:101C060072220F010E94EC1DE281F0E03197E02183
:101C1600F121309709F09DC00E94EC1D0E94281EFC
:101C2600BFDC0E94311E0E94361E0E94941C10F4D6
:101C3600E2E099C00E94361E0E94671D11F4E1E0A1
:101C460092C00E94EC1D7E96DF010E94F6220E9441
:101C5600361E0E94492308F46DC0EF81E03011F46E
:101C6600E4E081C00E94EC1D0E94281E06DE0E9450
:101C76003B1E0E943A2311F4E7E075C00E94361E0F
:101C86000E945F1D11F4E2E06EC00E94361E0E94A3
:101C9600671D11F4E1E067C00E94EC1D0E94601C04
:101CA600E03011F0E1E05FC00E94EC1D0E94701C64
:101CB6000E94EC1DDF01BE96FF93EF93FD010E948B
:101CC600411EAF91BF910E94012320E00E94EC1DAE
:101CD600E2812E17D8F40E94EC1D3496A1E0A08371
:101CE6000E94EC1D0E94601CE03011F0E1E03BC058
:101CF6000E94EC1DBE96DF010E94FC22EF5FFF4FA3
:101D06006F4F7F4F0E9406232F5FE0CF0E94EC1D8E
:101D1600BE96FF93EF93DF010E94F622DF01CB010F
:101D2600E22FF0E00E948A220E94D31DAF91BF915C
:101D36000E940123EB81FC816D817E81A885B98596
:101D46001A960E9401230E94EC1D0E94411E0E94C9
:101D56000F1EF8010E94D81D0E94F222F296DF01A2
:101D6600F8010E94151E0E9458232A9608950E9483
:101D7600461E0E944B1E21F0E02F0E945723CEC123
:101D86000E94521EF1F4AC81BD8152962D913C9178
:101D9600D9011C91103011F404E013C0F901E38558
:101DA600E87031F40E94631E0E94E31AE03009F0E5
:101DB60001C007C00E947E1BA0E0F0DE0E2F00309F
:101DC600F9F2E02F0E945723A9C10E94461E0E94E5
:101DD6004B1EA1F40E94521E89F4EC81FD81A2895A
:101DE600B3891C91153E11F0103009F407C00E940A
:101DF6007E1BA1E0D3DE0E2F003061F3003029F503
:101E06000E94521E11F5AC81BD8152962D913C91D6
:101E16003A932A93E0E0EA93A0E2B0E00E940E1B18
:101E26000E94631E0E94FC1AAC81BD8154960E94DA
:101E3600F222E385E871D9011C96EC93AC81BD8151
:101E46000E94F2223496A1E0A083E02F0E9457233D
:101E560065C1BA93AA9325970E944E23AD85BE8588
:101E660054963D914C914A933A93E0E2EA93ABE063
:101E7600B0E00E940E1BE0E0E887E9870E2F5E2F98
:101E8600E8E0EA87AB85BC850E946E1E0E94731E41
:101E9600AE0FBF1FAC91AE3211F50E94781E1E32F6
:101EA60021F4A885B98513970CF003C00E94841EFF
:101EB600F4CF1F3221F01C3511F0113208F402C0A4
:101EC600E6E071C00E94731E0E948B1E10F4E4E2CD
:101ED60001C0E0E2A32FB42F1B96EC9363C00E94CF
:101EE600781E113220F01F3211F01C3509F432C071
:101EF6001E3219F0EA855E1768F0AA85A83011F43B
:101F06001E3211F0E6E04FC058E0EBE0EA87000F22
:101F1600000F1FC0103818F00360E6E044C0E8E97F
:101F2600F0E0FA93EA93A12F57DA309711F0E6E042
:101F36003AC0113410F01B3508F002C0026007C029
:101F4600113610F01B3708F002C0016010520E94D3
:101F5600841EC5CF0E94731E0E948B1E10F4E4E0FF
:101F660001C0E0E01E2F503011F4E6E01CC0A32FA4
:101F7600B42FAC91A53E21F4A32FB42FE5E0EC934A
:101F8600AA85A83011F4000F000FE02FE370E130AE
:101F960009F41061E02FEC70E43009F41860E32FC7
:101FA600F42F1387E0E00E9455232F960895BA93E5
:101FB600AA930E945023E1E0E03029F0AC81BD8174
:101FC600AC91A03209F006C0EC81FD813196EC831C
:101FD600FD83F1CFAC81BD81AC91AF3229F0AC81EC
:101FE600BD81AC91AC3559F4EC81FD813196EC8321
:101FF600FD83AE81BF8116960E94931E0AC0AE81F4
:10200600BF810E94F2227696DF010E94F6220E948C
:10201600971EAC81BD81AC91BB27909760F40E945E
:102026009D1EA0E0B0E028DD0E2FAE81BF81529646
:102036000E94A21E3EC00E949D1EDE01169609DF6A
:102046000E2F0030B1F5AE81BF8191DE0E2FAE812D
:10205600BF8154960E94F222E385E4703E2F003041
:1020660039F0043011F4303009F001C005E021C028
:102076003030F9F4AE81BF8152961D912C91E12F3B
:10208600F22FE385E07111F405E013C00E94A71E4C
:102096000E9485227F936F93FF93EF930E94AB1E5E
:1020A600AF91BF918F919F910E94B11E0E94971E82
:1020B600C2CFE02F0E945723289608950E94282316
:1020C600EC81FD81A181AA93ED81FE81F296FA93BE
:1020D600EA93EB81FC816D817E810E94B61E11F030
:1020E600E3E01CC0EC81FD810E94BD1E11F0E2E020
:1020F60015C0AC81BD81A859BF4F0E94C71E11F4FF
:10210600E0E00CC0EC81FD81F296EE5AFF4FDF0154
:102116000E94C71E11F4E0E001C0E1E02696089592
:10212600AA9364970E944F23AC8DBD8D0E94F22224
:10213600EF83F887AF81B885EC91E0533E2F3A30B4
:1021460020F41196AC91AA3309F00AC0EF81F88504
:102156003296EF83F887AC8DBD8DED93FC9302C06C
:102166003091210E313010F0EBE0C2C1E32F0E9416
:10217600D51E0E94F222ED83FE83AA8DBB8DED93C0
:10218600FC93309711F4ECE0B3C1AD81BE81EC91C4
:10219600E03089F0ED81FE81A1810E94BE064E2FBE
:1021A60040FD09C0E98DE03011F042FD01C002C0DA
:1021B600EAE09EC19CC1AD81BE81E0E0EC93E32FD5
:1021C600AD81BE811196EC93ED81FE81A1810E94C5
:1021D600EA054E2F40FF02C0E3E08AC1E98DE030F8
:1021E60011F042FD01C002C0EAE082C10E94DD1E7C
:1021F6000E94C71DEF8BF88F698F7A8FDF01CB01A5
:102206005DDF0E2F0130D9F4ED81FE81F296E254A6
:10221600FE4F1E2F2F2FE481E03089F0A12FB22F21
:1022260018960E94F622ED8BFE8B6F8B788F0E949C
:10223600DD1EAF89B88D898D9A8D40DF0E2F033054
:1022460011F4E1E055C1003049F4AD81BE81DD965F
:102256000E94F222E030A2E0FA0711F0EDE048C158
:10226600AD81BE81A85BBF4F0E94E81C0E94E21EA2
:102276000E94E71E0E943A2341F4AD81BE81AA5A0C
:10228600BF4F0E94F6220E94E21E0E94E71EAD8109
:10229600BE815A960E940123ED81FE81EE5BFF4FBF
:1022A600E081AD81BE811396EC93ED81FE81E381E1
:1022B600F0E00E94EC1E0E948A220E9494220E9454
:1022C600E21E0E94F11E0E94F81EAD81BE8192960A
:1022D6000E940123ED81FE81E7ADAD81BE8112969C
:1022E600EC93AD81BE81AD5BBF4F0E94F222AD8102
:1022F600BE811896ED93FC93AD81BE81AB5BBF4F5B
:102306000E94E81C0E94FD1E0E94021F31F4AD814E
:10231600BE81AE5ABF4F0E94091F0E94F11E0E9445
:10232600F91C662777270E94D31D0E94EC1E0E9487
:1023360031227F936F93FF93EF930E940C1FAF910F
:10234600BF918F919F91662777270E943622ED8154
:10235600FE81E281F0E00E948A220E94CD22EE5F99
:10236600FF4F6F4F7F4FE987FA876B877C87AD8179
:10237600BE815E960E94012301E00E942A1DA73FAE
:10238600EFE0BE07E0E08E07E0E09E0708F002E01F
:102396000E942A1DA73FEFEFBE07E0E08E07E0E0B0
:1023A6009E0708F003E0033039F4AD81BE81A25ADE
:1023B600BF4F0E94F62202C00E94141FAD81BE814B
:1023C60096960E9401230E94141F7F936F93FF939A
:1023D600EF930E940C1FAF91BF918F919F910E9426
:1023E6000A1EAD81BE819A960E940123AD81BE81EF
:1023F6001E960E94F41C0E940123AD81BE81149694
:10240600E0E0EC93033009F05FC0AD81BE81159624
:10241600EC93AD81BE81AE59BF4F0E94F2220E945D
:10242600F81EAD81BE8152960E940123ED81FE8188
:10243600A181AA93EE81FF81F296FA93EA93E88549
:10244600F9850E94871C0E94C806E03011F5ED81CF
:10245600FE810E94BD1EE9F4AD81BE81D2960E9426
:10246600F622E235A2E5FA07A1E66A07A1E47A07B1
:1024760081F4ED81FE81F296EC51FE4FDF010E9460
:10248600F622E237A2E7FA07A1E46A07A1E67A078D
:1024960009F01AC0ED81FE81F296E451FE4FDF018C
:1024A6000E94F622AD81BE811A960E940123ED811B
:1024B600FE81F296E851FE4FDF010E94F622AD81C1
:1024C600BE811E960E940123AD81BE810C930E949F
:1024D600681CAD81BE8156960E94931EAFE1BEE098
:1024E6000E941B1FAD81BE811696ED93FC93E0E022
:1024F6000E9456236E960895BA93AA93EA81FB81A9
:10250600309771F0AA81BB81EC91E03049F0EA8105
:10251600FB81A681B781E881F981EA17FB0711F0F3
:10252600E9E00AC0EA81FB81A1810E94BE06E17052
:1025360011F0E3E001C0E0E024960895BA93AA936F
:102546001A930A93AC81A13010F0EBE020C0EC8125
:102556000E94D51E0D911C91002E012A19F0D8015A
:10256600E0E0EC93EA81FB81309721F0AA81BB8100
:10257600E0E0EC93EC81ADE1BEE0F0E0EE0FFF1F92
:10258600EA0FFB1FAA81BB81A083B183E0E019811A
:10259600088125960895AA93A2970E945123A8A57B
:1025A600B9A50E94A21EEDA1EF71EDA3FE01B6969C
:1025B600FA93EA93FE017196FA93EA93E9A5EE710E
:1025C600AE2FAEDD0E2F003009F01AC1FE01339694
:1025D600EBA3FCA3FE013F96FA93EA93A8A5B9A53F
:1025E600E6DC0E2FEDA1EC7109F49AC028970030B5
:1025F60089F0043021F4DE015796E7DB0E2F003018
:1026060019F0E02F2896FCC0EDA5E860EDA719A506
:102616002AA569C0EDA5E47019F0E8E02896F0C097
:1026260019A52AA5012E022A29F0E12FF22FE3850A
:10263600E17119F0E7E02896E3C0EDA5E87009F42A
:1026460052C00E94A71E0E9485227F936F93FF931C
:10265600EF930E94AB1EAF91BF918F919F910E9405
:10266600B11E0E94881DE12FF22F74960E94211F31
:102676007A960E94211F7C960E94741D0E941E233A
:10268600AF89B88D1496E1E0EC93AF89B88D9E962C
:102696000E94A11C0E94951D0E943A23A9F0EF8971
:1026A600F88DFA93EA930E94E71D8FD80E2F00301B
:1026B60011F02896A5C00E94951D0E94281FAF897B
:1026C600B88D1A960E940123EF89F88DFA93EA9342
:1026D600AE81BF81888599850E94060A0E2F00303B
:1026E60011F028968DC0EDA5E870C1F0E12FF22F0C
:1026F6003B96A0E0A0830E946E090E94981D0E944E
:10270600B31DA12FB22F1E960E940123AF89B88D4B
:102716001496E1E0EC93EDA5E062EDA728961BC0C8
:10272600003011F0E02F6CC019A12AA1012E022A57
:1027360029F0E12FF22FE385E07111F0E4E060C0AB
:10274600EDA1E27029F0E12FF22FE385E17009F4A3
:1027560002C0E7E055C0AF85B8899E960E94F62272
:10276600A8A5B9A55A960E940123E9A1FAA1A8A590
:10277600B9A55E96ED93FC93EDA1A8A5B9A514960F
:10278600EC930E94A71E0E9485227F936F93FF936E
:10279600EF930E94AB1EAF91BF918F919F910E94C4
:1027A600B11EA8A5B9A51E960E940123A12FB22F7E
:1027B6005C960E94F622A8A5B9A51A960E94012346
:1027C600A8A5B9A516960E94931EA8A5B9A5159603
:1027D600EFEFEC93A8A5B9A556960E94931EEF8538
:1027E600F889A8A5B9A5ED93FC93AF85B889169687
:1027F6000E94F222A8A5B9A51296ED93FC93E0E0FB
:102806000E945823AA960895BA93AA932E970E94D7
:102816004F23EF89F88DED83FE83AB89BC890E9437
:10282600A21E0E942D1F0E94321F0E94371F11F008
:10283600E02F47C1E98DFA8DA481A07811F0E2E07E
:1028460040C1E98DFA8DA481A17011F4E7E039C188
:10285600E98DFA8DA285B385848595859F938F939F
:10286600BF93AF930E943E1FEF91FF916F917F91AF
:102876000E9431220E94451FAD89BE89882799276B
:102886000E94442320F4EF81F885ED8BFE8BED89C1
:10289600FE89309709F414C10E943E1F0E944A1F08
:1028A60009F0E0C0E98DFA8D05800E942D1FE281B6
:1028B6000E16B8F10E943E1F0E943E2331F4A98DE8
:1028C600BA8D1E960E94F62208C00E942D1F0E94F5
:1028D600321F0E944F1F0E94D30AEF87F88B698B25
:1028E6007A8B0E94541F0E94941C20F40E94591F48
:1028F600E2E0E7C00E94541F0E94671D21F40E9477
:10290600591FE1E0DEC0EF85F88969897A89A98DCA
:10291600BA8D52960E940123A98DBA8D1596E0E0D4
:10292600EC930E942D1F0E94321F0E944F1F6CD8ED
:102936000E94601F0E94651F0E943A2321F40E9494
:10294600591FE2E0BEC00E946A1F0E946F1F0E94CC
:10295600741F0E94601FAD89BE890E94791F09F409
:102966004CC00E946A1FE30FF41F0F010E942D1F27
:10297600E281D001F0E0EA17FB0758F40E942D1F10
:10298600E281F0E0DF010E946A1FAE1BBF0B3A2F07
:102996004B2F0E942D1FE181EA930E949D1EEE851A
:1029A600FF85688979890E942323A32F0E94C80680
:1029B600E03021F00E94591FE1E083C0E98DFA8DD5
:1029C600A481A07429F00E94821F0E94891F08F02A
:1029D6000FC00E94821F0E94921FAD81BE81882770
:1029E6009927EA0FFB1F0E94321FB0960E949B1F79
:1029F600A98DBA8D0E94A11F4FC0E98DFA8DA481C1
:102A0600A07489F00E942D1F0E94AE1FEC8DFD8DD3
:102A16000E94B61F21F00E94591FE1E052C0A98D05
:102A2600BA8D0E94C11F0E94821F0E94442379F022
:102A36000E942D1F0E94AE1FEE85FF856889798949
:102A46000E94B61E21F00E94591FE1E03AC00E9482
:102A5600651FA98DBA8D56960E940123A98DBA8D40
:102A66000E94C61FA98DBA8D0E94CB1F0E94D01F3F
:102A7600ED89FE89E117F20710F41D892E890E945F
:102A8600DD1EAB8DBC8D0E94CB1FAB8DBC8D909691
:102A9600EA0FFB1F0E94D71F0E94DD1FE98DFA8DEA
:102AA6000E94E61FD0010E940123AB89BC890E94C7
:102AB600F01FED89FE89E11BF20BED8BFE8BE7CE55
:102AC600E0E00E9456236B960895BA93AA932A973C
:102AD6000E944F23EB89FC89ED83FE83AF85B8897D
:102AE6000E94A21E0E94F71F0E94FC1F0E94371F11
:102AF60021F0E02F0E9456239AC3ED89FE89A48116
:102B0600A07821F0E2E00E94562391C30E940120A2
:102B160021F4E7E00E9456238AC3ED89FE89A28547
:102B2600B38584859585E989FA890E940A1E7F9373
:102B36006F93FF93EF930E940620AF91BF918F9101
:102B46009F910E94492318F4E0E0E98BEA8BE9891A
:102B5600FA89309709F43CC10E940C200E944A1F52
:102B660009F002C1ED89FE8905800E94F71FE28106
:102B76000E1608F44AC0AD89BE8916960E94231E19
:102B8600A9F4AD89BE891E960E94F6220E94601F96
:102B96000E94651F0E943A2341F40E94F71F0E947B
:102BA60013200E94601F0E9418200AC00E94F71F6F
:102BB6000E94FC1F0E944F1F0E94400C0E94601F33
:102BC6000E94651F0E943A2309F402C10E946F1FEA
:102BD6000E945F1D31F40E941E20E2E00E945623EF
:102BE60026C30E946F1F0E94671D31F40E941E209B
:102BF600E1E00E9456231BC30E94651F0E94252008
:102C0600AD89BE891596E0E0EC93ED89FE89A48135
:102C1600A07489F00E94F71F0E942B20E88DF98D81
:102C26000E94B61F31F00E941E20E1E00E9456234A
:102C3600FEC20E9433200E94F71F0E94FC1F0E94C2
:102C46004F1F0E94070D0E94451F0E943A2331F430
:102C56000E941E20E2E00E945623E9C20E9436200E
:102C6600AF81B88589859A850E94741FEF83F8879E
:102C760069877A87A989BA890E94791F09F44CC0A5
:102C86000E943620E30FF41F0F010E94F71FE28116
:102C9600D001F0E0EA17FB0758F40E94F71FE28123
:102CA600F0E0DF010E943620AE1BBF0B3A2F4B2F00
:102CB6000E94F71FE181EA930E949D1E0E94CC1D8F
:102CC600A32F0E942C07E03031F00E941E20E1E085
:102CD6000E945623ACC20E943B200E94891FB8F472
:102CE600ED89FE89B0960E94FC1FA689B789808D62
:102CF600918D0E9442200E94921FAF81B88588273D
:102D06009927EA0FFB1F0E949B1F0E943320AD8963
:102D1600BE890E94A11F48C00E943B200E944423F6
:102D2600D9F00E940C200D010E940620D0010E94BD
:102D3600492358F40E94F71F0E942B200E94CC1DA5
:102D4600A1E00E94C806E03009F406C00E941E20D9
:102D5600E1E00E9456236BC20E946F1D0E9447202D
:102D6600AD89BE890E94C61FAD89BE890E94CB1F50
:102D76000E94D01FE989FA89E117F20710F4198930
:102D86002A89AD89BE890E94CB1FAD89BE899096DE
:102D9600EA0FFB1FFA93EA93EF81F8850E94D71F8B
:102DA6000E944D20E064EC930E94DD1FED89FE89B0
:102DB6000E94E61FD0010E940123AF85B8890E94B8
:102DC600F01FE989FA89E11BF20BE98BFA8BBFCE7A
:102DD6000E940C200D010E940620D0010E9444236F
:102DE60020F40E9452200E9458200E944D20E0624A
:102DF600EC93E0E00E9456231AC2BA93AA93249752
:102E06000E9451230E945E20FA93EA93E985FA858F
:102E16000E94371F09F075C0EF81F885A481A07262
:102E260009F46FC0A481A074A1F00E945E20E18124
:102E3600EA93E885F985B096FA93EA93EA85FB85E5
:102E46000E94B61F11F0E1E05DC0AF81B8850E9417
:102E5600C11F0E945E20FA93EA93E985FA85A28D46
:102E6600B38D848D958D0E94060A0E2F003009F0D1
:102E760048C0AF81B8855E961D912C91A12FB22FC7
:102E86001B96EC91E062EC93AF81B8851A960E948E
:102E9600F622A12FB22F5C960E940123AF81B8853E
:102EA6001E960E94F222A12FB22F5A96ED93FC9302
:102EB600EF81F885A685B78580899189FD01BC01DA
:102EC6000E948022A12FB22F5496ED93FC930E946C
:102ED6006E090E943B1EA12FB22F56960E94012317
:102EE600AF81B8851496EC91EF7DEC930E945E203D
:102EF6003496A1E0A0830E945E20DF010E94690A49
:102F06000E2FE02F0E94582329960895BA93AA936C
:102F16000A93A981BA8171DF0E2F003021F4A981AD
:102F2600BA810E94A21EE02F0881239608950E946E
:102F3600282360970A930E94F71F0E94FC1F0E9495
:102F4600371F09F072C1ED89FE89A481A07811F0BE
:102F5600E2E06CC10E9406200E94EC1E0E944423FF
:102F660018F40E94012009F004C00E9406200E9465
:102F7600E21EAD89BE8916960E942B1C0E94C71DB3
:102F86000E94041D0E946320AD89BE891596EFEF4D
:102F9600EC930E94EC1E0E943E2308F0FFC00E94A4
:102FA600F71FE281F0E00E948A22A0E0B2E080E012
:102FB60090E00E949422E987FA876B877C870E94BB
:102FC600371C0E943E2398F40E94E71E0E94692047
:102FD6007F936F93FF93EF930E945A1D0E9469207F
:102FE600AF91BF918F919F910E94492308F420C011
:102FF6000E945A1D0E94281FDF01CB010E94422019
:103006000E94281F0E948F220E943B220E9463205A
:103016000E9452200E94EC1E0E943622A98BBA8B77
:103026008B8B9C8BAD89BE8952960E94091F28C046
:10303600AD89BE891E960E94091F0E94021FE1F4F7
:103046000E94F71F0E9413200E94FD1E0E94F91C79
:103056000E945F1D21F40E941E20E2E0E7C00E944C
:10306600F91C0E94671D21F40E941E20E1E0DEC0CB
:103076000E9470200E9418200E9470200E94252025
:103086000E94021F09F48AC00E9442200E94EC1E80
:103096000E94442308F04BC00E94012089F00E9440
:1030A600F71F0E9475200E94400C0E94FD1E0E9480
:1030B600021F29F40E9442200E94E21E38C008C066
:1030C6000E94F71F0E9475200E94D30A0E94FD1ECF
:1030D6000E94F91C0E94671D21F40E941E20E1E057
:1030E600A5C00E94F91C0E94941C38F00E94F71F8C
:1030F6007E96DF010E94FE1C20F00E941E20E2E068
:1031060095C00E9470200E9425200E9478200E946F
:103116002A1D0E942722D0010E9401230E942A1DF7
:103126000E94E71E0E9431220E94E21EADCF0E943D
:1031360078200E94EC1E0E942722D0010E940123C3
:103146000E94EC1EE0E0F2E060E070E00E94CD221A
:10315600AD89BE891596EC930E94E71EF1703097F3
:10316600E9F00E94F71F0E9475200E94070D0E9439
:10317600041D0E94321C0E943A2321F40E941E2044
:10318600E2E054C00E9436200E944C1D0E94741F2B
:103196000E94041DAD89BE890E94C61F0E940C2094
:1031A6000E944A1F51F0AD89BE8956960E94F622AA
:1031B6000E944C1D0E94442309F426C0ED89FE8915
:1031C600A481A07479F00E94F71F0E942B20E88D3D
:1031D600F98D0E94B61F21F00E941E20E1E026C054
:1031E6000E9433200E94F71FE181EA93EE89FF894E
:1031F600B0960E94531C21F00E941E20E1E016C0EA
:103206000E94321C0E9447200E940C200D010E9441
:103216000620D0010E94442340F40E9452200E94BE
:1032260058200E944D20E062EC93E02F08816796BB
:103236000895BA93AA931A930A93AA81BB81129608
:103246000E94F222309729F1AA81BB8114960E942E
:10325600F2228F01309761F00230E0E01E0780F025
:10326600F80131978F01AA81BB811496ED93FC93E7
:10327600AA81BB8112960E941B1F3197AC81A08345
:10328600AA81BB810E94F222FF2312F00E941B1F1B
:1032960006C0AA81BB81EFEFFFEFED93FC93198186
:1032A60008810C941C1BBA93AA9326970E944E235E
:1032B60000E0AC85BD850E94A21EEA89FB89319695
:1032C600EA8BFB8B3197E4913E2FE03009F41FC166
:1032D600E02FE03039F4353211F401E002C00E94EB
:1032E600802014C1E130A9F4353219F40E948020FF
:1032F6000CC102E050E010E03D3211F411E006C1CD
:103306003B3211F45BE202C1303211F450E2FEC0EE
:1033160002C0E23039F440E003E0303311F41068C3
:10332600F5C003C0E33009F0F1C0303310F03A3392
:1033360008F007C0AAE04A9F402DE32FE0534E0F46
:10334600E5C0E32FE33649F40E948720E889F9892E
:10335600A481AA930E948D20D8C0E33769F40E9405
:103366008720A889B98914960E946E1EAE81BF81F6
:103376000E941E1B0E2F0FC0E03789F40E94872083
:10338600A889B98914960E946E1EAE81BF810E94DB
:103396002A1B0E2F186012601F7720E034C0E43617
:1033A60011F0E93611F4146002C0E53731F4E0EDAE
:1033B600F0E0EE83FF8305E00CC0E83511F41860F9
:1033C60003C0E83709F0A1C0EAEDF0E0EE83FF8321
:1033D60004E012FF14C00E9487200E949320AB8550
:1033E600AA233AF4EA85FB850E944522EA87FB87F1
:1033F6005DE2503011F00F5F01C01B7F04C00E94D8
:1034060087200E94932010FD11C0041778F417FF3F
:1034160008C012FF04C01B7F352F015001C030E3E6
:1034260001C030E20E9480204150EFCF202F11FFD3
:1034360017C02030A1F013FF06C0EE81FF81359141
:10344600EE83FF8305C0AE81BF813D91AE83BF830E
:103456000E948020403009F041502150EACF4BC0F5
:1034660030E3EE81FF810E940B23E887F987EE8126
:10347600FF813296EE83FF83E885F985AA85BB85B1
:10348600AE17BF0750F03F5FA885B985EA85FB8573
:10349600EA1BFB0BEA87FB87EFCF3A3328F013FFD3
:1034A60002C0395F01C0395D14FD1AC0313320F402
:1034B600A885B985119709F409C0421710F010FFC5
:1034C60001C013C030E217FF0BC030E3106112FFDA
:1034D60007C01B7F5A930E948D20403009F041504F
:1034E6000E948020403009F041502150A885B985BE
:1034F600129708F0B5CF10FF08C0403031F04150A8
:10350600E0E2EA930E948D20F8CF00E0D6CEAC85AB
:10351600BD850E94F2220E94552364960895FF926B
:10352600F82E26970E945023DE011C960E94232225
:103536000E94F222309719F4EFEFFFEF25C0DE016B
:1035460016960E9423228D01DE011C960E942322DC
:103556000E946E1EE0E0E887E987DE011A960E9467
:1035660023220E94F222FA93EA931A930A93ECE139
:10357600F9E1FA93EA93DE011A9695DE9F01AE8190
:10358600BF81E0E0EC93F9010E9457232A96FF9051
:103596000895AA93E881E295EF70AE2FAA0FAA0FBD
:1035A600EA0FEE0FA991AF70EA0F0895AA93A991B9
:1035B600EE27AA5012F0E05FFCCFA65FEA0F08954F
:1035C600BA93AA936627772789919991E991F991F8
:1035D600A991B991009629F001976D91719167179C
:1035E600C9F3671B10F4EFEF0895E0E009F0E395E7
:1035F6000895BA93AA9399818881009641F0BD8176
:10360600AC81FB81EA8161916D930197E1F7FD81C0
:10361600EC8126960895BA93AA93B981A88110964B
:1036260031F0FC81EB816A8161931197E9F7EB81B7
:10363600FC8125960895BA93AA93A991B991EE278C
:10364600FF276D91662311F03196FBCF0895BA934B
:10365600AA93AA27BB27E991F9910590002011F0BA
:103666001196FBCFFD010895A2E0B0E00C949B20DB
:103676000E9449010C944601E981E07F0E2F0295D4
:103686000F70A02FF5CFE981EF700E2FA02F0E94AB
:103696004901EACF0E94CE01662777270E940B21B7
:1036A600A0E0B0E080EA90E40E949021DF01CB0127
:1036B600E0E0F0E060E874E40E94DE210895E09125
:1036C6000D09F0910E0908950E942D230E943E21B6
:1036D600A0E0B0E088EC92E40E9490210E94D42001
:1036E6000895E0911109F09112090895E0EEFBE0CA
:1036F600FA93EA930895EC81FD81FA93EA9308958B
:10370600FF27662777270E9423230895D8DF0E9484
:103716008A220E942323E0910F09F09110090E944A
:103726008A220E942323089584E10E94921A6896B1
:10373600E0E0EA9308950E94AF01A8E0BEE00C9491
:103746009701FA93EA93E091050EDACFCADF0E9459
:103756008A220E942323E0911309F09114090E9402
:103766008A220E9423230895E0914309A091040E22
:10377600EA0FE0934409A0914409AC330895E0911F
:103786004409EB53E09344090895E093020EEA934B
:10379600E091030EEA93A091040E0C945504E09375
:1037A600030EE091020EEA93E091030EEA93A091D4
:1037B600040E0C945504E0E0E093040EE091020E32
:1037C600EA93E091030EEA93A091040E0C9455043B
:1037D600E093050EEA93E091060EEA93A091070E98
:1037E6000C947804E093060EE091050EEA93E091BE
:1037F600060EEA93A091070E0C947804E093070E48
:10380600E091050EEA93E091060EEA93A091070E69
:103816000C947804EEE8EA93A0E00C941A040E9453
:103826000004AE2F0C94CC1AEA93AB810E94D91AED
:10383600AE2F0C941A04EA93AA810E94D91AAE2FCD
:103846000C941A04F0E00E948A22DF01CB0108954D
:103856000E94F622E983FA836B837C830895ED81C7
:10386600FE816F8178850895A981BA818B819C81BB
:103876000895E985FA85A181AA93EA85FB85F296E2
:10388600FA93EA93EC81FD816E817F810E94232366
:10389600A1E00C942C07A2A1B3A184A195A108953F
:1038A600FA93EA93E885F9856A857B850E94232346
:1038B600A1E00E94C806E0300895FA93EA93A0E0DA
:1038C600B0E080E090E00C94060A9E96E0E0F0E01E
:1038D60060E070E00E9401230895F296FA93EA935D
:1038E600E0E0EA93A0E0B2E00C940E1B0E941E23D7
:1038F600E981FA81F29608950E94F622D0010E948B
:103906000123E981FA810895A289B3898489958979
:103916000E942823A1E00895A885B9858A859B85FC
:103926000895A230E0E0BE07E0E08E07E0E09E07E3
:103936000895E1E0F0E060E070E008950E94F6226C
:10394600EC83FD836E837F830895EC85FD85FA9372
:10395600EA93D901E0E0F2E00E94BA22AE81BF818B
:1039660088859985662777270E942C220E94060A59
:10397600E0300895AC85BD85D296F901F170AE0FA1
:10398600BF1F0895EC85FD85FA93EA93AA85BB854A
:103996008C859D850895E0E0F1E060E070E00E948E
:1039A600CD220895AE81BF81888599850E942C22FB
:1039B6000E94060AE03008950E94B422F170AC8598
:1039C600BD85D296AE0FBF1F08950E94F2226627CC
:1039D60077270895E0E8F0E060E070E00E94CD22ED
:1039E6000895EFEFFFEF6FEF7FEF0895AD85BE858A
:1039F6008F85988908950E94F622F8DF0E94492350
:103A06000895ED83FE836F8378870895E989FA899F
:103A1600FA93EA93D801E0E0F2E00E94BA22AF817D
:103A2600B88589859A85662777270E942C220E9469
:103A3600060A4E2F40300895A989BA89D296F80110
:103A4600F170EA0FFB1F9F01ED85E1700895A985CE
:103A5600BA858B859C850895E989FA89FA93EA9354
:103A6600AF85B88989899A890895AF81B88589858E
:103A76009A850E942C220E94060A4E2F40300895F5
:103A86000E94B422F170A989BA89D296EA0FFB1F67
:103A96000895AD81BE818F8198850895A985BA85DF
:103AA6005E960E94F622F5DF0E9449230895E98179
:103AB600FA816B817C810895A130E0E0BE07E0E0E9
:103AC6008E07E0E09E070895AF3FEFEFBE07EFEFEA
:103AD6008E07EFEF9E070895EF81F88569857A8551
:103AE6000895A0E0B0E080E090E00895A685B7854F
:103AF60080899189E9CF1E960E94FC22EF5FFF4FD5
:103B06006F4F7F4F0E94062308950E941923089540
:103B1600E889F9896A897B890895AC81BD818E819E
:103B26009F8108950E940F230895EC83FD836E8381
:103B36007F830895EC89FD89FA93EA9308950E949C
:103B4600D30AEC87FD876E877F870895AC85BD8590
:103B56008E859F850895EC85FD856E857F85089504
:103B6600EC81FD816E817F810895E887F9876A87F8
:103B76007B870895E885F9856A857B850895F0DF5A
:103B8600CBDE0E9444230895E0E0F0E060E070E0C0
:103B96000895EA85FB856C857D850E94232308951B
:103BA6000E942D230E9431220895A885B985149676
:103BB600ED93FC93A885B98508950E94F622EA83C1
:103BC600FB836C837D830895AA81BB818C819D8153
:103BD6000895A885B9850E94F22208957E96DF0190
:103BE6000E94F622F1DF0E9449230895EA81FB81B3
:103BF6006C817D810E943A230895EA81FB816C8164
:103C06007D81A885B9851A960E940123E2CF662791
:103C160077270E9427220895A885B9851E960E94B7
:103C260001230895EF70F070EE0F0E946922EA0FEB
:103C3600FB1FA885B9855296ED93FC93E0E00895A5
:103C46000E94F6220E943A230895FA93EA93EA859F
:103C5600FB85A285B385848595850895EB83FC83D2
:103C66006D837E830895AB81BC818D819E8108958D
:103C7600F5DFEB81FC816D817E810895FA93EA93ED
:103C860008DF0C94070DBA93AA930E94502333CDF4
:103C9600A0E0B0E00E943F0D0E2F00300895AC81E9
:103CA600BD810E94F222FA93EA93EE81FF81A685F6
:103CB600B785808991890E94060A0E2F00300895E3
:103CC6003A932A93EE81FF81A489B589BA93AA9380
:103CD600ABE0B0E008950E94F222EE83FF830895E0
:103CE600E885F985AE81BF810895E885F985319625
:103CF600E887F9873197AE81BF81AE0FBF1F1C9150
:103D06000895E52F5F5FF0E0E30FF41F1083089539
:103D1600EA0FFB1FAB85BC85ED93FC93113208952A
:103D260033DF0E9401230895AE81BF8116960E945B
:103D360001230895EE81FF81FA93EA930895E0E066
:103D4600F0E0ED93FC930895A12FB22F54963DCE4B
:103D5600A12FB22F5A960E94F2220895662777273E
:103D66000E94402208950E942323A1E00E94C806D3
:103D7600E0300895F296E250FE4FDF010E94F222F3
:103D8600E535AAEAFA0708950E94F622EF7FFF7F3B
:103D96006F7F7070E634A1E4FA07A4E56A07A0E035
:103DA6007A070895ADE1BEE0F0E0EE0FFF1FAE0F1B
:103DB600BF1F0895ED81FE81FA93EA930895E98B7A
:103DC600FA8B6B8B7C8B0895E989FA896B897C89E0
:103DD6000895A989BA898B899C890895AD81BE8188
:103DE600A05CBF4F0E94F2220895AD89BE898F89DB
:103DF600988D0DCFED87FE876F87788B0895ED85BB
:103E0600FE856F8578890E943A2308950E94F622DE
:103E1600F1CFED81FE81A085B185FD010E94722260
:103E26000895ED81FE8137DDCFDF0E9427220895B8
:103E3600ED91FD913196FE93EE930895A0E0B0E0EA
:103E4600A083B183E12FF22F0895E150F040604046
:103E560070400895A98DBA8D0E94F2220895FA93B2
:103E6600EA93EB8DFC8D0895A281B3810E947F12A7
:103E76000E2F00300895E98DFA8DA681B7818085D1
:103E860091850895EF83F88769877A8725CEFD01A6
:103E9600BC01F17030970895A289B3898489958908
:103EA6000895AF85B88989899A890895A98DBA8DAB
:103EB6001496EC91E068EC930895EB87FC876D8788
:103EC6007E870895EB85FC856D857E850895E98D51
:103ED600FA8DE581F0E00895AB85BC858D859E85DC
:103EE60008950E948A220E9427220895E0E0F2E0C7
:103EF6000E94BA223E2F4F2F032E042A0895E98DE1
:103F0600FA8DA689B789808D918DDCCF0E943622E5
:103F1600E32FF42F662777270E94492308950E94EE
:103F26003622E0E0F2E060E070E00E94942208951C
:103F3600FA93EA93A0E0B2E00C94FC1A1596EC9181
:103F4600E30FEC93E32FF42FEE0FFF1FFE2FE0E0BD
:103F56001E2F2F2F0895E181EA93EA8DFB8DB096EF
:103F6600FA93EA930895A689B789808D918D0E9468
:103F76002823A1E00E942C07E03008951496EC91C6
:103F8600EF7BEC9308951596EC91EF5FEC93089513
:103F960016960E94F222F1700895A0E0B2E0AE1BE0
:103FA600BF0B1A2F2B2F0895FA93EA93A12FB22F46
:103FB6000C94FC1AE12FF22FAD81BE81EA0FFB1F94
:103FC600ED83FE83089536960F01DF010E94F622E7
:103FD600DF01CB01E12FF22F1ACEED91FD91E10F1A
:103FE600F21FFE93EE930895AD89BE890E94F222D8
:103FF6000895FA93EA93EF89F88D0895ED89FE897D
:10400600A481A2700895AD89BE891A960E94F622EF
:104016000895ED89FE89A681B781808591850895E9
:10402600FA93EA935EDD0C94400CAD89BE891E9628
:104036000E9401230895AD89BE891496EC91E0682B
:10404600EC930895AD89BE8952960E940123089586
:10405600E181EA93EE89FF89B096FA93EA9308958F
:10406600AD89BE898BCFED89FE89E581F0E00895A3
:10407600ED89FE89A689B789808D918D2DCDE9853B
:10408600FA856B857C850895AD89BE8956960E9412
:1040960001230895AD89BE891496EC910895AD89E2
:1040A600BE8916960E94F6220895AD89BE891A9693
:1040B6000E9401230895AF81B8850E94F2220895D7
:1040C600AD89BE8916960E9401230895BEDEDF01E2
:1040D600CB01D5DF0E94CD220895ED85FE856F8543
:1040E60078890895FA93EA93DCCEED89FE893696AF
:1040F6000F01DF010E94F62208953A93AD85BE8531
:10410600EF85F88909950895E889F9893497E88B48
:10411600F98B0895AD85BE85EF85F88909950895D3
:10412600A889B98914960E94F222EA87FB87089526
:10413600109639F084EF91E00197F1F7A895119761
:10414600C9F70895552342F4503811F4E0FF04C02E
:104156003196691F791F6BF050E8572711F45F936A
:10416600CAC05F3F31F0660F000C57956795752FF3
:1041760008955F9300200AF0CAC0C3C050E8192E04
:104186001522880F991F9527550F879550E8072EFA
:104196000522660F771F7527550F67950895689452
:1041A60001C0E8945F93F2DF703818F07F3F08F49F
:1041B600A2C056E1571BAAF4519558300EF4593057
:1041C60030F0EFEFFFEF6FEF7FE777F91AC0772751
:1041D6005523B9F0EE0FFF1F661F771F5A95D1F7CB
:1041E60010C07727583028F0EF2FF62F672F58503A
:1041F600F9CF552331F076956795F795E7955A955A
:10420600D1F700200AF442D15F910895689401C065
:10421600E894309760407040B1F0002426F0772390
:1042260012F4009433D1172E7EE1112032F07A95E4
:10423600EE0FFF1F661F111CF9CFEF2FF62F612D12
:104246005F938ADF5F9108954F93AF01FD01DA0115
:10425600AB01BC01CA01402D012C142E4F910895CB
:10426600EA0FFB1F681F0895E095F0956095EF5FD4
:10427600FF4F6F4F08955F9381DF903849F150E803
:104286001526703821F1572F591B2BF112F4DCDF5C
:10429600FACF583118F0AA27BB278827583028F0BC
:1042A600AB2FB82F88275850F9CF552329F086957C
:1042B600B795A7955A95D9F7502D512572F0D0DFAD
:1042C60038F46795F795E795739513F420C0BCDF2E
:1042D60043DF5F910895D8F7FBCFEA1BFB0B680B12
:1042E60051F010F40094C0DF662392F3EE0FFF1F27
:1042F600661F7A95CBF7EE27FF27662777275F910C
:104306000895EFEFFFEF6FE77FEF5F910895EFEF0F
:10431600FFEF6FE77FE75F9108955F932FDF7038B8
:1043260051F3903841F301240894791F23F41CF3C8
:1043360000203AF3ECCF0F921F932F933F934F93A6
:10434600112722279927689FA0018F9F302D410DA5
:10435600591F6B9F300D411D591F8E9F27D0BF9F40
:1043660025D06A9F23D0BE9F1DD0AF9F1BD0AE9F86
:10437600110D291F391F491F591FE32FF42F652FD0
:10438600522F4F913F912F911F910F9066232AF044
:10439600550FEE1FFF1F661F02C073954BF2D2DE4C
:1043A6005F910895100D211D391F02C0200D311D8A
:1043B600491F591F08955F93E1DE703821F41120DB
:1043C6000AF49FCFA4CF903809F495CF012408941E
:1043D600970B1BF4D4F30020F3CF792F1F932F9361
:1043E6003F934F931124112722273327442755271C
:1043F60090E2AE17BF078607410730F0AE1BBF0B32
:10440600860B410B089401C08894551F221F331F49
:10441600111CAA1FBB1F881F441F9A9551F7F9014B
:10442600612D4F913F912F911F91662332F0550FC9
:10443600EE1FFF1F661F7A9543F284DE5F91089593
:104446000024AF0DB01D0895EA0FFB1F681F791FEA
:104456000895AE0FBF1F861F971F0895EA1BFB0B1B
:10446600680B790B0895AE1BBF0B860B970B08954F
:10447600EA23FB23682379230895EA2BFB2B682B79
:10448600792B0895F195E195F0400895F0956095A2
:104496007095E195FF4F6F4F7F4F0895EE230E2ED7
:1044A600FD01BC0131F0EE0FFF1F661F771F0A9456
:1044B600D1F70895EE230E2EFD01BC0131F076955D
:1044C6006795F795E7950A94D1F70895EE0FFF1FC4
:1044D600EE0FFF1FEE0FFF1FEE0FFF1F0895F6955D
:1044E600E795F695E795F695E795F695E795089598
:1044F600EE0FFF1F661F771F0895E62FF72F60E068
:1045060070E008956E2F7F2FE0E0F0E008956F2FA2
:10451600660F660B762F0895E095F0956095709579
:1045260008957A9F702D6B9F700DF89F700DE99F0F
:10453600700D6A9F602D710DFB9F600D711DE89FC8
:10454600600D711D8827FA9FF02D610D781FEB9F76
:10455600F00D611D781FEA9FE02DF10D681F781F91
:1045660008956E2F6A9FF0016B9FF00D0895002449
:10457600112490E1AA0FBB1F001C111C0E1A1F0A62
:1045860018F40E0E1F1E01C0A1609A9599F7FD0141
:10459600D00108953F934F935F930024112444273D
:1045A600552730E2AA0FBB1F881F991F001C111C3C
:1045B600441F551F0E1A1F0A460B570B28F40E0EE2
:1045C6001F1E461F571F01C0A1603A9559F7FD01EE
:1045D600BC01D001CA015F914F913F910895ED91C1
:1045E600FC9111970895ED91FD916D917C91139732
:1045F6000895ED91FD916D917D910895ED93FD9353
:104606006D937C9308957E936E93FE93EE93089537
:104616000590F491E02D0895E881F9816A817B8106
:104626000895A881B9818A819B810895E883F983D9
:104636006A837B830895A083B183828393830895DD
:104646007A936A93FA93EA9308959A938A93BA931C
:10465600AA930895182E862F612D192E972F712D46
:104666001B2EBF2FF12D1A2EAE2FE12D0895309758
:1046760060407040089500240A160B0608060906D5
:104686000895EA17FB07680779070895AE17BF076D
:104696008607970708955A934A933A932A931A934B
:1046A6000A9308955D814C813B812A811981088195
:1046B6000895AC0FBD1F05900D928A95E1F70895F8
:00000001FF
