:0C0000000C9401010C9400000C94000012
:10000C000C9400000C9400000C9400000C94000064
:10001C000C9400000C9400000C9400000C94000054
:10002C000C9400000C9400000C9400000C94000044
:10003C000C9400000C9400000C945C020C940000D6
:10004C000C9400000C9400000C9400000C94000024
:10005C000C9400000C9400000C9400000C94000014
:10006C000C9400000C9400000C9400000C94000004
:10007C000C9400000C9400000C9400000C940000F4
:10008C000C9400000C9400000C94000020222A2BED
:10009C002C5B3D5D7C7F00000004000200018000B1
:1000AC004000200010000800040002000000008046
:1000BC000040002000100008004000200010000844
:1000CC00000400021027E80364000A00010000107D
:1000DC0000011000010003030302020C00080001E0
:1000EC000006303A6D7565737472612E7478740005
:1000FC0005004172636869766F204E4F20456E6330
:10010C006F6E747261646F004472697665204E4F35
:10011C002044657465637461646F00253032693AFC
:10012C00253032693A253032692056313A2025691A
:10013C002E256900253032693A253032693A25304E
:10014C0032692056323A2025692E2569005B25300C
:10015C0032692F253032692F253032692025303213
:10016C00693A253032693A253032695D204E65771F
:10017C005F6D73675F72637664003A20566F6C74C0
:10018C00616765206973205B56313A253031692EE1
:10019C00253032692C2056323A253031692E2530E3
:1001AC0032695D0001000400EBFE904D53444F5347
:1001BC00352E30004E4F204E414D452020202046FC
:1001CC0041543332202020004E4F204E414D4520CB
:1001DC002020204641542020202020000D0015090D
:1001EC00EE0001006309FC000100360EB0010100B5
:1001FC003A0EB2010000F894EE27EFBBF1E0F5BF28
:10020C00E5BF8DE0A2E0BB27ED938A95E9F780E08E
:10021C0090E2A0E0B1E0ED930197E9F7E8EEF1E0B0
:10022C0085919591009761F0A591B59105901590E8
:10023C00BF01F00105900D920197E1F7FB01F0CFA2
:10024C008BBFE0E0EEBBEFEFEDBFE0E2EEBFC0E056
:10025C00D9E00C9403032C978CE0A0E0B0E0E2EE24
:10026C00F0E00E94DF210A93849A859A809A819A01
:10027C00829A839AA2E3B0E00E941E1F00E00C3029
:10028C0068F40E94201AE02FF0E0DE011196AE0F08
:10029C00BF1FAC910E94241A0F5FF1CFECE0E093EA
:1002AC000009A091000921D008812D9608958C9AFF
:1002BC008C980895AA93E881E87011F08B9A01C08C
:1002CC008B98E881E47011F08A9A01C08A98E881D1
:1002DC00E27011F0899A01C08998E881E17011F0FF
:1002EC00889A01C0889821960895AA930A938D98AC
:1002FC000E94201A0E94281A0E942F1AD8DF088107
:10030C000C942404AA930A938D9A0E94201A0E949A
:10031C00281A0E942F1ACBDF08810C942404BA935C
:10032C00AA930A9300E0E02F0F5FA981BA81F0E055
:10033C00EA0FFB1FA491E6DFE02FA981BA81F0E060
:10034C00EA0FFB1FE491E03071F708810C948B04E9
:10035C00BA93AA930A9300E0E02F0F5FA981BA81A8
:10036C00F0E0AE0FBF1FAC91CDDFA981BA81EE27B3
:10037C00A00FBE1FEC91E03079F708810C948B0430
:10038C00AA93E881F0E0309719F4A981A05814C021
:10039C00E130A0E0FA0719F4A981A0540DC0E230B5
:1003AC00A0E0FA0719F4A981AC5606C0E330A0E02E
:1003BC00FA0719F4A981AC5298DF0C942404AA937F
:1003CC00E881E06CE0937C0087E08A95F1F7E0919E
:1003DC007A00E064E0937A00E0917A00E071E1F356
:1003EC00E0917A00E061E0937A00E0917800F0917E
:1003FC0079000C94C506A6E00E94361AE093050914
:10040C00F09306096093070970930809A7E00E940E
:10041C00361AE0930909F0930A0960930B0970935B
:10042C000C09E0910509F09106096091070970919A
:10043C0008090E94571FE0930D09F0930E090E94C2
:10044C004B1A0E940D210E948E1FA0910509B0919C
:10045C00060980910709909108090E94501AE093AF
:10046C000F09F0931009E0910909F0910A096091C4
:10047C000B0970910C090E94571FE0931109F0931E
:10048C0012090E945D1A0E940D210E948E1FA091DC
:10049C000909B0910A0980910B0990910C090E94ED
:1004AC00501AE0931309F093140908950A921A92C2
:1004BC00FA926A937A938A939A93AA93BA93EA9349
:1004CC00FA93EFB7EA930E943709E991EFBFF991DC
:1004DC00E991B991A9919991899179916991F99041
:1004EC00199009901895AA93E0E0EA93AEECB9E064
:1004FC000E94A412E093CD09E030D1F50E94621A5B
:10050C000E94671AA3E10E94D112E093CD09E0305A
:10051C0059F5E881E03039F40E94621A0E946C1A95
:10052C000E94771A1AC00E94621A0E946C1A0E94CA
:10053C00771A0E940A14EDE0E0936909EAE0E0936F
:10054C006A090E94621AE9E6F9E0FA93EA93E2E09A
:10055C00F0E0FA93EA93A5E6B9E00E940A14A0E051
:10056C00BCE00E94701603C0AEEFB0E0D8DE03C052
:10057C00A4E1B1E0D4DEE0E0EA93A0E0B0E00E94B8
:10058C00A41225960895E0E2FEE0FA93EA93E1E2E4
:10059C00FEE0FA93EA93A2E2BEE00E944404E3E296
:1005AC00FEE0FA93EA93E4E2FEE0FA93EA93A5E222
:1005BC00BEE00E945F040895E6E2FEE0FA93EA933F
:1005CC00E7E2F1E0FA93EA930E94821A0E94981AE9
:1005DC000E94A61AA0E00E94AD1AE6E2FEE0FA9391
:1005EC00EA93E0E4F1E00E94B31A0E94CB1A0E9455
:1005FC00A61AA1E00E94AD1A0895E0ECE0937E00EB
:10060C00E0937C00E1E8E0937A00E0E8E0937B0083
:10061C000E943101E0E0EA93EA93A0E00E942604F4
:10062C00E9E0E0938100EEE4E0938900EFE1E093F0
:10063C008800E2E0E0936F000E9431017894A0E022
:10064C000E94E905A8ECB0E00E941E1FEFEFE8B98C
:10065C000E94D91A10F00E94E41ACDDE94DFACDFB0
:10066C00309905C0E091200EEF5F0E94EA1A319993
:10067C0005C0E091210EEF5F0E94F41A329902C07E
:10068C000E94001B339905C0E091230EEF5F0E947E
:10069C000D1B339905C0E091240EEF5F0E94171BD0
:1006AC00349905C0E091250EEF5F0E94231B35990C
:1006BC0011C0E0916309EB5FE0936309A0916309BA
:1006CC00AD3318F0E5E0E09363090E94D91A10F0FD
:1006DC000E94E41AA091220EAC3310F00E94001B71
:1006EC00A091210EAC3318F0E0E00E94F41AA09116
:1006FC00200EA83118F0E0E00E94EA1AA091230E17
:10070C00A03218F0E0E00E940D1BA091240EAD3039
:10071C0018F0E0E00E94171BA091250EAA3118F0EA
:10072C00E0E00E94231BE0916409A091220EEA17DD
:10073C00B9F5E3E2F9E0FA93EA93E9E5F1E00E9416
:10074C00B31A0E94821A88E10E947B196C96E3E42A
:10075C00F9E0FA93EA93E6E8F1E0FA93EA930E945F
:10076C00981A0E94CB1A80E10E947B196496E5E1ED
:10077C00F9E0FA93EA93E3E2F9E0FA93EA93A0E062
:10078C00B2DEE5E1F9E0FA93EA93E3E4F9E0FA93F7
:10079C00EA93A1E0A8DE0E94D91A10F00E94E41A94
:1007AC005CCFFFCF589883E08A95F1F70895AA9310
:1007BC00519A529A509A589A83E08A95F1F7A881E7
:1007CC0002D00C94C506AA93E991A8E0E7955A9833
:1007DC0008F45A9A0000000000000000599A81E0C9
:1007EC008A95F1F7599881E08A95F1F7AA9571F7F6
:1007FC000895AA93E881E160AE2F0E94DD035A9818
:10080C005298A8E088944A990894E795599A81E0FF
:10081C008A95F1F7599881E08A95F1F7AA9591F7A5
:10082C000E94D803ACC2AA93E981EE7FAE2F0E943E
:10083C00DD03A8810E94E9030E94D8032296089543
:10084C00AA93E881E370E883EA81E03019F0E8814B
:10085C00E06AE883A981A13019F4E881E46007C05B
:10086C00A981A23019F4E881E86001C0E0E0E883D6
:10087C000E942F1BE0E9EA93A98142C0BA93AA9384
:10088C00A5E80E94341BAC81BD81EC93A3E80E94C7
:10089C00341BAA81BB81EC93A1E81AC0AA930E94D5
:1008AC002F1BE4E80E94391BE2E80E94401BE0E8A1
:1008BC0022C0BA93AA93A7E80E94341BAC81BD81D5
:1008CC00EC93A9E80E94341BAA81BB81EC93ADE8A0
:1008DC0090DFAE2F0E94B519A881B981EC932696B2
:1008EC000895AA930E942F1BE6E80E94391BE8E8A2
:1008FC000E94401BECE8EA93A9810E94C219AE2F1A
:10090C0092DFEEE8EA93A0E88EDF23960895AA938F
:10091C000E94D32130E01C81AD81BE812D91AD832D
:10092C00BE8308E0330FE32FE227E07811F0E9E013
:10093C003E27220F0150B1F7115071F7E32FEE0F44
:10094C00E1600E94DA2142C50A93E2E3E093380E9B
:10095C00EFEFEEBDEDB5E7FFFDCFEFEFEEBDEDB583
:10096C00E7FFFDCF0EB50F3F21F0E091380EE030E0
:10097C0009F401C0F2CFE02FA8C4289AEFEFEEBD26
:10098C00EDB5E7FFFDCF0895BA93AA930E94D42149
:10099C00E4E1E093370EEFEFEEBDEDB5E7FFFDCFF1
:1009AC000EB50F3F21F4E091370EE03009F401C091
:1009BC00F2CF0E3F21F0E0E00E94DB2107C51D8144
:1009CC002E81EFEFEEBDEDB5E7FFFDCF2F931F931B
:1009DC001F5F2F4FEEB5AF91BF91EC93EFEFEEBDD4
:1009EC00EDB5E7FFFDCF2F931F931F5F2F4FEEB594
:1009FC00AF91BF91EC93EFEFEEBDEDB5E7FFFDCFFF
:100A0C002F931F931F5F2F4FEEB5AF91BF91EC93B8
:100A1C00EFEFEEBDEDB5E7FFFDCF2F931F931F5FFB
:100A2C002F4FEEB5AF91BF91EC93EB81FC813497D6
:100A3C00EB83FC8331F6EFEFEEBDEDB5E7FFFDCFB9
:100A4C00EFEFEEBDEDB5E7FFFDCFE1E00E94DB215E
:100A5C00BDC4AA930E94D32177DFEF3F21F0E0E0E1
:100A6C000E94DA21B3C4EC81EEBDEDB5E7FFFDCFFA
:100A7C00AC81AD3F69F110E02D813E81D9012F5F32
:100A8C003F4FEC91EEBDEDB5E7FFFDCFD9012F5FE8
:100A9C003F4FEC91EEBDEDB5E7FFFDCF115071F777
:100AAC00EFEFEEBDEDB5E7FFFDCFEFEFEEBDEDB532
:100ABC00E7FFFDCFEFEFEEBDEDB5E7FFFDCF0EB5D8
:100ACC00E02FEF71E53021F0E0E00E94DA217EC4E6
:100ADC00E1E00E94DA217AC40E94AB211A930A93B6
:100AEC00EE81E07881F0EE81EF77EE83E7E7EA9331
:100AFC00A0E0B0E080E090E0EFDF1E2F123018F0A5
:100B0C001981088163C4AE81AC3449F036DF289872
:100B1C001BDFEF3F21F0EFEF1981088157C4EE8105
:100B2C00EEBDEDB5E7FFFDCFED81EEBDEDB5E7FF19
:100B3C00FDCFEC81EEBDEDB5E7FFFDCFEB81EEBD5A
:100B4C00EDB5E7FFFDCFEA81EEBDEDB5E7FFFDCFDB
:100B5C0001E0AE81A03411F405E904C0AE81A834E3
:100B6C0009F407E80EBDEDB5E7FFFDCFAE81AC345F
:100B7C0029F4EFEFEEBDEDB5E7FFFDCF0FEFEFEF93
:100B8C00EEBDEDB5E7FFFDCF1EB517FF02C001505E
:100B9C0009F401C0F4CFE12F1981088117C4BA936D
:100BAC00AA930A9304E0EFEFEEBDEDB5E7FFFDCF9E
:100BBC00A981BA811196A983BA831197EEB5EC93EA
:100BCC00015089F7E6C4AA9324970E94D421EF819F
:100BDC00E03021F0E1E00E94DB21ACC124982598A3
:100BEC00EAE0E093370EE091370EE030E1F7E09168
:100BFC00360EE27029F0E091360E0E94DB219AC18C
:100C0C00209A289AE5B1E97FE5B92B9A2398E4B1AB
:100C1C00E760E4B9E1E5ECBDE0E0EDBD2FEF0AE003
:100C2C00EFEFEEBDEDB5E7FFFDCF0150C9F7E0E406
:100C3C00EA93A0E0B0E080E090E04EDF1E2F215060
:100C4C00113011F0203009F401C0E9CF20E011304F
:100C5C0009F068C0E4E6E093370EE8E4EA93AAEA08
:100C6C00B1E080E090E038DFE13091F5DE011396E1
:100C7C0096DFAD81A13019F4AE81AA3A09F027C0F4
:100C8C00E091370EE03049F0E9EEEA93A0E0B0E0F5
:100C9C0080E090E421DFE03009F401C0F1CFE09175
:100CAC00370EE03049F0EAE7EA93A0E0B0E080E0EC
:100CBC0090E012DFE03009F00AC0DE0113966FDF1E
:100CCC00EB81E07411F0ECE001C0E4E02E2F2AC0BF
:100CDC00E9EEEA93A0E0B0E080E090E0FDDEE230E7
:100CEC0018F422E019EE02C021E011E4E091370E75
:100CFC00E03041F01A93A0E0B0E080E090E0ECDE50
:100D0C00E03009F401C0F2CFE091370EE03049F049
:100D1C00E0E5EA93A0E0B2E080E090E0DDDEE030D8
:100D2C0009F020E02093390E28DE203051F0E091BC
:100D3C00360EEE7FE093360EE0E5ECBDE1E0EDBD66
:100D4C0011C0289801DE19DEE0E0ECBDE4B1E07FD3
:100D5C00E4B9E5B1E07FE5B92098E091360EE160A9
:100D6C00E093360EE091360E0E94DB21E3C0AA938D
:100D7C00E881E03011F0E1E002C0E091360E2196FE
:100D8C000895AA93EF81E03019F4E881E03011F472
:100D9C00E4E0D0C0E091360EE17011F0E3E0CAC09F
:100DAC00E091390EE87071F4E981FA816B817C81F4
:100DBC00A0E0B2E080E090E00E941721E983FA8382
:100DCC006B837C83A881A130A9F4E1E5EA93AA8125
:100DDC00BB818C819D8180DEE03059F4ED81FE81F8
:100DEC00FA93EA93A0E0B2E0CFDDE03011F0E0E05E
:100DFC00E88323C0E2E5EA93AA81BB818C819D81C3
:100E0C006BDEE030D1F4ED81FE81FA93EA93A0E041
:100E1C00B2E0BADDE03051F0ED81FE81E050FE4FE2
:100E2C00ED83FE83E881E150E88369F7ECE4EA9313
:100E3C00A0E0B0E080E090E04FDE9FDDE881E030A4
:100E4C0011F0E1E001C0E0E075C0AA93EF81E03061
:100E5C0019F4E881E03011F4E4E06CC0E091360E56
:100E6C00E17011F0E3E066C0E091360EE47011F031
:100E7C00E2E060C0E091390EE87071F4E981FA812A
:100E8C006B817C81A0E0B2E080E090E00E941721B1
:100E9C00E983FA836B837C83A881A130A1F4E8E514
:100EAC00EA93AA81BB818C819D8116DEE03051F4DE
:100EBC00ED81FE81FA93EA93AEEFCBDDE03011F0D9
:100ECC00E0E0E88330C0E091390EE67039F0E7EDF0
:100EDC00EA93A981BB2788279927FEDDE9E5EA93E8
:100EEC00AA81BB818C819D81F7DDE030E1F4ED813D
:100EFC00FE81FA93EA93ACEFACDDE03051F0ED817A
:100F0C00FE81E050FE4FED83FE83E881E150E883E3
:100F1C0071F7E0E0F0E0FA93EA93ADEF9ADDE030A0
:100F2C0011F4E1E0E88329DDE881E03011F0E1E043
:100F3C0001C0E0E028960895BA93AA9360970E94A6
:100F4C00D321EF89E03011F0E4E087C1E091360E57
:100F5C00E17011F0E3E081C101E0EE89E03031F4A1
:100F6C002898F2DCEF3F09F400E075C1E13009F09C
:100F7C005FC0E9E4EA93A0E0B0E080E090E0ACDD93
:100F8C00E03049F4FE013496FA93EA93A0E1B0E024
:100F9C00FBDCE03009F44BC0EC81E295EF70E69598
:100FAC00E695E13079F4E0E0FC85AD85B0E0EA0F40
:100FBC00FB1F31961E2F2F2FA12FB22F8827992779
:100FCC00EAE02EC0E985EF70AE2FEE85E078EE1FDB
:100FDC00E0E0EE1FAE0FED85E370EE0FEA0FEE5F73
:100FEC003E2FEC85E295EF70E695E695AE2FEB85FE
:100FFC00F0E00E94F020B0E0AE0FBF1FEA85E37076
:10100C00F0E00E94F020FE2FE0E0EA0FFB1F31968B
:10101C001E2F2F2FA12FB22F88279927E32FE950AE
:10102C000E94D420AC89BD890E94842100E013C1A8
:10103C00E23041F4AC89BD89E0E0F2E0ED93FC9341
:10104C0000E009C1E33009F0ABC0E091390EE47067
:10105C0081F1EDECEA93A0E0B0E080E090E03CDDC3
:10106C00E03031F5EFEFEEBDEDB5E7FFFDCFFE0162
:10107C003496FA93EA93A0E1B0E086DCE030C1F05C
:10108C0030E3303039F0EFEFEEBDEDB5E7FFFDCFDB
:10109C003150F7CFEE85E295EF70A0E1B0E080E043
:1010AC0090E00E94D420AC89BD890E94842100E08C
:1010BC0076C0E9E4EA93A0E0B0E080E090E00CDDDB
:1010CC00E03009F06CC0FE013496FA93EA93A0E18B
:1010DC00B0E05ADCE03009F462C0E091390EE27005
:1010EC0051F1EE85EF73FF27662777270E94FE20CC
:1010FC007F936F93FF93EF93EF85E078FF2766273D
:10110C007727DF01CB01E7E00E94E020AF91BF9190
:10111C008F919F910E94AA20EF5FFF4F6F4F7F4FDF
:10112C00DF01CB01E989E295EF70E695E695E15098
:10113C000E94D4202FC0EE85EC77E695E695FF272C
:10114C0066277727EF5FFF4F6F4F7F4F7F936F932C
:10115C00FF93EF93EF85E370FF2766277727DF0177
:10116C00CB01E3E00E94D420DF01CB01EF85E07ED0
:10117C00E295EF70E695FF27662777270E94AA2055
:10118C00EF5FFF4F6F4F7F4FAF91BF918F919F914B
:10119C000E941721AC89BD890E94842100E05BC0AC
:1011AC00EA3039F4E091390EAC89BD89EC9300E05A
:1011BC0052C0EB3011F439E403C0EC3001F53AE4E1
:1011CC003A93A0E0B0E080E090E086DCE030B1F44F
:1011DC00EC89FD89FA93EA93A0E1B0E0D5DBE0302D
:1011EC0069F0EC89FD89FA93EA93AFE090DBAE2FBE
:1011FC00EC89FD89E785EA1709F400E02CC0ED3095
:10120C0071F4EAE7EA93A0E0B0E080E090E064DCFF
:10121C00E03021F4AC89BD89C2DC00E01CC0EE30AA
:10122C00C9F4EDECEA93A0E0B0E080E090E054DC8F
:10123C00E03079F4EFEFEEBDEDB5E7FFFDCFEC89D3
:10124C00FD89FA93EA93A0E4B0E09EDBE03009F06C
:10125C0000E001C004E091DBE02F0E94DA216896E7
:10126C0008950A930091370E003019F00150009345
:10127C00370E0091380E003019F001500093380EE3
:10128C0000913A0EE0E0E0933A0E1C9903C0E1E0C5
:10129C00E0933A0E1D9B05C0E0913A0EE260E0939C
:1012AC003A0EE0913A0EE01781F40091360EE1709F
:1012BC0011F00D7F01C00360E0913A0EE27011F065
:1012CC00046001C00B7F0093360E09910895279797
:1012DC00A0910109B0910209109731F0A091030976
:1012EC00B0910409109729F4E0E0F0E061E27AE3B0
:1012FC006DC0FE013696FA93EA93FE013796FA9387
:10130C00EA93DE011896E0910109F0910209099522
:10131C00FE013396FA93EA93FE013496FA93EA931C
:10132C00DE011496E0910309F09104090995E88116
:10133C00F981EC5BF74066277727DF01CB01E9E108
:10134C000E94D4207F936F93FF93EF93EA810E94C6
:10135C00471BE5E10E94D420AF91BF918F919F91E3
:10136C000E94C320DF01CB01EB81F0E00E940D2134
:10137C000E9408210E94C3207F936F93FF93EF93E9
:10138C00EE810E94471BEBE00E94D420AF91BF91ED
:10139C008F919F910E94C3207F936F93FF93EF9344
:1013AC00ED810E94471BE5E00E94D420AF91BF91D4
:1013BC008F919F910E94C320DF01CB01EC81F0E063
:1013CC00F595E7950E940D210E94C320279608955C
:1013DC00AA930A93EA81FB81E4910E2FE03019F075
:1013EC00E981E01709F406C0EA81FB813196EA83B2
:1013FC00FB83F0CFE02FF0E00881249608950E9443
:10140C00AB2124970A93A985BA859E960E944D1B01
:10141C000E94541B0E94591B0E94C72109F450C002
:10142C00E985FA85E481E03099F10E945E1BE03099
:10143C0011F0E1E01BC2A985BA851496E0E0EC93AB
:10144C00E985FA850E94701B0D01A985BA855A960B
:10145C000E947921D0010E94AA200E94591B0E944F
:10146C00CC21B0F4E985FA850381023088F0A98596
:10147C00BA855A960E9479210E94591B0E94AA2073
:10148C00E983FA836B837C830E945E1B0150EDCF52
:10149C000E94541B0E94BD2199F0E985FA85A18117
:1014AC00AA93EA85FB85F2960E94751B11F0E1E088
:1014BC00DDC10E94541BA985BA859E960E94842189
:1014CC00E0E0D4C1BA93AA930A93E981FA810E940D
:1014DC00821B0E2F003009F05BC0A981BA81AC9140
:1014EC00A33029F4E981FA81E581E03009F444C0A4
:1014FC00A981BA810E948A1BE981FA810E94921B00
:10150C00E981FA81F296E250FE4FA5E5BAEAA08392
:10151C00B183E981FA81F296A2E5B2E581E691E424
:10152C000E949B1BEC51FE4FA2E7B2E781E491E6CF
:10153C000E949B1BE851FE4F0F01A981BA811E9698
:10154C000E94A11BF296E451FE4F0F01A981BA81B2
:10155C001A960E94A11BA181AA93EA81FB81F296A3
:10156C00FA93EA93EC81FD810E94A91B6EDCA981A0
:10157C00BA811596E0E0EC93E981FA81A181AA93F6
:10158C00E0E0EA93A0E0B0E0D7DCE03009F001E065
:10159C00E02F0881239608950E94AB2124970E9486
:1015AC00D3210E94B11B0E94B61B50F0AC85BD85A7
:1015BC005E960E9479210E94B11B0E94CC2118F0EA
:1015CC000E94BE1B60C0AC85BD8592960E94C31B59
:1015DC00AC85BD85EC91F0E0E130A0E0FA0739F57F
:1015EC0028853985F901F695E7952E0F3F1F0E9446
:1015FC00CA1B09F046C00E94DF1B0C9111272F5FFC
:10160C003F4F0E94CA1BE9F50E94DF1BEC91FE2F95
:10161C00E0E00E2B1F2BE885E17021F0F8010E9411
:10162C00F52002C0F801FF70662777272CC0E23046
:10163C00A0E0FA0779F40E94E71B0E94F01B0E94BD
:10164C00F71BF9F4A885B985E2E00E94011C0E9401
:10165C000A1C19C0E330A0E0FA0799F40E94E71BBA
:10166C000E940F1C0E94F71B61F4A885B985E4E069
:10167C000E94011C0E947921EF7FFF7F6F7F7F709A
:10168C0002C00E94161C0E94DA212E9608950E9418
:10169C00AB2124970E94D2210E941B1C0E94B61BD6
:1016AC0030F0A989BA895E960E94201C10F042E0A5
:1016BC0083C0A989BA8992960E9479210E94261C1E
:1016CC00A989BA89EC91F0E0E130A0E0FA0709F0C1
:1016DC0043C00D851E85F801F695E7950E0F1F1F6B
:1016EC000E942B1C09F063C00E94411C51F0D901CF
:1016FC00EC91EF70AE2FE985F0E00E94EC20EA2B24
:10170C0001C0E985D901EC930F5F1F4FA989BA89F4
:10171C001496E1E0EC930E942B1C09F048C00E9447
:10172C00411C49F00E944C1CE4E00E94E020FF2781
:10173C00662777270EC0D901EC91E07F1E2E0E9400
:10174C004C1CE8E00E94E020FF2766277727EF700B
:10175C00E129D901EC932BC0E230A0E0FA0789F41F
:10176C000E94511C0E94F01B0E945A1C01F5AD8571
:10177C00BE85E2E00E94651CA985BA85A083B18371
:10178C0016C0E330A0E0FA0789F40E94511C0E94B5
:10179C000F1C0E945A1C59F4AD85BE85E4E00E94D2
:1017AC00651C0E944C1C0E94A12101C042E0A98929
:1017BC00BA891496E1E0EC93E42F0E94D921639648
:1017CC0008950E94AB2124970A930E946E1C0E94DC
:1017DC00B61B18F00E94731C10F002E046C000E02B
:1017EC000E94731C08F041C0E985FA85FA93EA93CC
:1017FC00AF81B88589859A85CFDEE983FA836B83BF
:10180C007C830E947C1C0E94BD2179F10E94591B93
:10181C000E94811C11F402E028C00E94591B0E94F6
:10182C00891C11F401E021C0E985FA85FA93EA9349
:10183C000E94911C0E94A6210E94961C28DF0E2F4C
:10184C00003099F4E985FA850E949B1C49F0A98522
:10185C00BA850E94A01CA985BA851596E1E0EC9387
:10186C000E947C1C0E94261CBBCFE02F08812B966B
:10187C0008950E94AB216097AC89BD895E960E9449
:10188C0079210E94AA1C0E94AD1C0E94BD21B1F4BA
:10189C00AC89BD891A960E94C31B0E94B21C0E947F
:1018AC00C12139F00E94B71C0E94B21C0E94CC21AD
:1018BC0020F00E94BE1B0E94BA1C1EC00E94BF1CBE
:1018CC00AA89BB898C899D890E94C41C0E94CB1C4F
:1018DC000E94B61B18F40E94BE1B90C00E94B71C3D
:1018EC000E94CB1C0E94CC2118F40E94D01C86C0F4
:1018FC000E94AD1C0E94BA1C0E94D51C0E94DA1CCE
:10190C000E94DF1CEF5FFF4F6F4F7F4F0E94DA1C6E
:10191C000E94B71C0E94B11B0E94CC2160F0E2E037
:10192C00F0E060E070E00E94DA1C0E94E41C18F405
:10193C000E94E91C63C00E94BF1CAA85BB858C85D4
:10194C009D850E94C41C0E94D01C0E94BD21A1F048
:10195C000E94CB1C0E94891C29F00E94CB1C0E9467
:10196C00811C19F40E94D01C49C00E94E41C19F47B
:10197C000E94E91C43C0C4CF0E94BF1C0E94EE1CF5
:10198C00AFEFBFEF8FEF9FE082DEE03019F00E94E7
:10199C00161C34C00E94AD1C0E94BD2191F00E9407
:1019AC00BF1CEA89FB896C897D890E94A621AE85C2
:1019BC00BF85888999896BDEE03019F00E94161C6E
:1019CC001DC00E94DF1CAC89BD891A960E9484211F
:1019DC00EC89FD890E949B1C79F0AC89BD891E960F
:1019EC000E947F213197604070400E948921AC8910
:1019FC00BD891596E1E0EC930E94DF1C6696089574
:101A0C000E94AB210E94B71CE250F0406040704035
:101A1C000E94AA1CEC81FD81A68DB78D80A191A19D
:101A2C00E2E0F0E060E070E00E94F51C0E9497217B
:101A3C000E94CC2118F00E94E91C70C3EC81FD813E
:101A4C00E281F0E00E9497210E940D210E94172153
:101A5C007F936F93FF93EF93AC81BD819A960E9415
:101A6C007921AF91BF918F919F910E94AA2056C36B
:101A7C00BA93AA9324971A930A93EE81FF810E943A
:101A8C00FA1C16960E94021D0E94091D0E94811CC0
:101A9C0029F00E940E1D0E94131D20F0E2E0198116
:101AAC0008815FC10E941B1D29F40E940E1DA0819C
:101ABC00A33009F006C00E940E1DB696DF010E94ED
:101ACC00021D0E941B1DB1F40E94221D3896DF01DD
:101ADC000E947521AE81BF81AE17BF0720F0E2E0F6
:101AEC00198108813EC10E940E1DB696DF010E942D
:101AFC0079213BC00E940E1DE281A0E1EA9F80018A
:101B0C00AE81BF81A017B10748F10E940E1DFA9358
:101B1C00EA930E94B21C40DDEA83FB836C837D83D5
:101B2C000E94091D0E94891C21F4E1E019810881A1
:101B3C0018C10E94091D0E94B61B28F00E940E1DA0
:101B4C000E94131D20F0E2E0198108810AC1EE8188
:101B5C00FF81E01BF10BEE83FF83D2CF0E94221D8D
:101B6C00FA93EA930E94B21C4BDFDF01CB01EE81AA
:101B7C00FF810E94F5200E942C1D0E94311D0E94A5
:101B8C000E1DF296DF01EE81FF810E94371D198137
:101B9C000881E7C0AA9324970E94D421A885B9850F
:101BAC0014960E94752131968F01002E012A31F076
:101BBC00A885B9851E960E94451D11F4E4E0CFC09E
:101BCC00F801EF7009F0C1C0A885B9850E94A01C6E
:101BDC00A885B9851A960E94451D61F40E940E1DB8
:101BEC003896DF010E9475210E171F0710F0E4E0F4
:101BFC00B6C0ABC0F8010E94F5200F010E940E1D6B
:101C0C00E281F0E03197E021F121309709F09DC09D
:101C1C000E940E1D0E944A1DBFDC0E94531D0E9493
:101C2C00581D0E94B61B10F4E2E099C00E94581D8A
:101C3C000E94891C11F4E1E092C00E940E1D7E9658
:101C4C00DF010E9479210E94581D0E94CC2108F4CA
:101C5C006DC0EF81E03011F4E4E081C00E940E1DF4
:101C6C000E944A1D06DE0E945D1D0E94BD2111F4DA
:101C7C00E7E075C00E94581D0E94811C11F4E2E03F
:101C8C006EC00E94581D0E94891C11F4E1E067C0CF
:101C9C000E940E1D0E94821BE03011F0E1E05FC03B
:101CAC000E940E1D0E94921B0E940E1DDF01BE960B
:101CBC00FF93EF93FD010E94631DAF91BF910E94B2
:101CCC00842120E00E940E1DE2812E17D8F40E9480
:101CDC000E1D3496A1E0A0830E940E1D0E94821B53
:101CEC00E03011F0E1E03BC00E940E1DBE96DF011A
:101CFC000E947F21EF5FFF4F6F4F7F4F0E94892122
:101D0C002F5FE0CF0E940E1DBE96FF93EF93DF0175
:101D1C000E947921DF01CB01E22FF0E00E940D211E
:101D2C000E94F51CAF91BF910E948421EB81FC8134
:101D3C006D817E81A885B9851A960E9484210E94A6
:101D4C000E1D0E94631D0E94311DF8010E94FA1C99
:101D5C000E947521F296DF01F8010E94371D0E9446
:101D6C00DB212A9608950E94681D21F0E02F0E9425
:101D7C00DA21D4C10E94771D01F5AC81BD81529648
:101D8C002D913C91D9011C91103011F404E015C037
:101D9C00F901E385E87031F40E94881D0E94CC198A
:101DAC00E03009F001C009C0EC81FD81FA93EA939F
:101DBC00A0E0F0DE0E2F0030E9F2E02F0E94DA21D5
:101DCC00ADC10E94681DB1F40E94771D99F4EC819D
:101DDC00FD81A289B3891C91153E11F0103009F4D4
:101DEC0009C0EC81FD81FA93EA93A1E0D3DE0E2FBA
:101DFC00003051F3003029F50E94771D11F5AC81AC
:101E0C00BD8152962D913C913A932A93E0E0EA934E
:101E1C00A0E2B0E00E94F7190E94881D0E94E5190B
:101E2C00AC81BD8154960E947521E385E871D9017E
:101E3C001C96EC93AC81BD810E9475213496A1E077
:101E4C00A083E02F0E94DA2169C1BA93AA93259747
:101E5C000E94D121AD85BE8554963D914C914A93FB
:101E6C003A93E0E2EA93ABE0B0E00E94F719E0E0CD
:101E7C00E887E9870E2F5E2FE8E0EA87AB85BC8503
:101E8C000E94931D0E94981DAE0FBF1FAC91AE32E5
:101E9C0011F50E949D1D1E3221F4A885B98513975A
:101EAC000CF003C00E94A91DF4CF1F3221F01C3589
:101EBC0011F0113208F402C0E6E071C00E94981DC6
:101ECC000E94B01D10F4E4E201C0E0E2A32FB42F95
:101EDC001B96EC9363C00E949D1D113220F01F32A3
:101EEC0011F01C3509F432C01E3219F0EA855E1768
:101EFC0068F0AA85A83011F41E3211F0E6E04FC04C
:101F0C0058E0EBE0EA87000F000F1FC0103818F004
:101F1C000360E6E044C0E8E9F0E0FA93EA93A12F0D
:101F2C0057DA309711F0E6E03AC0113410F01B3557
:101F3C0008F002C0026007C0113610F01B3708F021
:101F4C0002C0016010520E94A91DC5CF0E94981DAD
:101F5C000E94B01D10F4E4E001C0E0E01E2F5030F0
:101F6C0011F4E6E01CC0A32FB42FAC91A53E21F4D4
:101F7C00A32FB42FE5E0EC93AA85A83011F4000F41
:101F8C00000FE02FE370E13009F41061E02FEC70EA
:101F9C00E43009F41860E32FF42F1387E0E00E947B
:101FAC00D8212F960895BA93AA930E94D321E1E0E9
:101FBC00E03029F0AC81BD81AC91A03209F006C0B3
:101FCC00EC81FD813196EC83FD83F1CFAC81BD8139
:101FDC00AC91AF3229F0AC81BD81AC91AC3559F4E8
:101FEC00EC81FD813196EC83FD83AE81BF81169629
:101FFC000E94B81D0AC0AE81BF810E9475217696E1
:10200C00DF010E9479210E94BC1DAC81BD81AC9185
:10201C00BB27909760F40E94C21DA0E0B0E028DDC1
:10202C000E2FAE81BF8152960E94C71D3EC00E94EA
:10203C00C21DDE01169609DF0E2F0030B1F5AE8100
:10204C00BF8191DE0E2FAE81BF8154960E94752107
:10205C00E385E4703E2F003039F0043011F4303059
:10206C0009F001C005E021C03030F9F4AE81BF8128
:10207C0052961D912C91E12FF22FE385E07111F412
:10208C0005E013C00E94CC1D0E9408217F936F9322
:10209C00FF93EF930E94D01DAF91BF918F919F91B1
:1020AC000E94D61D0E94BC1DC2CFE02F0E94DA21D7
:1020BC00289608950E94AB21EC81FD81A181AA9301
:1020CC00ED81FE81F296FA93EA93EB81FC816D81AE
:1020DC007E810E94A621A1E00E94C706E03011F08B
:1020EC00E3E01CC0EC81FD810E94DB1D11F0E2E0FD
:1020FC0015C0AC81BD81A859BF4F0E94E51D11F4DC
:10210C00E0E00CC0EC81FD81F296EE5AFF4FDF014E
:10211C000E94E51D11F4E0E001C0E1E0269608956F
:10212C00AA9364970E94D221AC8DBD8D0E9475211B
:10213C00EF83F887AF81B885EC91E0533E2F3A30AE
:10214C0020F41196AC91AA3309F00AC0EF81F885FE
:10215C003296EF83F887AC8DBD8DED93FC9302C066
:10216C0030913F0E313010F0EBE0C2C1E32F0E94F2
:10217C00F31D0E947521ED83FE83AA8DBB8DED931B
:10218C00FC93309711F4ECE0B3C1AD81BE81EC91BE
:10219C00E03089F0ED81FE81A1810E94BD064E2FB9
:1021AC0040FD09C0E98DE03011F042FD01C002C0D4
:1021BC00EAE09EC19CC1AD81BE81E0E0EC93E32FCF
:1021CC00AD81BE811196EC93ED81FE81A1810E94BF
:1021DC00E9054E2F40FF02C0E3E08AC1E98DE030F3
:1021EC0011F042FD01C002C0EAE082C10E94671AF0
:1021FC000E94E91CEF8BF88F698F7A8FDF01CB017E
:10220C0059DF0E2F0130D9F4ED81FE81F296E254A4
:10221C00FE4F1E2F2F2FE481E03089F0A12FB22F1B
:10222C0018960E947921ED8BFE8B6F8B788F0E9414
:10223C00671AAF89B88D898D9A8D3CDF0E2F0330CC
:10224C0011F4E1E055C1003049F4AD81BE81DD9659
:10225C000E947521E030A2E0FA0711F0EDE048C1D0
:10226C00AD81BE81A85BBF4F0E940A1C0E94FB1D62
:10227C000E94001E0E94BD2141F4AD81BE81AA5A6C
:10228C00BF4F0E9479210E94FB1D0E94001EAD8150
:10229C00BE815A960E948421ED81FE81EE5BFF4F38
:1022AC00E081AD81BE811396EC93ED81FE81E381DB
:1022BC00F0E00E94051E0E940D210E9417210E9431
:1022CC00FB1D0E940A1E0E94111EAD81BE819296BA
:1022DC000E948421ED81FE81E7ADAD81BE81129615
:1022EC00EC93AD81BE81AD5BBF4F0E947521AD817A
:1022FC00BE811896ED93FC93AD81BE81AB5BBF4F55
:10230C000E940A1C0E94161E0E941B1E31F4AD81F5
:10231C00BE81AE5ABF4F0E94221E0E940A1E0E940E
:10232C001B1C662777270E94F51C0E94051E0E9425
:10233C00B4207F936F93FF93EF930E94251EAF9170
:10234C00BF918F919F91662777270E94B920ED81CD
:10235C00FE81E281F0E00E940D210E945021EE5F8F
:10236C00FF4F6F4F7F4FE987FA876B877C87AD8173
:10237C00BE815E960E94842101E00E944C1CA73F06
:10238C00EFE0BE07E0E08E07E0E09E0708F002E019
:10239C000E944C1CA73FEFEFBE07E0E08E07E0E089
:1023AC009E0708F003E0033039F4AD81BE81A25AD8
:1023BC00BF4F0E94792102C00E942D1EAD81BE81AB
:1023CC0096960E9484210E942D1E7F936F93FF93FB
:1023DC00EF930E94251EAF91BF918F919F910E9408
:1023EC002C1DAD81BE819A960E948421AD81BE8147
:1023FC001E960E94161C0E948421AD81BE811496EB
:10240C00E0E0EC93033009F05FC0AD81BE8115961E
:10241C00EC93AD81BE81AE59BF4F0E9475210E94D5
:10242C00111EAD81BE8152960E948421ED81FE81E8
:10243C00A181AA93EE81FF81F296FA93EA93E88543
:10244C00F9850E94A91B0E94C706E03011F5ED81A9
:10245C00FE810E94DB1DE9F4AD81BE81D2960E9403
:10246C007921E235A2E5FA07A1E66A07A1E47A0729
:10247C0081F4ED81FE81F296EC51FE4FDF010E945A
:10248C007921E237A2E7FA07A1E46A07A1E67A0705
:10249C0009F01AC0ED81FE81F296E451FE4FDF0186
:1024AC000E947921AD81BE811A960E948421ED8112
:1024BC00FE81F296E851FE4FDF010E947921AD8139
:1024CC00BE811E960E948421AD81BE810C930E9418
:1024DC008A1BAD81BE8156960E94B81DADE3BEE04D
:1024EC000E94341EAD81BE811696ED93FC93E0E004
:1024FC000E94D9216E960895BA93AA93EA81FB8122
:10250C00309771F0AA81BB81EC91E03049F0EA81FF
:10251C00FB81A681B781E881F981EA17FB0711F0ED
:10252C00E9E00AC0EA81FB81A1810E94BD06E1704D
:10253C0011F0E3E001C0E0E024960895BA93AA9369
:10254C001A930A93AC81A13010F0EBE020C0EC811F
:10255C000E94F31D0D911C91002E012A19F0D80137
:10256C00E0E0EC93EA81FB81309721F0AA81BB81FA
:10257C00E0E0EC93EC81ABE3BEE0F0E0EE0FFF1F8C
:10258C00EA0FFB1FAA81BB81A083B183E0E0198114
:10259C00088125960895AA93A2970E94D421A8A5F4
:1025AC00B9A50E94C71DEDA1EF71EDA3FE01B69672
:1025BC00FA93EA93FE017196FA93EA93E9A5EE7108
:1025CC00AE2FAEDD0E2F003009F01AC1FE0133968E
:1025DC00EBA3FCA3FE013F96FA93EA93A8A5B9A539
:1025EC00E2DC0E2FEDA1EC7109F49AC028970030B3
:1025FC0089F0043021F4DE015796E3DB0E2F003016
:10260C0019F0E02F2896FCC0EDA5E860EDA719A500
:10261C002AA569C0EDA5E47019F0E8E02896F0C091
:10262C0019A52AA5012E022A29F0E12FF22FE38504
:10263C00E17119F0E7E02896E3C0EDA5E87009F424
:10264C0052C00E94CC1D0E9408217F936F93FF9370
:10265C00EF930E94D01DAF91BF918F919F910E94DB
:10266C00D61D0E94AA1CE12FF22F74960E943A1ECE
:10267C007A960E943A1E7C960E94961C0E94A1217A
:10268C00AF89B88D1496E1E0EC93AF89B88D9E9626
:10269C000E94C31B0E94B71C0E94BD21A9F0EF89A8
:1026AC00F88DFA93EA930E94091D8BD80E2F0030F7
:1026BC0011F02896A5C00E94B71C0E94411EAF893C
:1026CC00B88D1A960E948421EF89F88DFA93EA93BB
:1026DC00AE81BF81888599850E94050A0E2F003036
:1026EC0011F028968DC0EDA5E870C1F0E12FF22F06
:1026FC003B96A0E0A0830E946D090E94BA1C0E9428
:10270C00D51CA12FB22F1E960E948421AF89B88DA3
:10271C001496E1E0EC93EDA5E062EDA728961BC0C2
:10272C00003011F0E02F6CC019A12AA1012E022A51
:10273C0029F0E12FF22FE385E07111F0E4E060C0A5
:10274C00EDA1E27029F0E12FF22FE385E17009F49D
:10275C0002C0E7E055C0AF85B8899E960E947921EA
:10276C00A8A5B9A55A960E948421E9A1FAA1A8A509
:10277C00B9A55E96ED93FC93EDA1A8A5B9A5149609
:10278C00EC930E94CC1D0E9408217F936F93FF93C2
:10279C00EF930E94D01DAF91BF918F919F910E949A
:1027AC00D61DA8A5B9A51E960E948421A12FB22FD3
:1027BC005C960E947921A8A5B9A51A960E9484213D
:1027CC00A8A5B9A516960E94B81DA8A5B9A51596D9
:1027DC00EFEFEC93A8A5B9A556960E94B81DEF850E
:1027EC00F889A8A5B9A5ED93FC93AF85B889169681
:1027FC000E947521A8A5B9A51296ED93FC93E0E073
:10280C000E94DB21AA960895BA93AA932A970E9454
:10281C00D221EB89FC89ED83FE83AF85B8890E94B8
:10282C00C71D0E94461E0E944B1E0E94501E21F086
:10283C00E02F0E94D921E1C3ED89FE89A481A07803
:10284C0021F0E2E00E94D921D8C30E94571E21F446
:10285C00E7E00E94D921D1C3ED89FE89A285B38519
:10286C0084859585E989FA890E942C1D7F936F9345
:10287C00FF93EF930E945C1EAF91BF918F919F913C
:10288C000E94CC2118F4E0E0E98BEA8BE989FA8903
:10289C00309709F477C10E94621EFD01BC01F170F2
:1028AC00309709F029C1ED89FE8905800E94461EEA
:1028BC00E2810E1608F44EC0AD89BE8916960E94B0
:1028CC00451D99F4AD89BE891E960E9479210E94FE
:1028DC00691E0E946E1E41F40E94461E0E94751EC7
:1028EC000E94691E0E947A1E0CC00E94461E0E9405
:1028FC004B1EA289B389848995890E943F0C0E9442
:10290C00691E0E946E1E09F43DC1AB85BC858D8588
:10291C009E850E94811C31F40E94801EE2E00E9480
:10292C00D9216BC3AB85BC858D859E850E94891C86
:10293C0031F40E94801EE1E00E94D9215EC3EB8538
:10294C00FC856D857E850E94871EAD89BE89159696
:10295C00E0E0EC93ED89FE89A481A07479F00E94EB
:10296C00461E0E948D1E0E94951E31F00E94801EF4
:10297C00E1E00E94D92141C30E94A21E0E94461E82
:10298C000E944B1EA289B3898489958939D8EF831B
:10299C00F88769877A870E94911C0E94BD2131F4C7
:1029AC000E94801EE2E00E94D92127C30E94A91E2A
:1029BC00AF81B88589859A850E940D210E94AA2035
:1029CC00EF83F88769877A87A989BA89E0E0F2E012
:1029DC000E943D213E2F4F2F032E042A09F464C080
:1029EC000E94A91EE30FF41F0F010E94461EE281F4
:1029FC00D001F0E0EA17FB0758F40E94461EE28172
:102A0C00F0E0DF010E94A91EAE1BBF0B3A2F4B2F2B
:102A1C000E94461EE181EA930E94C21D0E94EE1C98
:102A2C00A32F0E942B07E03031F00E94801EE1E0C2
:102A3C000E94D921E2C20E94AE1E0E94B920E32F4F
:102A4C00F42F662777270E94CC2108F5ED89FE89A3
:102A5C00B0960E944B1EA689B789808D918D0E94DD
:102A6C00B51E0E94B920E0E0F2E060E070E00E9448
:102A7C001721AF81B88588279927EA0FFB1FFA9396
:102A8C00EA93A0E0B2E00E94E5190E94A21E0E9407
:102A9C00BA1EE30FEC93E32FF42FEE0FFF1FFE2F64
:102AAC00E0E01E2F2F2F4CC00E94AE1E0E94C721AB
:102ABC00D9F00E94621E0D010E945C1ED0010E9482
:102ACC00CC2158F40E94461E0E948D1E0E94EE1CC2
:102ADC00A1E00E94C706E03009F406C00E94801EE7
:102AEC00E1E00E94D92189C20E94911C0E94BF1E64
:102AFC000E94BA1EEF5FEC930E94C51EA0E0B2E0EC
:102B0C00AE1BBF0B1A2F2B2FE989FA89E117F2079D
:102B1C0010F419892A890E94C51EAD89BE89909628
:102B2C00EA0FFB1FFA93EA93EF81F885FA93EA9385
:102B3C00A12FB22F0E94E5190E94CC1EE064EC93E9
:102B4C00E12FF22FAD81BE81EA0FFB1FED83FE83D7
:102B5C000E94D11EDF01CB01E12FF22F0E942C1D10
:102B6C00D0010E948421AF85B889ED91FD91E10FD0
:102B7C00F21FFE93EE93E989FA89E11BF20BE98BC4
:102B8C00FA8B84CE0E94621E0D010E945C1ED00145
:102B9C000E94C72120F40E94D91E0E94DF1E0E94B1
:102BAC00CC1EE062EC93E0E00E94D92126C2BA93DD
:102BBC00AA9324970E94D4210E94E51EFA93EA93CB
:102BCC00E985FA850E94501E09F07FC0EF81F885D7
:102BDC00A481A07209F479C0A481A074F1F00E94C0
:102BEC00E51EE181EA93E885F985B096FA93EA93BC
:102BFC00EA85FB85A689B789808D918D0E94AB21D2
:102C0C00A1E00E942B07E03011F0E1E05FC0AF8142
:102C1C00B8851496EC91EF7BEC930E94E51EFA9329
:102C2C00EA93E985FA85A28DB38D848D958D0E94EA
:102C3C00050A0E2F003009F048C0AF81B8855E96AA
:102C4C001D912C91A12FB22F1B96EC91E062EC936D
:102C5C00AF81B8851A960E947921A12FB22F5C966C
:102C6C000E948421AF81B8851E960E947521A12FE8
:102C7C00B22F5A96ED93FC93EF81F885A685B78514
:102C8C0080899189FD01BC010E940321A12FB22FE3
:102C9C005496ED93FC930E946D090E945D1DA12F2B
:102CAC00B22F56960E948421AF81B8851496EC9170
:102CBC00EF7DEC930E94E51E3496A1E0A0830E9468
:102CCC00E51EDF010E94680A0E2FE02F0E94DB2117
:102CDC0029960895BA93AA930A93A981BA8167DFBA
:102CEC000E2F003021F4A981BA810E94C71DE02F5C
:102CFC000881239608950E94AB2160970A930E9445
:102D0C00461E0E944B1E0E94501E09F074C1ED8994
:102D1C00FE89A481A07811F0E2E06EC10E945C1ED5
:102D2C000E94051E0E94C72118F40E94571E09F02C
:102D3C0004C00E945C1E0E94FB1DAD89BE891696C4
:102D4C000E944D1B0E94E91C0E94261C0E94EA1E38
:102D5C00AD89BE891596EFEFEC930E94051E0E947B
:102D6C00C12108F001C10E94461EE281F0E00E94E0
:102D7C000D21A0E0B2E080E090E00E941721E987ED
:102D8C00FA876B877C870E94591B0E94C12198F49B
:102D9C000E94001E0E94F01E7F936F93FF93EF938F
:102DAC000E947C1C0E94F01EAF91BF918F919F914D
:102DBC000E94CC2108F420C00E947C1C0E94411E61
:102DCC00DF01CB010E94B51E0E94411E0E94122100
:102DDC000E94BE200E94EA1E0E94D91E0E94051E5F
:102DEC000E94B920A98BBA8B8B8B9C8BAD89BE8929
:102DFC0052960E94221E28C0AD89BE891E960E9442
:102E0C00221E0E941B1EE1F40E94461E0E94751E8B
:102E1C000E94161E0E941B1C0E94811C21F40E9401
:102E2C00801EE2E0E9C00E941B1C0E94891C21F458
:102E3C000E94801EE1E0E0C00E94F71E0E947A1EF4
:102E4C000E94F71E0E94871E0E941B1E09F48CC054
:102E5C000E94B51E0E94051E0E94C72108F04BC09F
:102E6C000E94571E89F00E94461E0E94FC1E0E9462
:102E7C003F0C0E94161E0E941B1E29F40E94B51EB8
:102E8C000E94FB1D38C008C00E94461E0E94FC1EFA
:102E9C000E94D20A0E94161E0E941B1C0E94891CB2
:102EAC0021F40E94801EE1E0A7C00E941B1C0E941E
:102EBC00B61B38F00E94461E7E96DF010E94201C35
:102ECC0020F00E94801EE2E097C00E94F71E0E9434
:102EDC00871E0E94D11E0E944C1C0E94AA20D00169
:102EEC000E9484210E944C1C0E94001E0E94B4204F
:102EFC000E94FB1DADCF0E94D11E0E94051E0E9498
:102F0C00AA20D0010E9484210E94051EE0E0F2E07C
:102F1C0060E070E00E945021AD89BE891596EC935B
:102F2C000E94001EF1703097F9F00E94461E0E941C
:102F3C00FC1E0E94060D0E94261C0E94541B0E941F
:102F4C00BD2121F40E94801EE2E056C00E94A91E01
:102F5C000E946E1C0E940D210E94AA200E94261C19
:102F6C000E94BA1EEF5FEC930E94621EFD01BC0131
:102F7C00F170309751F0AD89BE8956960E94792137
:102F8C000E946E1C0E94C72109F424C0ED89FE89A1
:102F9C00A481A07469F00E94461E0E948D1E0E949E
:102FAC00951E21F00E94801EE1E026C00E94A21E08
:102FBC000E94461EE181EA93EE89FF89B0960E9439
:102FCC00751B21F00E94801EE1E016C00E94541B6C
:102FDC000E94BF1E0E94621E0D010E945C1ED00149
:102FEC000E94C72140F40E94D91E0E94DF1E0E943D
:102FFC00CC1EE062EC93E02F088167960895BA939B
:10300C00AA931A930A93AA81BB8112960E947521E6
:10301C00309729F1AA81BB8114960E9475218F01EA
:10302C00309761F00230E0E01E0780F0F801319734
:10303C008F01AA81BB811496ED93FC93AA81BB816D
:10304C0012960E94341E3197AC81A083AA81BB8159
:10305C000E947521FF2312F00E94341E06C0AA8123
:10306C00BB81EFEFFFEFED93FC93198108810C947A
:10307C00051ABA93AA9326970E94D12100E0AC8539
:10308C00BD850E94C71DEA89FB893196EA8BFB8BB3
:10309C003197E4913E2FE03009F41FC1E02FE0306E
:1030AC0039F4353211F401E002C00E94031F14C13F
:1030BC00E130A9F4353219F40E94031F0CC102E06F
:1030CC0050E010E03D3211F411E006C13B3211F436
:1030DC005BE202C1303211F450E2FEC002C0E230B9
:1030EC0039F440E003E0303311F41068F5C003C04C
:1030FC00E33009F0F1C0303310F03A3308F007C078
:10310C00AAE04A9F402DE32FE0534E0FE5C0E32F7A
:10311C00E33649F40E940A1FE889F989A481AA932D
:10312C000E94101FD8C0E33769F40E940A1FA889B7
:10313C00B98914960E94931DAE81BF810E94071A13
:10314C000E2F0FC0E03789F40E940A1FA889B98995
:10315C0014960E94931DAE81BF810E94131A0E2FEC
:10316C00186012601F7720E034C0E43611F0E936A5
:10317C0011F4146002C0E53731F4E0EDF0E0EE83B9
:10318C00FF8305E00CC0E83511F4186003C0E83784
:10319C0009F0A1C0EAEDF0E0EE83FF8304E012FF3A
:1031AC0014C00E940A1F0E94161FAB85AA233AF472
:1031BC00EA85FB850E94C820EA87FB875DE25030D8
:1031CC0011F00F5F01C01B7F04C00E940A1F0E94F8
:1031DC00161F10FD11C0041778F417FF08C012FF5A
:1031EC0004C01B7F352F015001C030E301C030E219
:1031FC000E94031F4150EFCF202F11FF17C020302A
:10320C00A1F013FF06C0EE81FF813591EE83FF83A1
:10321C0005C0AE81BF813D91AE83BF830E94031F69
:10322C00403009F041502150EACF4BC030E3EE81E1
:10323C00FF810E948E21E887F987EE81FF8132960B
:10324C00EE83FF83E885F985AA85BB85AE17BF079A
:10325C0050F03F5FA885B985EA85FB85EA1BFB0B1F
:10326C00EA87FB87EFCF3A3328F013FF02C0395FB0
:10327C0001C0395D14FD1AC0313320F4A885B9851D
:10328C00119709F409C0421710F010FF01C013C0C8
:10329C0030E217FF0BC030E3106112FF07C01B7F39
:1032AC005A930E94101F403009F041500E94031F96
:1032BC00403009F041502150A885B985129708F08B
:1032CC00B5CF10FF08C0403031F04150E0E2EA9336
:1032DC000E94101FF8CF00E0D6CEAC85BD850E94B1
:1032EC0075210E94D82164960895FF92F82E269796
:1032FC000E94D321DE011C960E94A6200E947521FB
:10330C00309719F4EFEFFFEF25C0DE0116960E94FF
:10331C00A6208D01DE011C960E94A6200E94931D02
:10332C00E0E0E887E987DE011A960E94A6200E9459
:10333C007521FA93EA931A930A93E5E0F8E1FA936C
:10334C00EA93DE011A9695DE9F01AE81BF81E0E023
:10335C00EC93F9010E94DA212A96FF900895AA9322
:10336C00E881E295EF70AE2FAA0FAA0FEA0FEE0FCD
:10337C00A991AF70EA0F0895AA93A991EE27AA50CC
:10338C0012F0E05FFCCFA65FEA0F0895BA93AA9300
:10339C006627772789919991E991F991A991B9912A
:1033AC00009629F001976D9171916717C9F3671B0E
:1033BC0010F4EFEF0895E0E009F0E3950895BA9367
:1033CC00AA9399818881009641F0BD81AC81FB81E3
:1033DC00EA8161916D930197E1F7FD81EC8126966D
:1033EC000895BA93AA93B981A881109631F0FC8103
:1033FC00EB816A8161931197E9F7EB81FC8125964A
:10340C000895BA93AA93A991B991EE27FF276D91CC
:10341C00662311F03196FBCF0895BA93AA93AA278D
:10342C00BB27E991F9910590002011F01196FBCF83
:10343C00FD010895A2E0B0E00C941E1F0E946001F3
:10344C000C945D01E981E07F0E2F02950F70A02F87
:10345C00F5CFE981EF700E2FA02F0E946001EACF0B
:10346C000E94E501662777270E948E1FA0E0B0E03E
:10347C0080EA90E40E941320DF01CB01E0E0F0E051
:10348C0060E874E40E9461200895E0910D09F091C8
:10349C000E0908950E94B0210E94C11FA0E0B0E067
:1034AC0088EC92E40E9413200E94571F0895E0912B
:1034BC001109F09112090895E0E0FCE0FA93EA9307
:1034CC000895ED81FE81FA93EA930895A0910A0C78
:1034DC00B0910B0C80910C0C90910D0C0E948116EC
:1034EC00EBCFEB81FC81FA93EA93E0E2F0E0FA9304
:1034FC00EA93A7E6B9E00895E091200EFF2766272E
:10350C0077270E94A621E091210EFF2766277727B7
:10351C000E94A621E091220EFF27662777270E94A2
:10352C00A6210895B2DF0E940D210E94A621E091F0
:10353C000F09F09110090E940D210E94A6210895F7
:10354C0084E10E947B196896E0E0EA9308950E945A
:10355C00C601A6E2BEE00C94AE01FA93EA93E091A8
:10356C00230EFF27662777270E94A621E091240EC1
:10357C00FF27662777270E94A621E091250EFF27BB
:10358C00662777270E94A621089591DF0E940D21BE
:10359C000E94A621E0911309F09114090E940D21BB
:1035AC000E94A6210895E0916309A091220EEA0FD2
:1035BC00E0936409A0916409AC330895E091640927
:1035CC00EB53E09364090895E093200EEA93E091A5
:1035DC00210EEA93A091220E0C945404E093210E38
:1035EC00E091200EEA93E091210EEA93A091220E35
:1035FC000C945404E0E0E093220EE091200EEA9348
:10360C00E091210EEA93A091220E0C945404E093C5
:10361C00230EEA93E091240EEA93A091250E0C94CC
:10362C007704E093240EE091230EEA93E091240EAC
:10363C00EA93A091250E0C947704E093250EE0916B
:10364C00230EEA93E091240EEA93A091250E0C949C
:10365C007704EEE8EA93A0E00C9419040E94FF03AF
:10366C00AE2F0C94B519EA93AB810E94C219AE2F00
:10367C000C941904EA93AA810E94C219AE2F0C94DF
:10368C001904F0E00E940D21DF01CB0108950E9486
:10369C007921E983FA836B837C830895ED81FE8124
:1036AC006F8178850895A981BA818B819C81089559
:1036BC00E985FA85A181AA93EA85FB85F296FA93AE
:1036CC00EA93EC81FD816E817F810E94A621A1E0AD
:1036DC000C942B07A2A1B3A184A195A10895FA93F0
:1036EC00EA93E885F9856A857B850E94A621A1E08D
:1036FC000E94C706E0300895FA93EA93A0E0B0E088
:10370C0080E090E00C94050A9E96E0E0F0E060E02A
:10371C0070E00E9484210895F296FA93EA93E0E017
:10372C00EA93A0E0B2E00C94F7190E94A121E98180
:10373C00FA81F29608950E947921D0010E94842189
:10374C00E981FA810895A289B389848995890E94B7
:10375C00AB21A1E00895A885B9858A859B8508953C
:10376C00A230E0E0BE07E0E08E07E0E09E0708959F
:10377C00E1E0F0E060E070E008950E947921EC83D4
:10378C00FD836E837F830895EC85FD85FA93EA9320
:10379C00D901E0E0F2E00E943D21AE81BF81888535
:1037AC009985662777270E94AF200E94050AE03092
:1037BC000895AC85BD85D296F901F170AE0FBF1F8F
:1037CC000895EC85FD85FA93EA93AA85BB858C85D3
:1037DC009D850895E0E0F1E060E070E00E945021EA
:1037EC000895AE81BF81888599850E94AF200E9483
:1037FC00050AE03008950E943721F170AC85BD8533
:10380C00D296AE0FBF1F08950E94752166277727A9
:10381C000895E0E8F0E060E070E00E945021089527
:10382C00EFEFFFEF6FEF7FEF0895AD85BE858F85CE
:10383C00988908950E947921F8DF0E94CC2108957F
:10384C00ED83FE836F8378870895E989FA89FA936B
:10385C00EA93D801E0E0F2E00E943D21AF81B88507
:10386C0089859A85662777270E94AF200E94050AD2
:10387C004E2F40300895A989BA89D296F801F1707B
:10388C00EA0FFB1F9F01ED85E1700895A985BA85AC
:10389C008B859C850895E989FA89FA93EA93AF851B
:1038AC00B88989899A890895AF81B88589859A855F
:1038BC000E94AF200E94050A4E2F403008950E94AE
:1038CC003721F170A989BA89D296EA0FFB1F0895A6
:1038DC00AD81BE818F8198850895A985BA855E9644
:1038EC000E947921F5DF0E94CC210895E981FA81AB
:1038FC006B817C810895A130E0E0BE07E0E08E078B
:10390C00E0E09E070895AF3FEFEFBE07EFEF8E07A5
:10391C00EFEF9E070895EF81F88569857A85089504
:10392C00A0E0B0E080E090E00895A685B78580899E
:10393C009189E9CF1E960E947F21EF5FFF4F6F4F59
:10394C007F4F0E94892108950E949C210895E88947
:10395C00F9896A897B890895AC81BD818E819F81AB
:10396C0008950E9492210895EC83FD836E837F83DA
:10397C000895EC89FD89FA93EA9308950E94D20A7E
:10398C00EC87FD876E877F870895AC85BD858E8516
:10399C009F850895EC85FD856E857F850895EC8166
:1039AC00FD816E817F810895E887F9876A877B871F
:1039BC000895E885F9856A857B850895F0DFCBDE6F
:1039CC000E94C7210895E0E0F0E060E070E0089507
:1039DC00EA85FB856C857D850E94A62108950E9451
:1039EC00B0210E94B4200895A885B9851496ED9352
:1039FC00FC93A885B98508950E947921EA83FB83FD
:103A0C006C837D830895AA81BB818C819D810895EF
:103A1C00A885B9850E94752108957E96DF010E94C4
:103A2C007921F1DF0E94CC210895EA81FB816C8120
:103A3C007D810E94BD210895EA81FB816C817D818D
:103A4C00A885B9851A960E948421E2CF662777272C
:103A5C000E94AA200895A885B9851E960E948421EB
:103A6C000895EF70F070EE0F0E94EC20EA0FFB1F30
:103A7C00A885B9855296ED93FC93E0E008950E94D9
:103A8C0079210E94BD210895FA93EA93EA85FB857A
:103A9C00A285B385848595850895EB83FC836D831E
:103AAC007E830895AB81BC818D819E810895F5DF65
:103ABC00EB81FC816D817E810895FA93EA9308DF96
:103ACC000C94060DBA93AA930E94D321EC81FD812C
:103ADC00FA93EA93A0E0B0E00E943E0D0E2F003066
:103AEC000895AC81BD810E947521FA93EA93EE8111
:103AFC00FF81A685B785808991890E94050A0E2FC2
:103B0C00003008953A932A93EE81FF81A489B589F8
:103B1C00BA93AA93ABE0B0E008950E947521EE83AE
:103B2C00FF830895E885F985AE81BF810895E88506
:103B3C00F9853196E887F9873197AE81BF81AE0F51
:103B4C00BF1F1C910895E52F5F5FF0E0E30FF41F9A
:103B5C0010830895EA0FFB1FAB85BC85ED93FC9396
:103B6C001132089530DF0E9484210895AE81BF8107
:103B7C0016960E9484210895EE81FF81FA93EA93B0
:103B8C000895E0E0F0E0ED93FC930895A12FB22F9F
:103B9C0054963ACEA12FB22F5A960E9475210895B1
:103BAC00662777270E94C3200895F296E250FE4FB5
:103BBC00DF010E947521E535AAEAFA0708950E94F3
:103BCC007921EF7FFF7F6F7F7070E634A1E4FA07F5
:103BDC00A4E56A07A0E07A070895ABE3BEE0F0E045
:103BEC00EE0FFF1FAE0FBF1F0895E98BFA8B6B8B87
:103BFC007C8B0895E989FA896B897C890895A98958
:103C0C00BA898B899C890895AD81BE81A05CBF4F18
:103C1C000E9475210895AD89BE898F89988D16CF24
:103C2C00ED87FE876F87788B0895ED85FE856F8510
:103C3C0078890E94BD2108950E947921F1CFED81F0
:103C4C00FE81A085B185FD010E94F5200895ED81CE
:103C5C00FE8140DDCFDF0E94AA200895ED91FD91F9
:103C6C003196FE93EE930895A0E0B0E0A083B1836B
:103C7C00E12FF22F0895E150F0406040704008951C
:103C8C00AD89BE890E9475210895FA93EA93EF8954
:103C9C00F88D0895A281B3810E9482120E2F0030FC
:103CAC000895ED89FE89A481A2700895AD89BE891D
:103CBC001A960E9479210895ED89FE89A681B78113
:103CCC00808591850895EB87FC876D877E870895A5
:103CDC00EB85FC856D857E850E94BD210895FA9348
:103CEC00EA931EDE0C943F0CAD89BE891E960E9491
:103CFC0084210895AD89BE891496EC91E068EC930B
:103D0C000895AD89BE8952960E9484210895E1815F
:103D1C00EA93EE89FF89B096FA93EA930895E88DB9
:103D2C00F98DA689B789808D918D0E94AB21A1E078
:103D3C000E942B07E0300895AD89BE891496EC9152
:103D4C00EF7BEC930895ED89FE89E581F0E0089511
:103D5C00ED89FE89A689B789808D918DDCCDE985A9
:103D6C00FA856B857C850895AD89BE891596EC9195
:103D7C000895AD89BE8956960E9484210895AD8917
:103D8C00BE8916960E947521F1700895AD89BE8981
:103D9C001496EC910895ED89FE8936960F01DF019A
:103DAC000E9479210895AD89BE8916960E947921C9
:103DBC000895AD89BE891A960E9484210895AF8119
:103DCC00B8850E9475210895AD89BE8916960E940A
:103DDC008421089550DFDF01CB01C1DF0E94502107
:103DEC000895ED85FE856F8578890895FA93EA9399
:103DFC00AF85B88989899A8908953A93AD85BE852E
:103E0C00EF85F88909950895E889F9893497E88B45
:103E1C00F98B0895AD85BE85EF85F88909950895D0
:103E2C00A889B98914960E947521EA87FB870895A1
:103E3C00109639F084EF91E00197F1F7A89511975E
:103E4C00C9F70895552342F4503811F4E0FF04C02B
:103E5C003196691F791F6BF050E8572711F45F9367
:103E6C00CAC05F3F31F0660F000C57956795752FF0
:103E7C0008955F9300200AF0CAC0C3C050E8192E01
:103E8C001522880F991F9527550F879550E8072EF7
:103E9C000522660F771F7527550F6795089568944F
:103EAC0001C0E8945F93F2DF703818F07F3F08F49C
:103EBC00A2C056E1571BAAF4519558300EF4593054
:103ECC0030F0EFEFFFEF6FEF7FE777F91AC077274E
:103EDC005523B9F0EE0FFF1F661F771F5A95D1F7C8
:103EEC0010C07727583028F0EF2FF62F672F585037
:103EFC00F9CF552331F076956795F795E7955A9557
:103F0C00D1F700200AF442D15F910895689401C062
:103F1C00E894309760407040B1F0002426F077238D
:103F2C0012F4009433D1172E7EE1112032F07A95E1
:103F3C00EE0FFF1F661F111CF9CFEF2FF62F612D0F
:103F4C005F938ADF5F9108954F93AF01FD01DA0112
:103F5C00AB01BC01CA01402D012C142E4F910895C8
:103F6C00EA0FFB1F681F0895E095F0956095EF5FD1
:103F7C00FF4F6F4F08955F9381DF903849F150E800
:103F8C001526703821F1572F591B2BF112F4DCDF59
:103F9C00FACF583118F0AA27BB278827583028F0B9
:103FAC00AB2FB82F88275850F9CF552329F0869579
:103FBC00B795A7955A95D9F7502D512572F0D0DFAA
:103FCC0038F46795F795E795739513F420C0BCDF2B
:103FDC0043DF5F910895D8F7FBCFEA1BFB0B680B0F
:103FEC0051F010F40094C0DF662392F3EE0FFF1F24
:103FFC00661F7A95CBF7EE27FF27662777275F9109
:10400C000895EFEFFFEF6FE77FEF5F910895EFEF0C
:10401C00FFEF6FE77FE75F9108955F932FDF7038B5
:10402C0051F3903841F301240894791F23F41CF3C5
:10403C0000203AF3ECCF0F921F932F933F934F93A3
:10404C00112722279927689FA0018F9F302D410DA2
:10405C00591F6B9F300D411D591F8E9F27D0BF9F3D
:10406C0025D06A9F23D0BE9F1DD0AF9F1BD0AE9F83
:10407C00110D291F391F491F591FE32FF42F652FCD
:10408C00522F4F913F912F911F910F9066232AF041
:10409C00550FEE1FFF1F661F02C073954BF2D2DE49
:1040AC005F910895100D211D391F02C0200D311D87
:1040BC00491F591F08955F93E1DE703821F41120D8
:1040CC000AF49FCFA4CF903809F495CF012408941B
:1040DC00970B1BF4D4F30020F3CF792F1F932F935E
:1040EC003F934F9311241127222733274427552719
:1040FC0090E2AE17BF078607410730F0AE1BBF0B2F
:10410C00860B410B089401C08894551F221F331F46
:10411C00111CAA1FBB1F881F441F9A9551F7F90148
:10412C00612D4F913F912F911F91662332F0550FC6
:10413C00EE1FFF1F661F7A9543F284DE5F91089590
:10414C000024AF0DB01D0895EA0FFB1F681F791FE7
:10415C000895AE0FBF1F861F971F0895EA1BFB0B18
:10416C00680B790B0895AE1BBF0B860B970B08954C
:10417C00EA23FB23682379230895EA2BFB2B682B76
:10418C00792B0895F195E195F0400895F09560959F
:10419C007095E195FF4F6F4F7F4F0895EE230E2ED4
:1041AC00FD01BC0131F0EE0FFF1F661F771F0A9453
:1041BC00D1F70895EE230E2EFD01BC0131F076955A
:1041CC006795F795E7950A94D1F70895EE0FFF1FC1
:1041DC00EE0FFF1FEE0FFF1FEE0FFF1F0895F6955A
:1041EC00E795F695E795F695E795F695E795089595
:1041FC00EE0FFF1F661F771F0895E62FF72F60E065
:10420C0070E008956E2F7F2FE0E0F0E008956F2F9F
:10421C00660F660B762F0895E095F0956095709576
:10422C0008957A9F702D6B9F700DF89F700DE99F0C
:10423C00700D6A9F602D710DFB9F600D711DE89FC5
:10424C00600D711D8827FA9FF02D610D781FEB9F73
:10425C00F00D611D781FEA9FE02DF10D681F781F8E
:10426C0008956E2F6A9FF0016B9FF00D0895002446
:10427C00112490E1AA0FBB1F001C111C0E1A1F0A5F
:10428C0018F40E0E1F1E01C0A1609A9599F7FD013E
:10429C00D00108953F934F935F930024112444273A
:1042AC00552730E2AA0FBB1F881F991F001C111C39
:1042BC00441F551F0E1A1F0A460B570B28F40E0EDF
:1042CC001F1E461F571F01C0A1603A9559F7FD01EB
:1042DC00BC01D001CA015F914F913F910895ED91BE
:1042EC00FC9111970895ED91FD916D917C9113972F
:1042FC000895ED91FD916D917D910895ED93FD9350
:10430C006D937C9308957E936E93FE93EE93089534
:10431C000590F491E02D0895E881F9816A817B8103
:10432C000895A881B9818A819B810895E883F983D6
:10433C006A837B830895A083B183828393830895DA
:10434C007A936A93FA93EA9308959A938A93BA9319
:10435C00AA930895182E862F612D192E972F712D43
:10436C001B2EBF2FF12D1A2EAE2FE12D0895309755
:10437C0060407040089500240A160B0608060906D2
:10438C000895EA17FB07680779070895AE17BF076A
:10439C008607970708955A934A933A932A931A9348
:1043AC000A9308955D814C813B812A811981088192
:1043BC000895AC0FBD1F05900D928A95E1F70895F5
:00000001FF
