:020000000C945E
:1000020070000C9400000C9400000C9400000C94FE
:1000120000000C9400000C9400000C9400000C945E
:1000220000000C9400000C9400000C9400000C944E
:1000320000000C9400000C9400000C9400000C943E
:1000420000000C9400000C9400000C9400000C942E
:1000520000000C9400000C9400000C9400000C941E
:1000620000000C9400000C9400000C9400000C940E
:1000720000000C9400000C9400000C9400000C94FE
:1000820000000C9400000C9400000C9400000C94EE
:1000920000000C9400001027E80364000A0001002D
:1000A200001000011000010003030302020C00080B
:1000B20000010006253032693A253032693A25308E
:1000C200326920543A253032692E30326900413A81
:1000D20020253032693A2530326920202000F894F8
:1000E200EE27EFBBF1E0F5BFE5BF8DE0A2E0BB2755
:1000F200ED938A95E9F780E090E2A0E0B1E0ED931C
:100102000197E9F78BBFE0E0EEBBEFEFEDBFE0E276
:10011200EEBFC0E0D9E00C9406022C978CE060E0C0
:1001220070E0EAEAF0E01BD50A93849A859A809AF5
:10013200819A829A839AA2E3B0E038D700E00C3029
:1001420070F4A2E0B0E032D7E02FF0E0DE011196C9
:10015200AE0FBF1FAC910FD00BD00F5FF0CFECE012
:10016200E0930009A09100091ED008812D96089500
:100172008C9A8C9808950A930A2F03FF02C08B9AD7
:1001820001C08B9802FF02C08A9A01C08A9801FFBF
:1001920002C0899A01C0899800FF02C0889A01C0F2
:1001A20088980C94FE021A930A931A2F8D9804C011
:1001B2001A930A931A2F8D9AA2E0B0E0F7D6E12F94
:1001C200E07F0E2F02950F70A02FD5DFD1DFE12F38
:1001D200EF700E2FA02FCFDFA2E0B0E0E7D6C8DF8E
:1001E200099119910895B0D41A2F2B2F00E0E02F16
:1001F2000F5FF0E0E10FF21FA081DADFA12FB22F33
:10020200EE27A00FBE1FEC91E03089F7A4D40C9426
:100212000A03FCD3E02FF0E0309719F4A12FA05885
:1002220014C0E130A0E0FA0719F4A12FA0540DC0C8
:10023200E230A0E0FA0719F4A12FAC5606C0E33071
:10024200A0E0FA0719F4A12FAC52ADDF0C94080319
:100252000A930A2FE02FE06CE0937C00E0917A0091
:10026200E064E0937A00E0917A00E071E1F3E091DA
:100272007A00E061E0937A00E0917800F0917900F1
:100282000C94FE02A7E0E4DF6627772759D5A0E0A9
:10029200B0E080E893E4D8D5DF01CB01E0E0F0E004
:1002A20060E874E41FD6B7D3BFD3ABE1B9E00FD592
:1002B200ED93FC93C2D3C6D3CED3ADD3C3D3E0E088
:1002C200F0E060E271E4C0D5A6D3AED3A9E1B9E013
:1002D200FED4ED93FC93C5D3B5D3BDD3C7D318F0E9
:1002E200A9E1B9E0CBD3089592D487D4BFD421F445
:1002F200E0E0E093810032C02697EE81FF816885BD
:100302007985A0E0B4E284EF98E4ECD5EA83FB833C
:100312006C837D83DE01DBD4ED93FC93E881F9816C
:10032200AA81BB818C819D8196D3A0D328F0E881DC
:10033200F9813196E883F983E881F9813197EF2FCA
:10034200F0E0E0938900E881E150E0938800E0E486
:10035200E0938000E9E0E0938100269624960895D8
:1003620093D31DD4EDD4DF01CB01BEDFE091200990
:10037200E03019F489D3F29602C086D3F297E09363
:100382001E09F0931F0985D3A53FE1E0BE0714F0D3
:10039200E1E004C07ED3D3971CF4E0E0E0932009AF
:1003A20008957CD3E6EBF0E0FA93EA93E091020938
:1003B2007AD3E091030977D3E091040974D33DD352
:1003C200662777271FD44DD3662777271BD484E16E
:1003D200BCD26896E0E0EA93A0E06AD35FD3E0ED96
:1003E200F0E0FA93EA93A0E0B0E023D45CD3A1E07A
:1003F200B0E01FD458D388E0A8D22C96E0E0EA936C
:10040200A1E056D3089558D30895E0E8E0937E0022
:10041200E0ECE0937C00E3E8E0937A00E0E8E0932C
:100422007B007BDEE0E0EA93EA93A0E0F4D0259A39
:10043200EFE0E8B941D3B5DFE0911D09EF5FE0934A
:100442001D0920DFE0DFADDFA0910109A13011F429
:1004520087DF05C0A0E0B0E080E090E045DFA0913A
:100462001D09BB27EAE0F0E0B2D3309719F4E0E0CF
:10047200E0931D09A0910409A03071F4A1E0B0E05D
:10048200D8D3A0910309EA1739F4A0E0B0E0D1D3A0
:10049200A0910209EA1709F003C0E1E0E093010923
:1004A20030990CC0A0910109A13021F4E0E0E09361
:1004B200010904C0E0910209EF5F09D331990CC030
:1004C200A0910109A13021F4E0E0E093010904C008
:1004D200E0910309EF5F04D3A0910409AC3368F003
:1004E200E0E0E0930409E0910209EA93E091030954
:1004F200EA93A0910409BDD086DFA0910309AC3331
:1005020018F0E0E0EDD27FDFA0910209A83118F0E7
:10051200E0E0DDD278DF32990DC0A0910109A1306F
:1005220021F4E0E0E093010905C0A0E0B0E081D34E
:10053200EF5F8BD333990DC0A0910109A13021F453
:10054200E0E0E093010905C0A1E0B0E072D3EF5F03
:100552007CD3A1E0B0E06DD3EC3320F0A1E0B0E0B9
:10056200E0E073D3A0E0B0E064D3E83120F0A0E093
:10057200B0E0E0E06AD360CFFFCF58988DE08A9573
:10058200F1F708950A930A2F519A529A509A589A5B
:100592008DE08A95F1F7A02F02D00C94FE02AA9367
:1005A200E991A8E0E7955A9808F45A9A00000000E9
:1005B20000000000599A85E08A95F1F7599885E084
:1005C2008A95F1F7AA9571F708950A930A2FE02FF9
:1005D200E160AE2FD7DF5A985298A8E088944A99E2
:1005E2000894E795599A85E08A95F1F7599885E03C
:1005F2008A95F1F7AA9591F7C0DF0991089506D27D
:10060200E12FEE7FAE2FBEDFA02FC9DFB6DF19814B
:100612000881239608956FD20370203009F0006A92
:10062200113011F4046005C0123011F4086001C0E9
:1006320000E066D2E0E9EA93A02F2EC082D28D01BB
:100642002E813F8148855985A5E8BFDFAE2FAED107
:10065200DA01EC93A3E8B9DFAE2FA8D1D901EC936C
:10066200A1E8B3DFAE2FA2D1D801EC9371D22A96C2
:10067200089541D245D2E4E8EA93A22FA4D1AE2F45
:10068200BEDFE2E8EA93A12F9ED1AE2FB8DFE0E809
:10069200EA93A02F98D1AE2FB2DFEEE8EA93A0E85A
:1006A200AEDF59D2259608954DD29D014D81129605
:1006B2009CD23097E1F0D901149697D28F013097EE
:1006C20059F00230E0E01E0760F0F80131978F0127
:1006D200D9011496ED93FC93D9011296CFD131979B
:1006E2004083D90182D2FF230AF0C8D105C0D901C3
:1006F200EFEFFFEFED93FC932CD226960895BA9379
:10070200AA9326971ED200E0AC85BD85E0E0F0E01A
:10071200ED93FC93EA89FB893196EA8BFB8B319747
:10072200E4913E2FE03009F409C1E02FE03031F4CA
:10073200353211F401E001C0E7D1FFC0E130A1F48C
:10074200353211F4E1D1F8C002E050E010E03D3260
:1007520011F411E0F2C03B3211F45BE2EEC0303230
:1007620011F450E2EAC002C0E23039F440E003E0A2
:10077200303311F41068E1C003C0E33009F0DDC08A
:10078200303310F03A3308F007C0AAE04A9F402DF8
:10079200E32FE0534E0FD1C0E32FE33639F4BBD140
:1007A200E889F989A481AA93BCD1C6C0E33729F4A8
:1007B200B2D1BDD112D10E2F07C0E03749F4ABD16F
:1007C200B6D117D10E2F186012601F7720E038C003
:1007D200E43611F0E93611F4146002C0E53731F461
:1007E200E8E9F0E0EE83FF8305E00CC0E83511F4A0
:1007F200186003C0E83709F09FC0E2EAF0E0EE8338
:10080200FF8304E012FF15C086D1A889B989149626
:10081200ED91FD91EA87FB87AB85AA2322F4B3D140
:10082200EA87FB875DE2503011F00F5F01C01B7F4A
:1008320007C071D1A889B9891496D7D1EA87FB87F5
:1008420010FD10C0041770F417FF08C012FF04C097
:100852001B7F352F015001C030E301C030E254D17B
:100862004150F0CF202F11FF16C0203099F013FF16
:1008720006C0EE81FF813591EE83FF8305C0AE8114
:10088200BF813D91AE83BF833FD1403009F04150DB
:100892002150EBCF48C030E3EE81FF81AAD1E88737
:1008A200F987EE81FF813296EE83FF83E885F98531
:1008B200AA85BB85AE17BF0750F03F5FA885B985F3
:1008C200EA85FB85EA1BFB0BEA87FB87EFCF3A330E
:1008D20028F013FF02C0395F01C0395D14FD19C051
:1008E200313320F4A885B985119709F409C042175C
:1008F20010F010FF01C011C030E217FF0AC030E350
:10090200106112FF06C01B7F5A930BD1403009F0D1
:100912004150FAD0403009F041502150A885B985A4
:10092200129708F0B8CF10FF07C0403029F04150AD
:10093200E0E2EA93F6D0F9CF00E0ECCEAC85BD85DB
:10094200ED91FD9105D164960895FF92F82E2697B8
:10095200F8D0FE0110D146855785042E052A19F4D8
:10096200EFEFFFEF1FC0DE01189609D18D01488716
:100972005987E0E0EA87EB87DE011C9600D1ED9112
:10098200FD91FA93EA931A930A93E5E5F3E0FA9359
:10099200EA93DE011C96B3DE9F01A885B985E0E0EB
:1009A200EC93F901D5D02C96FF900895AA93E88193
:1009B200E295EF70AE2FAA0FAA0FEA0FEE0FA991E0
:1009C200AF70EA0F0895AA93A991EE27AA5012F0E8
:1009D200E05FFCCFA65FEA0F0895BA93AA93A991AC
:1009E200B991EE27FF276D91662311F03196FBCF67
:1009F2000895BA93AA93AA27BB27E991F991059082
:100A0200002011F01196FBCFFD0108951A930A936D
:100A12000A2F1A810895E0931509F093160960933D
:100A22001709709318090895E0911509F0911609B4
:100A320060911709709118090895E0911B09F091CE
:100A42001C090895A0911509B09116098091170902
:100A52009091180908956627772772D1DDD0A3D126
:100A62000895E0911909F0911A090895DF01CB0167
:100A7200E0E0F0E060E07FE379D20895ED91FD914E
:100A82003196FE93EE930895E0911E09F0911F09AD
:100A92000895A0911E09B0911F090895E5E0F9E0BB
:100AA200FA93EA930895FF2766277727ABD0089534
:100AB200B0DBA5E0B9E097CBE2E0F9E0FA93EA9384
:100AC200E3E0F9E0FA93EA93A4E0B9E0B7CDE0936A
:100AD2000209EA93E0910309EA93A0910409C9CDBE
:100AE200E0930309E0910209EA93E0910309EA9392
:100AF200A0910409BECD28D00A2F1B812C81089514
:100B0200EEE8EA93A0E07BCD3A93AD85BE85EF8512
:100B1200F88909950895E889F9893497E88BF98B62
:100B22000895AD85BE85EF85F88909950895A88950
:100B3200B9891496ED91FD91EE83FF83AE81BF8159
:100B420008955A934A933A932A931A930A930895CB
:100B52005D814C813B812A81198108810895AF937F
:100B6200BF93DB01AC0FBD1F05900D928A95E1F793
:100B7200BF91AF9108950024EF0DF01D0895002458
:100B8200AF0DB01D0895F195E195F0400895F095EF
:100B920060957095E195FF4F6F4F7F4F08956F2FCE
:100BA200660F660B762F08950024112490E1AA0F98
:100BB200BB1F001C111C0E1A1F0A18F40E0E1F1E5A
:100BC20001C0A1609A9599F7FD01D0010895E894BA
:100BD200B7FF04C0B195A195B0406894F7FDD3DF8B
:100BE200E3DFFD010EF4CFDF0895ED91FC91119743
:100BF20008950590F491E02D0895E881F9816A81C4
:100C02007B8108957A936A93FA93EA9308959A936B
:100C12008A93BA93AA930895182E862F612D192EBE
:100C2200972F712D1B2EBF2FF12D1A2EAE2FE12DD6
:100C32000895F999FECFFF93FFB7F894A1BDB2BD15
:100C4200F89AE0B5FFBFFF910895F99B02C0A895FD
:100C5200FCCF9FB7F894A1BDB2BDF89A80B5E81752
:100C620019F0E0BDFA9AF99A9FBF08953097604053
:100C720070400895552342F4503811F4E0FF04C047
:100C82003196691F791F6BF050E8572711F45F9373
:100C9200CAC05F3F31F0660F000C57956795752FFC
:100CA20008955F9300200AF0C9C0C2C050E8192E0F
:100CB2001522880F991F9527550F879550E8072E03
:100CC2000522660F771F7527550F6795089568945B
:100CD20001C0E8945F93F2DF703818F07F3F08F4A8
:100CE200A2C056E1571BAAF4519558300EF4593060
:100CF20030F0EFEFFFEF6FEF7FE777F91AC077275A
:100D02005523B9F0EE0FFF1F661F771F5A95D1F7D3
:100D120010C07727583028F0EF2FF62F672F585042
:100D2200F9CF552331F076956795F795E7955A9562
:100D3200D1F700200AF42BDF5F910895689401C077
:100D4200E894309760407040B1F0002426F0772399
:100D520012F400941CDF172E7EE1112032F07A95F6
:100D6200EE0FFF1F661F111CF9CFEF2FF62F612D1B
:100D72005F938ADF5F9108954F93AF01FD01DA011E
:100D8200AB01BC01CA01402D012C142E4F910895D4
:100D9200EA0FFB1F681F0895E095F0956095EF5FDD
:100DA200FF4F6F4F08955F9381DF903849F150E80C
:100DB2001526703821F1572F591B2BF112F4DCDF65
:100DC200FACF583118F0AA27BB278827583028F0C5
:100DD200AB2FB82F88275850F9CF552329F0869585
:100DE200B795A7955A95D9F7502D512572F0D0DFB6
:100DF20038F46795F795E795739513F41FC0BCDF38
:100E020043DF5F910895D8F7FBCFEA1BFB0B680B1A
:100E120051F010F40094C0DF662392F3EE0FFF1F2F
:100E2200661F7A95CBF7EE27FF27BF015F910895E2
:100E3200EFEFFFEF6FE77FEF5F910895EFEFFFEFC7
:100E42006FE77FE75F9108955F9330DF703859F362
:100E5200903849F301240894791F23F424F30020E5
:100E62003AF3ECCF0F921F932F933F934F93112797
:100E720022279927689FA0018F9F302D410D591F6E
:100E82006B9F300D411D591F8E9F27D0BF9F25D0CC
:100E92006A9F23D0BE9F1DD0AF9F1BD0AE9F110D66
:100EA200291F391F491F591FE32FF42F652F522F76
:100EB2004F913F912F911F910F9066232AF0550F6A
:100EC200EE1FFF1F661F02C073954BF2D3DE5F91C8
:100ED2000895100D211D391F02C0200D311D491F1B
:100EE200591F08955F93E2DE703821F411200AF44D
:100EF2009FCFA4CF903809F496CF01240894970B82
:100F02001BF4D4F30020F3CF792F1F932F933F9339
:100F12004F931124112722273327A90190E2AE17FC
:100F2200BF078607410730F0AE1BBF0B860B410B94
:100F3200089401C08894551F221F331F111CAA1F39
:100F4200BB1F881F441F9A9551F7F901612D4F91DC
:100F52003F912F911F91662332F0550FEE1FFF1F15
:100F6200661F7A954BF286DE5F91089599239AF077
:100F7200772342F0971748F029F4AE17BF07860788
:100F820020F031F0989488940895989408940895E4
:100F92001894889408957723C2F7971798F3A9F7BE
:100FA200EA17FB07680788F399F3ECCF109639F03C
:100FB200A89580ED97E00197F1F71197C9F7089589
:00000001FF
