:020000020000FC
:080000000C9483B70C9400007E
:100008000C9400000C9400000C9400000C94000068
:100018000C9400000C9400000C9400000C94000058
:100028000C9400000C9400000C9400000C94000048
:100038000C9400000C9400000C9400000C94000038
:100048000C9400000C9400000C9400000C94000028
:100058000C9400000C9400000C9400000C94000018
:100068000C9400000C9400000C9400000C94000008
:100078000C9400000C9400000C9400000C940000F8
:100088000C9400000C9400000C9400000C940000E8
:100098007573737475777A7D808386888B8C8D8E63
:1000A8008D8C8A888583817F7E7E7E7E7F8081821B
:1000B800838486878888898887868483817F7D7CF6
:1000C8007B7B7A7A7979797979797A7B7D7E808177
:1000D80082828281807E7C7B79777674737271707C
:1000E8006F6F6F70717376797D8185898D9092932A
:1000F8009392908D8A878482807F7F7F808182849B
:1001080086888A8C8E8F90908F8E8C898683807D4E
:100118007A77757371706F6E6E6F70717376797CA4
:100128007E818384858483817F7C79777472706F04
:100138006D6D6C6C6C6D6F7174777C8084898C8F3D
:10014800909191908F8F8E8E8F8F90908F8E8D8BB8
:100158008987868584838382817F7D7A77757473A6
:10016800737475777879797A79797A7B7C7F8285E7
:10017800888A8B8B8A8884817D79767371706E6D9D
:100188006C6B6B6A6A6B6C6D6F7275797D80848736
:100198008A8D909295989B9EA0A2A3A3A29F9B96BE
:1001A800918B86817D797673716F6D6B6A69696AE7
:1001B8006B6D6F717375787A7C7F8185888B8E9172
:1001C80093949493918F8B87827D78726D69646123
:1001D8005E5C5A5A5B5E61666C737A80868A8E8F23
:1001E800908F8E8E8E8F92969B9FA4A7A9A9A7A564
:1001F800A19D98938D88827C76706A65615E5B5A52
:100208005A5A5B5C5D5E6063676D747C848D959CF7
:10021800A0A3A3A29E99948D868079726C66605C77
:10022800585656585C6269717A82898F9293939175
:100238008F8D8C8D8E9195999EA1A4A6A6A5A3A01D
:100248009C98928C857E77706A65615E5D5C5C5C6B
:100258005C5B5A5959595B5F656D76808B959DA398
:10026800A7A9A8A5A19B948D857D746C645D57543E
:100278005253575D646D757D84888B8C8B89888714
:1002880086888A8D91969A9DA0A2A2A2A09E9B97ED
:10029800928D87807A746F6B696867686969696924
:1002A80067656361606163686F778089939BA1A6C6
:1002B800A9A9A7A39D958C8379716963605E606322
:1002C800686E74797D80807F7D7A777473727376B7
:1002D800797E848A90979DA3A8ACAFAFAEABA7A157
:1002E8009A938D86817C7874716D6965605C5855C8
:1002F80052515254575C626A737D88929BA2A7AA96
:10030800A8A49D948B8178726D6C6D6F73787C7FD7
:1003180080807F7D7975716D6A6765646465686CD6
:100328007279818A949DA6ADB2B5B6B6B3AFABA6C5
:10033800A09B958F89837D76706A635E58534F4B77
:1003480049484A4D545C6774828F9BA5ABAEADA8F3
:10035800A0978C827A736E6D6D6F73787C808384BE
:100368008483817E7A76726F6C69686768696C705D
:10037800757C838B949CA3A9ADAFB0AEACA8A4A0A8
:100388009D9996928E8A857E776F675F57504B4806
:10039800484A4F565F6A75808B93989B9B97928BC0
:1003A800837D7773727274787C7F828383817F7B8D
:1003B80077736F6D6B69696869696A6C6E72787E4C
:1003C800868E969FA6ACB0B3B5B6B6B5B4B2B0AC8F
:1003D800A8A29A92887F756B6159514B4642404159
:1003E8004449515B66727E8890949695928E898571
:1003F80082807F8081838485848382807D7A7773FD
:10040800706D6A676463626365676B70767B81870A
:100418008D93999FA5AAAFB4B7BABBBBB9B6B1AB18
:10042800A49B92877C71665B5249423E3B3B3D42AE
:1004380049515B66717A838B9094969797979594B8
:1004480092908E8B8885827F7C797774726F6C69C5
:100458006663605E5D5D5E6064696E757B838A92CB
:100468009AA1A9AFB5B9BBBDBCBBB8B4B0AAA49C8E
:10047800948A80756A60564E48444344474C5259A2
:100488006169717980868C9195989B9C9C9C9A97C0
:10049800938E89837E7974716F6D6C6C6C6B6A69ED
:1004A8006867666667686B6E72787D848A91989EC5
:1004B800A4AAAEB1B4B5B6B5B3B0ACA7A0988F85B1
:1004C8007B71675E56504B48474647494B4E5358D9
:1004D8005F67707A85909BA4ABB0B2B1ADA8A198C4
:1004E80090877F78736E6B6867666767696A6C6EFA
:1004F80070727476787B7E82868C92999FA4A9AC60
:10050800AEAFAEADABA8A4A09B948C83786C6157BA
:100518004D46413F3E3F4144474A4E52575E667002
:100528007C8894A0AAB2B7B9B9B6B1ABA39B928A9A
:10053800837C75706B686563626162626365666817
:100548006B6E73787E858D959CA3A8ACAEB0B0AF6A
:10055800ADABA8A5A09A938B81776D635B544F4C84
:100568004A4A4A4B4B4B4C4D4F5359616A76828EDF
:100578009AA4ADB4B8B9B8B5AFA8A0988F867E775D
:10058800716C6966646363636363646566686B6FF3
:10059800747A81899199A1A7ACB0B2B2B0AEAAA67B
:1005A800A09B948D857D756D66615C595756555431
:1005B80052514F4D4D4D50555D6773818E9AA5AF81
:1005C800B5B9BBBAB7B2ACA49C938A827A736E6A87
:1005D8006766656667676869696A6B6C6F73798057
:1005E80088919AA3ABB2B6B9BAB9B7B3ADA7A09878
:1005F8008F867D746B635D5753514F4E4D4D4C4BF9
:100608004B4B4C50565E6874818E9BA6AFB5B8B9FB
:10061800B7B3AEA79F978E857C746E686562626279
:100628006263636261605F5F61646A727B858F99F0
:10063800A1A8ADB0B1B1B0AEABA7A29C958C83799F
:100648007068615C58565555545453525152545819
:100658005E66707C8894A0A9B0B5B7B7B5B2ACA5F2
:100668009E958C837A726C67646261616261615F76
:100678005D5A59585A5D636B757F89929AA0A4A7F1
:10068800A9A9A9A8A7A4A09A948C847C756F6A6864
:100698006666676766656361606061656B727C86C4
:1006A800909AA2A8ADB0B1B1B0ADA9A49D968E851F
:1006B8007D756F6A666462615F5E5B595553515020
:1006C80051555B626B75808A949DA5ACB1B6B9BA79
:1006D800B9B6B0A9A1978E847C75706C686664629F
:1006E800605E5C5B5B5D61666D747D858D949A9FD1
:1006F800A2A5A6A6A6A4A19E99938D857E77706AC9
:1007080065605D5A575452504E4C4B4C4E52575E92
:10071800667079848E98A1A9B1B7BBBDBDBBB6B0D0
:10072800A89E958C837C76716D6966646261606150
:1007380063666A70767C82888C919497999C9EA057
:10074800A1A1A09E9B96918B847D766F69635D596C
:1007580054514E4C4B4B4C4D4F52565C626A737D14
:1007680088939EA7B0B6BABCBBB7B2ACA49C938B17
:10077800847E7873706C6A6867666566686A6D718E
:10078800767B8085898D909396999B9EA1A3A5A63B
:10079800A5A39F9A938C847D756E67615C57534FB0
:1007A8004D4B4B4B4D50545A6169727B859099A2C1
:1007B800AAAFB3B4B4B1ACA7A099918A837D77717D
:1007C8006D6966656567696D7175787B7D7E7E7D0F
:1007D8007B797878797C80858B91979B9EA09F9D6B
:1007E80099938D878079736E68645F5B585553520F
:1007F800525356595F656D768089939BA3A8ACAE1A
:10080800ADABA7A19B958E88817C76726E6B69686B
:10081800696A6D7175797D7F8181807D7B78767459
:1008280075777A80868D93999EA1A1A09D98928BC9
:10083800857F7974716D6A686562605D5C5D5E6212
:10084800686F777F878E94999C9D9D9B9A979490CB
:100858008C87827C77726E6A69696B6E73787E8327
:10086800888B8D8E8D8A87837E7A76737272747781
:100878007C838A91979C9FA09E9A948D867F797598
:1008880072717170706F6D6B696766676A70777E79
:10089800868D939798989693908D8A8784807C7894
:1008A800736F6C6B6B6D71757B80848789898988A0
:1008B80086858483817F7D7A77757474767B818859
:1008C80090969B9D9C99938C857E787472717070BC
:1008D8006F6D6B69666566696D747C848C93999C91
:1008E8009E9E9D9B999795928E8A857F78726D6A58
:1008F80068696C70757A7E818383838281807F7E4C
:100908007D7B7A777573727274777D838A909597F9
:100918009795918C86817C7977767574726F6B6800
:1009280065636364696E757D848A8F9395969695E1
:10093800959492908D89837D766F69656363666B04
:1009480070767C818587888887868482807E7C799A
:1009580078767676797C81868C9195979795928E24
:100968008984807C7A78767472706E6B6968686A3C
:100978006D72777C8186898C8D8D8E8D8D8C8C8A1D
:100988008884807A756F6B6868696C71777C8185FB
:1009980087888785827F7C7977757473727374779B
:1009A8007A7F848A9095999B9B9A9794908B878459
:1009B800817F7D7B79777472706F6F707275787CC8
:1009C80080838688898A8A8A8989888787858482B4
:1009D800807D7B797878797B7D7F82848686868521
:1009E80083817E7B797776757576787B7E82878B37
:1009F8008F9295969594918E8A8683817F7E7D7C51
:100A08007C7B7A79787877777778797A7B7C7C7C45
:100A18007B7A787777767778797A7B7C7D7D7D7D30
:100A28007C7C7D7E80828587898A8A8986837F7B94
:100A38007774717070707275797D8185898C8F90EB
:100A48008F8E8B87837F7C7A79797B7E818386887A
:100A5800888988878583817F7B78736F6A666361FD
:100A6800616366696E7276797B7C7C7D7D7F81852A
:100A7800888C8F9191908D88837E7976737272734A
:100A880075777B7E82878B8F92949594928E8A85D8
:100A9800817E7D7D7F8285888A8C8C8B8A888786FB
:100AA80086858583807C76706964605F6164696F20
:100AB80075797B7B7977757374767A7F858A8D8F64
:100AC8008E8B86817C78757474757677797A7C7E5E
:100AD8008184888D919496979694918E8C8B8B8C2B
:100AE8008E8F90908F8D8B88868484858687878566
:100AF800817B736C65605D5D60646A6F7376767424
:100B080072706E6E71767C83898E91918F8B857FE2
:100B18007A76747272727373747476787A7E828657
:100B28008A8C8D8D8C8B8A898A8C8F9396999A99C9
:100B380096938F8B888786868685837F79726B6488
:100B48005F5B5B5C6064696E7275777A7C7F8388B3
:100B58008D9296999B9A97938E8984807C797672E8
:100B68006F6C6966656566686B6F73777A7C7E7F84
:100B78008184878C92989DA1A2A29F9A938C857F4D
:100B88007A7774737272706E6C696765646465668F
:100B9800696C6F73777C81878D93999EA2A5A6A6B1
:100BA800A5A3A09D9B9895928F8A858079736D687F
:100BB80063605E5E5E6062666A6F757C838C949C1F
:100BC800A2A7ABACABA8A39D979089827C76716DE8
:100BD8006A676665646463636362626161626366CF
:100BE8006A6F757C82888D929597999A9B9B9B9B3F
:100BF8009B9A9895918C87827D78736E6A66625FFE
:100C08005D5B5B5D61676E77818B949CA3A7AAAAE5
:100C1800A9A6A29D969089817A746E6966646464B7
:100C280065676869696968696A6B6E72777C8083D1
:100C38008586858483828385888D9196999B9C9BE4
:100C48009895908C87827D77726C67625D5B5A5C41
:100C580060666E777F888F95999C9D9C9B98948FF2
:100C68008A837D77716D6A68696A6C6F7173747550
:100C78007575757677797B7E7F807F7E7C797675D2
:100C88007475777B7F858A8F94989A9C9C9B9A979A
:100C9800938F89847E7974706D6C6B6C6E71757AC4
:100CA8007F848A8F94999C9E9E9C99948E88827D3D
:100CB800797777787A7C7F818281807F7D7B7A796A
:100CC800797A7B7C7D7D7C7B7977747372717273A2
:100CD80076797C8084878A8C8D8D8B8884807C78DB
:100CE800757473747577797A7B7C7C7D7E80838755
:100CF8008B8F9395969694918D8985827F7D7C7C48
:100D08007C7C7C7D7D7D7E7E7D7D7D7C7C7B7A7917
:100D1800787877767675747373727375777A7E825E
:100D280086898A8987827D77726E6B6A6C6E727625
:100D38007B7E81838484848485858687888887866A
:100D4800858482818181818283848585868788895B
:100D58008A8B8C8C8A8885817C78736F6C6A6969C8
:100D68006A6B6C6F7175797D8185898B8B898681BA
:100D78007B746E696665676A6E747A8085898D8F03
:100D88009091908E8C8986827D797674737375784C
:100D98007C81868B8F939597999A9A9B9B9A999623
:100DA800928D878079726B67646263666A6F747A02
:100DB8007F84888C8D8E8D8B88847E7974706D6B22
:100DC8006C6E72777C81868A8D8F90908E8C8985E7
:100DD800817C76726D6A696A6C70767C82888D9285
:100DE8009597999A9B9C9C9B9996918B847C736B05
:100DF800655F5C5A5B5D61666C73797F83878989FF
:100E08008885827D797572707172767A7F85898E10
:100E18009193949493918F8C88837E79736D686491
:100E280062606163666A6F757A80858A8F93979B23
:100E38009E9F9F9E9B9690887F776F68625F5E5F9C
:100E480062676D737A8085888A8A88847F79746FEF
:100E58006C6B6B6E737980888F94999D9FA09F9E11
:100E68009C98948F888179726A645F5B5A5A5C6037
:100E780064696E73787D83898F959B9FA2A3A29ED8
:100E88009890877E76706B69696B6F757A81868BAF
:100E98008F9191908D89837D77726E6C6C6E73796A
:100EA80080878E94999C9E9E9D9B9995918C867F18
:100EB800787069635E5A5858595B5E6265696D72ED
:100EC800787E858D949A9FA1A19F9B948D857D772F
:100ED800726F6E6F72767B81878C90939494918DEC
:100EE80088817B7672707072767B81878D919496FB
:100EF80097979593908D8A86817C76706B65615DF6
:100F08005B5B5B5D5F6264676A6D7175797E838820
:100F18008C8F908F8D89847F7A76747375777B80B8
:100F2800858A8F939697989896928E89837D777203
:100F38006F6D6D6E707376797C7E8082848687890A
:100F48008A8B8A8986837E7A76726F6E6E6E6F70F0
:100F58007172737475777A7D81868A8E9191908D7E
:100F680088827D78757475797E848B92989C9FA110
:100F7800A1A09E9B97938E8A85817D7A78767676D6
:100F880076767777777777777777777777767574F1
:100F9800716F6D6B6A696A6B6D6F727577797B7D3E
:100FA8007E7F818283838382807E7B787573717173
:100FB8007275797D82878C919497999A9A9A9A9961
:100FC800979593908D8985807C77726E6A67646245
:100FD80062626365686A6D6F71737474747576782C
:100FE8007A7D808386898B8C8D8E8E8D8C8B89877C
:100FF80084817E7B78757372727375787C80868C39
:1010080093999EA3A6A7A7A6A4A19E9B98969593FD
:10101800918F8B868079736D686563636365666895
:1010280069696A6A6A6B6D6F7276797C7F8183847D
:1010380085868687888989888784817D78736E6AA2
:10104800686667686C71777D858C93989DA0A2A16E
:101058009F9C97928E8A878686888B8E9091929095
:101068008E8A86827E7B7977757472716E6C6A68F7
:10107800676667686B6E72767A7E8185888A8C8CE3
:101088008C8B8985817B756F6965615F6062656B33
:1010980071787F878D93979A9B9B9995908A847E88
:1010A8007975737375787C80848789898885827F50
:1010B8007C79777573716F6D6B69686767686A6E3D
:1010C80072777D83888D919597989795918D878074
:1010D8007A746F6C6A6B6D70757B81868C9195984C
:1010E8009A9B9B9996928D87807B7673727375789D
:1010F8007C7F8284858583807D7A7774716F6D6B40
:1011080069676563615F5E5F6062666B70767D8349
:10111800898F94989B9EA0A1A1A09F9C98948F8A48
:1011280086838180818386898B8C8D8C8A87848055
:101138007E7B7A7A7A7B7D7F818486888A8B8B8B8B
:101148008986827E7975706D6A686867686868677D
:10115800666564646465696D747C858E98A1A8AFC2
:10116800B3B5B5B4B0ABA59E968D857D76716D6A25
:101178006A6B6E7276797C7D7E7D7C7B7A797A7AF1
:101188007B7C7C7B797774716F6E6E707275787A00
:101198007B7B7875716C686563626365696D737A6A
:1011A8008189929AA2A9AFB3B5B5B4B2AEA9A49EEB
:1011B80098928B847E7874706E6E6F7275797C7E6F
:1011C8007E7D7B78746F6B6764615F5D5B5A59588D
:1011D800595A5C5F62666B6F7376797B7D7E7F8020
:1011E80081838587898C8F929597999A9B9B9A99E9
:1011F80097969594949494959696959493918F8DAB
:101208008C8B8A89888684807C76706A635E59555F
:1012180052504E4D4C4B4B4B4B4B4D4F53585F67B9
:10122800707A848F98A0A7ABAEAFADAAA7A29E9BF9
:101238009896959697999B9EA1A3A6A7A8A8A7A5B7
:10124800A29F9A95908A85817C79767371706F6E6A
:101258006D6D6C6B6A6866625E5A55514E4B4A4BAF
:101268004D51565B61676D72777B7F83868A8E915D
:1012780095989A9C9EA0A1A3A4A6A9ABADAFAFAF29
:10128800ADAAA6A09A938B847D766F68625C56514E
:101298004E4B4B4B4D5155595D616467686A6B6C99
:1012A8006C6E6F7071717171717171727274757722
:1012B800797B7E8083878C91989FA6ADB4BABEC196
:1012C800C2C2C1BEBBB7B2ADA7A09991887F766EE6
:1012D800665F5955514E4B494745444344464A5128
:1012E80059626D78838C94999C9C9B97928C86818B
:1012F8007B7773716F6F7072757A7F848A90969B13
:10130800A0A5A9ACAFB1B2B1B0AEAAA6A19C979264
:101318008D88837F7B76726E6A6662605E5C5C5CD9
:101328005D5E606265686D7379818890979C9FA007
:101338009E9B958F87807974706D6C6D6F727578D0
:101348007C7F828486888A8C8D8F8F8F8E8C888212
:101358007C756E6863605D5C5D5D5E60616264673C
:101368006A6D72767B7E8182817F7C7976737271F9
:101378007172737476787B7E83888E93999EA1A30D
:10138800A3A19E9B9793908E8C8A888583807E7B71
:101398007977767675757472706E6B686766676A4A
:1013A8006E747B838B92999EA2A3A3A19E99948D20
:1013B800867F79736E6A6867686A6E73797F868CD0
:1013C80091969A9C9D9D9B97938D87807A746F6B5D
:1013D8006A6A6B6D707375767675737271717376F0
:1013E8007A7F84888B8D8E8F8E8E8E8E8F8F8E8D4A
:1013F8008A86817B76726F6D6E7073767A7D7F8157
:10140800828486898B8F919394928F8A847D766F5C
:1014180068635F5D5B5B5B5C5D5E606365686C70A9
:1014280073787C8084898D9194979A9B9B9A9895E0
:10143800908B857F7975716F6F7174787C82878CDA
:1014480091969A9DA0A2A3A4A3A2A09D9995908AE3
:10145800857F79736C66605B565350505053575C68
:1014680062686F757B81878C909497999B9B9A99FA
:1014780096928D88837F7B7876757576797C808463
:10148800888C90929496969593908C8884807C7999
:1014980076757373727271706F6D6A686562605E7B
:1014A8005E5E5F62656A70767D83898E91939392A2
:1014B800908C88847F7A7672706E6E7072767C8279
:1014C800888E93989B9D9E9F9E9C9A9794908B86BE
:1014D800817C76726D6A676665646565666768694A
:1014E8006B6D6F7275797E83898F969CA2A8ABAE5F
:1014F800AFAEABA7A29B948D867F79736F6D6C6D31
:101508006F73777D82878C8F929495969594928F3E
:101518008B86817B746D67615C5957565758595A49
:101528005A5A5A5959595B5D6269717A848E979FE4
:10153800A5AAACACAAA7A29D97918B85807B78764B
:1015480076777A7E83888D9195989A9B9C9B9B9AB7
:10155800999795928E89847E78726C67635F5C59DF
:1015680057555352514F4F4F5053575C636B747DCF
:10157800878F979DA1A3A4A29F9B96908B85817E20
:101588007C7C7D8084898E94999DA0A2A3A3A3A12D
:101598009E9B97928C857E776F69635E5B5A595ADA
:1015A8005C5F616466686969696867666666686CD5
:1015B80071777E868D9296989794908A847E7975B5
:1015C8007271707274777A7F848A90969BA0A5A7AF
:1015D800A9A9A9A7A4A09C97928B847D746C645D2B
:1015E80058545151525456595B5C5C5B5B5A5B5E74
:1015F80062686F78818A92989D9E9D9B96918C8750
:10160800827F7E7E7F8184878C90959BA0A5AAAEE1
:10161800B1B3B4B3B2AEAAA59F98918A827A736B1C
:10162800645E585451504F505152545657585A5B53
:101638005E61656A70777F868D94989B9D9C9A966B
:10164800918C88848180818285898D9196999DA0CD
:10165800A2A4A5A5A4A29F9B97928D8985817E7B34
:1016680077736E69635E595553535456595C5F617D
:101678006263636466696D73798085898C8D8C8AF1
:1016880087858382838487898C8F919396999C9F81
:10169800A3A7AAACADACA9A5A09A948E88847F7A9A
:1016A80076716B65605A565250505154575A5C5E69
:1016B8005F5F5F5E5E5F6063666A6F73777A7D7E89
:1016C8007F8081828486888B8F9295989A9C9FA12F
:1016D800A3A5A6A7A7A7A6A3A09C9894908C878348
:1016E8007F7A75706A655F5B5755555556595B5DCE
:1016F8005F616262636465676A6E73787E84898EEF
:10170800919495969697989A9DA0A5A9AEB2B5B7CB
:10171800B8B7B6B3B0ACA8A39E98928C86807B76F7
:10172800726E6B6764615D5955514E4D4C4E505405
:10173800595E6266696B6B6C6B6A6A6A6B6C6E7118
:1017480075797E82878C9094989B9DA0A2A3A4A56E
:10175800A5A4A3A19F9D9A989593908D8986817D34
:1017680078736F6A676462605E5C5A595857565757
:10177800595C60646A6F74797D8082838383838413
:101788008586898B8E929497989A9B9C9D9EA0A300
:10179800A5A8AAABABA9A6A29C96908A847E7974C8
:1017A800706C6967656463636261605E5C59565416
:1017B800535354565A5F64696E727578797B7C7C92
:1017C8007D7F808285888C91969BA1A6ACB0B4B7AA
:1017D800B9BAB9B8B6B2AEAAA49F99948E89847ED4
:1017E80079736E68635E5956545352535556585A16
:1017F8005B5D5E5F6062646667696A6B6B6B6A6A91
:101808006A6B6C6E71757A7F858C939BA2A9AFB455
:10181800B8BBBCBDBDBDBCBAB7B4B0ABA69F9891B0
:101828008A827B746E67615B56514E4B4A4B4D50B2
:1018380054585C60636567696B6D7175797E8286E3
:1018480088898885827E7B7977787A7D82878D936F
:10185800999EA3A8ACAFB2B4B5B5B3B1ADA9A49ED7
:1018680099948E89837D777069625B55504C4A499B
:10187800494A4B4C4D4D4D4C4C4D4F52565C62694C
:101888006F74787B7C7D7C7C7D7E8084888E949A46
:10189800A0A6ABB0B4B7B9BBBCBBBAB8B6B3B0AD11
:1018A800AAA7A39F9B958E877E756C645D59575632
:1018B800585B5E626567676664625F5C5958575734
:1018C8005758595B5C5E606264676B71777F87917C
:1018D8009BA4AEB6BDC3C7C9CACAC9C7C4C0BCB831
:1018E800B4AFAAA5A09B96918B857E776F675E574C
:1018F8004F4A4543424346494E53585E62676A6DB4
:101908006F7070706F6E6C6A686665646566696C26
:1019180072787F879098A0A7AEB2B6B8B9B9B8B6B2
:10192800B3B0ADA9A5A19E9A9794918D88837D7730
:101938007068615A544F4C4B4B4B4C4D4E4E4E4E6B
:101948004E4E4F5154585D63686C70727373727366
:1019580074767B8188919AA2AAB0B5B7B9B9B8B79D
:10196800B5B4B3B1AFADAAA7A39E9A96918D898558
:10197800817C767069635E59575657595D60646714
:10198800686866625E5A5755545455585B5D606383
:1019980065696D7279818B97A2AEB8C0C6CACCCC86
:1019A800CAC7C4C0BCB8B4AFAAA5A19C9894918F6B
:1019B8008C8A86827D77706A65615F5F61656A6F10
:1019C80073767776736F6A65605C585553525151D8
:1019D8005151525456595D636A727B858F9AA3ACF4
:1019E800B4BABFC1C2C1BEBBB7B1ACA6A09A948EEF
:1019F80088827D77716B66605B585555565A5F656E
:101A08006C73787C7E7D7A76716B66615D5B595804
:101A1800585859595A5B5D6063686E747B838B9420
:101A28009CA3AAAFB3B6B7B7B5B3B1AEAAA7A39FE5
:101A38009A948E878078716A635D585452505153D6
:101A4800575C626A7279808588898884807A757023
:101A58006B68676666686A6C6E707375787A7D8184
:101A6800868B91979EA5ACB1B6B9BABAB7B4AFA9EF
:101A7800A39D97908A837D76706A656261616468C8
:101A88006D73787E828688898A898785827E7A7551
:101A9800716D6967656567696C7074777B7D7F8137
:101AA8008385888B8F94989DA1A5A8A9A9A9A7A586
:101AB800A19E9A959089837B746C645D57535150AD
:101AC80052565C626A72798085888A8A8986827DA4
:101AD80077716C6764626162656A70767D848A8FEB
:101AE8009395959593918F8E8D8E8F9295989A9CBC
:101AF8009C9B9995908A847D77716B66625E5B5931
:101B080058585A5D6369717981888E929596949137
:101B18008D88827C77726E6A686868696C70757B7C
:101B280081878E94999C9E9E9D9B989592908F8F6D
:101B3800909293959593908B857D756D655F5A57B7
:101B48005657585B5E6266696D707476787A7A79F2
:101B58007774706B66615D5958585A5D626970791F
:101B6800828B949CA4AAAEB1B2B1AEAAA49E99935A
:101B78008F8C8A8A8C8E919496979796938E898467
:101B88007F7B78767677797C7F8184858687878660
:101B980084827E7A756F6A64605D5C5D5F64696F7C
:101BA800757B81868B9094989B9EA0A1A09E9A9409
:101BB8008E878079736F6D6C6E7174797D81848581
:101BC8008584817E7C7A7878797A7B7B7B7875705E
:101BD8006A645E5A5654545456585B5F63686F760D
:101BE8007E879099A0A5A9AAAAA7A4A09B9794913B
:101BF8008D8A86827D78726D696665676A6F757C85
:101C080083898E919394939291908E8D8C8B8885F5
:101C1800807A736C655E595552515254575B6066B1
:101C28006E757E868E969DA2A5A7A7A6A3A09C9852
:101C380094908C8884807C7874706C69676565661C
:101C4800696D737A828A929AA0A5A9ABACAAA8A555
:101C5800A09A948D857D756D66605C5958595C6154
:101C6800676E757D848B91969A9C9D9D9B999692A3
:101C78008E8A85817D7A7673706D6A6764615E5C31
:101C88005A5A5C5F656B737C858E959CA0A3A4A350
:101C9800A09D98938D87807A746E69656362636688
:101CA8006B70767D848A8F94979A9C9C9C9A989462
:101CB8008F89837C76706A6662605F5E5E5D5C5A5F
:101CC800585654525254575C636C76808992999E48
:101CD800A1A2A19E9A958F89837D78736F6D6B6B96
:101CE8006D70747A80878E959CA1A5A8AAAAA8A6CB
:101CF800A29E99938D87817B76716C686562605E20
:101D08005D5B5B5A5A5A5C5F63686F77808A949D03
:101D1800A5ACB0B2B2B0ACA6A099928B85807C7904
:101D28007878797B7F83888D92969A9DA0A1A2A1CD
:101D3800A09E9B97938E88827B746E68635F5C5AC3
:101D48005857565453514F4D4D4D4F545A616B751A
:101D58007F8891989DA0A2A19F9C98938D88837F4E
:101D68007C7A797B7D81868C92979CA0A4A6A7A873
:101D7800A8A7A5A29F9B958F88817A726C66625EE0
:101D88005C5A5959585857565554535455575B60CF
:101D9800666D747C82888C8F90908E8B87837E7A18
:101DA8007672706F707275797F858B91979CA0A3FE
:101DB800A5A6A6A5A3A09D99948F89827C756F6915
:101DC800635E5A565453535354555758595B5D5F85
:101DD80063676D737A80868A8D8E8C8A8683807D10
:101DE8007C7C7D7E7F818386898C91969CA2A9AF1D
:101DF800B4B8BBBCBBB8B5B0ABA6A09A948D87806D
:101E080079726B65615D5A5959595A5B5B5B5B5BCB
:101E18005A5B5D5F646970767C808384827F7C789E
:101E28007573727374777A7D8185898E9399A0A76B
:101E3800ADB3B7BABBBBB9B7B4B0ACA7A39D9791C4
:101E48008A837C756F6A66636161616262636262DC
:101E580061605F5E5F6164696E73787C7E7F7E7BA4
:101E68007875727070717376797D81858A8E939892
:101E78009EA3A7ABADAEADABA8A5A19E9A97938F35
:101E88008A86807B756F6B6663605D5B58565452BB
:101E9800514F4F4F505255585D62676C7175787A43
:101EA8007B7B7B7A7979797A7C7F83878B8F939711
:101EB8009B9EA0A2A4A5A6A6A6A5A5A4A2A09E9BFB
:101EC80097928D87817B76726F6D6D6D6E6F6F6F78
:101ED8006D6B6763605C5958585A5C60656A6F74CB
:101EE800787C7F81828485878A8C9094989CA0A432
:101EF800A8AAABACABA9A7A4A09D99979492908EE1
:101F08008D8B898784827F7D7B79797878787978D9
:101F1800787775726F6C68656361616264676A6D12
:101F28006F7172737272727375787D82888D9296F2
:101F38009A9C9E9F9FA0A09F9E9C9A97938E8A860C
:101F4800827F7D7B7A7877757372706F6E6E6E6F35
:101F580071727272716F6D6A6764626060616366E4
:101F6800696C6F71737475757677797B7E818385FB
:101F7800868787868787898B8D9092949494918E93
:101F88008A86837F7D7C7B7B7B7B7B7B7B7A7A7A73
:101F98007A7A7A79777673716E6C69676565646544
:101FA80067696C70757A7F84888C8F919395969702
:101FB800999A9B9B9C9B9B9998969492908F8D8BBA
:101FC8008885817D7975716E6B6B6B6C6F72767AB3
:101FD8007E818385868584827F7C7A7774716F6D34
:101FE8006B6A6A6A6C6E72767C81868C9094979A1A
:101FF8009C9EA0A2A4A5A6A7A6A5A3A19E9B9896D1
:1020080093908D89857F79726B655F5B59585A5CAF
:102018006064696D70737475757472706E6C6A67DC
:10202800656361605F5F606265696D737A818990DD
:10203800989EA4A9ADB0B1B2B1B0ADAAA7A39F9B19
:102048009793908C8986827E7A76716C69656463D1
:102058006466696C6F717273716F6C696663605FD7
:102068005D5C5C5B5A5959595A5D60666D757E872F
:10207800919AA2A9AFB4B8BBBCBCBBB8B5B0ABA66B
:10208800A09A95908B87827E7A75716C6864615F7F
:102098005E6062666B70757B7F82848584827F7BDD
:1020A80077736F6B6764615F5D5C5C5C5E62676DD4
:1020B800757E879099A1A8AEB3B6B8B8B7B5B1ADDB
:1020C800A8A39D98938F8C8A888684817D79746F64
:1020D8006A6663616264676B6F7276787978777520
:1020E80073706D6A686563605E5C5B5A5B5C5E62B8
:1020F800676D737B838C949CA3AAAFB3B6B6B5B354
:10210800AFAAA49E98928D898683817F7D7B7874FF
:10211800706C686563626365676A6D70727373710A
:102128006F6C696663605E5C5B5B5A5B5B5C5E60A0
:1021380063686D747B838C949DA6AEB5BBC0C3C524
:10214800C4C3BFBBB5AFA8A29B96918D8A8885836F
:10215800807D7975716D6A6867686B6E73777B7E51
:1021680080807E7B77726D6864605D5B59575554DB
:10217800545455585B61687079828C969EA6ADB3AD
:10218800B7BABBBBBAB7B4AFA9A49E98938F8C89D2
:10219800888684827E7A76716C686665676A6E73F3
:1021A800787C7F807F7C78736D68635E5B5855535D
:1021B80051504F4E4F5052565B61687078818A94E7
:1021C8009CA5ACB2B7B9BBBAB8B5B1ACA6A19C973F
:1021D800928E8A85817B76706A64605C5B5B5E62E6
:1021E800676E747A7E8182817E7A75706B676461AE
:1021F8005F5E5D5C5C5C5D5D5F6164686C7278808D
:10220800889099A2AAB1B7BCBFC0BFBEBBB8B5B1D0
:10221800AEAAA5A09A938C847D76706B6866656675
:10222800676A6E71767A7D80828383817E7A756F24
:102238006A66625F5E5E5E60616366686A6B6D7047
:102248007275797E848B929AA1A8AFB4B7B9BAB9DE
:10225800B6B3AFABA5A099928B837C756E696563A5
:10226800626365686B6E7275787A7C7D7E7E7C7A37
:1022780076726D68635F5D5B5B5D6064686C6F73ED
:102288007577797A7B7D7F83878C92989FA5AAAE94
:10229800B1B2B2B0ACA7A29C968F88817A746E69ED
:1022A8006562616264676B7074787A7C7B7A777434
:1022B8006F6B6763605D5C5D5E61656A70757B818D
:1022C80085898C8D8E8D8C8A898787888A8E93984C
:1022D8009DA2A6A9A9A8A5A09A948D87827E7B789D
:1022E8007573716F6E6D6D6D6F71737576777675C9
:1022F800716D6964605D5B5A5B5D6064696F767D72
:10230800858C949A9FA3A6A6A4A29D99938F8B8946
:102318008788898B8E9193949492908C8884807C02
:1023280079777675757576777778797A7A7A79782C
:1023380076736F6A66615D5A5857585A5E62686E5E
:10234800757C83898E93979A9C9E9F9FA0A0A09F3F
:102358009E9D9B9894918E8B8887868585848381A2
:102368007E7C79767474747577797B7C7C7B7977DD
:1023780073706C696663615E5C5A59595B5D62682B
:102388006F777F878E939697979593908E8D8D8D87
:102398008F90929292918E8B8783807E7E7F8185AB
:1023A800888B8D8E8D8C8A8886848381807D7B77CF
:1023B800736D68635E5A58565656575758595B5D41
:1023C80061666C747C858D94999C9D9C999693917B
:1023D8008F8F91939598999A9895918B86807C790F
:1023E80078797C81868C90949798989794918E8A26
:1023F80086827D77716A645E585451505052565A9D
:1024080060666C737B828990969B9EA0A09F9C9827
:10241800948F8C898888898A8C8E8E8E8C89858108
:102428007C797675777A7E848A8F94989A9B9A9726
:10243800948F8A857F79736D67615C5754515051C9
:1024480053575C626870777F868D93989C9FA09F96
:102458009D9A96928D88837F7C7A78777776767541
:1024680074726F6D6A6867686A6E737A82898F940E
:10247800979796928D87807A746F6B676461605FB7
:102488005E5F61656A70777F878F979DA3A7A9AA0A
:10249800A9A7A49F9A948D87817C787573737272AB
:1024A8007271706E6B6866646466696E757D858D21
:1024B80093989C9C9B98938E87817B75706C6866BB
:1024C800656566696D72777E848B91979CA0A3A5DC
:1024D800A6A6A4A29E99948E87817A746F6A67646F
:1024E800626160606162646567696B6E7073767A59
:1024F8007F84898E92959696938F89837C76706C6B
:102508006968686A6C7074797E848A91989EA3A7BA
:10251800AAACACABA8A4A09B958F88827B75706B86
:10252800676563636466686B6E70737577787A7BCA
:102538007D7F8285888C90929494928F89837C7415
:102548006E68646160616265696D72777D83898F89
:1025580094999DA0A1A2A19F9B97928C8680797344
:102568006D6966656566696C6F72747678797A7B71
:102578007D7F818487898C8F929495969593908C92
:10258800868079726B6662605F6163686C72777C63
:102598008185898D90929495959594928F8B878358
:1025A8007E7A7673717071727476787A7C7D7E7EAD
:1025B8007F7F80818385888B8E909394949492906A
:1025C8008C87827D77726E6A686666676A6D7175D8
:1025D8007A7E8285888A8A8B8B8A89888785838197
:1025E8007E7A7673706E6E6F72767B8085888A8B42
:1025F8008A8885817E7C7C7C7E818487898B8B8A96
:1026080087847F79746E6964615E5D5E6063676C00
:1026180072787E84898D91939495949493918F8DFB
:102628008A86827D7874706D6C6D6F72777B80841A
:10263800878A8B8C8B8B8B8A8B8B8C8E8F919394C8
:102648009493918D89837C766F6A65626161626516
:10265800696D72777C8185898C8E8E8E8D8B89864B
:1026680083807E7B787673716E6C6B6B6B6D707428
:10267800787D82868A8D8E90909090909192949693
:1026880098999B9B9996928D87807A74706D6B6BE5
:102698006C6E7174777B7E80838486868584817E68
:1026A8007A76726E6B6967666767696A6C6E717352
:1026B80076797D8185888C8E909192929191909176
:1026C800919294959797979694908D8885817F7D20
:1026D8007D7E7F81838587898B8C8D8D8C8A87828F
:1026E8007D766F69635E5B59595B5D6064676B6F8C
:1026F8007275797C7F8285868888898888888889A8
:102708008A8B8C8D8E8E8E8E8D8C8B8A8A8988870B
:1027180086858381807F7E7F808284878989898777
:10272800837E777068615B55514F4E4E4F515357BA
:102738005B5F646A6F74797E8184868787888888FE
:10274800898B8D8F91939596979796969594949556
:10275800959696979695949392919090919192913F
:10276800908D89837C746D665F5A575554545456BE
:10277800585A5D61656A6F73777A7C7D7C7B79785E
:102788007778797C80858A8F93979B9D9FA0A1A15C
:10279800A2A2A1A1A09F9E9C9A98969492918F8E96
:1027A8008C8986817B746C645C544E4946454648E6
:1027B8004C50555A5F656A70757A7F83858787851F
:1027C80083807C7A787777797C80858A8F94989DC6
:1027D800A1A4A8ABADAEAEADABA9A5A19E9A9795A5
:1027E800949291908E8A86817A736C655F5A56545A
:1027F800545456585A5D606265686A6D707376788D
:102808007979787673706D6B6A6A6C6F747B828A7B
:10281800929AA1A7ACB1B4B6B6B5B4B1ADA8A49F0D
:102828009A96938F8C8986827D777069625B5653FE
:10283800515153565A5F63676A6C6D6E6F7071724F
:102848007374747372706D6A6765646466696E74B4
:102858007B828A929AA1A8AEB4B8BABBBBB9B5B00C
:10286800ABA5A09A96928F8C8986827D77716A63D0
:102878005E595656575A5F646A6F747778797876D6
:102888007472706E6C6B6A69686766666667686A98
:102898006C6F73787E858C949DA5ADB3B8BBBCBBBB
:1028A800B9B5B0AAA59F9A96928E8A87837F7B76C0
:1028B800716C6864605E5E5F61656A6F74797C7E66
:1028C8007E7D7B787572706E6D6C6B6B6A6A6968F9
:1028D800686767686A6C70767C838B949BA2A8ACE7
:1028E800AFAFAEABA8A39E9A95928E8B8784817D5D
:1028F8007975716D6A6764646466696E737A8086D7
:102908008C8F9192908D88837E78736F6C696866DE
:10291800656564636261606162656A7077808992E7
:102928009BA2A8ABACABA9A6A29E9A96928F8C88C4
:1029380084807B76716D6A6867696B6F747A80864C
:102948008C92969A9B9C9B98948F89837D77726DC5
:1029580069666362616060606061626366696E7324
:102968007A828A939BA2A9ADB0B1B1AFACA9A5A058
:102978009C97918B857E77716A65615E5E5F626701
:102988006D73797F83878A8B8B8A8885827D78733C
:102998006D6864605E5D5D5E606365686A6C6E6FDD
:1029A8007173767A7E848A91989EA3A6A9AAA9A80B
:1029B800A5A19C97928C868079736D68635F5D5C36
:1029C8005D5F63696F767E84898D8E8E8C88847E48
:1029D80079746F6C69676767686B6E72767B7F84E2
:1029E800888B8E8F90908F8F8E8F8F919395989ADA
:1029F8009C9D9C9B97938D87807A746F6B686664A7
:102A0800636262626365676B70767C8286898A8995
:102A180086827E797673727172737577797C7F831B
:102A2800888D949AA0A5A9ABABA9A6A29D989490CD
:102A38008E8C8C8B8B8B898784807C77726E6A678F
:102A4800656463646465666768696B6D6F717375E7
:102A580076757473716F6E6D6D6F717376797C8036
:102A680083878C91979DA3A9ADB0B1B1AEABA6A158
:102A78009B96918C89868482817F7E7D7B79777510
:102A880072706F6E6E6F717376787A7B7B7A7875F9
:102A9800726F6C6A6A6A6B6D6F71737577797B7D1B
:102AA8008083878B8F93979B9EA0A1A1A1A09F9CB9
:102AB80099958F8A837D76706B6764636465676AAE
:102AC8006C6E707273747677797A7B7C7C7A7874A2
:102AD8006F6A65605D5B5A5A5B5E6164686B6F74B0
:102AE800787D82888D9296999B9C9C9C9B9A9A9AB9
:102AF8009B9C9C9C9B98948F88817A746F6B686868
:102B0800696B6E73777C8185898C8F919191908D9B
:102B18008985807A75706B6663605E5D5E5F6266EC
:102B28006B7178808890979EA3A6A8A9A8A6A4A24E
:102B3800A09F9FA0A1A2A2A19E99928A8178706964
:102B48006360606164686D72777B7F828384838150
:102B58007F7B77726D67625D59565351505152555C
:102B6800595E656C747D868E959BA0A3A4A5A4A2CE
:102B7800A09F9E9E9FA0A1A2A3A2A19D99938C8590
:102B88007D766F696563626366696D72767A7C7E4D
:102B98007E7D7A76726D6864605C595756555556D5
:102BA800585B5E646A727A838C959DA4A9ADAFB0B8
:102BB800AFADAAA7A4A19F9E9D9C9C9C9B9A97940D
:102BC8008F8A847E78736F6C6B6C6F73777C80846C
:102BD800868684817C77706A645F5B58555352514E
:102BE80051515254575B60676F78818A939CA2A8B1
:102BF800ABACACAAA6A29E9A9693918F8E8D8C8A26
:102C08008885827E7A7773706F6E6F7174787D8134
:102C180086898B8C8B88837E77716B66625F5E5E3C
:102C28005F616366696C7074787C81878C92989E0A
:102C3800A2A6A7A8A6A39F9A958F8B888583828230
:102C480082838383828281807F7E7D7D7E7F818473
:102C5800888C90939494928E888179726B66626066
:102C6800616265686C7073777A7E8184878A8C8FDD
:102C780091939596979795938E89837C756F6A67DC
:102C88006667696C70737577787777767676777A12
:102C98007D8185898C8D8D8C88847E78726C686442
:102CA8006261616365686C7074787C808387898BE6
:102CB8008D8E8F909192929292908D89847E787366
:102CC8006E6B69696A6B6D6E6F6F6E6D6C6C6E7032
:102CD800757A81878E9396989897948F8B86817C46
:102CE800787572706F6F707275797D81868A8D9034
:102CF800939495959595949392918F8C8986827FDC
:102D08007B777471706F6E6E6F7071727374757794
:102D1800797C8084898E93979A9B9B9A96918C86CE
:102D28007F7A75716F6E6F7174787C8085888C8FEF
:102D380091939495949392908D8A8784817F7C7ADD
:102D480078767572706E6C6A6968676768686A6CAD
:102D58006E7174797E83898F95999D9E9D9B9690BF
:102D680089817A736D6A6868696D71767B808488F9
:102D78008B8E8F909191908F8D8A86827D78736FDC
:102D88006B686665646464636261605F5E5F60630C
:102D9800676D747C848C949BA0A5A7A8A8A6A39F04
:102DA80099948D87807A75716E6E6E7074787C8058
:102DB800848688898A8A8A8A8989898785817D78AB
:102DC800736D696664636466686A6C6D6E6E6F7055
:102DD80072767A81889098A0A7ADB1B3B3B2AFAA42
:102DE800A49E968F88827D79777676787A7E81859B
:102DF800898C8E9090908F8E8C8986837E7A757060
:102E08006A645F5A5552505050515456595B5E612E
:102E180064676C71777E868E959CA2A6A8A8A6A2E8
:102E28009D979089837D7875747476797D81868A7B
:102E38008E92949798999A99989694908C8680797E
:102E4800726B645E5854514F4E4E505255585B5EEB
:102E58006164676B71777E868E969DA3A7A9A9A7E3
:102E6800A39E98928C87837F7D7B7B7C7D808386E5
:102E78008A8E919496989898979694918D89847F44
:102E880079726B655F5955514F4F4F505255585C89
:102E98005F62666A6E747A81899199A0A5A9ABAAC6
:102EA800A7A39D98928D8A8785858485858688893C
:102EB8008B8D8F92949596969593918E8B87837F21
:102EC8007A756F6A645E5A565452525456595D6008
:102ED80064676A6E7175797E838990969CA1A4A6B1
:102EE800A5A39F9A948F8A86848383848586888AFB
:102EF8008B8D8F909294959696969593908D8A87C0
:102F0800837F7A746E68615A54504C4B4A4C4E51C8
:102F180054575B5F62666A6F747B81888F969BA04B
:102F2800A3A4A4A19E99948F8B898787888A8C8F64
:102F380091939597989A9C9EA0A1A1A09D99948EF3
:102F480088827C77736F6C6865615D595552504F04
:102F58004F4F5154575A5E62666B71777D848B91DF
:102F680096999B9C9A97938F8A8683828283868977
:102F78008D9194969798989796959492918F8D8A1B
:102F880087837E7974706B6864615E5C59575554A9
:102F98005352535455575A5D61666B727980878FC7
:102FA800959B9FA1A2A19F9B9894918E8C8B8A8BB5
:102FB8008C8E909396999C9E9FA0A09E9D9A979484
:102FC800908C88837E79746E68635E5A5755535225
:102FD80051504F4F4F4F5053565C626A737C858DEA
:102FE80094999D9FA09F9E9B9997949291908F8E64
:102FF8008F909294979A9EA1A3A5A6A5A4A29F9C00
:103008009A9794918D89837C746C635B544E4A477C
:1030180045444444454546484B4F555C646D767F6E
:10302800878D91949696959493939393939495966C
:103038009798999B9D9FA2A5A8A9AAAAA9A7A4A069
:103048009D999693908D8A85807972696158514AC5
:1030580045413F3D3D3D3D3E4042464A5158616AEB
:10306800747D858B90929393918F8D8C8B8B8C8EA6
:103078009093969A9DA1A5A8ACAFB1B3B4B4B3B1DF
:10308800AEABA7A29D98928C867F78716A635D57D4
:10309800514D494644424141424345494D535A6284
:1030A8006A737B82898D9091918F8C8986848383C2
:1030B80084878B90959AA0A5A9ADB0B3B4B5B5B5E2
:1030C800B4B1AFABA6A19B958F88817A746D666009
:1030D8005A544E48433F3C3A38393B3E434A515A8A
:1030E800636C747B818688898988868482818080E4
:1030F8008183868A8F959BA2A9AFB5BABDC0C1C08E
:10310800BFBDBAB6B2ADA8A39D97918B857F7974E0
:103118006F69645E58524C47423E3C3C3E42484FC1
:103128005760686F757A7D7F807F7D7B7876747352
:10313800727375787C81878D949BA2A8ADB1B5B761
:10314800B8B8B7B5B2AFAAA5A09A938C857F7873A3
:103158006E6965615D59544E4944403E3E3F444A5C
:10316800535C666F787F8386878683807C787573E7
:103178007170717375797E838990969DA3A9AEB29B
:10318800B5B7B8B7B5B2AEAAA49E98918A837D7731
:10319800736F6C69676563605C5854504D4B4B4D59
:1031A80051586069727A81868A8B8A8884817D7990
:1031B80076737271727375787C81878D949BA2A8DF
:1031C800AEB2B6B8B9B9B8B6B4B0ACA6A19B948E35
:1031D80088827C78736F6B67625E5954504C4A4A98
:1031E8004B4F545B636B737A808486878684817EB9
:1031F8007B78767473727374777B80858C9299A0D0
:10320800A6ABB0B3B6B7B8B7B5B3AFABA6A09A94F0
:103218008D87817B76716C67625D57514C4744425C
:103228004244484E555D656D747A7D7F7F7E7C791A
:1032380075726E6C6A69696A6C70747A81888F9627
:103248009DA2A6AAADAEAFB0B0AFAEACA9A5A19CE9
:1032580096908A847E78726D67615B554F4A4643C3
:103268004243464B5159616A737B82888C8E8E8D9E
:103278008B8884807C797674737375777A7F848A77
:1032880090969CA2A7ABAFB2B4B4B4B3B0ADA9A4A6
:10329800A09B96918C88837E79736C655D56504AA5
:1032A80046444445494E545B626970767C8082840A
:1032B8008483807D7A7673716F6E6F7173777B808C
:1032C800858B91979DA4A9AFB3B7B9BABAB9B6B36C
:1032D800AFAAA49F9A95908B86817C767069625B71
:1032E80055504C4A4A4B4E52575D63696F74797D0D
:1032F800808182817F7B7773706D6C6D6F73797F4E
:10330800868C92989DA1A5A9ADB1B4B6B7B7B6B34E
:10331800AFAAA5A09A95908B86817C756E67605937
:10332800524D494747494C50565B61676D717579F5
:103338007B7C7C7B7976736F6C696868696B6F736B
:10334800797F868C939AA0A6ABAFB2B5B6B6B5B363
:10335800B1ADAAA6A39F9B97928D867F776F675F73
:1033680057514C494747484A4E52575D62676B6F01
:1033780072737473716F6C69666463626364676A9D
:103388006E72777D838990969DA3A8ADB0B1B1B0D8
:10339800AEABA7A4A19F9D9B9A9895918C867F77A9
:1033A800706964605E5E5F6165686B6F7174767882
:1033B8007A7B7C7D7D7B7976736F6B6866646465E8
:1033C800676A6E73787D838990979EA4AAAEB1B21E
:1033D800B1AFABA6A19D989593918F8E8D8A878367
:1033E8007E78736D6865636466696E74797F8387B8
:1033F800898A898784817D79746F6A66625F5C5B7C
:103408005C5E61656A70767C82888E94999DA1A5C0
:10341800A7A8A7A5A29D98928C87827E7B787674B0
:10342800726F6B67635F5C5B5B5C60656C737A8112
:10343800878B8D8D8C8985807B76716D6A676563D6
:1034480062626366696E747C838B939BA1A7ACAF41
:10345800B1B2B3B2B0ADA8A39D97918A85807B78AD
:1034680075726F6C6965625F5D5D5E61666D747BC8
:1034780082888C8E8E8D8A85807B76716D69676572
:1034880065646566686B6F747980878E969DA3A85E
:10349800ACAEAFAEACAAA6A29E9A95908B86817B65
:1034A80076726D69666462616263666A6F757B8253
:1034B800888D9194959593908B86807B756F6A66BD
:1034C800625F5D5C5C5C5E61656A70777E868E9526
:1034D8009CA2A7AAACACABA8A5A19C97928D888307
:1034E8007E7A75716D696562605E5E5F62666C7337
:1034F8007A82899095999B9B9A97938E89837C76FB
:10350800706B66625F5E5D5E6063676B71777D831B
:103518008A90959A9DA0A0A09E9C9894908B878253
:103528007D78726E6965615D5A58575757595C6165
:10353800676E767E868D9397999998948F8A847E04
:103548007974706C696665646566696D72787F8682
:103558008D949BA0A5A8A9AAA8A6A39F9A96918D89
:1035680088837E79746F6A65615D5B5958585A5DC6
:1035780062676E767E878F969C9FA1A19F9B96908F
:1035880089837C77726E6B696868696B6F73797F02
:10359800868D93999FA3A6A7A7A6A4A09C97918B75
:1035A80086807B77736F6C69676462605F5E5E605C
:1035B80062676C747C858E979FA5AAADAEADA9A5F0
:1035C8009F989089817A746E6A67656566686C7180
:1035D800777D83898F9397999A999794908C868110
:1035E8007C77736F6B686562605E5C5A5857575793
:1035F800595B5F646A727A838D959DA2A6A8A8A577
:10360800A19C968F88827C77736F6D6C6C6D7073DC
:10361800777B8085898E92959799999896938F89CB
:10362800837D78726D69666361605F5D5C5B5B5A20
:103638005B5C5E62666D747C858D959DA2A6A8A76D
:10364800A4A09A938D86817C79777677797B7E8121
:1036580084888C9094979A9D9E9E9E9C9996918C16
:1036680087817C76716C67635F5B58565452515101
:1036780050515255585D636A727C858F98A0A6AAEE
:10368800ACABA9A49E97918A85817E7D7E7F828539
:10369800898D9195999C9FA2A4A5A6A5A4A29F9B5C
:1036A80096918B857E78726C66615B57524E4B485B
:1036B800464546484B50565D666F79838D969DA367
:1036C800A7A9A8A5A19B948D86817D7A797A7D800A
:1036D80084898E92969A9D9E9FA09F9E9C99969370
:1036E8008F8B87827E79736E68625C56514C484531
:1036F8004241404143464A50576069737D879099DB
:10370800A0A6A9AAA9A6A19C958F89858281818353
:10371800868A8E93979B9FA1A3A4A4A4A2A19E9BF3
:1037280097938F8A85807A75706A655F59534D477C
:10373800423E3B39393A3D42485059636D77818A58
:1037480092989B9D9D9B97938E8985817F7D7D7F98
:1037580082858A8F959AA0A4A8ABADAEAFAEACAA6D
:10376800A7A4A09C97918B857F78726B655F5A544C
:103778004F4B474341404042464B525A636D778016
:103788008990969A9C9C9A97948F8B878481808045
:10379800808285898D91969A9EA2A6A8AAABABAA8B
:1037A800A9A6A39F9B96918C86807A736D68625DAB
:1037B8005954504D4A48464545464A4E555D666FF0
:1037C80079838B9297999A9894908A85817D7B7A50
:1037D8007A7C7F83878B8F93979A9EA1A3A5A7A8AE
:1037E800A9A8A7A5A29F9B97928C867F78716962EA
:1037F8005C56514D4A484645444546494D535B65DC
:103808006F7A8590989EA2A3A29F9A95908B8683A3
:1038180082818284878A8D9195989C9FA2A5A7A969
:10382800A9A9A9A7A5A29E9A95908A847E77716A6C
:10383800645D58524E4A47444241414144474D54C1
:103848005C66717C868F969B9E9E9D9995908B87D2
:10385800838180808284888C9094989C9FA2A4A65F
:10386800A7A8A8A8A7A5A3A19E9A96918B857F79BA
:10387800726B645E57514B46413D3B393A3B3F447E
:103888004B545E68737D878F95989A9A9895918C1A
:1038980088858381818385888D91969B9FA3A7AA1C
:1038A800ACADADADADABA9A7A4A09D99948F8A8509
:1038B8007F79726B645D564F48423D3936353538ED
:1038C8003C424A525C6670788085888A89878581FF
:1038D8007E7B7978787A7C80848A8F959BA1A6AB49
:1038E800AEB1B3B4B4B3B2B0AEABA8A5A19C979235
:1038F8008D87827C766F68615A534B453F3B3838D9
:10390800393C41485059636C747B8185878786842C
:10391800817E7B7A797A7C7F83898E959BA0A5AA04
:10392800AEB1B3B4B5B5B5B3B1AFACA9A5A19D98C7
:10393800948F8A847E78716A635C544E47423E3B1A
:103948003A3A3C40454C545C656E757B8083848371
:10395800817F7C797878797B7F848A90969CA2A7EE
:10396800ACB0B3B6B9BABBBAB9B7B5B2AEAAA6A12C
:103978009D98938E89837D766F68615A534C464132
:103988003D3A39393B3F454C535C646C72787C7FD7
:10399800807F7E7C7A7978787A7D82888E959CA3E0
:1039A800A9AEB2B5B8B9BABAB9B8B6B4B1AEA9A5E4
:1039B800A09B958F8A847E77716B645D56504A45CB
:1039C800413E3D3D40444A51585F666C7275787877
:1039D80078777573706F6D6D6D6E7174797F858C86
:1039E800949BA2A8ADB2B5B8BABBBBBBBAB8B6B3C4
:1039F800AFABA6A09A948D867F787069615A534DB3
:103A0800484441404144494F565E656D73797D7F16
:103A18007F7E7C797673706D6C6B6C6E71757A7F56
:103A2800858B91979DA2A7ABAFB2B4B5B6B5B4B329
:103A3800B0ADA8A39E98928C857F78716A635C5517
:103A48004E494442404144494F575E666E74797C02
:103A58007D7D7C797673706D6B69696A6B6E727740
:103A68007C82888F959BA0A6AAAEB2B5B7B9BAB921
:103A7800B8B6B2ADA8A29C96908A857F79736D6618
:103A88006059534E4B49494A4E535960686E757A8E
:103A98007D8081807F7C797673706F6E6E6F7175B3
:103AA800797E83888E93989DA2A7ABAEB2B4B5B643
:103AB800B5B3B1ADA8A39E98928C86807A736D66D3
:103AC800605A55504D4B4B4C4F53585D646B717752
:103AD8007C80828383817E7B7773706C6A68686878
:103AE8006A6C7074797E848B91979DA2A7ABAFB1F5
:103AF800B3B4B4B2B0ADA9A59F9A948E88817A73F5
:103B08006C655E58524E4B4A4B4D51565D646C7312
:103B18007A8085888A8A8885827D7874706D6B6AD8
:103B2800696A6C6E71757A7F848A90969CA1A6AA40
:103B3800ACAEAFAFAFADABA8A49F9A948D877F789A
:103B48007069625B55514D4C4C4D51555B626970C3
:103B5800777E83888C8E8E8D8B87827D7874706D4E
:103B68006B6A6A6B6D7073787D828990979EA5AB3E
:103B7800AFB3B6B7B6B5B3B0ADA9A4A09A948E87C3
:103B88007F787069625C5753515152555A5F666C21
:103B980073797E828587888785827F7B76716D6859
:103BA800656260606163666B70767C838A90969CC0
:103BB800A0A4A7AAABABAAA9A7A5A29E99948E88F0
:103BC800817A736C66615D5B5A5B5D6064696E7374
:103BD800777B7E8182838382807E7B77746F6B673D
:103BE80063615F5F5F6265696F757B82898F969C91
:103BF800A1A6A9ACAEB0B0AFAEABA9A5A29D979156
:103C08008A837B726B635E595756575A5F646A7032
:103C1800767C818587898A898885827E7975706CAA
:103C2800686563626364676B70757B81878C929645
:103C38009A9DA0A2A3A3A4A3A3A1A09E9B98948F9E
:103C480089827B736B645D5854525153565A60672E
:103C58006E757C82888C8F908F8E8A86827C777333
:103C68006F6B69676767696B6E72777D838A9198F6
:103C78009EA3A7AAABACACACABAAA9A8A6A4A19ECC
:103C880099938C857D756E66605B58565556595D5F
:103C980062676D73787D8083848483817E79746F95
:103CA8006A6662605E5E5F6164676B6F74797F8568
:103CB8008B91979CA0A3A5A6A6A5A3A2A09F9D9B18
:103CC8009894908A847D766F69635E5B5958585AD8
:103CD8005D61666C737980868A8D8F8F8D8985800A
:103CE8007B76726F6C6B6A6B6D6F72767B7F858A81
:103CF80090959A9FA3A6A9AAAAAAA9A8A6A3A19E95
:103D08009B97928D877F787069625D59575657598E
:103D18005C6064686D71767A7E8184858584817D36
:103D280079746F6B68666667686B6E7175797E8388
:103D3800898F969CA2A7ABAEAFAFAFADABA9A6A338
:103D4800A19D99948E877F766E66605B5857575908
:103D58005C5F63666A6D7072747678787877747170
:103D68006D68635F5C5A59595B5D5F63676C727815
:103D780080889099A1A7ADB1B3B4B4B3B2B0AFADD8
:103D8800AAA8A49F98918980776E67625F5D5E603C
:103D980063676B6F7376797B7C7D7D7D7C7B7875C3
:103DA800716C67625D5A575657595B5F64696F76E5
:103DB8007D858D959CA3A9AEB1B3B3B2B1B0AEADBC
:103DC800ACABA9A6A29C958C8379706963605E5F91
:103DD80061656A6E7376797C7D7E7E7D7C7A787586
:103DE800726F6B6864615E5C5B5A5C5E62676D747F
:103DF8007C848C949CA2A8ADB1B4B6B7B7B7B6B45E
:103E0800B2AFACA8A39E9790877F766E67615D5B23
:103E18005B5C6064686D717477797A7B7A7A78779D
:103E280074716E6A66615E5A585656585B5F656C67
:103E3800747C858D949BA0A4A7A8A9A8A7A6A4A2D2
:103E4800A09E9C9996918C8680787169635D59577C
:103E580057595D62686D7276797B7C7D7D7C7C7B51
:103E68007B797773706B66625E5C5A5B5C60646AD0
:103E780071787F878F979EA4AAAEB0B2B2B1AFAD6A
:103E8800ABA8A5A3A09D99948F88817A736C67636A
:103E980060606164686C7075787B7C7D7D7D7D7DFC
:103EA8007C7B7977746F6B65605C595757595D6295
:103EB800686F777E868D949BA1A7ABAFB1B1B0AD8B
:103EC800AAA6A19D9995918D88837E77716B65606F
:103ED8005D5C5D5F63686D72777B7E8183858686B6
:103EE800868684827E7A75706A65615E5D5D5E62D3
:103EF800666C727A818990979DA2A7A9ABABABA992
:103F0800A7A4A09D9995918C87827C76706A65613B
:103F18005F5D5D5F6165696D72777B7F8386898B85
:103F28008B8B8A8784807C78736F6B68666565671E
:103F38006A6E747B838A92989EA2A5A7A7A7A5A359
:103F4800A19E9C9995918D88827D77726D69666531
:103F5800646567696C6F717476787A7B7D7F82841B
:103F68008687878785817D78726D686462616264FF
:103F7800686D737A80878D93989C9E9F9F9E9C9A6C
:103F88009794918E8B898683807D7A777572706F0E
:103F98006E6E6F70717274757778797B7C7D7E80B8
:103FA800818283848483807D79746F6B6766666899
:103FB8006C72787F858B909395969696959493924C
:103FC800908E8B89868482807E7D7C7B7A797876D8
:103FD800757371706F6F6F6F707071727476787BB4
:103FE8007E82858788898785817D7874706E6D6EFD
:103FF80071757B81878E93979A9C9C9B99969390D9
:104008008D8A87858382818181818283838382806F
:104018007E7C797775737170706F70707173757954
:104028007D8185898C8D8C8A86807A746F6B6969AD
:104038006B6F73797F84898E919395959492908D07
:104048008A8783817F7D7C7C7C7C7C7D7D7E7E7D78
:104058007D7C7B7A78767471706E6D6E6F71747812
:104068007C8186898C8E8E8C89847F7A746F6C6A49
:10407800696B6D72777C82878C90939697979695EB
:1040880093908E8B888583817F7D7C7B7A7A797902
:104098007A7A7A7A7A797876757372717273767AAF
:1040A8007E8286898B8C8B8986827D78736E6A671F
:1040B800656466696D737980878D919597989796F1
:1040C8009492908D8B898684817E7C7A78777777B5
:1040D8007878797A7A7A7A7B7B7B7C7D7F81838614
:1040E800888A8C8D8D8C8B8885827D78736E6964C7
:1040F800615F5E5F62676D747B82898E9193949332
:104108009291908E8E8D8C8B898784817D7976743F
:104118007373737577797A7C7E8081838587898CC0
:104128008E8F90908F8E8D8A8885827E7A75706C3E
:104138006763605F6063686E757C83898E91929215
:1041480091908E8D8D8C8D8D8D8C8A87837E7974E0
:10415800706D6B6A6B6D7073777C8084888C9093BC
:1041680096989A9A9A9896938F8B87827D77726D94
:104178006863605D5D5E61656B72787F8487898A3C
:104188008988868483838384858687868583807DE2
:104198007976747272727375777A7D8185888C905E
:1041A8009497999B9B9B999794908B86807A746E31
:1041B80068635E5B5A5A5C60656C737A808588892F
:1041C80089888684828180808182838484848280B5
:1041D8007D7A7673706E6E6E6F7275797D81868B5F
:1041E8008F9397999B9D9C9B9995908A847D766FD8
:1041F80068625D5A5756575A5E646A727980868A31
:104208008D8E8D8C8A888686858686878888878520
:10421800827F7B777472706F707174787C82878EFE
:10422800949AA0A5A9ABACACA9A6A19B948C857DBA
:10423800766F6964615E5E5F62666B71787E8387A4
:104248008A8C8C8B8A8886858483838282817F7C12
:104258007975726E6B69676768696C6F73787E854C
:104268008B92989EA3A6A8A9A8A6A39E99928C858E
:104278007D76706A65615F5E5F62666A70767B8074
:104288008487898A8A898886858382807F7D7B78EE
:1042980075716E6B6866656566686B6E72777C8231
:1042A800888D93989C9FA2A3A2A19E9A95908A8399
:1042B8007D766F6964605D5C5D6064696F757B8144
:1042C80085888B8C8C8C8B89888684817E7B7773A0
:1042D8006E6A6663605E5E5E5F62656A6F757B814B
:1042E800888E959A9FA3A6A7A8A6A3A09B958E881B
:1042F800817A746E696563626265686D72787D82C1
:1043080086898B8D8E8E8F8F8F8F8E8C8A87837FF9
:1043180079736E6864615E5E5F61656A70777E85D9
:104328008D949AA0A5A9ACADAEACAAA6A19B948D7C
:10433800857D766F6A6562616163666B70767C8283
:10434800878A8D8F8F908F8F8F8F90908F8E8B888D
:10435800837D77706A6562606163666B71777E845E
:104368008A90959A9EA1A3A4A3A29F9B96908A82C5
:104378007B736B645E5955535254575C61676E7416
:104388007A7F8285878888888989898988878582CC
:104398007E79736E69666465676B70777D83898ED5
:1043A800919497999A9C9D9D9C9A97938E88827BCD
:1043B800756F6965615F5D5D5D5F62676D737A8169
:1043C800888D919495949392908F8E8D8C8A888500
:1043D800827D7874706D6B6C6E72767C82878C903F
:1043E80093969798999998979593908D8985817EBA
:1043F8007A76726F6B686563616263676B71787EEA
:1044080084898C8E8E8D8B8987858382807D7A7650
:10441800716B66615D5C5C5E62676E747B81878BC5
:104428008F9395979898989694918E8A878482808E
:104438007F7D7C7A787572706F6F7073787E848AEE
:10444800909496979694918E8B89878684827F7BA9
:1044580076716B6763616163676C71777D8286894A
:104468008B8D8E8F8F8F8F8E8C898683807E7C7BC1
:104478007A7A79787673706E6B6A6B6D71777D84F2
:104488008A8F929393918F8D8A88878584827F7B88
:1044980076706B65615E5D5D60656B71787E848941
:1044A8008D9093959798999A9998979593908E8BC4
:1044B800898683807D7975726F6C6C6D6F74797F76
:1044C800868C9093959593918E8C89878583807D32
:1044D80079746F6A65615F5F6063686D73787D8109
:1044E8008487898B8D8F92949698999A99979592AB
:1044F8008E8A86817C77726D6966646465696D737E
:10450800798085898C8D8D8C8A878583807E7B7860
:1045180075706B66625E5B5A5A5C5F64696E73772E
:104528007B7F8286898D92969BA0A5A8AAABAAA715
:10453800A39E98918B847E78736F6D6C6C6D70748C
:10454800787D82868A8C8D8D8C8A8784817E7C7921
:1045580076726E6A65615D5A59595B5E62666B6F09
:1045680073777A7C7F83878C92989FA5ABB0B3B41E
:10457800B4B2AEA9A29B938B837D77726F6D6C6D7D
:104588006F7276797D808385858584827F7B77725B
:104598006D6964605D5B5959595A5D6064686C70F7
:1045A8007476797A7B7D7E8184898F959CA2A7AB6E
:1045B800ADADAAA6A19A938C86817C79767575761D
:1045C80077797C8083878A8D8F908F8E8B88837E86
:1045D8007975706D6A68676768696B6C6E6F6F7004
:1045E800706F6F6E6E6E6F7174777C828990979D15
:1045F800A2A5A6A6A39F9A948E88837F7C7A7A7AAE
:104608007B7D7F818486888A8B8C8B8A8886837F52
:104618007B76706B66625F5D5D5E6064686B6E7012
:1046280071706E6C6A6868696C70767E858D949A14
:10463800A0A3A5A6A5A39F9B97928E8A878584830E
:104648008484858788888989898A898988878582F1
:104658007F7B76716C67646261626366696B6D6E9D
:104668006E6D6C6A686766686B6F757C838A9197F4
:104678009B9FA0A1A09F9C9996928E8B88858483EE
:10468800838485868889898A8A8988878684827FBF
:104698007C78746F6A6662605F5F606366696C6E7F
:1046A8006F6F6E6D6B6A6B6C6F747A818991989E6F
:1046B800A2A5A6A5A3A09D9996928F8C8A88868686
:1046C800858686888A8C8E8F9091908F8D8B888432
:1046D800817D7975716D69666463636466686B6D05
:1046E8006E6F6E6D6B696868696C71777E868E9681
:1046F8009CA0A3A3A2A09C98938E8985817E7B7A97
:1047080079797A7C7E808284858787888786858385
:10471800807D7A76716D69666462626466696C6FC1
:10472800717272716F6C696867686B70767D858D60
:10473800959A9FA1A1A09D98938E8984817E7C7B68
:104748007A7B7C7E808385888B8E919395969594D1
:10475800918D89847E7974706C6A69696A6C6F71ED
:1047680074767778787776747372727376797E84D4
:104778008A9095999B9B99958F89837D7873706EA4
:104788006C6C6C6D6E7072767A7E84898E93969856
:10479800989794908B85807B77747271717172741D
:1047A80076787A7B7D7E7E7E7E7E7E7F8183868B19
:1047B8009095999EA0A2A19E9A948E87817B7672ED
:1047C800706F6E6F6F70727476797C8084888C8F4E
:1047D80091908F8B86817B75706C6A6969696A6C48
:1047E8006D6F70727476797C7F8184858788898BF8
:1047F8008C8E91939698999896928D867F78726D03
:104808006A6868696B6D6F72747577797C7E81836D
:1048180085868685827E7A75706C6866656565674B
:10482800696B6E707375787B7E8185888A8D8F91B0
:1048380093959697989999989794908B85807A757F
:10484800716F6D6E6F7174777A7D7F8183848586D1
:104858008787878684827F7B76726E6A68666666DB
:1048680067696C6E7275797C8084888C8F92949657
:10487800979898999A9A9A9A999794908B857F7A0B
:1048880074706E6C6C6D6F7174777A7D80828587B9
:10489800898B8C8C8B8986837F7A75706B67636153
:1048A80060606163666A6E72767A7D808386898CC1
:1048B8008F9295989A9B9C9C9B999794908B8783B1
:1048C8007F7C79787778797B7E818386888A8C8DDE
:1048D8008E8E8E8D8B898784807C77726D686460FC
:1048E8005E5D5E5F63676B7074787C7E80838587AE
:1048F8008A8D9093959697979694928F8C8A8784B1
:10490800817E7B79787778797C7F83868A8D8F9092
:1049180091908F8D8A86827D78736E69645F5A570D
:104928005453525356595D62686D72767A7D81840C
:10493800888C9095999DA0A1A1A09D9995918E8B09
:104948008886858382807F7D7C7C7C7D7F8285884C
:104958008A8C8D8D8D8B8884807B756F69635D589B
:10496800545250505254585D63696F747A7F8387EC
:104978008B8F9296999C9FA2A3A4A3A19E9B979488
:10498800918E8C8B8A8988878685848484848587A0
:10499800898A8C8C8C8B8986837E79736D67615B41
:1049A80056524E4C4C4D50555B61686F757B8084F8
:1049B800888B8E9195989C9FA2A4A4A4A3A09D9A4D
:1049C8009693918F8E8C8B8A88868482817F7E7D58
:1049D8007D7E7F8081828383817F7C78726B645D3A
:1049E80056504B4847484B4F555C636970757A7E03
:1049F800818487898C8E90919293949494939291C8
:104A0800908F8E8E8D8C8C8C8C8B8B8A89888684EB
:104A180082807E7D7C7C7D7E7F8081807E7B7772BC
:104A28006C66615D5B5A5C60666C737B81878B8E9C
:104A380090919191908F8E8E8D8C8C8B8B8B8B8C93
:104A48008D8E8E8F8F908F8F8E8C8B898784827EB0
:104A58007B7773706E6C6B6C6D6F7173747472703E
:104A68006C6864615F5F61656A71787F858A8E9022
:104A780091908E8B8885827F7E7D7E808286898DCF
:104A88009093969798999999989898979693908CC7
:104A980087827C77726F6D6C6D6E6F7071706F6CE2
:104AA8006A676463626365686C71767C8185898DE9
:104AB8008F90908E8D8A87858382828385898C905A
:104AC8009497999A9A9A9A9A999998979694908C71
:104AD80087817B75716D6B6B6C6D6E6F706F6D6BB5
:104AE8006764615F5E5E6063676C72777D82878BE7
:104AF8008E909191908E8C8987868586888B8F93EE
:104B080096999B9D9D9C9B99979593908D89847F61
:104B180079736D69666463646567696A6A68666201
:104B28005E595653525254575B60656A6E72767A74
:104B38007D808486898B8D8F91929496989B9DA079
:104B4800A2A4A5A5A5A4A2A09D9B9895928E8983B1
:104B58007D77716C686666676A6D6F7172706D6972
:104B6800635E595552525355585D6165696D70744D
:104B7800777A7E83878C91969BA0A4A7AAACAEAFC8
:104B8800B0B0B0AFAFAEACAAA8A5A29D98928B84E6
:104B98007D766F6A66646364676A6D6F7171706E43
:104BA8006A66615D5B5A5A5D6064686C70727373A3
:104BB8007373727375787B80868C93999FA4A8AB66
:104BC800AEAFB0AFAFAEACAAA7A5A19D98938C85A8
:104BD8007E78726C6966656667696A6B6B6B696714
:104BE80064615E5C5B5A5B5E6164696D7073757568
:104BF800757372706F6F7074797F868E959BA0A4A1
:104C0800A7A8A9A9AAAAAAABABAAA8A6A29C968F4C
:104C180088817A74706C6A69696A6B6B6B6B696797
:104C280063605D5A59595A5D60656A6E727475752C
:104C380074737170707173777C82888F969CA1A54C
:104C4800A8ABACADAEAFB0B0B1B1B0AFACA8A39D9E
:104C5800968F88827C7773706D6B696765625F5C1D
:104C68005956535150505154595E646A6F73767750
:104C780077767472717173777C82898F959A9EA00A
:104C8800A2A3A3A4A4A5A7A8A9AAABABA9A7A4A1BA
:104C98009C97928D88837F7B7773706C6965615D63
:104CA800595552504E4E4F52555A5F64686C6E704B
:104CB800706F6E6D6C6D7073797F858C92969A9C0F
:104CC8009D9E9E9E9FA0A1A2A3A4A4A3A19F9C99E0
:104CD80096928F8C8885817D7A7774716E6C696500
:104CE800625E5A565351515254585C6165696B6CF7
:104CF8006C6B6A6A6A6B6D71767C838A90969A9DF2
:104D08009F9F9F9F9E9E9FA0A1A3A5A7A7A7A6A57B
:104D1800A29F9B97938F8B8783807C797673716E24
:104D28006C696663605D5C5B5D5F62666A6D6F702F
:104D38006F6C6966646465686D737A81888E929613
:104D4800999B9C9C9D9D9C9C9C9C9B9B9A9A9998AA
:104D5800979593918E8A87837F7C79777573716F26
:104D68006C6A676562605E5E5F6063676A6D7071DA
:104D7800706E6B6864626161646970777F868D921A
:104D880096989A9A9A9A9B9B9C9D9E9FA0A0A09F5A
:104D98009E9C9A9794918D8A8784817E7C7A777578
:104DA800726E6B6764615F5E5F6164686C6F71737C
:104DB80072716E6A676361606164696F767E868D01
:104DC80094999D9FA0A1A0A09F9FA0A0A2A3A4A5E5
:104DD800A5A4A29F9B96908B86827E7C797775731B
:104DE800706D6965615E5C5C5D5F62666B6F727554
:104DF800757573706C6966646364676C72798087B3
:104E08008D93979A9B9C9B9B9A9A9B9C9D9FA1A3F1
:104E1800A4A4A3A19E9995908B86827E7A76736FBF
:104E28006C68635F5B58565455575A5E63696E7376
:104E3800767879787673716E6D6D6E71767B82890E
:104E480090969B9EA0A09F9D9A97959392939496D7
:104E5800989A9B9B9B999795928F8C8986827E7A4C
:104E6800746F69645F5B5755545556595C61656941
:104E78006E7173757575737271707172767A8087D9
:104E88008D94999D9F9F9E9B9894908C8A89898BDD
:104E98008D9093959797979593908C8885817D7938
:104EA800746F6A65605C58565657595C6064686BE5
:104EB8006D6E6F70706F6F6F70717375797D8389A8
:104EC80090979DA2A5A6A5A29E9994908D8B8B8C58
:104ED8008E909295969797979694918E8A86817CD4
:104EE80077716C67625E5C5A595A5B5E62666A6E7D
:104EF800727476777776757473727375787D828835
:104F08008F959A9FA2A3A3A19E9A96928F8D8B8B21
:104F18008B8C8E8F9090908F8E8B8985817D797404
:104F28006E69645F5B58565555575A5E62676B6F7A
:104F380072747576757574737374767A7E848A91D3
:104F4800979CA1A4A5A5A4A19E9995918E8C8A89C8
:104F58008A8B8D8F90929392918F8B87827C766FBC
:104F680069635E5A5755545556595D62676D727735
:104F78007B7F8081807E7B78767575777A7F858B5D
:104F880092979CA0A3A4A4A3A19E9B97938F8B8880
:104F98008583828283858688888785827D78726DFD
:104FA80067625E5B595857585A5C60656A70767CD0
:104FB800808486878684827F7D7D7D7F83878C91B0
:104FC800969A9EA0A0A09F9E9C99979492908E8C52
:104FD8008A898888888888878685827E79736D67BC
:104FE800615C585453525254575A5F64696F757BC9
:104FF80080848788878683817E7D7C7E8084898E75
:1050080094989C9FA1A2A19F9D9B9894918E8C8916
:10501800888786868686868685837F7B76716C669A
:10502800615D5A585757585A5D61666B70757A7E3C
:1050380082848686858482807E7D7C7C7E8184894C
:105048008E93989C9FA1A2A2A09E9B9895928F8DCB
:105058008C8B8B8A8B8A8A898784817C77716C6632
:10506800615C5956555556585B5F64696F74797E13
:1050780082848687868583817F7D7D7D7E81848805
:105088008C9195999D9FA0A09F9E9B989592908E9C
:105098008D8D8C8C8B8A8784807C76716B65605B48
:1050A8005653504E4C4D4E5054595E656B72787D38
:1050B80081848687868483807E7D7C7B7C7E8084D9
:1050C800878B9093979A9B9C9C9B9997959391908B
:1050D800909091929292908D89847F78726C676299
:1050E8005E5A585654545556595D62686F767D839A
:1050F800888C8E8F8F8E8B898583807E7E7E808341
:10510800878B8F94979A9B9C9B999795949393934D
:1051180094959797979794918D88837C76706A6415
:105128005F5B57545251515254575C61666D737AA4
:1051380080858A8D8F908F8D8B88858382828386E8
:105148008A8F949A9EA2A4A5A5A3A19D9A979493A9
:1051580091919190908F8D8B88847F7A756F696417
:105168005F5A55524F4D4C4D4E5154585D63696EC0
:10517800747A7F83868889888785848281828487F8
:105188008B90959BA0A4A8AAAAA9A8A6A3A09D9B1A
:105198009997969492918E8B88847F79746E6862C1
:1051A8005D5954514F4D4C4C4C4E5053565A5E63BA
:1051B800686D72777B7F828485858584838282840B
:1051C800868A90969CA2A7AAADAEADABA8A5A29ED2
:1051D8009C999794928F8C88847F7A756F6A645FA4
:1051E8005B5753514F4E4F505255585B5F6265683D
:1051F8006B6E717476797B7D7F8080808080808201
:1052080084878C91989EA5AAAFB2B3B4B3B1AFAC62
:10521800AAA7A4A19E9A96918C87817B76706B66CB
:10522800615C5854514F4E4F505255585B5F626500
:10523800686A6D6F727477797A7C7C7D7D7C7D7D00
:105248007E8084888E949AA1A8AEB3B6B9BAB9B74D
:10525800B5B1ADA9A5A19C98938E89837E78726D0E
:1052680067615C57524F4D4B4B4C4F52565A5E62DA
:10527800666A6D70727577797B7C7D7D7C7B7A7AC6
:105288007A7A7D80848A90979DA4A9AEB1B4B5B688
:10529800B5B4B1AEAAA6A19D98938F8A85807A7479
:1052A8006E68625B56514D4B4A4B4D5054585C608A
:1052B80064686B6E7174777A7C7E808080807F7E74
:1052C8007D7D7E8184888D93999FA4A9ADB0B2B36A
:1052D800B3B3B1AEABA6A19C96918B86817C787452
:1052E8006F6B66615C57524F4C4B4B4C4F53585D3C
:1052F80062676B6F73777A7D80828485858482800C
:105308007E7C7A7A7B7E81868B9095999DA0A3A5D9
:10531800A6A7A7A7A5A3A09C97918B857F7A75714F
:105328006E6A6764605C5855514E4C4C4C4E5256F0
:105338005B61676D72787D8185888B8E8F8F8E8D8E
:105348008A888583828384878B9095999DA1A3A55C
:10535800A7A8A9AAAAA9A8A5A19B958E86807A76AE
:1053680072706E6C6A6865615D5956545353545730
:105378005B6064696E73787C8084878A8C8D8D8C81
:105388008A87858281807F808285888B8F92959895
:105398009B9DA0A2A4A6A6A6A4A19C968F88827C69
:1053A80077747271706F6D6B67635F5B5855555595
:1053B800575A5E62676C71767B8085898C8F908F77
:1053C8008E8B888582807F7F80828486888B8D8F74
:1053D8009194979A9DA0A2A4A4A3A19D97918B852F
:1053E8007F7A7673706E6C6A6764605C5855525148
:1053F8005254575C61666B7074787B7E81838585B7
:10540800858483817F7D7D7D7E8083878B8E92944A
:1054180097999C9EA1A4A7AAABACABA8A49F99926C
:105428008C86817C7875726F6C6965615E5B585794
:1054380057585B5E63676C7175797C7F8183848460
:105448008483817F7C7A7978797A7D8185898D9149
:105458009496999B9DA0A2A5A7A7A7A6A29E98925D
:105468008C86817D797673706D6A66625E5A57554F
:10547800545455585C60656A6F73787B7E8082836C
:105488008282807E7C7A78777777797C80858A8F2C
:1054980094999C9FA1A3A4A4A5A4A4A2A09C98931A
:1054A8008D87827D797673716F6D6A67635F5A57EE
:1054B80054535355585C62676D73787C7F82848639
:1054C8008686858482817F7E7D7E8082868B90958C
:1054D8009A9FA2A5A7A9A9AAA9A9A7A5A29E999397
:1054E8008D86807B7774716F6D6B6966625D5854C9
:1054F800504E4E4F52575D646A71767A7E80818233
:105508008281807F7E7C7A797777787A7D81878CB3
:1055180092979CA1A4A7A8AAAAAAAAA8A5A29D9660
:105528009088817B75716E6D6C6C6C6B6A67635F5C
:105538005B57555354565A60666D737A7F848789D2
:105548008A8A8A888683807D7A78767677797C815C
:10555800868B91969BA0A3A6A9AAABABAAA8A49F49
:1055680099928B837D7773706E6D6C6B69676461DC
:105578005D5B5958595C61666C72777C8083858560
:1055880085858482807E7C7A787675757577797C56
:1055980080858A8F94999EA2A6AAADAEAFADABA71F
:1055A800A29B958E88827E7B797877767573706DED
:1055B8006A666361606163666A6F74787C7F828300
:1055C800848483817F7C797673716F6E6E6F71745A
:1055D800787B7F83878B9094999DA2A5A8AAAAA877
:1055E800A49F99928B847E7874706D6A67646260F8
:1055F8005E5D5C5D5F6265696E72777B7E818385C7
:1056080085858482807D7A777472717171727476FF
:10561800787B7E8185898E92979CA0A4A6A7A7A552
:10562800A19C97918B85807C7875726F6B6864619B
:105638005E5C5B5A5B5D6064686C6F7376797C7ED8
:105648008081828281807E7D7B7A7979797A7B7C80
:105658007D7F818386898D92989DA3A7ABADAEACE3
:10566800A9A59F99928B857F7A75716D6966625F2E
:105678005C5A59595A5C5F62666B6F73777A7C7EA5
:1056880080818283838382828282828384858687E3
:105698008889898A8B8D9094989DA2A6AAABABA97C
:1056A800A5A09A948E87827C78736F6A66635F5C24
:1056B80059575757585A5D6065696D7175777A7B88
:1056C8007C7C7C7D7D7D7D7E7F81838486888A8CC1
:1056D8008E8F91929496999C9FA3A7ABADAFB0AED5
:1056E800ABA7A29C958E87817A746E68625C5753CB
:1056F800504E4E4F52565B60656A6E727577797A76
:105708007B7C7C7C7C7D7D7D7E7F8082838486879C
:1057180088898B8D8F93979B9FA4A7AAACACABA8C5
:10572800A5A09A958E88817A736C655E58534F4C04
:105738004B4B4C4E5255595D6165686B6E70727477
:10574800757677777878797B7D7F8285888A8C8E65
:105758009091939497999CA0A4A8ABAEAFAFAFAD2E
:10576800AAA6A19C97918B857E776F68615B56523C
:105778004F4E4F5154575B5F63666A6D707376780E
:105788007A7B7C7C7B7A7979797A7B7E8184888B39
:105798008E919396989C9FA3A7ABAFB2B4B4B4B2C2
:1057A800AFABA6A19C968F88817A726B645D5854C2
:1057B80051504F5051525457595C5F63666A6D6F30
:1057C800717374747474757577787B7D808385883C
:1057D8008A8C8E909396999DA1A5A8ACAEB0B1B0D5
:1057E800AFACA9A5A09B958F88817A746D67615C21
:1057F800585452504F4F4F50525456595C5F62653F
:1058080067696A6B6C6E6F7174777B7E8285878936
:105818008A8C8D8F9194989CA0A5A9ADB0B2B4B490
:10582800B4B3B0ADA8A39D968E867F77706A656184
:105838005D5B595756565657585A5C5E616466699F
:105848006B6C6D6E6F70717375787B7E81848689E1
:105858008B8C8E909295989B9FA3A6A9ACADAEAE6B
:10586800ADACA9A6A29D98928B847E78726C686470
:10587800605D5B5857555554555657595C5E616382
:10588800656668696B6C6E7173777A7E8185888AC4
:105898008C8E8F9091939496999C9FA2A6A9ABAD5C
:1058A800ADADACA9A6A29D97918B857F7974706CDC
:1058B800686563615F5E5E5E5E5F616366696B6EAD
:1058C800707273737474747474757677797B7E816F
:1058D80084888C909396999A9C9C9D9D9E9FA0A24B
:1058E800A3A4A4A3A09D98938E89837F7B777471CA
:1058F8006D6966625F5C5A59595A5C5E6063656699
:1059080068696A6B6B6C6D6E6F6F70727375787B9C
:105918007F83878B8F9396989B9D9FA1A3A5A7A90B
:10592800ABACABAAA7A39F99948E89847F7B77722F
:105938006F6B68656463636567696C6E70717171BC
:1059480071706F6F6F6F6F6F6E6E6E6E6E6F727558
:105958007A7F848A8F94989A9C9E9FA0A1A3A4A5DD
:10596800A6A6A6A4A19D98938E88837E7975706B50
:1059780067635F5C5A59595B5D606366686A6B6A06
:105988006A6867666665666667696A6B6D6F727670
:105998007A7F858A90959A9DA0A2A3A5A6A7A9AA71
:1059A800ACADADACAAA6A29C96908A847E78736EA4
:1059B8006A65625F5D5C5D5E6164676A6C6E6F6F8D
:1059C8006E6C6A696867666768696A6C6E7072751A
:1059D800797C80858A8F94989CA0A3A5A7A8A9AA5A
:1059E800AAAAA9A8A7A4A19D99948E88837D777255
:1059F8006D6865626160616366696C6F7173747408
:105A0800747372706F6E6C6B6A6969696B6D7073B1
:105A1800777B7F8386898B8D8F9294979A9C9FA0A2
:105A2800A1A1A19F9D9B99979593908D8985817C34
:105A380077726F6C6A69696A6B6D6E707173747571
:105A48007677777776767473716F6E6D6D6E707228
:105A580075787C7F828486888A8C8F919496999BAE
:105A68009C9D9C9B9A989694918F8C8985817C7833
:105A7800736E6A6866656667696B6D6F7173757852
:105A88007A7D7F818282817F7D7A77757575767858
:105A98007A7D80828486888A8C8E919497999B9B44
:105AA8009B99979592908D8B898784817E79757063
:105AB8006B6764626161626466696C6F7275787C39
:105AC8007F82858788878583807D7A7876767778E0
